{
  "contractName": "PropertyManagement",
  "abi": [
    {
      "inputs": [],
      "stateMutability": "nonpayable",
      "type": "constructor"
    },
    {
      "anonymous": false,
      "inputs": [
        {
          "indexed": true,
          "internalType": "uint256",
          "name": "propertyId",
          "type": "uint256"
        },
        {
          "indexed": false,
          "internalType": "address",
          "name": "winner",
          "type": "address"
        },
        {
          "indexed": false,
          "internalType": "uint256",
          "name": "amount",
          "type": "uint256"
        }
      ],
      "name": "AuctionEnded",
      "type": "event"
    },
    {
      "anonymous": false,
      "inputs": [
        {
          "indexed": true,
          "internalType": "uint256",
          "name": "propertyId",
          "type": "uint256"
        },
        {
          "indexed": false,
          "internalType": "uint256",
          "name": "startingPrice",
          "type": "uint256"
        },
        {
          "indexed": false,
          "internalType": "uint256",
          "name": "duration",
          "type": "uint256"
        }
      ],
      "name": "AuctionStarted",
      "type": "event"
    },
    {
      "anonymous": false,
      "inputs": [
        {
          "indexed": true,
          "internalType": "uint256",
          "name": "propertyId",
          "type": "uint256"
        },
        {
          "indexed": true,
          "internalType": "address",
          "name": "bidder",
          "type": "address"
        },
        {
          "indexed": false,
          "internalType": "uint256",
          "name": "amount",
          "type": "uint256"
        }
      ],
      "name": "BidPlaced",
      "type": "event"
    },
    {
      "anonymous": false,
      "inputs": [
        {
          "indexed": true,
          "internalType": "uint256",
          "name": "propertyId",
          "type": "uint256"
        },
        {
          "indexed": true,
          "internalType": "address",
          "name": "bidder",
          "type": "address"
        },
        {
          "indexed": false,
          "internalType": "uint256",
          "name": "amount",
          "type": "uint256"
        }
      ],
      "name": "BidWithdrawn",
      "type": "event"
    },
    {
      "anonymous": false,
      "inputs": [
        {
          "indexed": false,
          "internalType": "uint256",
          "name": "leaseId",
          "type": "uint256"
        },
        {
          "indexed": false,
          "internalType": "uint256",
          "name": "propertyId",
          "type": "uint256"
        },
        {
          "indexed": false,
          "internalType": "address",
          "name": "landlord",
          "type": "address"
        },
        {
          "indexed": false,
          "internalType": "address",
          "name": "tenant",
          "type": "address"
        }
      ],
      "name": "LeaseCreated",
      "type": "event"
    },
    {
      "anonymous": false,
      "inputs": [
        {
          "indexed": false,
          "internalType": "uint256",
          "name": "leaseId",
          "type": "uint256"
        },
        {
          "indexed": false,
          "internalType": "uint256",
          "name": "daysRemaining",
          "type": "uint256"
        }
      ],
      "name": "LeaseExpiringSoon",
      "type": "event"
    },
    {
      "anonymous": false,
      "inputs": [
        {
          "indexed": false,
          "internalType": "uint256",
          "name": "oldLeaseId",
          "type": "uint256"
        },
        {
          "indexed": false,
          "internalType": "uint256",
          "name": "newLeaseId",
          "type": "uint256"
        },
        {
          "indexed": false,
          "internalType": "uint256",
          "name": "newEndDate",
          "type": "uint256"
        }
      ],
      "name": "LeaseRenewed",
      "type": "event"
    },
    {
      "anonymous": false,
      "inputs": [
        {
          "indexed": false,
          "internalType": "uint256",
          "name": "leaseId",
          "type": "uint256"
        },
        {
          "indexed": false,
          "internalType": "address",
          "name": "from",
          "type": "address"
        },
        {
          "indexed": false,
          "internalType": "address",
          "name": "to",
          "type": "address"
        },
        {
          "indexed": false,
          "internalType": "uint256",
          "name": "amount",
          "type": "uint256"
        },
        {
          "indexed": false,
          "internalType": "string",
          "name": "transactionType",
          "type": "string"
        }
      ],
      "name": "PaymentReceived",
      "type": "event"
    },
    {
      "anonymous": false,
      "inputs": [
        {
          "indexed": false,
          "internalType": "uint256",
          "name": "propertyId",
          "type": "uint256"
        },
        {
          "indexed": false,
          "internalType": "address",
          "name": "notary",
          "type": "address"
        }
      ],
      "name": "PropertyApproved",
      "type": "event"
    },
    {
      "anonymous": false,
      "inputs": [
        {
          "indexed": false,
          "internalType": "uint256",
          "name": "propertyId",
          "type": "uint256"
        },
        {
          "indexed": false,
          "internalType": "uint256",
          "name": "price",
          "type": "uint256"
        }
      ],
      "name": "PropertyListedForSale",
      "type": "event"
    },
    {
      "anonymous": false,
      "inputs": [
        {
          "indexed": false,
          "internalType": "uint256",
          "name": "propertyId",
          "type": "uint256"
        },
        {
          "indexed": false,
          "internalType": "address",
          "name": "owner",
          "type": "address"
        },
        {
          "indexed": false,
          "internalType": "string",
          "name": "propertyAddress",
          "type": "string"
        }
      ],
      "name": "PropertyRegistered",
      "type": "event"
    },
    {
      "anonymous": false,
      "inputs": [
        {
          "indexed": false,
          "internalType": "uint256",
          "name": "propertyId",
          "type": "uint256"
        },
        {
          "indexed": false,
          "internalType": "address",
          "name": "notary",
          "type": "address"
        }
      ],
      "name": "PropertyRejected",
      "type": "event"
    },
    {
      "anonymous": false,
      "inputs": [
        {
          "indexed": false,
          "internalType": "uint256",
          "name": "propertyId",
          "type": "uint256"
        }
      ],
      "name": "PropertySaleCancelled",
      "type": "event"
    },
    {
      "anonymous": false,
      "inputs": [
        {
          "indexed": false,
          "internalType": "uint256",
          "name": "saleId",
          "type": "uint256"
        },
        {
          "indexed": false,
          "internalType": "uint256",
          "name": "propertyId",
          "type": "uint256"
        },
        {
          "indexed": false,
          "internalType": "address",
          "name": "newOwner",
          "type": "address"
        }
      ],
      "name": "PropertySaleCompleted",
      "type": "event"
    },
    {
      "anonymous": false,
      "inputs": [
        {
          "indexed": false,
          "internalType": "uint256",
          "name": "saleId",
          "type": "uint256"
        },
        {
          "indexed": false,
          "internalType": "uint256",
          "name": "propertyId",
          "type": "uint256"
        },
        {
          "indexed": false,
          "internalType": "address",
          "name": "seller",
          "type": "address"
        },
        {
          "indexed": false,
          "internalType": "address",
          "name": "buyer",
          "type": "address"
        },
        {
          "indexed": false,
          "internalType": "uint256",
          "name": "price",
          "type": "uint256"
        }
      ],
      "name": "PropertySaleInitiated",
      "type": "event"
    },
    {
      "anonymous": false,
      "inputs": [
        {
          "indexed": false,
          "internalType": "uint256",
          "name": "propertyId",
          "type": "uint256"
        },
        {
          "indexed": false,
          "internalType": "address",
          "name": "owner",
          "type": "address"
        },
        {
          "indexed": false,
          "internalType": "string",
          "name": "propertyAddress",
          "type": "string"
        }
      ],
      "name": "PropertySubmitted",
      "type": "event"
    },
    {
      "inputs": [
        {
          "internalType": "uint256",
          "name": "",
          "type": "uint256"
        }
      ],
      "name": "auctions",
      "outputs": [
        {
          "internalType": "uint256",
          "name": "propertyId",
          "type": "uint256"
        },
        {
          "internalType": "uint256",
          "name": "startingPrice",
          "type": "uint256"
        },
        {
          "internalType": "uint256",
          "name": "highestBid",
          "type": "uint256"
        },
        {
          "internalType": "address",
          "name": "highestBidder",
          "type": "address"
        },
        {
          "internalType": "uint256",
          "name": "auctionEndTime",
          "type": "uint256"
        },
        {
          "internalType": "bool",
          "name": "ended",
          "type": "bool"
        },
        {
          "internalType": "bool",
          "name": "exists",
          "type": "bool"
        }
      ],
      "stateMutability": "view",
      "type": "function",
      "constant": true
    },
    {
      "inputs": [
        {
          "internalType": "address",
          "name": "",
          "type": "address"
        },
        {
          "internalType": "uint256",
          "name": "",
          "type": "uint256"
        }
      ],
      "name": "landlordLeases",
      "outputs": [
        {
          "internalType": "uint256",
          "name": "",
          "type": "uint256"
        }
      ],
      "stateMutability": "view",
      "type": "function",
      "constant": true
    },
    {
      "inputs": [
        {
          "internalType": "uint256",
          "name": "",
          "type": "uint256"
        }
      ],
      "name": "leaseAgreements",
      "outputs": [
        {
          "internalType": "uint256",
          "name": "id",
          "type": "uint256"
        },
        {
          "internalType": "uint256",
          "name": "propertyId",
          "type": "uint256"
        },
        {
          "internalType": "address",
          "name": "landlord",
          "type": "address"
        },
        {
          "internalType": "address",
          "name": "tenant",
          "type": "address"
        },
        {
          "internalType": "uint256",
          "name": "monthlyRent",
          "type": "uint256"
        },
        {
          "internalType": "uint256",
          "name": "securityDeposit",
          "type": "uint256"
        },
        {
          "internalType": "uint256",
          "name": "startDate",
          "type": "uint256"
        },
        {
          "internalType": "uint256",
          "name": "endDate",
          "type": "uint256"
        },
        {
          "internalType": "bool",
          "name": "isActive",
          "type": "bool"
        },
        {
          "internalType": "uint256",
          "name": "createdAt",
          "type": "uint256"
        },
        {
          "internalType": "uint256",
          "name": "previousLeaseId",
          "type": "uint256"
        },
        {
          "internalType": "bool",
          "name": "isRenewal",
          "type": "bool"
        }
      ],
      "stateMutability": "view",
      "type": "function",
      "constant": true
    },
    {
      "inputs": [
        {
          "internalType": "uint256",
          "name": "",
          "type": "uint256"
        },
        {
          "internalType": "uint256",
          "name": "",
          "type": "uint256"
        }
      ],
      "name": "leaseTransactions",
      "outputs": [
        {
          "internalType": "uint256",
          "name": "id",
          "type": "uint256"
        },
        {
          "internalType": "uint256",
          "name": "leaseId",
          "type": "uint256"
        },
        {
          "internalType": "address",
          "name": "from",
          "type": "address"
        },
        {
          "internalType": "address",
          "name": "to",
          "type": "address"
        },
        {
          "internalType": "uint256",
          "name": "amount",
          "type": "uint256"
        },
        {
          "internalType": "string",
          "name": "transactionType",
          "type": "string"
        },
        {
          "internalType": "uint256",
          "name": "timestamp",
          "type": "uint256"
        }
      ],
      "stateMutability": "view",
      "type": "function",
      "constant": true
    },
    {
      "inputs": [],
      "name": "notary",
      "outputs": [
        {
          "internalType": "address",
          "name": "",
          "type": "address"
        }
      ],
      "stateMutability": "view",
      "type": "function",
      "constant": true
    },
    {
      "inputs": [
        {
          "internalType": "address",
          "name": "",
          "type": "address"
        },
        {
          "internalType": "uint256",
          "name": "",
          "type": "uint256"
        }
      ],
      "name": "ownerProperties",
      "outputs": [
        {
          "internalType": "uint256",
          "name": "",
          "type": "uint256"
        }
      ],
      "stateMutability": "view",
      "type": "function",
      "constant": true
    },
    {
      "inputs": [
        {
          "internalType": "uint256",
          "name": "",
          "type": "uint256"
        },
        {
          "internalType": "address",
          "name": "",
          "type": "address"
        }
      ],
      "name": "pendingReturns",
      "outputs": [
        {
          "internalType": "uint256",
          "name": "",
          "type": "uint256"
        }
      ],
      "stateMutability": "view",
      "type": "function",
      "constant": true
    },
    {
      "inputs": [
        {
          "internalType": "uint256",
          "name": "",
          "type": "uint256"
        }
      ],
      "name": "properties",
      "outputs": [
        {
          "internalType": "uint256",
          "name": "id",
          "type": "uint256"
        },
        {
          "internalType": "address",
          "name": "owner",
          "type": "address"
        },
        {
          "internalType": "string",
          "name": "propertyAddress",
          "type": "string"
        },
        {
          "internalType": "uint256",
          "name": "size",
          "type": "uint256"
        },
        {
          "internalType": "string",
          "name": "propertyType",
          "type": "string"
        },
        {
          "internalType": "bool",
          "name": "isActive",
          "type": "bool"
        },
        {
          "internalType": "uint256",
          "name": "createdAt",
          "type": "uint256"
        },
        {
          "internalType": "bool",
          "name": "isForSale",
          "type": "bool"
        },
        {
          "internalType": "uint256",
          "name": "salePrice",
          "type": "uint256"
        },
        {
          "internalType": "bool",
          "name": "onAuction",
          "type": "bool"
        },
        {
          "internalType": "uint256",
          "name": "auctionEndTime",
          "type": "uint256"
        },
        {
          "internalType": "address",
          "name": "highestBidder",
          "type": "address"
        },
        {
          "internalType": "uint256",
          "name": "highestBid",
          "type": "uint256"
        },
        {
          "internalType": "bool",
          "name": "auctionEnded",
          "type": "bool"
        },
        {
          "internalType": "bool",
          "name": "isApproved",
          "type": "bool"
        },
        {
          "internalType": "string",
          "name": "documentHash",
          "type": "string"
        }
      ],
      "stateMutability": "view",
      "type": "function",
      "constant": true
    },
    {
      "inputs": [
        {
          "internalType": "uint256",
          "name": "",
          "type": "uint256"
        }
      ],
      "name": "propertyApprovals",
      "outputs": [
        {
          "internalType": "bool",
          "name": "",
          "type": "bool"
        }
      ],
      "stateMutability": "view",
      "type": "function",
      "constant": true
    },
    {
      "inputs": [
        {
          "internalType": "uint256",
          "name": "",
          "type": "uint256"
        }
      ],
      "name": "propertyDocuments",
      "outputs": [
        {
          "internalType": "string",
          "name": "",
          "type": "string"
        }
      ],
      "stateMutability": "view",
      "type": "function",
      "constant": true
    },
    {
      "inputs": [
        {
          "internalType": "uint256",
          "name": "",
          "type": "uint256"
        }
      ],
      "name": "propertySales",
      "outputs": [
        {
          "internalType": "uint256",
          "name": "id",
          "type": "uint256"
        },
        {
          "internalType": "uint256",
          "name": "propertyId",
          "type": "uint256"
        },
        {
          "internalType": "address",
          "name": "seller",
          "type": "address"
        },
        {
          "internalType": "address",
          "name": "buyer",
          "type": "address"
        },
        {
          "internalType": "uint256",
          "name": "salePrice",
          "type": "uint256"
        },
        {
          "internalType": "uint256",
          "name": "timestamp",
          "type": "uint256"
        },
        {
          "internalType": "bool",
          "name": "completed",
          "type": "bool"
        }
      ],
      "stateMutability": "view",
      "type": "function",
      "constant": true
    },
    {
      "inputs": [
        {
          "internalType": "uint256",
          "name": "",
          "type": "uint256"
        },
        {
          "internalType": "uint256",
          "name": "",
          "type": "uint256"
        }
      ],
      "name": "propertyTransferHistory",
      "outputs": [
        {
          "internalType": "uint256",
          "name": "",
          "type": "uint256"
        }
      ],
      "stateMutability": "view",
      "type": "function",
      "constant": true
    },
    {
      "inputs": [
        {
          "internalType": "uint256",
          "name": "",
          "type": "uint256"
        }
      ],
      "name": "renewedLeases",
      "outputs": [
        {
          "internalType": "uint256",
          "name": "",
          "type": "uint256"
        }
      ],
      "stateMutability": "view",
      "type": "function",
      "constant": true
    },
    {
      "inputs": [
        {
          "internalType": "address",
          "name": "",
          "type": "address"
        },
        {
          "internalType": "uint256",
          "name": "",
          "type": "uint256"
        }
      ],
      "name": "tenantLeases",
      "outputs": [
        {
          "internalType": "uint256",
          "name": "",
          "type": "uint256"
        }
      ],
      "stateMutability": "view",
      "type": "function",
      "constant": true
    },
    {
      "inputs": [],
      "name": "getPropertyCounter",
      "outputs": [
        {
          "internalType": "uint256",
          "name": "",
          "type": "uint256"
        }
      ],
      "stateMutability": "view",
      "type": "function",
      "constant": true
    },
    {
      "inputs": [
        {
          "internalType": "string",
          "name": "_propertyAddress",
          "type": "string"
        },
        {
          "internalType": "uint256",
          "name": "_size",
          "type": "uint256"
        },
        {
          "internalType": "string",
          "name": "_propertyType",
          "type": "string"
        },
        {
          "internalType": "string",
          "name": "_documentHash",
          "type": "string"
        }
      ],
      "name": "registerProperty",
      "outputs": [
        {
          "internalType": "uint256",
          "name": "",
          "type": "uint256"
        }
      ],
      "stateMutability": "nonpayable",
      "type": "function"
    },
    {
      "inputs": [
        {
          "internalType": "uint256",
          "name": "_propertyId",
          "type": "uint256"
        },
        {
          "internalType": "address",
          "name": "_tenant",
          "type": "address"
        },
        {
          "internalType": "uint256",
          "name": "_monthlyRent",
          "type": "uint256"
        },
        {
          "internalType": "uint256",
          "name": "_securityDeposit",
          "type": "uint256"
        },
        {
          "internalType": "uint256",
          "name": "_startDate",
          "type": "uint256"
        },
        {
          "internalType": "uint256",
          "name": "_endDate",
          "type": "uint256"
        }
      ],
      "name": "createLeaseAgreement",
      "outputs": [
        {
          "internalType": "uint256",
          "name": "",
          "type": "uint256"
        }
      ],
      "stateMutability": "nonpayable",
      "type": "function"
    },
    {
      "inputs": [
        {
          "internalType": "uint256",
          "name": "_leaseId",
          "type": "uint256"
        },
        {
          "internalType": "string",
          "name": "_transactionType",
          "type": "string"
        }
      ],
      "name": "makePayment",
      "outputs": [],
      "stateMutability": "payable",
      "type": "function",
      "payable": true
    },
    {
      "inputs": [
        {
          "internalType": "uint256",
          "name": "_leaseId",
          "type": "uint256"
        }
      ],
      "name": "terminateLease",
      "outputs": [],
      "stateMutability": "nonpayable",
      "type": "function"
    },
    {
      "inputs": [
        {
          "internalType": "uint256",
          "name": "_leaseId",
          "type": "uint256"
        }
      ],
      "name": "checkLeaseExpiration",
      "outputs": [
        {
          "internalType": "bool",
          "name": "isExpiring",
          "type": "bool"
        },
        {
          "internalType": "uint256",
          "name": "daysRemaining",
          "type": "uint256"
        }
      ],
      "stateMutability": "view",
      "type": "function",
      "constant": true
    },
    {
      "inputs": [
        {
          "internalType": "uint256",
          "name": "_leaseId",
          "type": "uint256"
        },
        {
          "internalType": "uint256",
          "name": "_newMonthlyRent",
          "type": "uint256"
        },
        {
          "internalType": "uint256",
          "name": "_newSecurityDeposit",
          "type": "uint256"
        },
        {
          "internalType": "uint256",
          "name": "_newEndDate",
          "type": "uint256"
        }
      ],
      "name": "renewLease",
      "outputs": [
        {
          "internalType": "uint256",
          "name": "",
          "type": "uint256"
        }
      ],
      "stateMutability": "nonpayable",
      "type": "function"
    },
    {
      "inputs": [
        {
          "internalType": "address",
          "name": "_landlord",
          "type": "address"
        }
      ],
      "name": "getExpiringLeases",
      "outputs": [
        {
          "internalType": "uint256[]",
          "name": "",
          "type": "uint256[]"
        }
      ],
      "stateMutability": "view",
      "type": "function",
      "constant": true
    },
    {
      "inputs": [
        {
          "internalType": "uint256",
          "name": "_leaseId",
          "type": "uint256"
        }
      ],
      "name": "getLeaseRenewalHistory",
      "outputs": [
        {
          "internalType": "uint256[]",
          "name": "",
          "type": "uint256[]"
        }
      ],
      "stateMutability": "view",
      "type": "function",
      "constant": true
    },
    {
      "inputs": [
        {
          "internalType": "uint256",
          "name": "_propertyId",
          "type": "uint256"
        },
        {
          "internalType": "uint256",
          "name": "_price",
          "type": "uint256"
        }
      ],
      "name": "listPropertyForSale",
      "outputs": [],
      "stateMutability": "nonpayable",
      "type": "function"
    },
    {
      "inputs": [
        {
          "internalType": "uint256",
          "name": "_propertyId",
          "type": "uint256"
        }
      ],
      "name": "cancelPropertySale",
      "outputs": [],
      "stateMutability": "nonpayable",
      "type": "function"
    },
    {
      "inputs": [
        {
          "internalType": "uint256",
          "name": "_propertyId",
          "type": "uint256"
        }
      ],
      "name": "initiatePropertyPurchase",
      "outputs": [],
      "stateMutability": "payable",
      "type": "function",
      "payable": true
    },
    {
      "inputs": [],
      "name": "getPropertiesForSale",
      "outputs": [
        {
          "internalType": "uint256[]",
          "name": "",
          "type": "uint256[]"
        }
      ],
      "stateMutability": "view",
      "type": "function",
      "constant": true
    },
    {
      "inputs": [
        {
          "internalType": "uint256",
          "name": "_propertyId",
          "type": "uint256"
        }
      ],
      "name": "getPropertyTransferHistory",
      "outputs": [
        {
          "internalType": "uint256[]",
          "name": "",
          "type": "uint256[]"
        }
      ],
      "stateMutability": "view",
      "type": "function",
      "constant": true
    },
    {
      "inputs": [
        {
          "internalType": "uint256",
          "name": "_saleId",
          "type": "uint256"
        }
      ],
      "name": "getPropertySale",
      "outputs": [
        {
          "components": [
            {
              "internalType": "uint256",
              "name": "id",
              "type": "uint256"
            },
            {
              "internalType": "uint256",
              "name": "propertyId",
              "type": "uint256"
            },
            {
              "internalType": "address",
              "name": "seller",
              "type": "address"
            },
            {
              "internalType": "address",
              "name": "buyer",
              "type": "address"
            },
            {
              "internalType": "uint256",
              "name": "salePrice",
              "type": "uint256"
            },
            {
              "internalType": "uint256",
              "name": "timestamp",
              "type": "uint256"
            },
            {
              "internalType": "bool",
              "name": "completed",
              "type": "bool"
            }
          ],
          "internalType": "struct PropertyManagement.PropertySale",
          "name": "",
          "type": "tuple"
        }
      ],
      "stateMutability": "view",
      "type": "function",
      "constant": true
    },
    {
      "inputs": [
        {
          "internalType": "uint256",
          "name": "_propertyId",
          "type": "uint256"
        }
      ],
      "name": "getPropertyById",
      "outputs": [
        {
          "components": [
            {
              "internalType": "uint256",
              "name": "id",
              "type": "uint256"
            },
            {
              "internalType": "address",
              "name": "owner",
              "type": "address"
            },
            {
              "internalType": "string",
              "name": "propertyAddress",
              "type": "string"
            },
            {
              "internalType": "uint256",
              "name": "size",
              "type": "uint256"
            },
            {
              "internalType": "string",
              "name": "propertyType",
              "type": "string"
            },
            {
              "internalType": "bool",
              "name": "isActive",
              "type": "bool"
            },
            {
              "internalType": "uint256",
              "name": "createdAt",
              "type": "uint256"
            },
            {
              "internalType": "bool",
              "name": "isForSale",
              "type": "bool"
            },
            {
              "internalType": "uint256",
              "name": "salePrice",
              "type": "uint256"
            },
            {
              "internalType": "bool",
              "name": "onAuction",
              "type": "bool"
            },
            {
              "internalType": "uint256",
              "name": "auctionEndTime",
              "type": "uint256"
            },
            {
              "internalType": "address",
              "name": "highestBidder",
              "type": "address"
            },
            {
              "internalType": "uint256",
              "name": "highestBid",
              "type": "uint256"
            },
            {
              "internalType": "bool",
              "name": "auctionEnded",
              "type": "bool"
            },
            {
              "internalType": "bool",
              "name": "isApproved",
              "type": "bool"
            },
            {
              "internalType": "string",
              "name": "documentHash",
              "type": "string"
            }
          ],
          "internalType": "struct PropertyManagement.Property",
          "name": "",
          "type": "tuple"
        }
      ],
      "stateMutability": "view",
      "type": "function",
      "constant": true
    },
    {
      "inputs": [
        {
          "internalType": "address",
          "name": "_owner",
          "type": "address"
        }
      ],
      "name": "getOwnerProperties",
      "outputs": [
        {
          "internalType": "uint256[]",
          "name": "",
          "type": "uint256[]"
        }
      ],
      "stateMutability": "view",
      "type": "function",
      "constant": true
    },
    {
      "inputs": [
        {
          "internalType": "uint256",
          "name": "_leaseId",
          "type": "uint256"
        }
      ],
      "name": "getLeaseById",
      "outputs": [
        {
          "components": [
            {
              "internalType": "uint256",
              "name": "id",
              "type": "uint256"
            },
            {
              "internalType": "uint256",
              "name": "propertyId",
              "type": "uint256"
            },
            {
              "internalType": "address",
              "name": "landlord",
              "type": "address"
            },
            {
              "internalType": "address",
              "name": "tenant",
              "type": "address"
            },
            {
              "internalType": "uint256",
              "name": "monthlyRent",
              "type": "uint256"
            },
            {
              "internalType": "uint256",
              "name": "securityDeposit",
              "type": "uint256"
            },
            {
              "internalType": "uint256",
              "name": "startDate",
              "type": "uint256"
            },
            {
              "internalType": "uint256",
              "name": "endDate",
              "type": "uint256"
            },
            {
              "internalType": "bool",
              "name": "isActive",
              "type": "bool"
            },
            {
              "internalType": "uint256",
              "name": "createdAt",
              "type": "uint256"
            },
            {
              "internalType": "uint256",
              "name": "previousLeaseId",
              "type": "uint256"
            },
            {
              "internalType": "bool",
              "name": "isRenewal",
              "type": "bool"
            }
          ],
          "internalType": "struct PropertyManagement.LeaseAgreement",
          "name": "",
          "type": "tuple"
        }
      ],
      "stateMutability": "view",
      "type": "function",
      "constant": true
    },
    {
      "inputs": [
        {
          "internalType": "address",
          "name": "_tenant",
          "type": "address"
        }
      ],
      "name": "getTenantLeases",
      "outputs": [
        {
          "internalType": "uint256[]",
          "name": "",
          "type": "uint256[]"
        }
      ],
      "stateMutability": "view",
      "type": "function",
      "constant": true
    },
    {
      "inputs": [
        {
          "internalType": "address",
          "name": "_landlord",
          "type": "address"
        }
      ],
      "name": "getLandlordLeases",
      "outputs": [
        {
          "internalType": "uint256[]",
          "name": "",
          "type": "uint256[]"
        }
      ],
      "stateMutability": "view",
      "type": "function",
      "constant": true
    },
    {
      "inputs": [
        {
          "internalType": "uint256",
          "name": "_leaseId",
          "type": "uint256"
        }
      ],
      "name": "getLeaseTransactions",
      "outputs": [
        {
          "components": [
            {
              "internalType": "uint256",
              "name": "id",
              "type": "uint256"
            },
            {
              "internalType": "uint256",
              "name": "leaseId",
              "type": "uint256"
            },
            {
              "internalType": "address",
              "name": "from",
              "type": "address"
            },
            {
              "internalType": "address",
              "name": "to",
              "type": "address"
            },
            {
              "internalType": "uint256",
              "name": "amount",
              "type": "uint256"
            },
            {
              "internalType": "string",
              "name": "transactionType",
              "type": "string"
            },
            {
              "internalType": "uint256",
              "name": "timestamp",
              "type": "uint256"
            }
          ],
          "internalType": "struct PropertyManagement.Transaction[]",
          "name": "",
          "type": "tuple[]"
        }
      ],
      "stateMutability": "view",
      "type": "function",
      "constant": true
    },
    {
      "inputs": [
        {
          "internalType": "uint256",
          "name": "_propertyId",
          "type": "uint256"
        },
        {
          "internalType": "uint256",
          "name": "_startingPrice",
          "type": "uint256"
        },
        {
          "internalType": "uint256",
          "name": "_durationInSeconds",
          "type": "uint256"
        }
      ],
      "name": "startAuction",
      "outputs": [],
      "stateMutability": "nonpayable",
      "type": "function"
    },
    {
      "inputs": [
        {
          "internalType": "uint256",
          "name": "_propertyId",
          "type": "uint256"
        }
      ],
      "name": "placeBid",
      "outputs": [],
      "stateMutability": "payable",
      "type": "function",
      "payable": true
    },
    {
      "inputs": [
        {
          "internalType": "uint256",
          "name": "_propertyId",
          "type": "uint256"
        }
      ],
      "name": "withdrawBid",
      "outputs": [],
      "stateMutability": "nonpayable",
      "type": "function"
    },
    {
      "inputs": [
        {
          "internalType": "uint256",
          "name": "_propertyId",
          "type": "uint256"
        }
      ],
      "name": "endAuction",
      "outputs": [],
      "stateMutability": "nonpayable",
      "type": "function"
    },
    {
      "inputs": [
        {
          "internalType": "uint256",
          "name": "_propertyId",
          "type": "uint256"
        }
      ],
      "name": "getAuctionDetails",
      "outputs": [
        {
          "internalType": "bool",
          "name": "onAuction",
          "type": "bool"
        },
        {
          "internalType": "uint256",
          "name": "auctionEndTime",
          "type": "uint256"
        },
        {
          "internalType": "address",
          "name": "highestBidder",
          "type": "address"
        },
        {
          "internalType": "uint256",
          "name": "highestBid",
          "type": "uint256"
        },
        {
          "internalType": "bool",
          "name": "ended",
          "type": "bool"
        }
      ],
      "stateMutability": "view",
      "type": "function",
      "constant": true
    },
    {
      "inputs": [
        {
          "internalType": "uint256",
          "name": "_propertyId",
          "type": "uint256"
        },
        {
          "internalType": "address",
          "name": "_bidder",
          "type": "address"
        }
      ],
      "name": "getPendingReturn",
      "outputs": [
        {
          "internalType": "uint256",
          "name": "",
          "type": "uint256"
        }
      ],
      "stateMutability": "view",
      "type": "function",
      "constant": true
    },
    {
      "inputs": [
        {
          "internalType": "uint256",
          "name": "start",
          "type": "uint256"
        },
        {
          "internalType": "uint256",
          "name": "end",
          "type": "uint256"
        }
      ],
      "name": "getProperties",
      "outputs": [
        {
          "components": [
            {
              "internalType": "uint256",
              "name": "id",
              "type": "uint256"
            },
            {
              "internalType": "address",
              "name": "owner",
              "type": "address"
            },
            {
              "internalType": "string",
              "name": "propertyAddress",
              "type": "string"
            },
            {
              "internalType": "uint256",
              "name": "size",
              "type": "uint256"
            },
            {
              "internalType": "string",
              "name": "propertyType",
              "type": "string"
            },
            {
              "internalType": "bool",
              "name": "isActive",
              "type": "bool"
            },
            {
              "internalType": "uint256",
              "name": "createdAt",
              "type": "uint256"
            },
            {
              "internalType": "bool",
              "name": "isForSale",
              "type": "bool"
            },
            {
              "internalType": "uint256",
              "name": "salePrice",
              "type": "uint256"
            },
            {
              "internalType": "bool",
              "name": "onAuction",
              "type": "bool"
            },
            {
              "internalType": "uint256",
              "name": "auctionEndTime",
              "type": "uint256"
            },
            {
              "internalType": "address",
              "name": "highestBidder",
              "type": "address"
            },
            {
              "internalType": "uint256",
              "name": "highestBid",
              "type": "uint256"
            },
            {
              "internalType": "bool",
              "name": "auctionEnded",
              "type": "bool"
            },
            {
              "internalType": "bool",
              "name": "isApproved",
              "type": "bool"
            },
            {
              "internalType": "string",
              "name": "documentHash",
              "type": "string"
            }
          ],
          "internalType": "struct PropertyManagement.Property[]",
          "name": "",
          "type": "tuple[]"
        }
      ],
      "stateMutability": "view",
      "type": "function",
      "constant": true
    },
    {
      "inputs": [
        {
          "internalType": "uint256",
          "name": "_propertyId",
          "type": "uint256"
        }
      ],
      "name": "approveProperty",
      "outputs": [],
      "stateMutability": "nonpayable",
      "type": "function"
    },
    {
      "inputs": [
        {
          "internalType": "uint256",
          "name": "_propertyId",
          "type": "uint256"
        }
      ],
      "name": "rejectProperty",
      "outputs": [],
      "stateMutability": "nonpayable",
      "type": "function"
    },
    {
      "inputs": [],
      "name": "getPendingProperties",
      "outputs": [
        {
          "internalType": "uint256[]",
          "name": "",
          "type": "uint256[]"
        }
      ],
      "stateMutability": "view",
      "type": "function",
      "constant": true
    }
  ],
  "bytecode": "0x6080806040523461002c5760015f55601080546001600160a01b0319163317905561482890816100318239f35b5f80fdfe6080806040526004361015610012575f80fd5b5f3560e01c90816307a7831914613c53575080630bf2d668146136a25780630eaaf4c81461359b5780630f55415b146133265780631e7a7dd3146132ab57806327983fcf146130f95780632e6f45001461309457806335a4a47314613065578063383e3e5c14612d075780633c95fbe914612b24578063459a34d614612afa578063480777b114612a395780634b2f64fb14612a0d57806354c617361461296f578063550252ac14612926578063571a26a0146128ab5780635797689414612862578063588e00a5146127e857806359fe18eb146126c35780635df1a8831461260e578063651a7ff3146121395780636b7dfd721461211c578063831b455d146120625780638ddac1ef14610b055780638f48bd5b1461200b57806391e078bb14611cb35780639979ef4514611abf5780639d54c79d14611a97578063a4cc9408146117e3578063a590fa0b146116f3578063abcf6a24146115e4578063b16aa47014611358578063b827e7321461131a578063b9a2de3a14610f9b578063c2682e9414610ec2578063c8ae3d5d14610bbc578063cb64489714610b49578063d02ef6f914610b05578063d1f8d1ed14610ad6578063de16d25614610790578063e9b66f8c146106ab578063ee22e5191461050a578063f08b6a031461048b578063f20e5e351461034d5763f7b108081461020b575f80fd5b34610349576020366003190112610349576004355f908152600560205260409020805460018201546001600160a01b039081169061024b60028501613ee6565b936003810154926004820161025f90613ee6565b600583015460ff16936006840154600785015460ff16600886015490600987015460ff1692600a88015494600b8901541695600c89015497600d8a015499600e016102a990613ee6565b9b6040519e8f9e8f93610200918552602085015280604085015283016102ce91613e57565b91606001528c80820390608001526102e591613e57565b98151560a08c015260c08b0152151560e08a0152610100890152151561012088015261014087015261016086015261018085015260ff811615156101a085015260081c60ff1615156101c08401528281036101e084015261034591613e57565b0390f35b5f80fd5b34610349576020366003190112610349576004355f52600560205260a060405f2060405161037a81613d28565b81548152600180841b039182600182015416602083015261039d60028201613ee6565b6040830152600381015460608301526103b860048201613ee6565b608083015260ff600582015416151584830152600681015460c083015260ff600782015416151560e0830152600881015461010083015260ff6009820154169161012081019215158352600a82015493610140820194855280600b84015416936101608301948552600c8401549261018081019384526101e061045d600e600d8801549760ff6101a086019981811615158b5260081c1615156101c086015201613ee6565b9101525115159451935116905191511515926040519485526020850152604084015260608301526080820152f35b3461034957602080600319360112610349576001600160a01b036104ad613cc2565b165f526009815260405f209060405190818184549182815201935f52815f20915f905b8282106104f357610345856104e781890382613d96565b60405191829182613cee565b8354865294850194600193840193909101906104d0565b34610349576020366003190112610349575f61016060405161052b81613d44565b8281528260208201528260408201528260608201528260808201528260a08201528260c08201528260e082015282610100820152826101208201528261014082015201526004355f52600760205261018060405f2061016060405161058f81613d44565b60ff600b8454948584526001810154602085015260018060a01b03600282015416604085015260018060a01b03600382015416606085015260048101546080850152600581015460a0850152600681015460c0850152600781015460e08501528260088201541615156101008501526009810154610120850152600a8101546101408501520154161515828201526040519283526020810151602084015260018060a01b03604082015116604084015260018060a01b0360608201511660608401526080810151608084015260a081015160a084015260c081015160c084015260e081015160e0840152610100810151151561010084015261012081015161012084015261014081015161014084015201511515610160820152f35b34610349576020366003190112610349577fdc4a9e931ddb4ea0e6114226f2a3b598ce4b38bc6976643e3e4e7e7cfd1e165161077f6004356106f860018060a01b036010541633146146c4565b80151580610784575b61070a9061471c565b805f526005602052600560405f20600d8101610100815461073160ff8260081c161561475e565b61ff0019161790550160ff1990600182825416179055815f526011602052600160405f20918254161790556040519182913390839092916020906040830194835260018060a01b0316910152565b0390a1005b50600154811115610701565b346103495760c0366003190112610349576107a9613cd8565b6004355f5260056020526107cd60018060a01b03600160405f2001541633146140b4565b6004355f5260056020526107ed60ff600d60405f20015460081c166140f9565b6004355f52600560205261080a60ff600560405f20015416614145565b6004355f52600560205260ff600760405f20015416610a91576001600160a01b03811615610a535760a4356084351015610a155760209061098b61084f60025461406d565b806002556040519061086082613d44565b8082526004358583015233604083015260018060a01b0384166060830152604435608083015260643560a083015260843560c083015260a43560e08301526001610100830152426101208301525f6101408301525f6101608301525f5260078452600b61016060405f2092805184558681015160018501556002840160018060a01b03604083015116906001600160601b0360a01b9182825416179055600385019060018060a01b03606084015116908254161790556080810151600485015560a0810151600585015560c0810151600685015560e0810151600785015561095e6101008201511515600886019060ff801983541691151516179055565b6101208101516009850155610140810151600a8501550151151591019060ff801983541691151516179055565b6001600160a01b0381165f90815260088352604090206002546109ad91614091565b335f52600982526109c460405f2060025490614091565b7f2609b596223b76ac2bc5e324e9725873cf0fdfe04fa14388b5fae5d1513bc2cd608060025492604051908482526004358683015233604083015260018060a01b03166060820152a1604051908152f35b60405162461bcd60e51b815260206004820152601660248201527524b73b30b634b2103632b0b9b290323ab930ba34b7b760511b6044820152606490fd5b60405162461bcd60e51b8152602060048201526016602482015275496e76616c69642074656e616e74206164647265737360501b6044820152606490fd5b60405162461bcd60e51b815260206004820152601e60248201527f50726f70657274792069732063757272656e746c7920666f722073616c6500006044820152606490fd5b34610349576020366003190112610349576004355f526011602052602060ff60405f2054166040519015158152f35b3461034957604036600319011261034957610b1e613cd8565b6004355f52600f60205260405f209060018060a01b03165f52602052602060405f2054604051908152f35b3461034957602080600319360112610349576001600160a01b03610b6b613cc2565b165f526006815260405f209060405190818184549182815201935f52815f20915f905b828210610ba557610345856104e781890382613d96565b835486529485019460019384019390910190610b8e565b6040366003190112610349576004356024356001600160401b03811161034957610bea903690600401613dd2565b90805f526020906007825260405f2060405193610c0685613d44565b8154855260018201548486015260018060a01b0394856002840154169260408201938452868060038301541660608401908152610ca56004840154936080860194855260058101549560a08101968752600682015460c0820152600782015460e082015261016060ff600b81600886015416151594856101008601526009810154610120860152600a810154610140860152015416151591015261418a565b51163303610e7d5782517f2f2a4f12d9b7fed33b6dc1cecd785a4600d27f01f5a127628f563afe70f8c700878501918220631491539560e21b89604051610ceb81613d7b565b60048152015203610ddb5750610d059150515b34146141cc565b5f8080808886511681903415610dd1575b3491f115610dc6577f62b4265ef816f751a94c5c93fa40a90302c6924509b973ed4094dcf30c6c61ed9461077f92610d9b610d5260035461406d565b806003558383511660405191610d6783613d60565b8252878983015233604083015260608201523460808201528460a08201524260c0820152865f52600a885260405f20614218565b511660405194859485523390850152604084015234606084015260a0608084015260a0830190613e57565b6040513d5f823e3d90fd5b6108fc9150610d16565b7fe3d95406626800c6626191b810036eac51d8ba8f60b01114699061bf4548c9c79150835190206f14d150d55492551657d1115413d4d25560821b87604051610e2381613d7b565b60108152015203610e3857610d059051610cfe565b60405162461bcd60e51b815260048101869052601860248201527f496e76616c6964207472616e73616374696f6e207479706500000000000000006044820152606490fd5b60405162461bcd60e51b815260048101879052601c60248201527f4e6f74207468652074656e616e74206f662074686973206c65617365000000006044820152606490fd5b34610349576020806003193601126103495760043590815f5260058152610ef960018060a01b03600160405f2001541633146140b4565b815f526005815260ff600760405f2001541615610f5757817f871a96bcac8326bf82aea94341df252a5ec1dae7cad4187675f9cb6b333282ed925f52600582525f6008604082206007810160ff1981541690550155604051908152a1005b6064906040519062461bcd60e51b82526004820152601f60248201527f50726f7065727479206973206e6f74206c697374656420666f722073616c65006044820152fd5b346103495760208060031936011261034957600435610fb8614641565b805f526005825260405f2090600e835260405f2091600981019384549160ff8316156112e157600d810190815495610ff360ff8816156145fd565b600a820154421061129c576001968783019560018060a01b0394858854163314801561128d575b156112335760ff199283168a179055811690985560050180549097168617909655600b860180549596879683169485156111f857805495848716966001600160601b0360a01b16179055845f526006845260405f20875f905b61113d575b50508293949596505f80600c8194959382948754168352600689526110a08b60408520614091565b01978854905af16110af614695565b50156110ee57917fd2aa34a4fdbbc6dff6a3e56f46e0f3ae2a31d7785ff3487aa5c95c642acea501939160409354169154908351928352820152a25f55005b60405162461bcd60e51b815260048101849052602160248201527f5472616e7366657220746f2070726576696f7573206f776e6572206661696c656044820152601960fa1b6064820152608490fd5b8154808210156111f257886111528385613e2e565b919054600392831b1c1461117157505061116b9061406d565b88611073565b919093949596979899505f1984019384116111de575f946111ce846111c9600c946111b18a99976111a58b9a998b9a613e2e565b9054911b1c9184613e2e565b90919082549060031b91821b915f19901b1916179055565b61454c565b9350508998979695949350611078565b634e487b7160e01b5f52601160045260245ffd5b50611078565b505050507fd2aa34a4fdbbc6dff6a3e56f46e0f3ae2a31d7785ff3487aa5c95c642acea501929350604091505f825191818352820152a25f55005b60405162461bcd60e51b815260048101889052602c60248201527f4f6e6c79206f776e6572206f722068696768657374206269646465722063616e60448201526b1032b7321030bab1ba34b7b760a11b6064820152608490fd5b5085600b86015416331461101a565b60405162461bcd60e51b815260048101859052601960248201527f41756374696f6e207374696c6c20696e2070726f6772657373000000000000006044820152606490fd5b60405162461bcd60e51b815260048101839052601160248201527027379030b1ba34bb329030bab1ba34b7b760791b6044820152606490fd5b34610349576020366003190112610349576004355f52601260205261034561134460405f20613ee6565b604051918291602083526020830190613e57565b346103495761136636613e18565b908181116115af576001918254811161156a5781611383916143b7565b8281018091116111de579161139783614503565b926113a56040519485613d96565b8084526113b181614503565b60209390601f19015f5b81811061154e5750505f5b82811061142e5750505060405191808301818452845180915260408401918060408360051b8701019601925f905b8382106114015786880387f35b9091929394838061141d839a603f198b82030186528951613f87565b9997019594939190910191016113f4565b8061143f61154692849896986144f6565b5f526005808752611525600e60405f206040519361145c85613d28565b815485528b8201546001600160a01b039081168c87015261147f60028401613ee6565b60408701526003830154606087015261149a60048401613ee6565b608087015260ff809284015416151560a0870152600683015460c087015281600784015416151560e087015260089081840154610100880152826009850154161515610120880152600a840154610140880152600b84015416610160870152600c830154610180870152600d8301549082821615156101a08801521c1615156101c085015201613ee6565b6101e082015261153582876144e2565b5261154081866144e2565b5061406d565b9492946113c6565b859061155b979597614589565b828288010152019593956113bb565b60405162461bcd60e51b815260206004820152601760248201527f456e6420696e646578206f7574206f6620626f756e64730000000000000000006044820152606490fd5b60405162461bcd60e51b815260206004820152600d60248201526c496e76616c69642072616e676560981b6044820152606490fd5b34610349575f366003190112610349575f6001908154915b82811115611694575061160e9061451a565b905f60015b8281111561162957604051806103458682613cee565b805f52600560205260405f2060ff600d82015460081c1615908161167d575b5061165c575b6116579061406d565b611613565b90611675818361166f61165794886144e2565b5261406d565b91905061164e565b600101546001600160a01b03161515905085611648565b805f52600560205260405f2060ff600d82015460081c161590816116dc575b506116c7575b6116c29061406d565b6115fc565b906116d46116c29161406d565b9190506116b9565b600101546001600160a01b031615159050846116b3565b34610349576020366003190112610349575f60c060405161171381613d60565b8281528260208201528260408201528260608201528260808201528260a082015201526004355f52600c60205260e060405f2060405161175281613d60565b81549182825260018101546020830190815260018060a01b038060028401541660408501908152818060038601541691606087019283526004860154946080880195865260c060ff600660058a01549960a08c019a8b520154169801971515885260405198895251602089015251166040870152511660608501525160808401525160a083015251151560c0820152f35b3461034957602080600319360112610349576001600160a01b0380611806613cc2565b165f5260099081835260405f20916040518084868296549384815201905f52865f20925f5b88828210611a815750505061184292500384613d96565b5f915f5b84518110156119515761185981866144e2565b515f52600780875260405f20906040519061187382613d44565b8254825260018301548983015284600284015416604083015284600384015416606083015260048301546080830152600583015460a0830152600683015460c083015282015460e082019181835261016060ff600b81600888015416151596876101008601528a810154610120860152600a810154610140860152015416151591015282611937575b508161192c575b50611917575b6119129061406d565b611846565b926119246119129161406d565b939050611909565b905051421087611903565b90915062278d004201908142116111de57111590886118fc565b509161195c9061451a565b915f915f5b8551811015611a735761197481876144e2565b51805f52600780895260405f20906040519061198f82613d44565b8254825260018301548b83015286600284015416604083015286600384015416606083015260048301546080830152600583015460a0830152600683015460c083015282015460e082019181835261016060ff600b81600888015416151596876101008601528a810154610120860152600a810154610140860152015416151591015282611a59575b5081611a4e575b50611a34575b50611a2f9061406d565b611961565b84611a479161166f611a2f9497896144e2565b9390611a25565b905051421089611a1f565b90915062278d004201908142116111de571115908a611a18565b604051806103458782613cee565b855484526001958601958995509301920161182b565b34610349575f366003190112610349576010546040516001600160a01b039091168152602090f35b60208060031936011261034957600435611ad7614641565b805f526005825260405f2060ff60098201541615611c6e57611afe600a82015442106145fd565b600c8101805480341115611c155760018301546001600160a01b03939084163314611bc157600b019283541680611b99575b50506001600160601b0360a01b913383825416179055349055815f52600e835260405f2090600382019033908254161790556002349101557f0e54eff26401bf69b81b26f60bd85ef47f5d85275c1d268d84f68d6897431c47604051923484523393a360015f55005b845f52600f865260405f20905f528552611bb860405f209182546144f6565b90558480611b30565b60405162461bcd60e51b815260048101879052602660248201527f4f776e65722063616e6e6f7420626964206f6e207468656972206f776e2070726044820152656f706572747960d01b6064820152608490fd5b60405162461bcd60e51b815260048101869052602b60248201527f426964206d75737420626520686967686572207468616e2063757272656e742060448201526a1a1a59da195cdd08189a5960aa1b6064820152608490fd5b60405162461bcd60e51b815260048101849052601a60248201527f50726f7065727479206973206e6f74206f6e2061756374696f6e0000000000006044820152606490fd5b34610349576060366003190112610349576004356024803590604490813591845f526020916005835260018060a01b0390611cf882600160405f2001541633146140b4565b865f5260058452611d1560ff600d60405f20015460081c166140f9565b865f526005845260405f2092611d3160ff600586015416614145565b600984019081549260ff8416611fc95760ff600787015416611f7b578815611f2b57610e108810611ed85762278d008811611e8757897f44c53be110c6aa83aa83cd02e351ed172359268272ee1b5d31c0fe48db35c6c760408b8b8b611e7c8c87611e6560058f8f8f600160ff19809316179055611daf89426144f6565b600a87015589600c870155600d600b8701966001600160601b0360a01b9788815416905501908154169055611de488426144f6565b8a5191611df083613d60565b858352888301968b88528c8401918c835260608501925f84526080860194855260a08601995f8b5260c087019960018b525f52600e8d528f5f209651875551600187015551600286015560038501925116908254161790555160048201550192511515839060ff801983541691151516179055565b51815461ff00191690151560081b61ff0016179055565b8351928352820152a2005b7f41756374696f6e206475726174696f6e2063616e6e6f74206578636565642033608492602689936040519462461bcd60e51b865260048601528401528201526530206461797360d01b6064820152fd5b7f41756374696f6e206475726174696f6e206d757374206265206174206c656173608492602889936040519462461bcd60e51b86526004860152840152820152673a1018903437bab960c11b6064820152fd5b7f5374617274696e67207072696365206d75737420626520677265617465722074608492602589936040519462461bcd60e51b8652600486015284015282015264068616e20360dc1b6064820152fd5b7f50726f706572747920697320616c7265616479206c697374656420666f722073608492602389936040519462461bcd60e51b8652600486015284015282015262616c6560e81b6064820152fd5b7f50726f706572747920697320616c7265616479206f6e2061756374696f6e0000606492601e89936040519462461bcd60e51b86526004860152840152820152fd5b3461034957604036600319011261034957612024613cc2565b6001600160a01b03165f908152600660205260409020805460243591908210156103495760209161205491613e2e565b90546040519160031b1c8152f35b34610349576020366003190112610349576004355f52600760205261018060405f2080549060018101549060018060a01b0380600283015416906003830154166004830154600584015460068501549060078601549260ff6008880154169460098801549660ff600b600a8b01549a015416996040519b8c5260208c015260408b015260608a0152608089015260a088015260c087015260e086015215156101008501526101208401526101408301521515610160820152f35b34610349575f366003190112610349576020600154604051908152f35b60208060031936011261034957600435805f526005825260405f20906040519261216284613d28565b825484526001808401546001600160a01b03908116838701908152919061218b60028701613ee6565b60408801526003968787015460608201526121a860048801613ee6565b608082015261225560ff60058901541660a083019015158152600689015460c084015260ff60078a0154169260e0810193151584526101e061224a600e60088d01549c61010085019d8e5260ff6009820154161515610120860152600a81015461014086015288600b82015416610160860152600c81015461018086015260ff600d82015481811615156101a088015260081c1615156101c086015201613ee6565b910152511515614145565b51156125c95780835116331461257857612271865134146141cc565b61227c60045461406d565b92836004556123298860068484511696888b518b886040519661229e88613d60565b858852848801928352604088019c8d52606088019233845260808901948552600c60a08a019642885260c08b01985f8a525f525260405f2098518955518c89015581600289019d51169c6001600160601b0360a01b9d8e82541617905587019151168b82541617905551600485015551600584015551151591019060ff801983541691151516179055565b5f808080858551168190341561256e575b3491f115610dc6576123c06123548994959697995461406d565b808555838351166040519161236883613d60565b82525f89830152336040830152606082015234608082015260405161238c81613d7b565b600d81526c50524f50455254595f53414c4560981b8982015260a08201524260c0820152895f52600a885260405f20614218565b7f8d4e3385fd4440452df97750ad67b43f8fbe60bff4a539d21be1cdf3b9f550ab60a060045498848451169051604051918b83528c8b84015260408301523360608301526080820152a15116865f526005855260405f20938385019033908254161790555f6008600786019560ff199687815416905501555f526006845260405f20335f5260405f2091835f905b6124c0575b7f4b57d7a2efb9c923c803ed013532df2fc457683e64a60451ce82578fa6c123da6060898b8a8a8a612485848c614091565b835f52600d83526124998560405f20614091565b845f52600c8352600660405f200191825416179055604051928352820152336040820152a1005b8298959397969492548082101561256057866124dc838c613e2e565b905490851b1c146125065750906124f9839495969798999261406d565b909192949596989361244e565b5f1981019998908a116111de57612552896111c989946111b1612485977f4b57d7a2efb9c923c803ed013532df2fc457683e64a60451ce82578fa6c123da9f60609f906111a591613e2e565b939598508294969750612453565b508294969793959850612453565b6108fc915061233a565b60405162461bcd60e51b815260048101859052602360248201527f4f776e65722063616e6e6f7420627579207468656972206f776e2070726f706560448201526272747960e81b6064820152608490fd5b60405162461bcd60e51b815260048101859052601860248201527f50726f7065727479206973206e6f7420666f722073616c6500000000000000006044820152606490fd5b34610349576020806003193601126103495760043580915f5b825f526007808352600a918260405f20015415612658576126479061406d565b935f52825260405f20015491612627565b93505050600182018083116111de576126709061451a565b92905f5b8381111561268a57604051806103458782613cee565b8261269582876144e2565b528381106126ac575b6126a79061406d565b612674565b5f928352600782526040909220600a01549161269e565b34610349576020366003190112610349576126dc614589565b506004355f52600560205261034560405f206127ce600e6040519261270084613d28565b8054845260018101546001600160a01b03908116602086015261272560028301613ee6565b60408601526003820154606086015261274060048301613ee6565b608086015260ff600583015416151560a0860152600682015460c086015260ff600783015416151560e0860152600882015461010086015260ff6009830154161515610120860152600a820154610140860152600b82015416610160850152600c81015461018085015260ff600d82015481811615156101a087015260081c1615156101c085015201613ee6565b6101e0820152604051918291602083526020830190613f87565b3461034957602036600319011261034957600435805f526007602052600160405f2001545f52600560205261282d60018060a01b03600160405f2001541633146140b4565b805f52600760205261284860ff600860405f2001541661418a565b5f908152600760205260409020600801805460ff19169055005b346103495760403660031901126103495761287b613cc2565b6001600160a01b03165f908152600860205260409020805460243591908210156103495760209161205491613e2e565b34610349576020366003190112610349576004355f52600e60205260e060405f2060ff815491600181015490600281015460018060a01b036003830154169060056004840154930154936040519687526020870152604086015260608501526080840152818116151560a084015260081c16151560c0820152f35b346103495760403660031901126103495761293f613cc2565b6001600160a01b03165f908152600960205260409020805460243591908210156103495760209161205491613e2e565b346103495761297d36613e18565b905f52600a60205260405f209081548110156103495761299c91613e95565b508054600182015491612a0360018060a01b0391826002820154169260038201541660048201549060066129d260058501613ee6565b930154946040519788978852602088015260408701526060860152608085015260e060a085015260e0840190613e57565b9060c08301520390f35b34610349576020366003190112610349576040612a2b6004356143c4565b825191151582526020820152f35b34610349575f366003190112610349575f6001908154915b82811115612abf5750612a639061451a565b905f60015b82811115612a7e57604051806103458682613cee565b805f52600560205260ff600760405f20015416612aa4575b612a9f9061406d565b612a68565b90612ab7818361166f612a9f94886144e2565b919050612a96565b805f52600560205260ff600760405f20015416612ae5575b612ae09061406d565b612a51565b90612af2612ae09161406d565b919050612ad7565b34610349576020366003190112610349576004355f52600b602052602060405f2054604051908152f35b34610349576020806003193601126103495760043590815f52600780825260405f2060018060a01b03936002918583820154163314908115612cf7575b5015612cc1575f93919352600a815260405f2091825490612b8182614503565b94612b8f6040519687613d96565b8286525f9485528385208487019591865b858410612c5457505050505050604051928184019082855251809152604084019160408260051b86010193925f965b838810612bdc5786860387f35b90919293948380600192603f198a820301865288519081518152828201518382015285604083015116604082015260608681840151169082015260808083015190820152612c3960a060e0818501519184015260e0830190613e57565b9160c080910151910152970193019701969093929193612bcf565b848760019260409b999b51612c6881613d60565b8654815284870154838201528d868801541660408201528d600388015416606082015260048701546080820152612ca160058801613ee6565b60a0820152600687015460c0820152815201930193019291979597612ba0565b60405162461bcd60e51b815260048101859052600e60248201526d139bdd08185d5d1a1bdc9a5e995960921b6044820152606490fd5b6003015486163314905086612b61565b34610349576080366003190112610349576004355f908152600760205260409020600201546001600160a01b03163303613012576004355f52600760205260405f2060405190612d5682613d44565b805482526001810154602083015260028101546001600160a01b039081166040840152600382015416606083015260048101546080830152600581015460a0830152600681015460c0830152600781015460e0830152600881015460ff9081161580156101008501526009830154610120850152600a830154610140850152600b90920154161515610160830152612fcd576004355f526007602052600860405f200160ff198154169055612f3a612e0f60025461406d565b60028190556020830151604080850151606086015160e0870151925194936001600160a01b039182169290911690612e4686613d44565b848652602086015260408501526060840152602435608084015260443560a084015260c083015260643560e083015260016101008301524261012083015260043561014083015260016101608301525f526007602052600b61016060405f209280518455602081015160018501556002840160018060a01b03604083015116906001600160601b0360a01b9182825416179055600385019060018060a01b03606084015116908254161790556080810151600485015560a0810151600585015560c0810151600685015560e0810151600785015561095e6101008201511515600886019060ff801983541691151516179055565b606001516001600160a01b03165f908152600860205260409020600254612f6091614091565b335f526009602052612f7860405f2060025490614091565b60206002546004355f52600b82528060405f20557f5218b45ec4111b34f11772b33264cebe845c4a092cb61b4df792954c6c9780196060604051600435815283858201526064356040820152a1604051908152f35b60405162461bcd60e51b815260206004820152601e60248201527f43616e6e6f742072656e657720616e20696e616374697665206c6561736500006044820152606490fd5b60405162461bcd60e51b815260206004820152602560248201527f4f6e6c79206c616e646c6f72642063616e20706572666f726d2074686973206160448201526431ba34b7b760d91b6064820152608490fd5b346103495761307336613e18565b905f52600d60205260405f2080548210156103495760209161205491613e2e565b3461034957602080600319360112610349576004355f52600d815260405f209060405190818184549182815201935f52815f20915f905b8282106130e257610345856104e781890382613d96565b8354865294850194600193840193909101906130cb565b34610349576020366003190112610349576010546001600160a01b03906004359061312790831633146146c4565b8015158061329f575b6131399061471c565b805f52600560205260405f209061315a60ff600d84015460081c161561475e565b6001928380930154165f52600660205260405f20825f905b613238575b50508091505f5260056020526131ee600e60405f205f81555f858201556131a0600282016147aa565b5f60038201556131b2600482016147aa565b5f60058201555f60068201555f60078201555f60088201555f60098201555f600a8201555f600b8201555f600c8201555f600d820155016147aa565b81549081156111de575f19909101909155604080519182523360208301527f51922a50d941e0e3c221255fd634692203f6c5fd5110667ebc4dd41df303d80f91908190810161077f565b815480821015613299578361324d8385613e2e565b919054600392831b1c1461326c5750506132669061406d565b83613172565b9394505f19810193919084116111de576111b16111c9926111a56132909686613e2e565b81908380613177565b50613177565b50600154811115613130565b34610349576020366003190112610349576004355f52600c60205260e060405f2080549060018101549060018060a01b03806002830154169060038301541660048301549160ff600660058601549501541694604051968752602087015260408601526060850152608084015260a0830152151560c0820152f35b346103495761333436613e18565b815f52600560209080825260018060a01b039060019061335d838360405f2001541633146140b4565b855f5280845260ff600d60405f2001549361337d82600896871c166140f9565b875f52828652613394828460405f20015416614145565b861561354a57335f5260099081875260405f209260405180858a8297549384815201905f528a5f20925f5b8a8d83831061353557505050506133d892500385613d96565b5f865b61342e575b7f88b3e10fc821dcf6e0c9b8b02e38f5fff401bfab2172fb035d249c01f094de7d60408c8c8c818d8d8d865f528452865f2090600782019060ff1982541617905501558351928352820152a1005b845181101561353057906134fb8287858e8d8c6101608f600b8a849f9e9d9c928f829461345a916144e2565b515f526007998a885260405f20996040519761347589613d44565b8b5489528b015480998901528060028c015416604089015260038b015416606088015260048a0154608088015289015460a0870152600689015460c08701528989015460e087015288015416151596876101008601528d810154610120860152600a8101546101408601520154161515910152149081613528575b50613505575061406d565b90919293946133db565b61350f82886144e2565b515f528b528960405f200160ff1981541690558d611540565b90508f6134f0565b6133e0565b86548552958101958a955090930192016133bf565b60405162461bcd60e51b8152600481018790526024808201527f53616c65207072696365206d7573742062652067726561746572207468616e206044820152637a65726f60e01b6064820152608490fd5b3461034957602080600319360112610349576004356135b8614641565b805f52600f825260405f20335f52825260405f205491821561366757815f52600f815260405f20335f5281525f60408120555f80808086335af16135fa614695565b5015613631577f8f8619524e8d462cead34604bd2247ede24175801481e4d0b8059ac8aa41c301906040519384523393a360015f55005b6064906040519062461bcd60e51b82526004820152600f60248201526e151c985b9cd9995c8819985a5b1959608a1b6044820152fd5b6064906040519062461bcd60e51b8252600482015260146024820152734e6f2066756e647320746f20776974686472617760601b6044820152fd5b34610349576080366003190112610349576004356001600160401b038111610349576136d2903690600401613dd2565b6044356001600160401b038111610349576136f1903690600401613dd2565b6064356001600160401b03811161034957613710903690600401613dd2565b61371b60015461406d565b90816001556040519261372d84613d28565b828452336020850152846040850152602435606085015260808401525f60a08401524260c08401525f60e08401525f6101008401525f6101208401525f6101408401525f6101608401525f6101808401525f6101a08401525f6101c08401526101e08301525f52600560205260405f2091815183556001830160018060a01b036020840151166001600160601b0360a01b82541617905560408201519283516001600160401b038111613af1576137e76002830154613eae565b601f8111613c20575b506020601f8211600114613bb5578190613822939495965f92613a4e575b50508160011b915f199060031b1c19161790565b60028201555b6060830151600382015560808301518051906001600160401b038211613af1576138556004840154613eae565b601f8111613b82575b50602090601f8311600114613b105782600e936101e09593613894935f92613b055750508160011b915f199060031b1c19161790565b60048201555b6138b960a08601511515600583019060ff801983541691151516179055565b60c085015160068201556138e260e08601511515600783019060ff801983541691151516179055565b610100850151600882015561390d6101208601511515600983019060ff801983541691151516179055565b610140850151600a820155600b810160018060a01b03610160870151166001600160601b0360a01b825416179055610180850151600c820155613986600d820161396a6101a08801511515829060ff801983541691151516179055565b6101c0870151815461ff00191690151560081b61ff0016179055565b01920151908151926001600160401b038411613af1576020936139a98254613eae565b601f8111613ab8575b508493601f8211600114613a59576139e292939482915f92613a4e5750508160011b915f199060031b1c19161790565b90555b335f52600682526139fc60405f2060015490614091565b7fb33e9eef84e3eebf705c9f5736130e2f3eeae173c0b5a4f96c167b2186047d37613a43600154926040519182918583523387840152606060408401526060830190613e57565b0390a1604051908152f35b01519050868061380e565b601f19821694835f52865f20915f5b878110613aa1575083600195969710613a89575b505050811b0190556139e5565b01515f1960f88460031b161c19169055858080613a7c565b919288600181928685015181550194019201613a68565b613ae190835f52865f20601f840160051c810191888510613ae7575b601f0160051c019061407b565b856139b2565b9091508190613ad4565b634e487b7160e01b5f52604160045260245ffd5b01519050888061380e565b90600484015f5260205f20915f5b601f1985168110613b6a5750926101e09492600192600e9583601f19811610613b52575b505050811b01600482015561389a565b01515f1960f88460031b161c19169055878080613b42565b91926020600181928685015181550194019201613b1e565b613baf90600485015f5260205f20601f850160051c81019160208610613ae757601f0160051c019061407b565b8561385e565b600283015f5260205f20905f5b601f1984168110613c08575060019394959683601f19811610613bf0575b505050811b016002820155613828565b01515f1960f88460031b161c19169055858080613be0565b9091602060018192858b015181550193019101613bc2565b613c4d90600284015f5260205f20601f840160051c81019160208510613ae757601f0160051c019061407b565b856137f0565b346103495760209081600319360112610349576001600160a01b03613c76613cc2565b165f526008825260405f20918254808352818301935f52815f20915f905b828210613cab57610345856104e781890382613d96565b835486529485019460019384019390910190613c94565b600435906001600160a01b038216820361034957565b602435906001600160a01b038216820361034957565b602090816040818301928281528551809452019301915f5b828110613d14575050505090565b835185529381019392810192600101613d06565b61020081019081106001600160401b03821117613af157604052565b61018081019081106001600160401b03821117613af157604052565b60e081019081106001600160401b03821117613af157604052565b604081019081106001600160401b03821117613af157604052565b90601f801991011681019081106001600160401b03821117613af157604052565b6001600160401b038111613af157601f01601f191660200190565b81601f8201121561034957803590613de982613db7565b92613df76040519485613d96565b8284526020838301011161034957815f926020809301838601378301015290565b6040906003190112610349576004359060243590565b8054821015613e43575f5260205f2001905f90565b634e487b7160e01b5f52603260045260245ffd5b91908251928382525f5b848110613e81575050825f602080949584010152601f8019910116010190565b602081830181015184830182015201613e61565b8054821015613e43575f52600760205f20910201905f90565b90600182811c92168015613edc575b6020831014613ec857565b634e487b7160e01b5f52602260045260245ffd5b91607f1691613ebd565b9060405191825f8254613ef881613eae565b9081845260209460019182811690815f14613f655750600114613f27575b505050613f2592500383613d96565b565b5f90815285812095935091905b818310613f4d575050613f2593508201015f8080613f16565b85548884018501529485019487945091830191613f34565b92505050613f2594925060ff191682840152151560051b8201015f8080613f16565b9061406a916102009181518152613fdf613fc360208401519460018060a01b038096166020850152604085015190806040860152840190613e57565b6060840151606084015260808401518382036080850152613e57565b9260a0830151151560a083015260c083015160c083015260e0830151151560e083015261010080840151908301526101208084015115159083015261014080840151908301526101609081840151169082015261018080830151908201526101a0808301511515908201526101c0808301511515908201526101e08092015191818403910152613e57565b90565b5f1981146111de5760010190565b818110614086575050565b5f815560010161407b565b90815491600160401b831015613af157826111b1916001613f2595018155613e2e565b156140bb57565b60405162461bcd60e51b81526020600482015260166024820152752737ba103a343290383937b832b93a3c9037bbb732b960511b6044820152606490fd5b1561410057565b60405162461bcd60e51b815260206004820152601f60248201527f50726f7065727479206e6f7420617070726f766564206279206e6f74617279006044820152606490fd5b1561414c57565b60405162461bcd60e51b815260206004820152601660248201527550726f7065727479206973206e6f742061637469766560501b6044820152606490fd5b1561419157565b60405162461bcd60e51b81526020600482015260136024820152724c65617365206973206e6f742061637469766560681b6044820152606490fd5b156141d357565b60405162461bcd60e51b815260206004820152601860248201527f496e636f7272656374207061796d656e7420616d6f756e7400000000000000006044820152606490fd5b908154600160401b811015613af157614238906001938482018155613e95565b9290926143a4578151835560209081830151818501556002840160018060a01b039081604086015116906001600160601b0360a01b918282541617905560038601916060860151169082541617905560808301516004850155600584019160a08401518051926001600160401b038411613af1576142b68554613eae565b601f8111614376575b5082601f851160011461430a575050826006959360c095936142f5935f926142ff5750508160011b915f199060031b1c19161790565b90555b0151910155565b015190505f8061380e565b91601f94939194198416865f52835f20935f905b82821061435f575050916006979593918560c098969410614347575b505050811b0190556142f8565b01515f1960f88460031b161c191690555f808061433a565b80888697829497870151815501960194019061431e565b61439e90865f52845f20601f870160051c810191868810613ae757601f0160051c019061407b565b5f6142bf565b634e487b7160e01b5f525f60045260245ffd5b919082039182116111de57565b5f52600760205260405f20604051906143dc82613d44565b80548083526001820154602084015260018060a01b03806002840154166040850152600383015416606084015260048201546080840152600582015460a0840152600682015460c084015260078201549260e0810193845261016060ff600b8160088701541695610100850196151587526009810154610120860152600a8101546101408601520154161515910152156144a657511561449f57518042116144975761448d620151809142906143b7565b0490601e82109190565b506001905f90565b505f905f90565b60405162461bcd60e51b81526020600482015260146024820152731319585cd948191bd95cc81b9bdd08195e1a5cdd60621b6044820152606490fd5b8051821015613e435760209160051b010190565b919082018092116111de57565b6001600160401b038111613af15760051b60200190565b9061452482614503565b6145316040519182613d96565b8281528092614542601f1991614503565b0190602036910137565b8054908115614575575f19918201916145658383613e2e565b909182549160031b1b1916905555565b634e487b7160e01b5f52603160045260245ffd5b6040519061459682613d28565b60606101e0835f80825280602083015283604083015280848301528360808301528060a08301528060c08301528060e08301528061010083015280610120830152806101408301528061016083015280610180830152806101a08301526101c08201520152565b1561460457565b60405162461bcd60e51b8152602060048201526015602482015274105d58dd1a5bdb88185b1c9958591e48195b991959605a1b6044820152606490fd5b60025f54146146505760025f55565b60405162461bcd60e51b815260206004820152601f60248201527f5265656e7472616e637947756172643a207265656e7472616e742063616c6c006044820152606490fd5b3d156146bf573d906146a682613db7565b916146b46040519384613d96565b82523d5f602084013e565b606090565b156146cb57565b60405162461bcd60e51b815260206004820152602360248201527f4f6e6c79206e6f746172792063616e20706572666f726d20746869732061637460448201526234b7b760e91b6064820152608490fd5b1561472357565b60405162461bcd60e51b8152602060048201526013602482015272125b9d985b1a59081c1c9bdc195c9d1e481251606a1b6044820152606490fd5b1561476557565b60405162461bcd60e51b815260206004820152601960248201527f50726f706572747920616c726561647920617070726f766564000000000000006044820152606490fd5b6147b48154613eae565b90816147be575050565b81601f5f93116001146147cf575055565b9080839182526147ee601f60208420940160051c84016001850161407b565b555556fea26469706673582212208b7c00847105eb699dc7feb728584671350ce7551d30a7d676a7ebfa072ef8c864736f6c63430008150033",
  "immutableReferences": {},
  "source": "// SPDX-License-Identifier: MIT\r\npragma solidity ^0.8.21;\r\n\r\nimport \"@openzeppelin/contracts/security/ReentrancyGuard.sol\";\r\n\r\ncontract PropertyManagement is ReentrancyGuard {\r\n    // Struct to store property details\r\n    struct Property {\r\n        uint256 id;\r\n        address owner;\r\n        string propertyAddress;\r\n        uint256 size;\r\n        string propertyType;\r\n        bool isActive;\r\n        uint256 createdAt;\r\n        bool isForSale;\r\n        uint256 salePrice;\r\n        // Auction related fields\r\n        bool onAuction;\r\n        uint256 auctionEndTime;\r\n        address highestBidder;\r\n        uint256 highestBid;\r\n        bool auctionEnded;\r\n        bool isApproved;  // New field for notary approval\r\n        string documentHash;  // New field for property document hash\r\n    }\r\n    \r\n    // Struct to store lease agreement details\r\n    struct LeaseAgreement {\r\n        uint256 id;\r\n        uint256 propertyId;\r\n        address landlord;\r\n        address tenant;\r\n        uint256 monthlyRent;\r\n        uint256 securityDeposit;\r\n        uint256 startDate;\r\n        uint256 endDate;\r\n        bool isActive;\r\n        uint256 createdAt;\r\n        uint256 previousLeaseId; // Track renewal chain\r\n        bool isRenewal;          // Flag to indicate if this is a renewal\r\n    }\r\n    \r\n    // Struct to store property sale details\r\n    struct PropertySale {\r\n        uint256 id;\r\n        uint256 propertyId;\r\n        address seller;\r\n        address buyer;\r\n        uint256 salePrice;\r\n        uint256 timestamp;\r\n        bool completed;\r\n    }\r\n    \r\n    // Struct to store transaction details\r\n    struct Transaction {\r\n        uint256 id;\r\n        uint256 leaseId;\r\n        address from;\r\n        address to;\r\n        uint256 amount;\r\n        string transactionType; // \"RENT\", \"SECURITY_DEPOSIT\", \"REFUND\"\r\n        uint256 timestamp;\r\n    }\r\n    \r\n    // Struct to store auction details\r\n    struct Auction {\r\n        uint256 propertyId;\r\n        uint256 startingPrice;\r\n        uint256 highestBid;\r\n        address highestBidder;\r\n        uint256 auctionEndTime;\r\n        bool ended;\r\n        bool exists;\r\n    }\r\n    \r\n    // Counters for generating IDs\r\n    uint256 private propertyCounter;\r\n    uint256 private leaseCounter;\r\n    uint256 private transactionCounter;\r\n    uint256 private saleCounter; //Counter for property sales\r\n    // Mappings to store data\r\n    mapping(uint256 => Property) public properties;\r\n    mapping(address => uint256[]) public ownerProperties;\r\n    mapping(uint256 => LeaseAgreement) public leaseAgreements;\r\n    mapping(address => uint256[]) public tenantLeases;\r\n    mapping(address => uint256[]) public landlordLeases;\r\n    mapping(uint256 => Transaction[]) public leaseTransactions;\r\n    mapping(uint256 => uint256) public renewedLeases; // Maps old lease ID to new lease ID\r\n    mapping(uint256 => PropertySale) public propertySales; // NEW: Map property sales by ID\r\n    mapping(uint256 => uint256[]) public propertyTransferHistory; // NEW: Record property ownership transfers\r\n    mapping(uint256 => Auction) public auctions; // propertyId => Auction\r\n    mapping(uint256 => mapping(address => uint256)) public pendingReturns; // propertyId => (bidder => amount)\r\n   \r\n    // Notary related state variables\r\n    address public notary;\r\n    mapping(uint256 => bool) public propertyApprovals;\r\n    mapping(uint256 => string) public propertyDocuments;\r\n   \r\n    // Events\r\n    event PropertyRegistered(uint256 propertyId, address owner, string propertyAddress);\r\n    event LeaseCreated(uint256 leaseId, uint256 propertyId, address landlord, address tenant);\r\n    event PaymentReceived(uint256 leaseId, address from, address to, uint256 amount, string transactionType);\r\n    event LeaseRenewed(uint256 oldLeaseId, uint256 newLeaseId, uint256 newEndDate);\r\n    event LeaseExpiringSoon(uint256 leaseId, uint256 daysRemaining);\r\n    event PropertyListedForSale(uint256 propertyId, uint256 price); // NEW: Event for listing property\r\n    event PropertySaleCancelled(uint256 propertyId); // NEW: Event for cancelling sale\r\n    event PropertySaleInitiated(uint256 saleId, uint256 propertyId, address seller, address buyer, uint256 price); // NEW: Event for sale process\r\n    event PropertySaleCompleted(uint256 saleId, uint256 propertyId, address newOwner); // NEW: Event for completed sale\r\n    event AuctionStarted(uint256 indexed propertyId, uint256 startingPrice, uint256 duration);\r\n    event BidPlaced(uint256 indexed propertyId, address indexed bidder, uint256 amount);\r\n    event AuctionEnded(uint256 indexed propertyId, address winner, uint256 amount);\r\n    event BidWithdrawn(uint256 indexed propertyId, address indexed bidder, uint256 amount);\r\n    event PropertySubmitted(uint256 propertyId, address owner, string propertyAddress);\r\n    event PropertyApproved(uint256 propertyId, address notary);\r\n    event PropertyRejected(uint256 propertyId, address notary);\r\n   \r\n    constructor() {\r\n        notary = msg.sender; // Set the contract deployer as the notary\r\n    }\r\n    \r\n    // Modifiers\r\n    modifier onlyPropertyOwner(uint256 _propertyId) {\r\n        require(properties[_propertyId].owner == msg.sender, \"Not the property owner\");\r\n        _;\r\n    }\r\n    \r\n    modifier onlyLandlordOrTenant(uint256 _leaseId) {\r\n        require(\r\n            leaseAgreements[_leaseId].landlord == msg.sender || \r\n            leaseAgreements[_leaseId].tenant == msg.sender,\r\n            \"Not authorized\"\r\n        );\r\n        _;\r\n    }\r\n\r\n    modifier onlyLandlord(uint256 _leaseId) {\r\n        require(leaseAgreements[_leaseId].landlord == msg.sender, \"Only landlord can perform this action\");\r\n        _;\r\n    }\r\n    \r\n    modifier onlyNotary() {\r\n        require(msg.sender == notary, \"Only notary can perform this action\");\r\n        _;\r\n    }\r\n    \r\n    // Getter function for propertyCounter\r\n    function getPropertyCounter() public view returns (uint256) {\r\n        return propertyCounter;\r\n    }\r\n    \r\n    // Function to register a new property\r\n    function registerProperty(\r\n        string memory _propertyAddress,\r\n        uint256 _size,\r\n        string memory _propertyType,\r\n        string memory _documentHash\r\n    ) external returns (uint256) {\r\n        propertyCounter++;\r\n        \r\n        Property memory newProperty = Property({\r\n            id: propertyCounter,\r\n            owner: msg.sender,\r\n            propertyAddress: _propertyAddress,\r\n            size: _size,\r\n            propertyType: _propertyType,\r\n            isActive: false,  // Set to false until approved\r\n            createdAt: block.timestamp,\r\n            isForSale: false,\r\n            salePrice: 0,\r\n            onAuction: false,\r\n            auctionEndTime: 0,\r\n            highestBidder: address(0),\r\n            highestBid: 0,\r\n            auctionEnded: false,\r\n            isApproved: false,\r\n            documentHash: _documentHash\r\n        });\r\n        \r\n        properties[propertyCounter] = newProperty;\r\n        ownerProperties[msg.sender].push(propertyCounter);\r\n        \r\n        emit PropertySubmitted(propertyCounter, msg.sender, _propertyAddress);\r\n        return propertyCounter;\r\n    }\r\n    \r\n    // Function to create a lease agreement\r\n    function createLeaseAgreement(\r\n        uint256 _propertyId,\r\n        address _tenant,\r\n        uint256 _monthlyRent,\r\n        uint256 _securityDeposit,\r\n        uint256 _startDate,\r\n        uint256 _endDate\r\n    ) external onlyPropertyOwner(_propertyId) onlyApprovedProperty(_propertyId) returns (uint256) {\r\n        require(properties[_propertyId].isActive, \"Property is not active\");\r\n        require(!properties[_propertyId].isForSale, \"Property is currently for sale\"); //Cannot lease property that's for sale\r\n        require(_tenant != address(0), \"Invalid tenant address\");\r\n        require(_startDate < _endDate, \"Invalid lease duration\");\r\n        \r\n        leaseCounter++;\r\n        \r\n        LeaseAgreement memory newLease = LeaseAgreement({\r\n            id: leaseCounter,\r\n            propertyId: _propertyId,\r\n            landlord: msg.sender,\r\n            tenant: _tenant,\r\n            monthlyRent: _monthlyRent,\r\n            securityDeposit: _securityDeposit,\r\n            startDate: _startDate,\r\n            endDate: _endDate,\r\n            isActive: true,\r\n            createdAt: block.timestamp,\r\n            previousLeaseId: 0,\r\n            isRenewal: false\r\n        });\r\n        \r\n        leaseAgreements[leaseCounter] = newLease;\r\n        tenantLeases[_tenant].push(leaseCounter);\r\n        landlordLeases[msg.sender].push(leaseCounter);\r\n        \r\n        emit LeaseCreated(leaseCounter, _propertyId, msg.sender, _tenant);\r\n        return leaseCounter;\r\n    }\r\n    \r\n    // Function to pay rent or security deposit\r\n    function makePayment(uint256 _leaseId, string memory _transactionType) external payable {\r\n        LeaseAgreement memory lease = leaseAgreements[_leaseId];\r\n        require(lease.isActive, \"Lease is not active\");\r\n        require(lease.tenant == msg.sender, \"Not the tenant of this lease\");\r\n        \r\n        uint256 requiredAmount = 0;\r\n        \r\n        if (keccak256(bytes(_transactionType)) == keccak256(bytes(\"RENT\"))) {\r\n            requiredAmount = lease.monthlyRent;\r\n        } else if (keccak256(bytes(_transactionType)) == keccak256(bytes(\"SECURITY_DEPOSIT\"))) {\r\n            requiredAmount = lease.securityDeposit;\r\n        } else {\r\n            revert(\"Invalid transaction type\");\r\n        }\r\n        \r\n        require(msg.value == requiredAmount, \"Incorrect payment amount\");\r\n        \r\n        // Transfer the payment to the landlord\r\n        payable(lease.landlord).transfer(msg.value);\r\n        \r\n        // Record the transaction\r\n        transactionCounter++;\r\n        Transaction memory newTransaction = Transaction({\r\n            id: transactionCounter,\r\n            leaseId: _leaseId,\r\n            from: msg.sender,\r\n            to: lease.landlord,\r\n            amount: msg.value,\r\n            transactionType: _transactionType,\r\n            timestamp: block.timestamp\r\n        });\r\n        \r\n        leaseTransactions[_leaseId].push(newTransaction);\r\n        \r\n        emit PaymentReceived(_leaseId, msg.sender, lease.landlord, msg.value, _transactionType);\r\n    }\r\n    \r\n    // Function to terminate a lease\r\n    function terminateLease(uint256 _leaseId) external onlyPropertyOwner(leaseAgreements[_leaseId].propertyId) {\r\n        require(leaseAgreements[_leaseId].isActive, \"Lease is not active\");\r\n        leaseAgreements[_leaseId].isActive = false;\r\n    }\r\n    \r\n    // Check if a lease is expiring soon\r\n    function checkLeaseExpiration(uint256 _leaseId) external view returns (bool isExpiring, uint256 daysRemaining) {\r\n        LeaseAgreement memory lease = leaseAgreements[_leaseId];\r\n        require(lease.id > 0, \"Lease does not exist\");\r\n        \r\n        // If lease is not active, it's already expired or terminated\r\n        if (!lease.isActive) {\r\n            return (false, 0);\r\n        }\r\n        \r\n        uint256 currentTime = block.timestamp;\r\n        \r\n        // If current time is past end date, lease has expired\r\n        if (currentTime > lease.endDate) {\r\n            return (true, 0);\r\n        }\r\n        \r\n        // Calculate days remaining (approximate as block timestamps can vary)\r\n        uint256 timeRemaining = lease.endDate - currentTime;\r\n        uint256 daysLeft = timeRemaining / 86400; // 86400 seconds in a day\r\n        \r\n        // Consider \"expiring soon\" if less than 30 days remaining\r\n        return (daysLeft < 30, daysLeft);\r\n    }\r\n    \r\n    // Renew a lease agreement\r\n    function renewLease(\r\n        uint256 _leaseId,\r\n        uint256 _newMonthlyRent,\r\n        uint256 _newSecurityDeposit,\r\n        uint256 _newEndDate\r\n    ) external onlyLandlord(_leaseId) returns (uint256) {\r\n        LeaseAgreement memory oldLease = leaseAgreements[_leaseId];\r\n        require(oldLease.isActive, \"Cannot renew an inactive lease\");\r\n        \r\n        // End the current lease\r\n        leaseAgreements[_leaseId].isActive = false;\r\n        \r\n        // Create a new lease as a renewal\r\n        leaseCounter++;\r\n        \r\n        LeaseAgreement memory newLease = LeaseAgreement({\r\n            id: leaseCounter,\r\n            propertyId: oldLease.propertyId,\r\n            landlord: oldLease.landlord,\r\n            tenant: oldLease.tenant,\r\n            monthlyRent: _newMonthlyRent,\r\n            securityDeposit: _newSecurityDeposit,\r\n            startDate: oldLease.endDate, // Start new lease when old one ends\r\n            endDate: _newEndDate,\r\n            isActive: true,\r\n            createdAt: block.timestamp,\r\n            previousLeaseId: _leaseId,\r\n            isRenewal: true\r\n        });\r\n        \r\n        leaseAgreements[leaseCounter] = newLease;\r\n        tenantLeases[oldLease.tenant].push(leaseCounter);\r\n        landlordLeases[msg.sender].push(leaseCounter);\r\n        \r\n        // Record the renewal relationship\r\n        renewedLeases[_leaseId] = leaseCounter;\r\n        \r\n        emit LeaseRenewed(_leaseId, leaseCounter, _newEndDate);\r\n        return leaseCounter;\r\n    }\r\n    \r\n    // FUNCTION: Get all expiring leases for a landlord (within 30 days)\r\n    function getExpiringLeases(address _landlord) external view returns (uint256[] memory) {\r\n        uint256[] memory landlordLeaseList = landlordLeases[_landlord];\r\n        uint256 count = 0;\r\n        \r\n        // First, count expiring leases\r\n        for (uint i = 0; i < landlordLeaseList.length; i++) {\r\n            uint256 leaseId = landlordLeaseList[i];\r\n            LeaseAgreement memory lease = leaseAgreements[leaseId];\r\n            \r\n            if (lease.isActive && lease.endDate <= block.timestamp + 30 days && lease.endDate > block.timestamp) {\r\n                count++;\r\n            }\r\n        }\r\n        \r\n        // Create array of correct size\r\n        uint256[] memory expiringLeases = new uint256[](count);\r\n        uint256 index = 0;\r\n        \r\n        // Populate array with expiring lease IDs\r\n        for (uint i = 0; i < landlordLeaseList.length; i++) {\r\n            uint256 leaseId = landlordLeaseList[i];\r\n            LeaseAgreement memory lease = leaseAgreements[leaseId];\r\n            \r\n            if (lease.isActive && lease.endDate <= block.timestamp + 30 days && lease.endDate > block.timestamp) {\r\n                expiringLeases[index] = leaseId;\r\n                index++;\r\n            }\r\n        }\r\n        \r\n        return expiringLeases;\r\n    }\r\n    \r\n    //FUNCTION: Get renewal history of a lease\r\n    function getLeaseRenewalHistory(uint256 _leaseId) external view returns (uint256[] memory) {\r\n        // Start with current lease\r\n        uint256 currentLeaseId = _leaseId;\r\n        uint256 historyLength = 0;\r\n        \r\n        // First, count the history length\r\n        while (leaseAgreements[currentLeaseId].previousLeaseId != 0) {\r\n            historyLength++;\r\n            currentLeaseId = leaseAgreements[currentLeaseId].previousLeaseId;\r\n        }\r\n        \r\n        // Create array of history\r\n        uint256[] memory history = new uint256[](historyLength + 1);\r\n        \r\n        // Populate history array (most recent first)\r\n        currentLeaseId = _leaseId;\r\n        for (uint i = 0; i <= historyLength; i++) {\r\n            history[i] = currentLeaseId;\r\n            if (i < historyLength) {\r\n                currentLeaseId = leaseAgreements[currentLeaseId].previousLeaseId;\r\n            }\r\n        }\r\n        \r\n        return history;\r\n    }\r\n    \r\n     //NEW: Function to list a property for sale\r\n    function listPropertyForSale(uint256 _propertyId, uint256 _price) external onlyPropertyOwner(_propertyId) onlyApprovedProperty(_propertyId) {\r\n        require(properties[_propertyId].isActive, \"Property is not active\");\r\n        require(_price > 0, \"Sale price must be greater than zero\");\r\n        \r\n        // Check if the property has any active leases\r\n        uint256[] memory landlordLeaseList = landlordLeases[msg.sender];\r\n        for (uint i = 0; i < landlordLeaseList.length; i++) {\r\n            LeaseAgreement memory lease = leaseAgreements[landlordLeaseList[i]];\r\n            if (lease.propertyId == _propertyId && lease.isActive) {\r\n                // End the lease before selling\r\n                leaseAgreements[landlordLeaseList[i]].isActive = false;\r\n            }\r\n        }\r\n        \r\n        // Mark property as for sale\r\n        properties[_propertyId].isForSale = true;\r\n        properties[_propertyId].salePrice = _price;\r\n        \r\n        emit PropertyListedForSale(_propertyId, _price);\r\n    }\r\n\r\n\r\n // NEW: Function to cancel property listing\r\n    function cancelPropertySale(uint256 _propertyId) external onlyPropertyOwner(_propertyId) {\r\n        require(properties[_propertyId].isForSale, \"Property is not listed for sale\");\r\n        \r\n        properties[_propertyId].isForSale = false;\r\n        properties[_propertyId].salePrice = 0;\r\n        \r\n        emit PropertySaleCancelled(_propertyId);\r\n    }\r\n    \r\n    // NEW: Function to initiate property purchase\r\n    function initiatePropertyPurchase(uint256 _propertyId) external payable {\r\n        Property memory property = properties[_propertyId];\r\n        require(property.isActive, \"Property is not active\");\r\n        require(property.isForSale, \"Property is not for sale\");\r\n        require(property.owner != msg.sender, \"Owner cannot buy their own property\");\r\n        require(msg.value == property.salePrice, \"Incorrect payment amount\");\r\n        \r\n        // Create sale record\r\n        saleCounter++;\r\n        PropertySale memory newSale = PropertySale({\r\n            id: saleCounter,\r\n            propertyId: _propertyId,\r\n            seller: property.owner,\r\n            buyer: msg.sender,\r\n            salePrice: property.salePrice,\r\n            timestamp: block.timestamp,\r\n            completed: false\r\n        });\r\n        \r\n        propertySales[saleCounter] = newSale;\r\n        \r\n        // Transfer the payment to the seller\r\n        payable(property.owner).transfer(msg.value);\r\n        \r\n        // Record the transaction\r\n        transactionCounter++;\r\n        Transaction memory newTransaction = Transaction({\r\n            id: transactionCounter,\r\n            leaseId: 0, // Not related to a lease\r\n            from: msg.sender,\r\n            to: property.owner,\r\n            amount: msg.value,\r\n            transactionType: \"PROPERTY_SALE\",\r\n            timestamp: block.timestamp\r\n        });\r\n        \r\n        // Store the transaction under a dummy lease ID that represents property sales\r\n        leaseTransactions[_propertyId].push(newTransaction);\r\n        \r\n        emit PropertySaleInitiated(saleCounter, _propertyId, property.owner, msg.sender, property.salePrice);\r\n        \r\n        // Complete the property transfer\r\n        _completePropertyTransfer(_propertyId, property.owner, msg.sender, saleCounter);\r\n    }\r\n    \r\n    // Internal function to complete property transfer\r\n    function _completePropertyTransfer(\r\n        uint256 _propertyId, \r\n        address _previousOwner, \r\n        address _newOwner,\r\n        uint256 _saleId\r\n    ) internal {\r\n        // Update property ownership\r\n        properties[_propertyId].owner = _newOwner;\r\n        properties[_propertyId].isForSale = false;\r\n        properties[_propertyId].salePrice = 0;\r\n        \r\n        // Remove from previous owner's list and add to new owner's list\r\n        uint256[] storage previousOwnerProperties = ownerProperties[_previousOwner];\r\n        uint256[] storage newOwnerProperties = ownerProperties[_newOwner];\r\n        \r\n        // Find and remove from previous owner\r\n        for (uint i = 0; i < previousOwnerProperties.length; i++) {\r\n            if (previousOwnerProperties[i] == _propertyId) {\r\n                // Replace with the last element and pop\r\n                previousOwnerProperties[i] = previousOwnerProperties[previousOwnerProperties.length - 1];\r\n                previousOwnerProperties.pop();\r\n                break;\r\n            }\r\n        }\r\n        \r\n        // Add to new owner\r\n        newOwnerProperties.push(_propertyId);\r\n        \r\n        // Record transfer in history\r\n        propertyTransferHistory[_propertyId].push(_saleId);\r\n        \r\n        // Mark sale as completed\r\n        propertySales[_saleId].completed = true;\r\n        \r\n        emit PropertySaleCompleted(_saleId, _propertyId, _newOwner);\r\n    }\r\n    \r\n    // NEW: Function to get properties for sale\r\n    function getPropertiesForSale() external view returns (uint256[] memory) {\r\n        uint256 count = 0;\r\n        \r\n        // First, count properties for sale\r\n        for (uint i = 1; i <= propertyCounter; i++) {\r\n            if (properties[i].isForSale) {\r\n                count++;\r\n            }\r\n        }\r\n        \r\n        // Create array of correct size\r\n        uint256[] memory forSaleProperties = new uint256[](count);\r\n        uint256 index = 0;\r\n        \r\n        // Populate array with property IDs\r\n        for (uint i = 1; i <= propertyCounter; i++) {\r\n            if (properties[i].isForSale) {\r\n                forSaleProperties[index] = i;\r\n                index++;\r\n            }\r\n        }\r\n        \r\n        return forSaleProperties;\r\n    }\r\n    \r\n    // NEW: Function to get property transfer history\r\n    function getPropertyTransferHistory(uint256 _propertyId) external view returns (uint256[] memory) {\r\n        return propertyTransferHistory[_propertyId];\r\n    }\r\n    \r\n    // NEW: Function to get property sale details\r\n    function getPropertySale(uint256 _saleId) external view returns (PropertySale memory) {\r\n        return propertySales[_saleId];\r\n    }\r\n    \r\n\r\n    // Getter functions\r\n    function getPropertyById(uint256 _propertyId) external view returns (Property memory) {\r\n        return properties[_propertyId];\r\n    }\r\n    \r\n    function getOwnerProperties(address _owner) external view returns (uint256[] memory) {\r\n        return ownerProperties[_owner];\r\n    }\r\n    \r\n    function getLeaseById(uint256 _leaseId) external view returns (LeaseAgreement memory) {\r\n        return leaseAgreements[_leaseId];\r\n    }\r\n    \r\n    function getTenantLeases(address _tenant) external view returns (uint256[] memory) {\r\n        return tenantLeases[_tenant];\r\n    }\r\n    \r\n    function getLandlordLeases(address _landlord) external view returns (uint256[] memory) {\r\n        return landlordLeases[_landlord];\r\n    }\r\n    \r\n    function getLeaseTransactions(uint256 _leaseId) external view onlyLandlordOrTenant(_leaseId) returns (Transaction[] memory) {\r\n        return leaseTransactions[_leaseId];\r\n    }\r\n\r\n    // Function to start an auction for a property\r\n    function startAuction(\r\n        uint256 _propertyId,\r\n        uint256 _startingPrice,\r\n        uint256 _durationInSeconds\r\n    ) external onlyPropertyOwner(_propertyId) onlyApprovedProperty(_propertyId) {\r\n        Property storage property = properties[_propertyId];\r\n        require(property.isActive, \"Property is not active\");\r\n        require(!property.onAuction, \"Property is already on auction\");\r\n        require(!property.isForSale, \"Property is already listed for sale\");\r\n        require(_startingPrice > 0, \"Starting price must be greater than 0\");\r\n        require(_durationInSeconds >= 1 hours, \"Auction duration must be at least 1 hour\");\r\n        require(_durationInSeconds <= 30 days, \"Auction duration cannot exceed 30 days\");\r\n\r\n        property.onAuction = true;\r\n        property.auctionEndTime = block.timestamp + _durationInSeconds;\r\n        property.highestBid = _startingPrice;\r\n        property.highestBidder = address(0);\r\n        property.auctionEnded = false;\r\n\r\n        auctions[_propertyId] = Auction({\r\n            propertyId: _propertyId,\r\n            startingPrice: _startingPrice,\r\n            highestBid: _startingPrice,\r\n            highestBidder: address(0),\r\n            auctionEndTime: block.timestamp + _durationInSeconds,\r\n            ended: false,\r\n            exists: true\r\n        });\r\n\r\n        emit AuctionStarted(_propertyId, _startingPrice, _durationInSeconds);\r\n    }\r\n\r\n    // Function to place a bid on a property\r\n    function placeBid(uint256 _propertyId) external payable nonReentrant {\r\n        Property storage property = properties[_propertyId];\r\n        require(property.onAuction, \"Property is not on auction\");\r\n        require(block.timestamp < property.auctionEndTime, \"Auction already ended\");\r\n        require(msg.value > property.highestBid, \"Bid must be higher than current highest bid\");\r\n        require(msg.sender != property.owner, \"Owner cannot bid on their own property\");\r\n\r\n        // If there was a previous bid, add it to pending returns\r\n        if (property.highestBidder != address(0)) {\r\n            pendingReturns[_propertyId][property.highestBidder] += property.highestBid;\r\n        }\r\n\r\n        property.highestBidder = msg.sender;\r\n        property.highestBid = msg.value;\r\n\r\n        // Update auction details\r\n        Auction storage auction = auctions[_propertyId];\r\n        auction.highestBidder = msg.sender;\r\n        auction.highestBid = msg.value;\r\n\r\n        emit BidPlaced(_propertyId, msg.sender, msg.value);\r\n    }\r\n\r\n    // Function to withdraw a bid that was outbid\r\n    function withdrawBid(uint256 _propertyId) external nonReentrant {\r\n        uint256 amount = pendingReturns[_propertyId][msg.sender];\r\n        require(amount > 0, \"No funds to withdraw\");\r\n\r\n        pendingReturns[_propertyId][msg.sender] = 0;\r\n\r\n        (bool success, ) = payable(msg.sender).call{value: amount}(\"\");\r\n        require(success, \"Transfer failed\");\r\n\r\n        emit BidWithdrawn(_propertyId, msg.sender, amount);\r\n    }\r\n\r\n    // Function to end an auction\r\n    function endAuction(uint256 _propertyId) external nonReentrant {\r\n        Property storage property = properties[_propertyId];\r\n        Auction storage auction = auctions[_propertyId];\r\n        \r\n        require(property.onAuction, \"No active auction\");\r\n        require(!property.auctionEnded, \"Auction already ended\");\r\n        require(block.timestamp >= property.auctionEndTime, \"Auction still in progress\");\r\n        require(msg.sender == property.owner || msg.sender == property.highestBidder, \"Only owner or highest bidder can end auction\");\r\n\r\n        property.auctionEnded = true;\r\n        property.onAuction = false;\r\n        auction.ended = true;\r\n\r\n        if (property.highestBidder != address(0)) {\r\n            // Transfer ownership\r\n            address previousOwner = property.owner;\r\n            property.owner = property.highestBidder;\r\n\r\n            // Remove property from previous owner's list\r\n            uint256[] storage previousOwnerProperties = ownerProperties[previousOwner];\r\n            for (uint256 i = 0; i < previousOwnerProperties.length; i++) {\r\n                if (previousOwnerProperties[i] == _propertyId) {\r\n                    previousOwnerProperties[i] = previousOwnerProperties[previousOwnerProperties.length - 1];\r\n                    previousOwnerProperties.pop();\r\n                    break;\r\n                }\r\n            }\r\n\r\n            // Add property to new owner's list\r\n            ownerProperties[property.highestBidder].push(_propertyId);\r\n\r\n            // Transfer the highest bid to the previous owner\r\n            (bool success, ) = payable(previousOwner).call{value: property.highestBid}(\"\");\r\n            require(success, \"Transfer to previous owner failed\");\r\n\r\n            emit AuctionEnded(_propertyId, property.highestBidder, property.highestBid);\r\n        } else {\r\n            emit AuctionEnded(_propertyId, address(0), 0);\r\n        }\r\n    }\r\n\r\n    // View function to get auction details\r\n    function getAuctionDetails(uint256 _propertyId) external view returns (\r\n        bool onAuction,\r\n        uint256 auctionEndTime,\r\n        address highestBidder,\r\n        uint256 highestBid,\r\n        bool ended\r\n    ) {\r\n        Property memory property = properties[_propertyId];\r\n        return (\r\n            property.onAuction,\r\n            property.auctionEndTime,\r\n            property.highestBidder,\r\n            property.highestBid,\r\n            property.auctionEnded\r\n        );\r\n    }\r\n\r\n    // View function to get pending returns for a bidder\r\n    function getPendingReturn(uint256 _propertyId, address _bidder) external view returns (uint256) {\r\n        return pendingReturns[_propertyId][_bidder];\r\n    }\r\n\r\n    // Function to get a range of properties\r\n    function getProperties(uint256 start, uint256 end) external view returns (Property[] memory) {\r\n        require(start <= end, \"Invalid range\");\r\n        require(end <= propertyCounter, \"End index out of bounds\");\r\n        \r\n        uint256 size = end - start + 1;\r\n        Property[] memory result = new Property[](size);\r\n        \r\n        for (uint256 i = 0; i < size; i++) {\r\n            result[i] = properties[start + i];\r\n        }\r\n        \r\n        return result;\r\n    }\r\n\r\n    // Function for notary to approve property\r\n    function approveProperty(uint256 _propertyId) external onlyNotary {\r\n        require(_propertyId > 0 && _propertyId <= propertyCounter, \"Invalid property ID\");\r\n        Property storage property = properties[_propertyId];\r\n        require(!property.isApproved, \"Property already approved\");\r\n        \r\n        property.isApproved = true;\r\n        property.isActive = true;\r\n        propertyApprovals[_propertyId] = true;\r\n        \r\n        emit PropertyApproved(_propertyId, msg.sender);\r\n    }\r\n\r\n    // Function for notary to reject property\r\n    function rejectProperty(uint256 _propertyId) external onlyNotary {\r\n        require(_propertyId > 0 && _propertyId <= propertyCounter, \"Invalid property ID\");\r\n        Property storage property = properties[_propertyId];\r\n        require(!property.isApproved, \"Property already approved\");\r\n        \r\n        // Remove property from owner's list\r\n        uint256[] storage ownerProps = ownerProperties[property.owner];\r\n        for (uint i = 0; i < ownerProps.length; i++) {\r\n            if (ownerProps[i] == _propertyId) {\r\n                ownerProps[i] = ownerProps[ownerProps.length - 1];\r\n                ownerProps.pop();\r\n                break;\r\n            }\r\n        }\r\n        \r\n        delete properties[_propertyId];\r\n        propertyCounter--;\r\n        \r\n        emit PropertyRejected(_propertyId, msg.sender);\r\n    }\r\n\r\n    // Function to get pending properties for notary approval\r\n    function getPendingProperties() external view returns (uint256[] memory) {\r\n        uint256 pendingCount = 0;\r\n        \r\n        // First count pending properties\r\n        for (uint256 i = 1; i <= propertyCounter; i++) {\r\n            if (!properties[i].isApproved && properties[i].owner != address(0)) {\r\n                pendingCount++;\r\n            }\r\n        }\r\n        \r\n        // Create array of correct size\r\n        uint256[] memory pendingProperties = new uint256[](pendingCount);\r\n        uint256 index = 0;\r\n        \r\n        // Fill array with pending property IDs\r\n        for (uint256 i = 1; i <= propertyCounter; i++) {\r\n            if (!properties[i].isApproved && properties[i].owner != address(0)) {\r\n                pendingProperties[index] = i;\r\n                index++;\r\n            }\r\n        }\r\n        \r\n        return pendingProperties;\r\n    }\r\n\r\n    // Modify existing property-related functions to check for approval\r\n    modifier onlyApprovedProperty(uint256 _propertyId) {\r\n        require(properties[_propertyId].isApproved, \"Property not approved by notary\");\r\n        _;\r\n    }\r\n}",
  "sourcePath": "C:\\Users\\nezha\\Documents\\smart_property_management\\contracts\\PropertyManagement.sol",
  "compiler": {
    "name": "solc",
    "version": "0.8.21+commit.d9974bed.Emscripten.clang"
  },
  "schemaVersion": "3.4.16",
  "updatedAt": "2025-06-09T13:17:01.031Z",
  "networkType": "ethereum",
  "devdoc": {
    "kind": "dev",
    "methods": {},
    "version": 1
  },
  "userdoc": {
    "kind": "user",
    "methods": {},
    "version": 1
  }
}