{
  "contractName": "PropertyManagement",
  "abi": [
    {
      "inputs": [],
      "stateMutability": "nonpayable",
      "type": "constructor"
    },
    {
      "anonymous": false,
      "inputs": [
        {
          "indexed": true,
          "internalType": "uint256",
          "name": "propertyId",
          "type": "uint256"
        },
        {
          "indexed": false,
          "internalType": "uint256",
          "name": "refundedAmount",
          "type": "uint256"
        }
      ],
      "name": "AuctionCancelled",
      "type": "event"
    },
    {
      "anonymous": false,
      "inputs": [
        {
          "indexed": true,
          "internalType": "uint256",
          "name": "propertyId",
          "type": "uint256"
        },
        {
          "indexed": false,
          "internalType": "address",
          "name": "winner",
          "type": "address"
        },
        {
          "indexed": false,
          "internalType": "uint256",
          "name": "amount",
          "type": "uint256"
        }
      ],
      "name": "AuctionEnded",
      "type": "event"
    },
    {
      "anonymous": false,
      "inputs": [
        {
          "indexed": true,
          "internalType": "uint256",
          "name": "propertyId",
          "type": "uint256"
        },
        {
          "indexed": false,
          "internalType": "uint256",
          "name": "startingPrice",
          "type": "uint256"
        },
        {
          "indexed": false,
          "internalType": "uint256",
          "name": "duration",
          "type": "uint256"
        }
      ],
      "name": "AuctionStarted",
      "type": "event"
    },
    {
      "anonymous": false,
      "inputs": [
        {
          "indexed": true,
          "internalType": "uint256",
          "name": "propertyId",
          "type": "uint256"
        },
        {
          "indexed": true,
          "internalType": "address",
          "name": "bidder",
          "type": "address"
        },
        {
          "indexed": false,
          "internalType": "uint256",
          "name": "amount",
          "type": "uint256"
        }
      ],
      "name": "BidPlaced",
      "type": "event"
    },
    {
      "anonymous": false,
      "inputs": [
        {
          "indexed": true,
          "internalType": "uint256",
          "name": "propertyId",
          "type": "uint256"
        },
        {
          "indexed": true,
          "internalType": "address",
          "name": "bidder",
          "type": "address"
        },
        {
          "indexed": false,
          "internalType": "uint256",
          "name": "amount",
          "type": "uint256"
        }
      ],
      "name": "BidWithdrawn",
      "type": "event"
    },
    {
      "anonymous": false,
      "inputs": [
        {
          "indexed": false,
          "internalType": "uint256",
          "name": "leaseId",
          "type": "uint256"
        },
        {
          "indexed": false,
          "internalType": "uint256",
          "name": "propertyId",
          "type": "uint256"
        },
        {
          "indexed": false,
          "internalType": "address",
          "name": "landlord",
          "type": "address"
        },
        {
          "indexed": false,
          "internalType": "address",
          "name": "tenant",
          "type": "address"
        }
      ],
      "name": "LeaseCreated",
      "type": "event"
    },
    {
      "anonymous": false,
      "inputs": [
        {
          "indexed": false,
          "internalType": "uint256",
          "name": "leaseId",
          "type": "uint256"
        },
        {
          "indexed": false,
          "internalType": "uint256",
          "name": "daysRemaining",
          "type": "uint256"
        }
      ],
      "name": "LeaseExpiringSoon",
      "type": "event"
    },
    {
      "anonymous": false,
      "inputs": [
        {
          "indexed": false,
          "internalType": "uint256",
          "name": "oldLeaseId",
          "type": "uint256"
        },
        {
          "indexed": false,
          "internalType": "uint256",
          "name": "newLeaseId",
          "type": "uint256"
        },
        {
          "indexed": false,
          "internalType": "uint256",
          "name": "newEndDate",
          "type": "uint256"
        }
      ],
      "name": "LeaseRenewed",
      "type": "event"
    },
    {
      "anonymous": false,
      "inputs": [
        {
          "indexed": false,
          "internalType": "uint256",
          "name": "leaseId",
          "type": "uint256"
        },
        {
          "indexed": false,
          "internalType": "address",
          "name": "from",
          "type": "address"
        },
        {
          "indexed": false,
          "internalType": "address",
          "name": "to",
          "type": "address"
        },
        {
          "indexed": false,
          "internalType": "uint256",
          "name": "amount",
          "type": "uint256"
        },
        {
          "indexed": false,
          "internalType": "string",
          "name": "transactionType",
          "type": "string"
        }
      ],
      "name": "PaymentReceived",
      "type": "event"
    },
    {
      "anonymous": false,
      "inputs": [
        {
          "indexed": false,
          "internalType": "uint256",
          "name": "propertyId",
          "type": "uint256"
        },
        {
          "indexed": false,
          "internalType": "address",
          "name": "notary",
          "type": "address"
        }
      ],
      "name": "PropertyApproved",
      "type": "event"
    },
    {
      "anonymous": false,
      "inputs": [
        {
          "indexed": false,
          "internalType": "uint256",
          "name": "propertyId",
          "type": "uint256"
        },
        {
          "indexed": false,
          "internalType": "uint256",
          "name": "price",
          "type": "uint256"
        }
      ],
      "name": "PropertyListedForSale",
      "type": "event"
    },
    {
      "anonymous": false,
      "inputs": [
        {
          "indexed": false,
          "internalType": "uint256",
          "name": "propertyId",
          "type": "uint256"
        },
        {
          "indexed": false,
          "internalType": "address",
          "name": "owner",
          "type": "address"
        },
        {
          "indexed": false,
          "internalType": "string",
          "name": "propertyAddress",
          "type": "string"
        }
      ],
      "name": "PropertyRegistered",
      "type": "event"
    },
    {
      "anonymous": false,
      "inputs": [
        {
          "indexed": false,
          "internalType": "uint256",
          "name": "propertyId",
          "type": "uint256"
        },
        {
          "indexed": false,
          "internalType": "address",
          "name": "notary",
          "type": "address"
        }
      ],
      "name": "PropertyRejected",
      "type": "event"
    },
    {
      "anonymous": false,
      "inputs": [
        {
          "indexed": false,
          "internalType": "uint256",
          "name": "propertyId",
          "type": "uint256"
        }
      ],
      "name": "PropertySaleCancelled",
      "type": "event"
    },
    {
      "anonymous": false,
      "inputs": [
        {
          "indexed": false,
          "internalType": "uint256",
          "name": "saleId",
          "type": "uint256"
        },
        {
          "indexed": false,
          "internalType": "uint256",
          "name": "propertyId",
          "type": "uint256"
        },
        {
          "indexed": false,
          "internalType": "address",
          "name": "newOwner",
          "type": "address"
        }
      ],
      "name": "PropertySaleCompleted",
      "type": "event"
    },
    {
      "anonymous": false,
      "inputs": [
        {
          "indexed": false,
          "internalType": "uint256",
          "name": "saleId",
          "type": "uint256"
        },
        {
          "indexed": false,
          "internalType": "uint256",
          "name": "propertyId",
          "type": "uint256"
        },
        {
          "indexed": false,
          "internalType": "address",
          "name": "seller",
          "type": "address"
        },
        {
          "indexed": false,
          "internalType": "address",
          "name": "buyer",
          "type": "address"
        },
        {
          "indexed": false,
          "internalType": "uint256",
          "name": "price",
          "type": "uint256"
        }
      ],
      "name": "PropertySaleInitiated",
      "type": "event"
    },
    {
      "anonymous": false,
      "inputs": [
        {
          "indexed": false,
          "internalType": "uint256",
          "name": "propertyId",
          "type": "uint256"
        },
        {
          "indexed": false,
          "internalType": "address",
          "name": "owner",
          "type": "address"
        },
        {
          "indexed": false,
          "internalType": "string",
          "name": "propertyAddress",
          "type": "string"
        }
      ],
      "name": "PropertySubmitted",
      "type": "event"
    },
    {
      "inputs": [
        {
          "internalType": "uint256",
          "name": "",
          "type": "uint256"
        }
      ],
      "name": "auctionTransfers",
      "outputs": [
        {
          "internalType": "uint256",
          "name": "id",
          "type": "uint256"
        },
        {
          "internalType": "uint256",
          "name": "propertyId",
          "type": "uint256"
        },
        {
          "internalType": "address",
          "name": "previousOwner",
          "type": "address"
        },
        {
          "internalType": "address",
          "name": "newOwner",
          "type": "address"
        },
        {
          "internalType": "uint256",
          "name": "transferPrice",
          "type": "uint256"
        },
        {
          "internalType": "uint256",
          "name": "timestamp",
          "type": "uint256"
        }
      ],
      "stateMutability": "view",
      "type": "function",
      "constant": true
    },
    {
      "inputs": [
        {
          "internalType": "uint256",
          "name": "",
          "type": "uint256"
        }
      ],
      "name": "auctions",
      "outputs": [
        {
          "internalType": "uint256",
          "name": "propertyId",
          "type": "uint256"
        },
        {
          "internalType": "uint256",
          "name": "startingPrice",
          "type": "uint256"
        },
        {
          "internalType": "uint256",
          "name": "highestBid",
          "type": "uint256"
        },
        {
          "internalType": "address",
          "name": "highestBidder",
          "type": "address"
        },
        {
          "internalType": "uint256",
          "name": "auctionEndTime",
          "type": "uint256"
        },
        {
          "internalType": "bool",
          "name": "ended",
          "type": "bool"
        },
        {
          "internalType": "bool",
          "name": "exists",
          "type": "bool"
        }
      ],
      "stateMutability": "view",
      "type": "function",
      "constant": true
    },
    {
      "inputs": [
        {
          "internalType": "address",
          "name": "",
          "type": "address"
        },
        {
          "internalType": "uint256",
          "name": "",
          "type": "uint256"
        }
      ],
      "name": "landlordLeases",
      "outputs": [
        {
          "internalType": "uint256",
          "name": "",
          "type": "uint256"
        }
      ],
      "stateMutability": "view",
      "type": "function",
      "constant": true
    },
    {
      "inputs": [
        {
          "internalType": "uint256",
          "name": "",
          "type": "uint256"
        }
      ],
      "name": "leaseAgreements",
      "outputs": [
        {
          "internalType": "uint256",
          "name": "id",
          "type": "uint256"
        },
        {
          "internalType": "uint256",
          "name": "propertyId",
          "type": "uint256"
        },
        {
          "internalType": "address",
          "name": "landlord",
          "type": "address"
        },
        {
          "internalType": "address",
          "name": "tenant",
          "type": "address"
        },
        {
          "internalType": "uint256",
          "name": "monthlyRent",
          "type": "uint256"
        },
        {
          "internalType": "uint256",
          "name": "securityDeposit",
          "type": "uint256"
        },
        {
          "internalType": "uint256",
          "name": "startDate",
          "type": "uint256"
        },
        {
          "internalType": "uint256",
          "name": "endDate",
          "type": "uint256"
        },
        {
          "internalType": "bool",
          "name": "isActive",
          "type": "bool"
        },
        {
          "internalType": "uint256",
          "name": "createdAt",
          "type": "uint256"
        },
        {
          "internalType": "uint256",
          "name": "previousLeaseId",
          "type": "uint256"
        },
        {
          "internalType": "bool",
          "name": "isRenewal",
          "type": "bool"
        }
      ],
      "stateMutability": "view",
      "type": "function",
      "constant": true
    },
    {
      "inputs": [
        {
          "internalType": "uint256",
          "name": "",
          "type": "uint256"
        },
        {
          "internalType": "uint256",
          "name": "",
          "type": "uint256"
        }
      ],
      "name": "leaseTransactions",
      "outputs": [
        {
          "internalType": "uint256",
          "name": "id",
          "type": "uint256"
        },
        {
          "internalType": "uint256",
          "name": "leaseId",
          "type": "uint256"
        },
        {
          "internalType": "address",
          "name": "from",
          "type": "address"
        },
        {
          "internalType": "address",
          "name": "to",
          "type": "address"
        },
        {
          "internalType": "uint256",
          "name": "amount",
          "type": "uint256"
        },
        {
          "internalType": "string",
          "name": "transactionType",
          "type": "string"
        },
        {
          "internalType": "uint256",
          "name": "timestamp",
          "type": "uint256"
        }
      ],
      "stateMutability": "view",
      "type": "function",
      "constant": true
    },
    {
      "inputs": [],
      "name": "notary",
      "outputs": [
        {
          "internalType": "address",
          "name": "",
          "type": "address"
        }
      ],
      "stateMutability": "view",
      "type": "function",
      "constant": true
    },
    {
      "inputs": [
        {
          "internalType": "address",
          "name": "",
          "type": "address"
        },
        {
          "internalType": "uint256",
          "name": "",
          "type": "uint256"
        }
      ],
      "name": "ownerProperties",
      "outputs": [
        {
          "internalType": "uint256",
          "name": "",
          "type": "uint256"
        }
      ],
      "stateMutability": "view",
      "type": "function",
      "constant": true
    },
    {
      "inputs": [
        {
          "internalType": "uint256",
          "name": "",
          "type": "uint256"
        },
        {
          "internalType": "address",
          "name": "",
          "type": "address"
        }
      ],
      "name": "pendingReturns",
      "outputs": [
        {
          "internalType": "uint256",
          "name": "",
          "type": "uint256"
        }
      ],
      "stateMutability": "view",
      "type": "function",
      "constant": true
    },
    {
      "inputs": [
        {
          "internalType": "uint256",
          "name": "",
          "type": "uint256"
        }
      ],
      "name": "properties",
      "outputs": [
        {
          "internalType": "uint256",
          "name": "id",
          "type": "uint256"
        },
        {
          "internalType": "address",
          "name": "owner",
          "type": "address"
        },
        {
          "internalType": "string",
          "name": "propertyAddress",
          "type": "string"
        },
        {
          "internalType": "uint256",
          "name": "size",
          "type": "uint256"
        },
        {
          "internalType": "string",
          "name": "propertyType",
          "type": "string"
        },
        {
          "internalType": "bool",
          "name": "isActive",
          "type": "bool"
        },
        {
          "internalType": "uint256",
          "name": "createdAt",
          "type": "uint256"
        },
        {
          "internalType": "bool",
          "name": "isForSale",
          "type": "bool"
        },
        {
          "internalType": "uint256",
          "name": "salePrice",
          "type": "uint256"
        },
        {
          "internalType": "bool",
          "name": "onAuction",
          "type": "bool"
        },
        {
          "internalType": "uint256",
          "name": "auctionEndTime",
          "type": "uint256"
        },
        {
          "internalType": "address",
          "name": "highestBidder",
          "type": "address"
        },
        {
          "internalType": "uint256",
          "name": "highestBid",
          "type": "uint256"
        },
        {
          "internalType": "bool",
          "name": "auctionEnded",
          "type": "bool"
        },
        {
          "internalType": "bool",
          "name": "isApproved",
          "type": "bool"
        },
        {
          "internalType": "string",
          "name": "documentHash",
          "type": "string"
        }
      ],
      "stateMutability": "view",
      "type": "function",
      "constant": true
    },
    {
      "inputs": [
        {
          "internalType": "uint256",
          "name": "",
          "type": "uint256"
        }
      ],
      "name": "propertyApprovals",
      "outputs": [
        {
          "internalType": "bool",
          "name": "",
          "type": "bool"
        }
      ],
      "stateMutability": "view",
      "type": "function",
      "constant": true
    },
    {
      "inputs": [
        {
          "internalType": "uint256",
          "name": "",
          "type": "uint256"
        },
        {
          "internalType": "uint256",
          "name": "",
          "type": "uint256"
        }
      ],
      "name": "propertyAuctionHistory",
      "outputs": [
        {
          "internalType": "uint256",
          "name": "",
          "type": "uint256"
        }
      ],
      "stateMutability": "view",
      "type": "function",
      "constant": true
    },
    {
      "inputs": [
        {
          "internalType": "uint256",
          "name": "",
          "type": "uint256"
        }
      ],
      "name": "propertyDocuments",
      "outputs": [
        {
          "internalType": "string",
          "name": "",
          "type": "string"
        }
      ],
      "stateMutability": "view",
      "type": "function",
      "constant": true
    },
    {
      "inputs": [
        {
          "internalType": "uint256",
          "name": "",
          "type": "uint256"
        }
      ],
      "name": "propertySales",
      "outputs": [
        {
          "internalType": "uint256",
          "name": "id",
          "type": "uint256"
        },
        {
          "internalType": "uint256",
          "name": "propertyId",
          "type": "uint256"
        },
        {
          "internalType": "address",
          "name": "seller",
          "type": "address"
        },
        {
          "internalType": "address",
          "name": "buyer",
          "type": "address"
        },
        {
          "internalType": "uint256",
          "name": "salePrice",
          "type": "uint256"
        },
        {
          "internalType": "uint256",
          "name": "timestamp",
          "type": "uint256"
        },
        {
          "internalType": "bool",
          "name": "completed",
          "type": "bool"
        }
      ],
      "stateMutability": "view",
      "type": "function",
      "constant": true
    },
    {
      "inputs": [
        {
          "internalType": "uint256",
          "name": "",
          "type": "uint256"
        },
        {
          "internalType": "uint256",
          "name": "",
          "type": "uint256"
        }
      ],
      "name": "propertyTransferHistory",
      "outputs": [
        {
          "internalType": "uint256",
          "name": "",
          "type": "uint256"
        }
      ],
      "stateMutability": "view",
      "type": "function",
      "constant": true
    },
    {
      "inputs": [
        {
          "internalType": "uint256",
          "name": "",
          "type": "uint256"
        }
      ],
      "name": "renewedLeases",
      "outputs": [
        {
          "internalType": "uint256",
          "name": "",
          "type": "uint256"
        }
      ],
      "stateMutability": "view",
      "type": "function",
      "constant": true
    },
    {
      "inputs": [
        {
          "internalType": "address",
          "name": "",
          "type": "address"
        },
        {
          "internalType": "uint256",
          "name": "",
          "type": "uint256"
        }
      ],
      "name": "tenantLeases",
      "outputs": [
        {
          "internalType": "uint256",
          "name": "",
          "type": "uint256"
        }
      ],
      "stateMutability": "view",
      "type": "function",
      "constant": true
    },
    {
      "inputs": [],
      "name": "getPropertyCounter",
      "outputs": [
        {
          "internalType": "uint256",
          "name": "",
          "type": "uint256"
        }
      ],
      "stateMutability": "view",
      "type": "function",
      "constant": true
    },
    {
      "inputs": [
        {
          "internalType": "string",
          "name": "_propertyAddress",
          "type": "string"
        },
        {
          "internalType": "uint256",
          "name": "_size",
          "type": "uint256"
        },
        {
          "internalType": "string",
          "name": "_propertyType",
          "type": "string"
        },
        {
          "internalType": "string",
          "name": "_documentHash",
          "type": "string"
        }
      ],
      "name": "registerProperty",
      "outputs": [
        {
          "internalType": "uint256",
          "name": "",
          "type": "uint256"
        }
      ],
      "stateMutability": "nonpayable",
      "type": "function"
    },
    {
      "inputs": [
        {
          "internalType": "uint256",
          "name": "_propertyId",
          "type": "uint256"
        },
        {
          "internalType": "address",
          "name": "_tenant",
          "type": "address"
        },
        {
          "internalType": "uint256",
          "name": "_monthlyRent",
          "type": "uint256"
        },
        {
          "internalType": "uint256",
          "name": "_securityDeposit",
          "type": "uint256"
        },
        {
          "internalType": "uint256",
          "name": "_startDate",
          "type": "uint256"
        },
        {
          "internalType": "uint256",
          "name": "_endDate",
          "type": "uint256"
        }
      ],
      "name": "createLeaseAgreement",
      "outputs": [
        {
          "internalType": "uint256",
          "name": "",
          "type": "uint256"
        }
      ],
      "stateMutability": "nonpayable",
      "type": "function"
    },
    {
      "inputs": [
        {
          "internalType": "uint256",
          "name": "_leaseId",
          "type": "uint256"
        },
        {
          "internalType": "string",
          "name": "_transactionType",
          "type": "string"
        }
      ],
      "name": "makePayment",
      "outputs": [],
      "stateMutability": "payable",
      "type": "function",
      "payable": true
    },
    {
      "inputs": [
        {
          "internalType": "uint256",
          "name": "_leaseId",
          "type": "uint256"
        }
      ],
      "name": "terminateLease",
      "outputs": [],
      "stateMutability": "nonpayable",
      "type": "function"
    },
    {
      "inputs": [
        {
          "internalType": "uint256",
          "name": "_leaseId",
          "type": "uint256"
        }
      ],
      "name": "checkLeaseExpiration",
      "outputs": [
        {
          "internalType": "bool",
          "name": "isExpiring",
          "type": "bool"
        },
        {
          "internalType": "uint256",
          "name": "daysRemaining",
          "type": "uint256"
        }
      ],
      "stateMutability": "view",
      "type": "function",
      "constant": true
    },
    {
      "inputs": [
        {
          "internalType": "uint256",
          "name": "_leaseId",
          "type": "uint256"
        },
        {
          "internalType": "uint256",
          "name": "_newMonthlyRent",
          "type": "uint256"
        },
        {
          "internalType": "uint256",
          "name": "_newSecurityDeposit",
          "type": "uint256"
        },
        {
          "internalType": "uint256",
          "name": "_newEndDate",
          "type": "uint256"
        }
      ],
      "name": "renewLease",
      "outputs": [
        {
          "internalType": "uint256",
          "name": "",
          "type": "uint256"
        }
      ],
      "stateMutability": "nonpayable",
      "type": "function"
    },
    {
      "inputs": [
        {
          "internalType": "address",
          "name": "_landlord",
          "type": "address"
        }
      ],
      "name": "getExpiringLeases",
      "outputs": [
        {
          "internalType": "uint256[]",
          "name": "",
          "type": "uint256[]"
        }
      ],
      "stateMutability": "view",
      "type": "function",
      "constant": true
    },
    {
      "inputs": [
        {
          "internalType": "uint256",
          "name": "_leaseId",
          "type": "uint256"
        }
      ],
      "name": "getLeaseRenewalHistory",
      "outputs": [
        {
          "internalType": "uint256[]",
          "name": "",
          "type": "uint256[]"
        }
      ],
      "stateMutability": "view",
      "type": "function",
      "constant": true
    },
    {
      "inputs": [
        {
          "internalType": "uint256",
          "name": "_propertyId",
          "type": "uint256"
        },
        {
          "internalType": "uint256",
          "name": "_price",
          "type": "uint256"
        }
      ],
      "name": "listPropertyForSale",
      "outputs": [],
      "stateMutability": "nonpayable",
      "type": "function"
    },
    {
      "inputs": [
        {
          "internalType": "uint256",
          "name": "_propertyId",
          "type": "uint256"
        }
      ],
      "name": "cancelPropertySale",
      "outputs": [],
      "stateMutability": "nonpayable",
      "type": "function"
    },
    {
      "inputs": [
        {
          "internalType": "uint256",
          "name": "_propertyId",
          "type": "uint256"
        }
      ],
      "name": "initiatePropertyPurchase",
      "outputs": [],
      "stateMutability": "payable",
      "type": "function",
      "payable": true
    },
    {
      "inputs": [],
      "name": "getPropertiesForSale",
      "outputs": [
        {
          "internalType": "uint256[]",
          "name": "",
          "type": "uint256[]"
        }
      ],
      "stateMutability": "view",
      "type": "function",
      "constant": true
    },
    {
      "inputs": [
        {
          "internalType": "uint256",
          "name": "_propertyId",
          "type": "uint256"
        }
      ],
      "name": "getPropertyTransferHistory",
      "outputs": [
        {
          "internalType": "uint256[]",
          "name": "",
          "type": "uint256[]"
        }
      ],
      "stateMutability": "view",
      "type": "function",
      "constant": true
    },
    {
      "inputs": [
        {
          "internalType": "uint256",
          "name": "_saleId",
          "type": "uint256"
        }
      ],
      "name": "getPropertySale",
      "outputs": [
        {
          "components": [
            {
              "internalType": "uint256",
              "name": "id",
              "type": "uint256"
            },
            {
              "internalType": "uint256",
              "name": "propertyId",
              "type": "uint256"
            },
            {
              "internalType": "address",
              "name": "seller",
              "type": "address"
            },
            {
              "internalType": "address",
              "name": "buyer",
              "type": "address"
            },
            {
              "internalType": "uint256",
              "name": "salePrice",
              "type": "uint256"
            },
            {
              "internalType": "uint256",
              "name": "timestamp",
              "type": "uint256"
            },
            {
              "internalType": "bool",
              "name": "completed",
              "type": "bool"
            }
          ],
          "internalType": "struct PropertyManagement.PropertySale",
          "name": "",
          "type": "tuple"
        }
      ],
      "stateMutability": "view",
      "type": "function",
      "constant": true
    },
    {
      "inputs": [
        {
          "internalType": "uint256",
          "name": "_propertyId",
          "type": "uint256"
        }
      ],
      "name": "getPropertyById",
      "outputs": [
        {
          "components": [
            {
              "internalType": "uint256",
              "name": "id",
              "type": "uint256"
            },
            {
              "internalType": "address",
              "name": "owner",
              "type": "address"
            },
            {
              "internalType": "string",
              "name": "propertyAddress",
              "type": "string"
            },
            {
              "internalType": "uint256",
              "name": "size",
              "type": "uint256"
            },
            {
              "internalType": "string",
              "name": "propertyType",
              "type": "string"
            },
            {
              "internalType": "bool",
              "name": "isActive",
              "type": "bool"
            },
            {
              "internalType": "uint256",
              "name": "createdAt",
              "type": "uint256"
            },
            {
              "internalType": "bool",
              "name": "isForSale",
              "type": "bool"
            },
            {
              "internalType": "uint256",
              "name": "salePrice",
              "type": "uint256"
            },
            {
              "internalType": "bool",
              "name": "onAuction",
              "type": "bool"
            },
            {
              "internalType": "uint256",
              "name": "auctionEndTime",
              "type": "uint256"
            },
            {
              "internalType": "address",
              "name": "highestBidder",
              "type": "address"
            },
            {
              "internalType": "uint256",
              "name": "highestBid",
              "type": "uint256"
            },
            {
              "internalType": "bool",
              "name": "auctionEnded",
              "type": "bool"
            },
            {
              "internalType": "bool",
              "name": "isApproved",
              "type": "bool"
            },
            {
              "internalType": "string",
              "name": "documentHash",
              "type": "string"
            }
          ],
          "internalType": "struct PropertyManagement.Property",
          "name": "",
          "type": "tuple"
        }
      ],
      "stateMutability": "view",
      "type": "function",
      "constant": true
    },
    {
      "inputs": [
        {
          "internalType": "address",
          "name": "_owner",
          "type": "address"
        }
      ],
      "name": "getOwnerProperties",
      "outputs": [
        {
          "internalType": "uint256[]",
          "name": "",
          "type": "uint256[]"
        }
      ],
      "stateMutability": "view",
      "type": "function",
      "constant": true
    },
    {
      "inputs": [
        {
          "internalType": "uint256",
          "name": "_leaseId",
          "type": "uint256"
        }
      ],
      "name": "getLeaseById",
      "outputs": [
        {
          "components": [
            {
              "internalType": "uint256",
              "name": "id",
              "type": "uint256"
            },
            {
              "internalType": "uint256",
              "name": "propertyId",
              "type": "uint256"
            },
            {
              "internalType": "address",
              "name": "landlord",
              "type": "address"
            },
            {
              "internalType": "address",
              "name": "tenant",
              "type": "address"
            },
            {
              "internalType": "uint256",
              "name": "monthlyRent",
              "type": "uint256"
            },
            {
              "internalType": "uint256",
              "name": "securityDeposit",
              "type": "uint256"
            },
            {
              "internalType": "uint256",
              "name": "startDate",
              "type": "uint256"
            },
            {
              "internalType": "uint256",
              "name": "endDate",
              "type": "uint256"
            },
            {
              "internalType": "bool",
              "name": "isActive",
              "type": "bool"
            },
            {
              "internalType": "uint256",
              "name": "createdAt",
              "type": "uint256"
            },
            {
              "internalType": "uint256",
              "name": "previousLeaseId",
              "type": "uint256"
            },
            {
              "internalType": "bool",
              "name": "isRenewal",
              "type": "bool"
            }
          ],
          "internalType": "struct PropertyManagement.LeaseAgreement",
          "name": "",
          "type": "tuple"
        }
      ],
      "stateMutability": "view",
      "type": "function",
      "constant": true
    },
    {
      "inputs": [
        {
          "internalType": "address",
          "name": "_tenant",
          "type": "address"
        }
      ],
      "name": "getTenantLeases",
      "outputs": [
        {
          "internalType": "uint256[]",
          "name": "",
          "type": "uint256[]"
        }
      ],
      "stateMutability": "view",
      "type": "function",
      "constant": true
    },
    {
      "inputs": [
        {
          "internalType": "address",
          "name": "_landlord",
          "type": "address"
        }
      ],
      "name": "getLandlordLeases",
      "outputs": [
        {
          "internalType": "uint256[]",
          "name": "",
          "type": "uint256[]"
        }
      ],
      "stateMutability": "view",
      "type": "function",
      "constant": true
    },
    {
      "inputs": [
        {
          "internalType": "uint256",
          "name": "_leaseId",
          "type": "uint256"
        }
      ],
      "name": "getLeaseTransactions",
      "outputs": [
        {
          "components": [
            {
              "internalType": "uint256",
              "name": "id",
              "type": "uint256"
            },
            {
              "internalType": "uint256",
              "name": "leaseId",
              "type": "uint256"
            },
            {
              "internalType": "address",
              "name": "from",
              "type": "address"
            },
            {
              "internalType": "address",
              "name": "to",
              "type": "address"
            },
            {
              "internalType": "uint256",
              "name": "amount",
              "type": "uint256"
            },
            {
              "internalType": "string",
              "name": "transactionType",
              "type": "string"
            },
            {
              "internalType": "uint256",
              "name": "timestamp",
              "type": "uint256"
            }
          ],
          "internalType": "struct PropertyManagement.Transaction[]",
          "name": "",
          "type": "tuple[]"
        }
      ],
      "stateMutability": "view",
      "type": "function",
      "constant": true
    },
    {
      "inputs": [
        {
          "internalType": "uint256",
          "name": "_propertyId",
          "type": "uint256"
        },
        {
          "internalType": "uint256",
          "name": "_startingPrice",
          "type": "uint256"
        },
        {
          "internalType": "uint256",
          "name": "_durationInSeconds",
          "type": "uint256"
        }
      ],
      "name": "startAuction",
      "outputs": [],
      "stateMutability": "nonpayable",
      "type": "function"
    },
    {
      "inputs": [
        {
          "internalType": "uint256",
          "name": "_propertyId",
          "type": "uint256"
        }
      ],
      "name": "placeBid",
      "outputs": [],
      "stateMutability": "payable",
      "type": "function",
      "payable": true
    },
    {
      "inputs": [
        {
          "internalType": "uint256",
          "name": "_propertyId",
          "type": "uint256"
        }
      ],
      "name": "withdrawBid",
      "outputs": [],
      "stateMutability": "nonpayable",
      "type": "function"
    },
    {
      "inputs": [
        {
          "internalType": "uint256",
          "name": "_propertyId",
          "type": "uint256"
        }
      ],
      "name": "endAuction",
      "outputs": [],
      "stateMutability": "nonpayable",
      "type": "function"
    },
    {
      "inputs": [
        {
          "internalType": "uint256",
          "name": "_propertyId",
          "type": "uint256"
        }
      ],
      "name": "cancelAuction",
      "outputs": [],
      "stateMutability": "nonpayable",
      "type": "function"
    },
    {
      "inputs": [
        {
          "internalType": "uint256",
          "name": "_propertyId",
          "type": "uint256"
        }
      ],
      "name": "getAuctionDetails",
      "outputs": [
        {
          "internalType": "bool",
          "name": "onAuction",
          "type": "bool"
        },
        {
          "internalType": "uint256",
          "name": "auctionEndTime",
          "type": "uint256"
        },
        {
          "internalType": "address",
          "name": "highestBidder",
          "type": "address"
        },
        {
          "internalType": "uint256",
          "name": "highestBid",
          "type": "uint256"
        },
        {
          "internalType": "bool",
          "name": "ended",
          "type": "bool"
        }
      ],
      "stateMutability": "view",
      "type": "function",
      "constant": true
    },
    {
      "inputs": [
        {
          "internalType": "uint256",
          "name": "_propertyId",
          "type": "uint256"
        },
        {
          "internalType": "address",
          "name": "_bidder",
          "type": "address"
        }
      ],
      "name": "getPendingReturn",
      "outputs": [
        {
          "internalType": "uint256",
          "name": "",
          "type": "uint256"
        }
      ],
      "stateMutability": "view",
      "type": "function",
      "constant": true
    },
    {
      "inputs": [
        {
          "internalType": "uint256",
          "name": "start",
          "type": "uint256"
        },
        {
          "internalType": "uint256",
          "name": "end",
          "type": "uint256"
        }
      ],
      "name": "getProperties",
      "outputs": [
        {
          "components": [
            {
              "internalType": "uint256",
              "name": "id",
              "type": "uint256"
            },
            {
              "internalType": "address",
              "name": "owner",
              "type": "address"
            },
            {
              "internalType": "string",
              "name": "propertyAddress",
              "type": "string"
            },
            {
              "internalType": "uint256",
              "name": "size",
              "type": "uint256"
            },
            {
              "internalType": "string",
              "name": "propertyType",
              "type": "string"
            },
            {
              "internalType": "bool",
              "name": "isActive",
              "type": "bool"
            },
            {
              "internalType": "uint256",
              "name": "createdAt",
              "type": "uint256"
            },
            {
              "internalType": "bool",
              "name": "isForSale",
              "type": "bool"
            },
            {
              "internalType": "uint256",
              "name": "salePrice",
              "type": "uint256"
            },
            {
              "internalType": "bool",
              "name": "onAuction",
              "type": "bool"
            },
            {
              "internalType": "uint256",
              "name": "auctionEndTime",
              "type": "uint256"
            },
            {
              "internalType": "address",
              "name": "highestBidder",
              "type": "address"
            },
            {
              "internalType": "uint256",
              "name": "highestBid",
              "type": "uint256"
            },
            {
              "internalType": "bool",
              "name": "auctionEnded",
              "type": "bool"
            },
            {
              "internalType": "bool",
              "name": "isApproved",
              "type": "bool"
            },
            {
              "internalType": "string",
              "name": "documentHash",
              "type": "string"
            }
          ],
          "internalType": "struct PropertyManagement.Property[]",
          "name": "",
          "type": "tuple[]"
        }
      ],
      "stateMutability": "view",
      "type": "function",
      "constant": true
    },
    {
      "inputs": [
        {
          "internalType": "uint256",
          "name": "_propertyId",
          "type": "uint256"
        }
      ],
      "name": "approveProperty",
      "outputs": [],
      "stateMutability": "nonpayable",
      "type": "function"
    },
    {
      "inputs": [
        {
          "internalType": "uint256",
          "name": "_propertyId",
          "type": "uint256"
        }
      ],
      "name": "rejectProperty",
      "outputs": [],
      "stateMutability": "nonpayable",
      "type": "function"
    },
    {
      "inputs": [],
      "name": "getPendingProperties",
      "outputs": [
        {
          "internalType": "uint256[]",
          "name": "",
          "type": "uint256[]"
        }
      ],
      "stateMutability": "view",
      "type": "function",
      "constant": true
    },
    {
      "inputs": [
        {
          "internalType": "uint256",
          "name": "_propertyId",
          "type": "uint256"
        }
      ],
      "name": "getPropertyLeases",
      "outputs": [
        {
          "internalType": "uint256[]",
          "name": "",
          "type": "uint256[]"
        }
      ],
      "stateMutability": "view",
      "type": "function",
      "constant": true
    },
    {
      "inputs": [
        {
          "internalType": "uint256",
          "name": "_leaseId",
          "type": "uint256"
        }
      ],
      "name": "getLeaseDetails",
      "outputs": [
        {
          "internalType": "uint256",
          "name": "propertyId",
          "type": "uint256"
        },
        {
          "internalType": "address",
          "name": "landlord",
          "type": "address"
        },
        {
          "internalType": "address",
          "name": "tenant",
          "type": "address"
        },
        {
          "internalType": "uint256",
          "name": "monthlyRent",
          "type": "uint256"
        },
        {
          "internalType": "uint256",
          "name": "securityDeposit",
          "type": "uint256"
        },
        {
          "internalType": "uint256",
          "name": "startDate",
          "type": "uint256"
        },
        {
          "internalType": "uint256",
          "name": "endDate",
          "type": "uint256"
        },
        {
          "internalType": "bool",
          "name": "isActive",
          "type": "bool"
        },
        {
          "internalType": "uint256",
          "name": "createdAt",
          "type": "uint256"
        },
        {
          "internalType": "bool",
          "name": "isRenewal",
          "type": "bool"
        }
      ],
      "stateMutability": "view",
      "type": "function",
      "constant": true
    },
    {
      "inputs": [
        {
          "internalType": "uint256",
          "name": "_propertyId",
          "type": "uint256"
        }
      ],
      "name": "getPropertyOwnershipHistory",
      "outputs": [
        {
          "internalType": "address[]",
          "name": "owners",
          "type": "address[]"
        },
        {
          "internalType": "uint256[]",
          "name": "transferDates",
          "type": "uint256[]"
        },
        {
          "internalType": "uint256[]",
          "name": "salePrices",
          "type": "uint256[]"
        }
      ],
      "stateMutability": "view",
      "type": "function",
      "constant": true
    }
  ],
  "bytecode": "0x6080806040523461002d5760015f55601380546001600160a01b0319163317905561565d9081620000328239f35b5f80fdfe6080806040526004361015610012575f80fd5b5f3560e01c90816307a78319146142bd575080630bf2d66814613d0c5780630eaaf4c814613c055780630f55415b14613997578063180cbbb5146138ce5780631e7a7dd31461385357806327983fcf146136a15780632b36c618146136175780632e6f4500146135b35780632e8331fa146134b25780633516b17f1461348357806335a4a47314613454578063383e3e5c146130f65780633c95fbe914612f15578063459a34d614612eeb578063480777b114612e225780634b2f64fb14612df657806354c6173614612d58578063550252ac14612d0f578063571a26a014612c945780635797689414612c4b578063588e00a514612bd157806359fe18eb14612aac5780635df1a883146129f0578063651a7ff31461251b5780636b7dfd72146124fe578063831b455d146124445780638ddac1ef14610c175780638f48bd5b146123ed57806391e078bb1461209557806396b5a75514611ead5780639979ef4514611cb95780639d54c79d14611c91578063a4cc9408146119d6578063a590fa0b146118e6578063abcf6a24146117cf578063b16aa4701461152f578063b827e732146114f1578063b9a2de3a146110ac578063c2682e9414610fd3578063c8ae3d5d14610ccd578063cb64489714610c5b578063d02ef6f914610c17578063d1f8d1ed14610be8578063de16d25614610845578063e9b66f8c14610760578063edc5dded146106f4578063ee22e51914610553578063f08b6a03146104cd578063f20e5e351461038f5763f7b108081461024d575f80fd5b3461038b57602036600319011261038b576004355f908152600660205260409020805460018201546001600160a01b039081169061028d6002850161457d565b93600381015492600482016102a19061457d565b600583015460ff16936006840154600785015460ff16600886015490600987015460ff1692600a88015494600b8901541695600c89015497600d8a015499600e016102eb9061457d565b9b6040519e8f9e8f9361020091855260208501528060408501528301610310916144ee565b91606001528c8082039060800152610327916144ee565b98151560a08c015260c08b0152151560e08a0152610100890152151561012088015261014087015261016086015261018085015260ff811615156101a085015260081c60ff1615156101c08401528281036101e0840152610387916144ee565b0390f35b5f80fd5b3461038b57602036600319011261038b576004355f52600660205260a060405f206040516103bc81614389565b81548152600180841b03918260018201541660208301526103df6002820161457d565b6040830152600381015460608301526103fa6004820161457d565b608083015260ff600582015416151584830152600681015460c083015260ff600782015416151560e0830152600881015461010083015260ff6009820154169161012081019215158352600a82015493610140820194855280600b84015416936101608301948552600c8401549261018081019384526101e061049f600e600d8801549760ff6101a086019981811615158b5260081c1615156101c08601520161457d565b9101525115159451935116905191511515926040519485526020850152604084015260608301526080820152f35b3461038b5760208060031936011261038b576001600160a01b036104ef61432a565b165f52600a815260405f20906040518083838295549384815201905f52835f20925f5b8582821061053d575050506105299250038361442d565b610387604051928284938452830190614356565b8554845260019586019588955093019201610512565b3461038b57602036600319011261038b575f610160604051610574816143a5565b8281528260208201528260408201528260608201528260808201528260a08201528260c08201528260e082015282610100820152826101208201528261014082015201526004355f52600860205261018060405f206101606040516105d8816143a5565b60ff600b8454948584526001810154602085015260018060a01b03600282015416604085015260018060a01b03600382015416606085015260048101546080850152600581015460a0850152600681015460c0850152600781015460e08501528260088201541615156101008501526009810154610120850152600a8101546101408501520154161515828201526040519283526020810151602084015260018060a01b03604082015116604084015260018060a01b0360608201511660608401526080810151608084015260a081015160a084015260c081015160c084015260e081015160e0840152610100810151151561010084015261012081015161012084015261014081015161014084015201511515610160820152f35b3461038b57602036600319011261038b576004355f52600f60205260c060405f2080549060018101549060018060a01b038060028301541690600383015416906005600484015493015493604051958652602086015260408501526060840152608083015260a0820152f35b3461038b57602036600319011261038b577fdc4a9e931ddb4ea0e6114226f2a3b598ce4b38bc6976643e3e4e7e7cfd1e16516108346004356107ad60018060a01b03601354163314614db8565b80151580610839575b6107bf90614e10565b805f526006602052600560405f20600d810161010081546107e660ff8260081c1615614e52565b61ff0019161790550160ff1990600182825416179055815f526014602052600160405f20918254161790556040519182913390839092916020906040830194835260018060a01b0316910152565b0390a1005b506001548111156107b6565b3461038b5760c036600319011261038b5761085e614340565b6004355f52600660205261088260018060a01b03600160405f20015416331461474b565b6004355f5260066020526108a260ff600d60405f20015460081c16614790565b6004355f5260066020526108bf60ff600560405f200154166147dc565b6004355f52600660205260ff600760405f20015416610ba3576004355f52600660205260ff600960405f20015416610b5f576001600160a01b03811615610b215760a4356084351015610ae357602090610a5961091d600254614704565b806002556040519061092e826143a5565b8082526004358583015233604083015260018060a01b0384166060830152604435608083015260643560a083015260843560c083015260a43560e08301526001610100830152426101208301525f6101408301525f6101608301525f5260088452600b61016060405f2092805184558681015160018501556002840160018060a01b03604083015116906001600160601b0360a01b9182825416179055600385019060018060a01b03606084015116908254161790556080810151600485015560a0810151600585015560c0810151600685015560e08101516007850155610a2c6101008201511515600886019060ff801983541691151516179055565b6101208101516009850155610140810151600a8501550151151591019060ff801983541691151516179055565b6001600160a01b0381165f9081526009835260409020600254610a7b91614728565b335f52600a8252610a9260405f2060025490614728565b7f2609b596223b76ac2bc5e324e9725873cf0fdfe04fa14388b5fae5d1513bc2cd608060025492604051908482526004358683015233604083015260018060a01b03166060820152a1604051908152f35b60405162461bcd60e51b815260206004820152601660248201527524b73b30b634b2103632b0b9b290323ab930ba34b7b760511b6044820152606490fd5b60405162461bcd60e51b8152602060048201526016602482015275496e76616c69642074656e616e74206164647265737360501b6044820152606490fd5b606460405162461bcd60e51b815260206004820152602060248201527f50726f70657274792069732063757272656e746c79206f6e2061756374696f6e6044820152fd5b60405162461bcd60e51b815260206004820152601e60248201527f50726f70657274792069732063757272656e746c7920666f722073616c6500006044820152606490fd5b3461038b57602036600319011261038b576004355f526014602052602060ff60405f2054166040519015158152f35b3461038b57604036600319011261038b57610c30614340565b6004355f52601260205260405f209060018060a01b03165f52602052602060405f2054604051908152f35b3461038b5760208060031936011261038b576001600160a01b03610c7d61432a565b165f526007815260405f20906040518083838295549384815201905f52835f20925f5b85828210610cb7575050506105299250038361442d565b8554845260019586019588955093019201610ca0565b604036600319011261038b576004356024356001600160401b03811161038b57610cfb903690600401614469565b90805f526020906008825260405f2060405193610d17856143a5565b8154855260018201548486015260018060a01b0394856002840154169260408201938452868060038301541660608401908152610db66004840154936080860194855260058101549560a08101968752600682015460c0820152600782015460e082015261016060ff600b81600886015416151594856101008601526009810154610120860152600a8101546101408601520154161515910152614821565b51163303610f8e5782517f2f2a4f12d9b7fed33b6dc1cecd785a4600d27f01f5a127628f563afe70f8c700878501918220631491539560e21b89604051610dfc816143f7565b60048152015203610eec5750610e169150515b3414614863565b5f8080808886511681903415610ee2575b3491f115610ed7577f62b4265ef816f751a94c5c93fa40a90302c6924509b973ed4094dcf30c6c61ed9461083492610eac610e63600354614704565b806003558383511660405191610e78836143c1565b8252878983015233604083015260608201523460808201528460a08201524260c0820152865f52600b885260405f206148af565b511660405194859485523390850152604084015234606084015260a0608084015260a08301906144ee565b6040513d5f823e3d90fd5b6108fc9150610e27565b7fe3d95406626800c6626191b810036eac51d8ba8f60b01114699061bf4548c9c79150835190206f14d150d55492551657d1115413d4d25560821b87604051610f34816143f7565b60108152015203610f4957610e169051610e0f565b60405162461bcd60e51b815260048101869052601860248201527f496e76616c6964207472616e73616374696f6e207479706500000000000000006044820152606490fd5b60405162461bcd60e51b815260048101879052601c60248201527f4e6f74207468652074656e616e74206f662074686973206c65617365000000006044820152606490fd5b3461038b5760208060031936011261038b5760043590815f526006815261100a60018060a01b03600160405f20015416331461474b565b815f526006815260ff600760405f200154161561106857817f871a96bcac8326bf82aea94341df252a5ec1dae7cad4187675f9cb6b333282ed925f52600682525f6008604082206007810160ff1981541690550155604051908152a1005b6064906040519062461bcd60e51b82526004820152601f60248201527f50726f7065727479206973206e6f74206c697374656420666f722073616c65006044820152fd5b3461038b57602036600319011261038b576110c5614cf5565b6004355f52600660205260405f2060118060205260405f2060098301908154916110f160ff8416614d78565b600d85019283549061110660ff831615614cb1565b6001870180549095906001600160a01b03163303611426575b600160ff1993841681179091559082169092556005929092018054909216179055600b8301546001600160a01b03169081156113e95780546001600160a01b0319811690921790556001600160a01b0381165f908152600760205260408120905b8154808210156113da5761119482846144c5565b905460039291831b1c600435146111b55750506111b090614704565b611180565b90919293945f1982019182116113c857509361120c846112075f97956111ef8998966111e38a998a996144c5565b9054911b1c91846144c5565b90919082549060031b91821b915f19901b1916179055565b614c00565b600b8601546001600160a01b031682526007602052604082206112329060043590614728565b61123d600554614704565b6005818155600b880154600c89015460405193916001600160a01b0316611263856143dc565b828552602085016004358152604086019060018060a01b0388168252606087019283526080870193845260a08701944286528952600f6020526040892096518755516001870155600286019060018060a01b039051166001600160601b0360a01b825416179055600385019060018060a01b039051166001600160601b0360a01b825416179055516004840155519101556004358252601060205261130e6040832060055490614728565b600c860154906001600160a01b03165af1611327614d49565b501561137957600c60018060a01b03600b8301541691015460405191825260208201527fd2aa34a4fdbbc6dff6a3e56f46e0f3ae2a31d7785ff3487aa5c95c642acea501604060043592a25b60015f55005b60405162461bcd60e51b815260206004820152602160248201527f5472616e7366657220746f2070726576696f7573206f776e6572206661696c656044820152601960fa1b6064820152608490fd5b634e487b7160e01b5f5260045260245ffd5b5050505f80809350809261120c565b505050506040515f81525f60208201527fd2aa34a4fdbbc6dff6a3e56f46e0f3ae2a31d7785ff3487aa5c95c642acea501604060043592a2611373565b91939092600a88015442106114ac57600b8801546001600160a01b03163303611452579290939161111f565b60405162461bcd60e51b815260206004820152602c60248201527f4f6e6c79206f776e6572206f722068696768657374206269646465722063616e60448201526b1032b7321030bab1ba34b7b760a11b6064820152608490fd5b60405162461bcd60e51b815260206004820152601960248201527f41756374696f6e207374696c6c20696e2070726f6772657373000000000000006044820152606490fd5b3461038b57602036600319011261038b576004355f52601560205261038761151b60405f2061457d565b6040519182916020835260208301906144ee565b3461038b5761153d366144af565b9081811161179a5760019182548111611755578161155a91614a4e565b828101809111611741579161156e83614bb7565b9261157c604051948561442d565b80845261158881614bb7565b60209390601f19015f5b8181106117255750505f5b8281106116055750505060405191808301818452845180915260408401918060408360051b8701019601925f905b8382106115d85786880387f35b909192939483806115f4839a603f198b8203018652895161461e565b9997019594939190910191016115cb565b8061161661171d9284989698614baa565b5f5260068087526116fc600e60405f206040519361163385614389565b815485528b8201546001600160a01b039081168c8701526116566002840161457d565b6040870152600383015460608701526116716004840161457d565b608087015260ff9182600585015416151560a088015283015460c087015281600784015416151560e087015260089081840154610100880152826009850154161515610120880152600a840154610140880152600b84015416610160870152600c830154610180870152600d8301549082821615156101a08801521c1615156101c08501520161457d565b6101e082015261170c8287614b96565b526117178186614b96565b50614704565b94929461159d565b8590611732979597614c3d565b82828801015201959395611592565b634e487b7160e01b5f52601160045260245ffd5b60405162461bcd60e51b815260206004820152601760248201527f456e6420696e646578206f7574206f6620626f756e64730000000000000000006044820152606490fd5b60405162461bcd60e51b815260206004820152600d60248201526c496e76616c69642072616e676560981b6044820152606490fd5b3461038b575f36600319011261038b575f6001908154915b8281111561188757506117f990614bce565b905f60015b8281111561181c576040516020808252819061038790820187614356565b805f52600660205260405f2060ff600d82015460081c16159081611870575b5061184f575b61184a90614704565b6117fe565b90611868818361186261184a9488614b96565b52614704565b919050611841565b600101546001600160a01b0316151590508561183b565b805f52600660205260405f2060ff600d82015460081c161590816118cf575b506118ba575b6118b590614704565b6117e7565b906118c76118b591614704565b9190506118ac565b600101546001600160a01b031615159050846118a6565b3461038b57602036600319011261038b575f60c0604051611906816143c1565b8281528260208201528260408201528260608201528260808201528260a082015201526004355f52600d60205260e060405f20604051611945816143c1565b81549182825260018101546020830190815260018060a01b038060028401541660408501908152818060038601541691606087019283526004860154946080880195865260c060ff600660058a01549960a08c019a8b520154169801971515885260405198895251602089015251166040870152511660608501525160808401525160a083015251151560c0820152f35b3461038b5760208060031936011261038b576001600160a01b03806119f961432a565b165f52600a9081835260405f20916040518084868296549384815201905f52865f20925f5b88828210611c7b57505050611a359250038461442d565b5f915f5b8451811015611b4557611a4c8186614b96565b515f52600880875260405f2090604051611a65816143a5565b8254815260018301548982015284600284015416604082015284600384015416606082015260048301546080820152600583015460a0820152600683015460c082015260078301549061016060e0820193838552600b60ff8092880154161515968761010086015260098101546101208601528a810154610140860152015416151591015282611b2b575b5081611b20575b50611b0b575b611b0690614704565b611a39565b92611b18611b0691614704565b939050611afd565b905051421087611af7565b90915062278d004201908142116117415711159088611af0565b5091611b5090614bce565b915f915f5b8551811015611c6857611b688187614b96565b51805f52600880895260405f2090604051611b82816143a5565b8254815260018301548b82015286600284015416604082015286600384015416606082015260048301546080820152600583015460a0820152600683015460c082015260078301549061016060e0820193838552600b60ff8092880154161515968761010086015260098101546101208601528a810154610140860152015416151591015282611c4e575b5081611c43575b50611c29575b50611c2490614704565b611b55565b84611c3c91611862611c24949789614b96565b9390611c1a565b905051421089611c14565b90915062278d00420190814211611741571115908a611c0d565b60405187815280610387818a0188614356565b8554845260019586019589955093019201611a1e565b3461038b575f36600319011261038b576013546040516001600160a01b039091168152602090f35b60208060031936011261038b57600435611cd1614cf5565b805f526006825260405f2060ff60098201541615611e6857611cf8600a8201544210614cb1565b600c8101805480341115611e0f5760018301546001600160a01b03939084163314611dbb57600b019283541680611d93575b50506001600160601b0360a01b913383825416179055349055815f526011835260405f2090600382019033908254161790556002349101557f0e54eff26401bf69b81b26f60bd85ef47f5d85275c1d268d84f68d6897431c47604051923484523393a360015f55005b845f526012865260405f20905f528552611db260405f20918254614baa565b90558480611d2a565b60405162461bcd60e51b815260048101879052602660248201527f4f776e65722063616e6e6f7420626964206f6e207468656972206f776e2070726044820152656f706572747960d01b6064820152608490fd5b60405162461bcd60e51b815260048101869052602b60248201527f426964206d75737420626520686967686572207468616e2063757272656e742060448201526a1a1a59da195cdd08189a5960aa1b6064820152608490fd5b60405162461bcd60e51b815260048101849052601a60248201527f50726f7065727479206973206e6f74206f6e2061756374696f6e0000000000006044820152606490fd5b3461038b5760208060031936011261038b5760043590611ecb614cf5565b815f526006815260405f206011825260405f209060098101805490611ef260ff8316614d78565b600d830191825490611f0760ff831615614cb1565b60018501546001600160a01b039490851633036120415790600193929160ff199485809416179055169055600160058501918254161790555f92600b83019081549283169081611f89575b877fdb9cc99dc874f9afbae71151f737e51547d3d412b52922793437d86607050c3c88885f600a8a0155604051908152a260015f55005b600c850180546001600160a01b03199586169094555f908190556003820180549095169094556002018390559293509181908190819085905af1611fcb614d49565b5015611ffc57905f600a7fdb9cc99dc874f9afbae71151f737e51547d3d412b52922793437d86607050c3c87611f52565b60405162461bcd60e51b815260048101849052601f60248201527f4661696c656420746f20726566756e64206869676865737420626964646572006044820152606490fd5b60405162461bcd60e51b815260048101899052602660248201527f4f6e6c792070726f7065727479206f776e65722063616e2063616e63656c20616044820152653ab1ba34b7b760d11b6064820152608490fd5b3461038b57606036600319011261038b576004356024803590604490813591845f526020916006835260018060a01b03906120da82600160405f20015416331461474b565b865f52600684526120f760ff600d60405f20015460081c16614790565b865f526006845260405f209261211360ff6005860154166147dc565b600984019081549260ff84166123ab5760ff60078701541661235d57881561230d57610e1088106122ba5762278d00881161226957897f44c53be110c6aa83aa83cd02e351ed172359268272ee1b5d31c0fe48db35c6c760408b8b8b61225e8c8761224760058f8f8f600160ff198093161790556121918942614baa565b600a87015589600c870155600d600b8701966001600160601b0360a01b97888154169055019081541690556121c68842614baa565b8a51916121d2836143c1565b858352888301968b88528c8401918c835260608501925f84526080860194855260a08601995f8b5260c087019960018b525f5260118d528f5f209651875551600187015551600286015560038501925116908254161790555160048201550192511515839060ff801983541691151516179055565b51815461ff00191690151560081b61ff0016179055565b8351928352820152a2005b7f41756374696f6e206475726174696f6e2063616e6e6f74206578636565642033608492602689936040519462461bcd60e51b865260048601528401528201526530206461797360d01b6064820152fd5b7f41756374696f6e206475726174696f6e206d757374206265206174206c656173608492602889936040519462461bcd60e51b86526004860152840152820152673a1018903437bab960c11b6064820152fd5b7f5374617274696e67207072696365206d75737420626520677265617465722074608492602589936040519462461bcd60e51b8652600486015284015282015264068616e20360dc1b6064820152fd5b7f50726f706572747920697320616c7265616479206c697374656420666f722073608492602389936040519462461bcd60e51b8652600486015284015282015262616c6560e81b6064820152fd5b7f50726f706572747920697320616c7265616479206f6e2061756374696f6e0000606492601e89936040519462461bcd60e51b86526004860152840152820152fd5b3461038b57604036600319011261038b5761240661432a565b6001600160a01b03165f9081526007602052604090208054602435919082101561038b57602091612436916144c5565b90546040519160031b1c8152f35b3461038b57602036600319011261038b576004355f52600860205261018060405f2080549060018101549060018060a01b0380600283015416906003830154166004830154600584015460068501549060078601549260ff6008880154169460098801549660ff600b600a8b01549a015416996040519b8c5260208c015260408b015260608a0152608089015260a088015260c087015260e086015215156101008501526101208401526101408301521515610160820152f35b3461038b575f36600319011261038b576020600154604051908152f35b60208060031936011261038b57600435805f526006825260405f20906040519261254484614389565b825484526001808401546001600160a01b03908116838701908152919061256d6002870161457d565b604088015260039687870154606082015261258a6004880161457d565b608082015261263760ff60058901541660a083019015158152600689015460c084015260ff60078a0154169260e0810193151584526101e061262c600e60088d01549c61010085019d8e5260ff6009820154161515610120860152600a81015461014086015288600b82015416610160860152600c81015461018086015260ff600d82015481811615156101a088015260081c1615156101c08601520161457d565b9101525115156147dc565b51156129ab5780835116331461295a5761265386513414614863565b61265e600454614704565b928360045561270b8860068484511696888b518b8860405196612680886143c1565b858852848801928352604088019c8d52606088019233845260808901948552600d60a08a019642885260c08b01985f8a525f525260405f2098518955518c89015581600289019d51169c6001600160601b0360a01b9d8e82541617905587019151168b82541617905551600485015551600584015551151591019060ff801983541691151516179055565b5f8080808585511681903415612950575b3491f115610ed7576127a261273689949596979954614704565b808555838351166040519161274a836143c1565b82525f89830152336040830152606082015234608082015260405161276e816143f7565b600d81526c50524f50455254595f53414c4560981b8982015260a08201524260c0820152895f52600b885260405f206148af565b7f8d4e3385fd4440452df97750ad67b43f8fbe60bff4a539d21be1cdf3b9f550ab60a060045498848451169051604051918b83528c8b84015260408301523360608301526080820152a15116865f526006855260405f20938385019033908254161790555f6008600786019560ff199687815416905501555f526007845260405f20335f5260405f2091835f905b6128a2575b7f4b57d7a2efb9c923c803ed013532df2fc457683e64a60451ce82578fa6c123da6060898b8a8a8a612867848c614728565b835f52600e835261287b8560405f20614728565b845f52600d8352600660405f200191825416179055604051928352820152336040820152a1005b8298959397969492548082101561294257866128be838c6144c5565b905490851b1c146128e85750906128db8394959697989992614704565b9091929495969893612830565b5f1981019998908a11611741576129348961120789946111ef612867977f4b57d7a2efb9c923c803ed013532df2fc457683e64a60451ce82578fa6c123da9f60609f906111e3916144c5565b939598508294969750612835565b508294969793959850612835565b6108fc915061271c565b60405162461bcd60e51b815260048101859052602360248201527f4f776e65722063616e6e6f7420627579207468656972206f776e2070726f706560448201526272747960e81b6064820152608490fd5b60405162461bcd60e51b815260048101859052601860248201527f50726f7065727479206973206e6f7420666f722073616c6500000000000000006044820152606490fd5b3461038b5760208060031936011261038b5760043580915f5b825f526008808352600a918260405f20015415612a3a57612a2990614704565b935f52825260405f20015491612a09565b8386916001810180821161174157612a5190614bce565b925f5b82811115612a7357505050610387604051928284938452830190614356565b81612a7e8287614b96565b52828110612a95575b612a9090614704565b612a54565b5f918252600884526040909120600a015490612a87565b3461038b57602036600319011261038b57612ac5614c3d565b506004355f52600660205261038760405f20612bb7600e60405192612ae984614389565b8054845260018101546001600160a01b039081166020860152612b0e6002830161457d565b604086015260038201546060860152612b296004830161457d565b608086015260ff600583015416151560a0860152600682015460c086015260ff600783015416151560e0860152600882015461010086015260ff6009830154161515610120860152600a820154610140860152600b82015416610160850152600c81015461018085015260ff600d82015481811615156101a087015260081c1615156101c08501520161457d565b6101e082015260405191829160208352602083019061461e565b3461038b57602036600319011261038b57600435805f526008602052600160405f2001545f526006602052612c1660018060a01b03600160405f20015416331461474b565b805f526008602052612c3160ff600860405f20015416614821565b5f526008602052600860405f200160ff1981541690555f80f35b3461038b57604036600319011261038b57612c6461432a565b6001600160a01b03165f9081526009602052604090208054602435919082101561038b57602091612436916144c5565b3461038b57602036600319011261038b576004355f52601160205260e060405f2060ff815491600181015490600281015460018060a01b036003830154169060056004840154930154936040519687526020870152604086015260608501526080840152818116151560a084015260081c16151560c0820152f35b3461038b57604036600319011261038b57612d2861432a565b6001600160a01b03165f908152600a602052604090208054602435919082101561038b57602091612436916144c5565b3461038b57612d66366144af565b905f52600b60205260405f2090815481101561038b57612d859161452c565b508054600182015491612dec60018060a01b039182600282015416926003820154166004820154906006612dbb6005850161457d565b930154946040519788978852602088015260408701526060860152608085015260e060a085015260e08401906144ee565b9060c08301520390f35b3461038b57602036600319011261038b576040612e14600435614a5b565b825191151582526020820152f35b3461038b575f36600319011261038b575f6001908154915b82811115612eb05750612e4c90614bce565b905f60015b82811115612e6f576040516020808252819061038790820187614356565b805f52600660205260ff600760405f20015416612e95575b612e9090614704565b612e51565b90612ea88183611862612e909488614b96565b919050612e87565b805f52600660205260ff600760405f20015416612ed6575b612ed190614704565b612e3a565b90612ee3612ed191614704565b919050612ec8565b3461038b57602036600319011261038b576004355f52600c602052602060405f2054604051908152f35b3461038b5760208060031936011261038b5760043590815f526008815260405f2060018060a01b039260029184838201541633149081156130e6575b50156130b0575f92919252600b815260405f20908154612f7081614bb7565b93612f7e604051958661442d565b8185525f9384528284208386019491855b848410613042575050505050604051928184019082855251809152604084019160408260051b86010193925f965b838810612fca5786860387f35b90919293948380600192603f198a82030186528851908151815282820151838201528560408301511660408201526060868184015116908201526080808301519082015261302760a060e0818501519184015260e08301906144ee565b9160c080910151910152970193019701969093929193612fbd565b60078660019260409a989a51613057816143c1565b8654815284870154838201528c868801541660408201528c6003880154166060820152600487015460808201526130906005880161457d565b60a0820152600687015460c0820152815201930193019291969496612f8f565b60405162461bcd60e51b815260048101849052600e60248201526d139bdd08185d5d1a1bdc9a5e995960921b6044820152606490fd5b6003015485163314905085612f51565b3461038b57608036600319011261038b576004355f908152600860205260409020600201546001600160a01b03163303613401576004355f52600860205260405f2060405190613145826143a5565b805482526001810154602083015260028101546001600160a01b039081166040840152600382015416606083015260048101546080830152600581015460a0830152600681015460c0830152600781015460e0830152600881015460ff9081161580156101008501526009830154610120850152600a830154610140850152600b909201541615156101608301526133bc576004355f526008602052600860405f200160ff1981541690556133296131fe600254614704565b60028190556020830151604080850151606086015160e0870151925194936001600160a01b039182169290911690613235866143a5565b848652602086015260408501526060840152602435608084015260443560a084015260c083015260643560e083015260016101008301524261012083015260043561014083015260016101608301525f526008602052600b61016060405f209280518455602081015160018501556002840160018060a01b03604083015116906001600160601b0360a01b9182825416179055600385019060018060a01b03606084015116908254161790556080810151600485015560a0810151600585015560c0810151600685015560e08101516007850155610a2c6101008201511515600886019060ff801983541691151516179055565b606001516001600160a01b03165f90815260096020526040902060025461334f91614728565b335f52600a60205261336760405f2060025490614728565b60206002546004355f52600c82528060405f20557f5218b45ec4111b34f11772b33264cebe845c4a092cb61b4df792954c6c9780196060604051600435815283858201526064356040820152a1604051908152f35b60405162461bcd60e51b815260206004820152601e60248201527f43616e6e6f742072656e657720616e20696e616374697665206c6561736500006044820152606490fd5b60405162461bcd60e51b815260206004820152602560248201527f4f6e6c79206c616e646c6f72642063616e20706572666f726d2074686973206160448201526431ba34b7b760d91b6064820152608490fd5b3461038b57613462366144af565b905f52600e60205260405f20805482101561038b57602091612436916144c5565b3461038b57613491366144af565b905f52601060205260405f20805482101561038b57602091612436916144c5565b3461038b57602036600319011261038b576004355f52600860205261014060405f20610160604051916134e4836143a5565b8054835260018101549283602082015260018060a01b03806002840154169081604084015260038401541680606084015260048401548060808501526005850154908160a08601526006860154928360c08701526007870154948560e088015260ff6008890154169687151561010082015260ff600b60098b01549a8b610120850152600a8101548f8501520154161515998a910152604051998a5260208a015260408901526060880152608087015260a086015260c0850152151560e0840152610100830152610120820152f35b3461038b5760208060031936011261038b576004355f52600e815260405f20906040518083838295549384815201905f52835f20925f5b85828210613601575050506105299250038361442d565b85548452600195860195889550930192016135ea565b3461038b5760208060031936011261038b57613634600435614f09565b9092916040519384936060850160608652835180915281608087019401905f5b8181106136815750505084830390850152610387929161367391614356565b908382036040850152614356565b82516001600160a01b031686528897509483019491830191600101613654565b3461038b57602036600319011261038b576013546001600160a01b0390600435906136cf9083163314614db8565b80151580613847575b6136e190614e10565b805f52600660205260405f209061370260ff600d84015460081c1615614e52565b6001928380930154165f52600760205260405f20825f905b6137e0575b50508091505f526006602052613796600e60405f205f81555f8582015561374860028201614e9e565b5f600382015561375a60048201614e9e565b5f60058201555f60068201555f60078201555f60088201555f60098201555f600a8201555f600b8201555f600c8201555f600d82015501614e9e565b8154908115611741575f19909101909155604080519182523360208301527f51922a50d941e0e3c221255fd634692203f6c5fd5110667ebc4dd41df303d80f919081908101610834565b81548082101561384157836137f583856144c5565b919054600392831b1c1461381457505061380e90614704565b8361371a565b9394505f1981019391908411611741576111ef611207926111e361383896866144c5565b8190838061371f565b5061371f565b506001548111156136d8565b3461038b57602036600319011261038b576004355f52600d60205260e060405f2080549060018101549060018060a01b03806002830154169060038301541660048301549160ff600660058601549501541694604051968752602087015260408601526060850152608084015260a0830152151560c0820152f35b3461038b5760208060031936011261038b5760025460043591905f60015b8281111561395e57506138fe90614bce565b925f9060015b8381111561391f576040518581528061038781880189614356565b805f526008855281600160405f20015414613943575b61393e90614704565b613904565b91613956818461186261393e948a614b96565b929050613935565b805f526008845284600160405f20015414613982575b61397d90614704565b6138ec565b9061398f61397d91614704565b919050613974565b3461038b576139a5366144af565b815f5260066020526139c760018060a01b03600160405f20015416331461474b565b815f5260066020526139e560ff600d60405f20015460081c16614790565b815f526006602052613a0060ff600560405f200154166147dc565b8015613bb457335f52600a60205260405f2091604051808460208296549384815201905f5260205f20925f5b818110613b9b575050613a419250038461442d565b5f5b8351811015613b4a5780613a5a613b179286614b96565b515f52600860205260405f2083604051613a73816143a5565b8254815260018301549081602082015260018060a01b03600285015416604082015260018060a01b03600385015416606082015260048401546080820152600584015460a0820152600684015460c0820152600784015460e082015261016060ff600b81600888015416151596876101008601526009810154610120860152600a8101546101408601520154161515910152149081613b42575b50613b1c57614704565b613a43565b613b268186614b96565b515f526008602052600860405f200160ff198154169055614704565b905086613b0d565b7f88b3e10fc821dcf6e0c9b8b02e38f5fff401bfab2172fb035d249c01f094de7d60408385815f526006602052806008845f2060078101600160ff19825416179055015582519182526020820152a1005b8454835260019485019488945060209093019201613a2c565b60405162461bcd60e51b8152602060048201526024808201527f53616c65207072696365206d7573742062652067726561746572207468616e206044820152637a65726f60e01b6064820152608490fd5b3461038b5760208060031936011261038b57600435613c22614cf5565b805f526012825260405f20335f52825260405f2054918215613cd157815f526012815260405f20335f5281525f60408120555f80808086335af1613c64614d49565b5015613c9b577f8f8619524e8d462cead34604bd2247ede24175801481e4d0b8059ac8aa41c301906040519384523393a360015f55005b6064906040519062461bcd60e51b82526004820152600f60248201526e151c985b9cd9995c8819985a5b1959608a1b6044820152fd5b6064906040519062461bcd60e51b8252600482015260146024820152734e6f2066756e647320746f20776974686472617760601b6044820152fd5b3461038b57608036600319011261038b576004356001600160401b03811161038b57613d3c903690600401614469565b6044356001600160401b03811161038b57613d5b903690600401614469565b6064356001600160401b03811161038b57613d7a903690600401614469565b613d85600154614704565b908160015560405192613d9784614389565b828452336020850152846040850152602435606085015260808401525f60a08401524260c08401525f60e08401525f6101008401525f6101208401525f6101408401525f6101608401525f6101808401525f6101a08401525f6101c08401526101e08301525f52600660205260405f2091815183556001830160018060a01b036020840151166001600160601b0360a01b82541617905560408201519283516001600160401b03811161415b57613e516002830154614545565b601f811161428a575b506020601f821160011461421f578190613e8c939495965f926140b8575b50508160011b915f199060031b1c19161790565b60028201555b6060830151600382015560808301518051906001600160401b03821161415b57613ebf6004840154614545565b601f81116141ec575b50602090601f831160011461417a5782600e936101e09593613efe935f9261416f5750508160011b915f199060031b1c19161790565b60048201555b613f2360a08601511515600583019060ff801983541691151516179055565b60c08501516006820155613f4c60e08601511515600783019060ff801983541691151516179055565b6101008501516008820155613f776101208601511515600983019060ff801983541691151516179055565b610140850151600a820155600b810160018060a01b03610160870151166001600160601b0360a01b825416179055610180850151600c820155613ff0600d8201613fd46101a08801511515829060ff801983541691151516179055565b6101c0870151815461ff00191690151560081b61ff0016179055565b01920151908151926001600160401b03841161415b576020936140138254614545565b601f8111614122575b508493601f82116001146140c35761404c92939482915f926140b85750508160011b915f199060031b1c19161790565b90555b335f526007825261406660405f2060015490614728565b7fb33e9eef84e3eebf705c9f5736130e2f3eeae173c0b5a4f96c167b2186047d376140ad6001549260405191829185835233878401526060604084015260608301906144ee565b0390a1604051908152f35b015190508680613e78565b601f19821694835f52865f20915f5b87811061410b5750836001959697106140f3575b505050811b01905561404f565b01515f1960f88460031b161c191690558580806140e6565b9192886001819286850151815501940192016140d2565b61414b90835f52865f20601f840160051c810191888510614151575b601f0160051c0190614712565b8561401c565b909150819061413e565b634e487b7160e01b5f52604160045260245ffd5b015190508880613e78565b90600484015f5260205f20915f5b601f19851681106141d45750926101e09492600192600e9583601f198116106141bc575b505050811b016004820155613f04565b01515f1960f88460031b161c191690558780806141ac565b91926020600181928685015181550194019201614188565b61421990600485015f5260205f20601f850160051c8101916020861061415157601f0160051c0190614712565b85613ec8565b600283015f5260205f20905f5b601f1984168110614272575060019394959683601f1981161061425a575b505050811b016002820155613e92565b01515f1960f88460031b161c1916905585808061424a565b9091602060018192858b01518155019301910161422c565b6142b790600284015f5260205f20601f840160051c8101916020851061415157601f0160051c0190614712565b85613e5a565b3461038b5760208060031936011261038b576001600160a01b036142df61432a565b165f526009815260405f2082815491828252838201905f52835f20925f5b85828210614314575050506105299250038361442d565b85548452600195860195889550930192016142fd565b600435906001600160a01b038216820361038b57565b602435906001600160a01b038216820361038b57565b9081518082526020808093019301915f5b828110614375575050505090565b835185529381019392810192600101614367565b61020081019081106001600160401b0382111761415b57604052565b61018081019081106001600160401b0382111761415b57604052565b60e081019081106001600160401b0382111761415b57604052565b60c081019081106001600160401b0382111761415b57604052565b604081019081106001600160401b0382111761415b57604052565b606081019081106001600160401b0382111761415b57604052565b90601f801991011681019081106001600160401b0382111761415b57604052565b6001600160401b03811161415b57601f01601f191660200190565b81601f8201121561038b578035906144808261444e565b9261448e604051948561442d565b8284526020838301011161038b57815f926020809301838601378301015290565b604090600319011261038b576004359060243590565b80548210156144da575f5260205f2001905f90565b634e487b7160e01b5f52603260045260245ffd5b91908251928382525f5b848110614518575050825f602080949584010152601f8019910116010190565b6020818301810151848301820152016144f8565b80548210156144da575f52600760205f20910201905f90565b90600182811c92168015614573575b602083101461455f57565b634e487b7160e01b5f52602260045260245ffd5b91607f1691614554565b9060405191825f825461458f81614545565b9081845260209460019182811690815f146145fc57506001146145be575b5050506145bc9250038361442d565b565b5f90815285812095935091905b8183106145e45750506145bc93508201015f80806145ad565b855488840185015294850194879450918301916145cb565b925050506145bc94925060ff191682840152151560051b8201015f80806145ad565b9061470191610200918151815261467661465a60208401519460018060a01b0380961660208501526040850151908060408601528401906144ee565b60608401516060840152608084015183820360808501526144ee565b9260a0830151151560a083015260c083015160c083015260e0830151151560e083015261010080840151908301526101208084015115159083015261014080840151908301526101609081840151169082015261018080830151908201526101a0808301511515908201526101c0808301511515908201526101e080920151918184039101526144ee565b90565b5f1981146117415760010190565b81811061471d575050565b5f8155600101614712565b90815491600160401b83101561415b57826111ef9160016145bc950181556144c5565b1561475257565b60405162461bcd60e51b81526020600482015260166024820152752737ba103a343290383937b832b93a3c9037bbb732b960511b6044820152606490fd5b1561479757565b60405162461bcd60e51b815260206004820152601f60248201527f50726f7065727479206e6f7420617070726f766564206279206e6f74617279006044820152606490fd5b156147e357565b60405162461bcd60e51b815260206004820152601660248201527550726f7065727479206973206e6f742061637469766560501b6044820152606490fd5b1561482857565b60405162461bcd60e51b81526020600482015260136024820152724c65617365206973206e6f742061637469766560681b6044820152606490fd5b1561486a57565b60405162461bcd60e51b815260206004820152601860248201527f496e636f7272656374207061796d656e7420616d6f756e7400000000000000006044820152606490fd5b908154600160401b81101561415b576148cf90600193848201815561452c565b929092614a3b578151835560209081830151818501556002840160018060a01b039081604086015116906001600160601b0360a01b918282541617905560038601916060860151169082541617905560808301516004850155600584019160a08401518051926001600160401b03841161415b5761494d8554614545565b601f8111614a0d575b5082601f85116001146149a1575050826006959360c0959361498c935f926149965750508160011b915f199060031b1c19161790565b90555b0151910155565b015190505f80613e78565b91601f94939194198416865f52835f20935f905b8282106149f6575050916006979593918560c0989694106149de575b505050811b01905561498f565b01515f1960f88460031b161c191690555f80806149d1565b8088869782949787015181550196019401906149b5565b614a3590865f52845f20601f870160051c81019186881061415157601f0160051c0190614712565b5f614956565b634e487b7160e01b5f525f60045260245ffd5b9190820391821161174157565b5f52600860205260405f2060405190614a73826143a5565b80548083526001820154602084015260018060a01b03806002840154166040850152600383015416606084015260048201546080840152600582015460a0840152600682015460c084015260078201549260e0810193845261016060ff600b8160088701541695610100850196151587526009810154610120860152600a810154610140860152015416151591015215614b3d575115614b365751804211614b2e57614b2462015180914290614a4e565b0490601e82109190565b506001905f90565b505f905f90565b60405162461bcd60e51b81526020600482015260146024820152731319585cd948191bd95cc81b9bdd08195e1a5cdd60621b6044820152606490fd5b8051156144da5760200190565b8051600110156144da5760400190565b80518210156144da5760209160051b010190565b9190820180921161174157565b6001600160401b03811161415b5760051b60200190565b90614bd882614bb7565b614be5604051918261442d565b8281528092614bf6601f1991614bb7565b0190602036910137565b8054908115614c29575f1991820191614c1983836144c5565b909182549160031b1b1916905555565b634e487b7160e01b5f52603160045260245ffd5b60405190614c4a82614389565b60606101e0835f80825280602083015283604083015280848301528360808301528060a08301528060c08301528060e08301528061010083015280610120830152806101408301528061016083015280610180830152806101a08301526101c08201520152565b15614cb857565b60405162461bcd60e51b8152602060048201526015602482015274105d58dd1a5bdb88185b1c9958591e48195b991959605a1b6044820152606490fd5b60025f5414614d045760025f55565b60405162461bcd60e51b815260206004820152601f60248201527f5265656e7472616e637947756172643a207265656e7472616e742063616c6c006044820152606490fd5b3d15614d73573d90614d5a8261444e565b91614d68604051938461442d565b82523d5f602084013e565b606090565b15614d7f57565b60405162461bcd60e51b815260206004820152601160248201527027379030b1ba34bb329030bab1ba34b7b760791b6044820152606490fd5b15614dbf57565b60405162461bcd60e51b815260206004820152602360248201527f4f6e6c79206e6f746172792063616e20706572666f726d20746869732061637460448201526234b7b760e91b6064820152608490fd5b15614e1757565b60405162461bcd60e51b8152602060048201526013602482015272125b9d985b1a59081c1c9bdc195c9d1e481251606a1b6044820152606490fd5b15614e5957565b60405162461bcd60e51b815260206004820152601960248201527f50726f706572747920616c726561647920617070726f766564000000000000006044820152606490fd5b614ea88154614545565b9081614eb2575050565b81601f5f9311600114614ec3575055565b908083918252614ee2601f60208420940160051c840160018501614712565b5555565b60011981019190821360011661174157565b600160ff1b8114611741575f190190565b5f91818352602091600e8352604093848120938551808683829854938481520190855283852092855b8582821061561157505050614f499250038661442d565b82825260108152858220908651808383829554938481520190865283862092865b858282106155fb57505050614f819250038361442d565b614f8e8651835190614baa565b968715615576576001918289146153bc578289018099116153a857614fb289614bce565b95614fc5614fbf8b614bce565b9a614bce565b9881875260069485845260018060a01b03908181878b20015416614fe88b614b79565b5287511561530b5787515f1981019081116152f7576150079089614b96565b518952600f85528c60a0615061888c20928951615023816143dc565b84548152858501548a820152866002860154168b82015286600386015416606082015260056004860154956080830196875201549384910152614b79565b525161506c8d614b79565b525b80978d8d61507c8351614ee6565b915b8d8d8085121561526f57505091506150968651614ee6565b915b8d8d808512156151ca579150508a9998969492506151449b9a979593915093815115155f1461514a57506150ce91929350614b79565b518a52600f8452858a20908651906150e5826143dc565b825482528201548582015260a060058460028501541693848a850152856003820154166060850152600481015460808501520154910152905b615128888c614b96565b911690528752528420015461513d8289614b96565b5285614b96565b52929190565b8091505161515a575b505061511e565b61516691929350614b79565b518a52600d8452858a209086519061517d826143c1565b825482528201548582015260c060ff878560028601541694858b86015286600382015416606086015260048101546080860152600581015460a08601520154161515910152905f80615153565b8d8d869f9461525a8f8f8c8f8f6152629c9a8995916152689f92806118629d6151f78a9661525a98614b96565b518152600d8952209681519661520c886143c1565b885488528801549087015281600288015416908601526003860154169384606082015260c060ff60048801549b608084019c8d5260058901549860a08501998a520154161515910152614b96565b525192614b96565b99614ef8565b8d8f615098565b8d8b869f9461525a8f8b615262999761525a8f8894908f916152f09f6118629c61529b83928a96614b96565b518152600f8c5220998151966152b0886143dc565b8b5488528b0154908701528160028b015416908601526003890154169283606086015260a0600560048b01549a608088019b8c5201549501948552614b96565b8d8f61507e565b634e487b7160e01b8a52601160045260248afd5b825180615319575b5061506e565b5f1981019081116152f75761532e9084614b96565b518952600d85528c868a20615396885192615348846143c1565b825484528483015489850152856002840154168a8501528560038401541660608501526004830154936080810194855260c060ff8d6005870154968760a08601520154161515910152614b79565b52516153a18d614b79565b525f615313565b634e487b7160e01b85526011600452602485fd5b819297985060069395849251966153d288614412565b600288528436848a013784519a6153e88c614412565b60028c528536858e013785519a6153fe8c614412565b60028c528636868e01378389528585528689208101546001600160a01b03929083166154298c614b79565b5283518a918f91156154d6575050506154428293614b79565b518952600f85528c60a061549f898c20928a519461545f866143dc565b845486528401548986015285600285015416948b810195865286600386015416606082015260056004860154956080830196875201549384910152614b79565b52516154aa8d614b79565b525116905b6154b889614b86565b91169052855252822001546154cc86614b86565b5261514484614b86565b809193929550516154ea575b5050506154af565b8394506154f690614b79565b518a52600d8652878a2088519161550c836143c1565b815483528101548783015261555f84600283015416938a84019485528560038401541660608501526004830154936080810194855260c060ff8c6005870154968760a08601520154161515910152614b79565b525161556a8d614b79565b525116908b5f806154e2565b939550955050600682519261558a846143f7565b60018452863681860137818151976155a1896143f7565b600189528036818b01378251976155b7896143f7565b600189528136818b0137808652828252838620600101546001600160a01b03166155e088614b79565b52855252822001546155f186614b79565b5261514484614b79565b8554845260019586019588955093019201614f6a565b855484526001958601958b955093019201614f3256fea26469706673582212209805d5fff0c1886d7beccd1835bc94b549ca603ae757e19d67d4ec02078d206464736f6c63430008150033",
  "immutableReferences": {},
  "source": "// SPDX-License-Identifier: MIT\npragma solidity ^0.8.21;\n\nimport \"@openzeppelin/contracts/security/ReentrancyGuard.sol\";\n\ncontract PropertyManagement is ReentrancyGuard {\n    // Struct to store property details\n    struct Property {\n        uint256 id;\n        address owner;\n        string propertyAddress;\n        uint256 size;\n        string propertyType;\n        bool isActive;\n        uint256 createdAt;\n        bool isForSale;\n        uint256 salePrice;\n        // Auction related fields\n        bool onAuction;\n        uint256 auctionEndTime;\n        address highestBidder;\n        uint256 highestBid;\n        bool auctionEnded;\n        bool isApproved;  // New field for notary approval\n        string documentHash;  // New field for property document hash\n    }\n    \n    // Struct to store lease agreement details\n    struct LeaseAgreement {\n        uint256 id;\n        uint256 propertyId;\n        address landlord;\n        address tenant;\n        uint256 monthlyRent;\n        uint256 securityDeposit;\n        uint256 startDate;\n        uint256 endDate;\n        bool isActive;\n        uint256 createdAt;\n        uint256 previousLeaseId; // Track renewal chain\n        bool isRenewal;          // Flag to indicate if this is a renewal\n    }\n    \n    // Struct to store property sale details\n    struct PropertySale {\n        uint256 id;\n        uint256 propertyId;\n        address seller;\n        address buyer;\n        uint256 salePrice;\n        uint256 timestamp;\n        bool completed;\n    }\n    \n    // Struct to store transaction details\n    struct Transaction {\n        uint256 id;\n        uint256 leaseId;\n        address from;\n        address to;\n        uint256 amount;\n        string transactionType; // \"RENT\", \"SECURITY_DEPOSIT\", \"REFUND\"\n        uint256 timestamp;\n    }\n    \n    // Struct to store auction details\n    struct Auction {\n        uint256 propertyId;\n        uint256 startingPrice;\n        uint256 highestBid;\n        address highestBidder;\n        uint256 auctionEndTime;\n        bool ended;\n        bool exists;\n    }\n    \n    // Struct to store auction transfer details\n    struct AuctionTransfer {\n        uint256 id;\n        uint256 propertyId;\n        address previousOwner;\n        address newOwner;\n        uint256 transferPrice;\n        uint256 timestamp;\n    }\n    \n    // Counters for generating IDs\n    uint256 private propertyCounter;\n    uint256 private leaseCounter;\n    uint256 private transactionCounter;\n    uint256 private saleCounter; //Counter for property sales\n    uint256 private auctionTransferCounter; //Counter for auction transfers\n    // Mappings to store data\n    mapping(uint256 => Property) public properties;\n    mapping(address => uint256[]) public ownerProperties;\n    mapping(uint256 => LeaseAgreement) public leaseAgreements;\n    mapping(address => uint256[]) public tenantLeases;\n    mapping(address => uint256[]) public landlordLeases;\n    mapping(uint256 => Transaction[]) public leaseTransactions;\n    mapping(uint256 => uint256) public renewedLeases; // Maps old lease ID to new lease ID\n    mapping(uint256 => PropertySale) public propertySales; // NEW: Map property sales by ID\n    mapping(uint256 => uint256[]) public propertyTransferHistory; // NEW: Record property ownership transfers\n    mapping(uint256 => AuctionTransfer) public auctionTransfers; // NEW: Map auction transfers by ID\n    mapping(uint256 => uint256[]) public propertyAuctionHistory; // NEW: Record auction-based transfers\n    mapping(uint256 => Auction) public auctions; // propertyId => Auction\n    mapping(uint256 => mapping(address => uint256)) public pendingReturns; // propertyId => (bidder => amount)\n   \n    // Notary related state variables\n    address public notary;\n    mapping(uint256 => bool) public propertyApprovals;\n    mapping(uint256 => string) public propertyDocuments;\n   \n    // Events\n    event PropertyRegistered(uint256 propertyId, address owner, string propertyAddress);\n    event LeaseCreated(uint256 leaseId, uint256 propertyId, address landlord, address tenant);\n    event PaymentReceived(uint256 leaseId, address from, address to, uint256 amount, string transactionType);\n    event LeaseRenewed(uint256 oldLeaseId, uint256 newLeaseId, uint256 newEndDate);\n    event LeaseExpiringSoon(uint256 leaseId, uint256 daysRemaining);\n    event PropertyListedForSale(uint256 propertyId, uint256 price); // NEW: Event for listing property\n    event PropertySaleCancelled(uint256 propertyId); // NEW: Event for cancelling sale\n    event PropertySaleInitiated(uint256 saleId, uint256 propertyId, address seller, address buyer, uint256 price); // NEW: Event for sale process\n    event PropertySaleCompleted(uint256 saleId, uint256 propertyId, address newOwner); // NEW: Event for completed sale\n    event AuctionStarted(uint256 indexed propertyId, uint256 startingPrice, uint256 duration);\n    event BidPlaced(uint256 indexed propertyId, address indexed bidder, uint256 amount);\n    event AuctionEnded(uint256 indexed propertyId, address winner, uint256 amount);\n    event BidWithdrawn(uint256 indexed propertyId, address indexed bidder, uint256 amount);\n    event AuctionCancelled(uint256 indexed propertyId, uint256 refundedAmount);\n    event PropertySubmitted(uint256 propertyId, address owner, string propertyAddress);\n    event PropertyApproved(uint256 propertyId, address notary);\n    event PropertyRejected(uint256 propertyId, address notary);\n   \n    constructor() {\n        notary = msg.sender; // Set the contract deployer as the notary\n    }\n    \n    // Modifiers\n    modifier onlyPropertyOwner(uint256 _propertyId) {\n        require(properties[_propertyId].owner == msg.sender, \"Not the property owner\");\n        _;\n    }\n    \n    modifier onlyLandlordOrTenant(uint256 _leaseId) {\n        require(\n            leaseAgreements[_leaseId].landlord == msg.sender || \n            leaseAgreements[_leaseId].tenant == msg.sender,\n            \"Not authorized\"\n        );\n        _;\n    }\n\n    modifier onlyLandlord(uint256 _leaseId) {\n        require(leaseAgreements[_leaseId].landlord == msg.sender, \"Only landlord can perform this action\");\n        _;\n    }\n    \n    modifier onlyNotary() {\n        require(msg.sender == notary, \"Only notary can perform this action\");\n        _;\n    }\n    \n    // Getter function for propertyCounter\n    function getPropertyCounter() public view returns (uint256) {\n        return propertyCounter;\n    }\n    \n    // Function to register a new property\n    function registerProperty(\n        string memory _propertyAddress,\n        uint256 _size,\n        string memory _propertyType,\n        string memory _documentHash\n    ) external returns (uint256) {\n        propertyCounter++;\n        \n        Property memory newProperty = Property({\n            id: propertyCounter,\n            owner: msg.sender,\n            propertyAddress: _propertyAddress,\n            size: _size,\n            propertyType: _propertyType,\n            isActive: false,  // Set to false until approved\n            createdAt: block.timestamp,\n            isForSale: false,\n            salePrice: 0,\n            onAuction: false,\n            auctionEndTime: 0,\n            highestBidder: address(0),\n            highestBid: 0,\n            auctionEnded: false,\n            isApproved: false,\n            documentHash: _documentHash\n        });\n        \n        properties[propertyCounter] = newProperty;\n        ownerProperties[msg.sender].push(propertyCounter);\n        \n        emit PropertySubmitted(propertyCounter, msg.sender, _propertyAddress);\n        return propertyCounter;\n    }\n    \n    // Function to create a lease agreement\n    function createLeaseAgreement(\n        uint256 _propertyId,\n        address _tenant,\n        uint256 _monthlyRent,\n        uint256 _securityDeposit,\n        uint256 _startDate,\n        uint256 _endDate\n    ) external onlyPropertyOwner(_propertyId) onlyApprovedProperty(_propertyId) returns (uint256) {\n        require(properties[_propertyId].isActive, \"Property is not active\");\n        require(!properties[_propertyId].isForSale, \"Property is currently for sale\"); //Cannot lease property that's for sale\n        require(!properties[_propertyId].onAuction, \"Property is currently on auction\"); //Cannot lease property that's being auctioned\n        require(_tenant != address(0), \"Invalid tenant address\");\n        require(_startDate < _endDate, \"Invalid lease duration\");\n        \n        leaseCounter++;\n        \n        LeaseAgreement memory newLease = LeaseAgreement({\n            id: leaseCounter,\n            propertyId: _propertyId,\n            landlord: msg.sender,\n            tenant: _tenant,\n            monthlyRent: _monthlyRent,\n            securityDeposit: _securityDeposit,\n            startDate: _startDate,\n            endDate: _endDate,\n            isActive: true,\n            createdAt: block.timestamp,\n            previousLeaseId: 0,\n            isRenewal: false\n        });\n        \n        leaseAgreements[leaseCounter] = newLease;\n        tenantLeases[_tenant].push(leaseCounter);\n        landlordLeases[msg.sender].push(leaseCounter);\n        \n        emit LeaseCreated(leaseCounter, _propertyId, msg.sender, _tenant);\n        return leaseCounter;\n    }\n    \n    // Function to pay rent or security deposit\n    function makePayment(uint256 _leaseId, string memory _transactionType) external payable {\n        LeaseAgreement memory lease = leaseAgreements[_leaseId];\n        require(lease.isActive, \"Lease is not active\");\n        require(lease.tenant == msg.sender, \"Not the tenant of this lease\");\n        \n        uint256 requiredAmount = 0;\n        \n        if (keccak256(bytes(_transactionType)) == keccak256(bytes(\"RENT\"))) {\n            requiredAmount = lease.monthlyRent;\n        } else if (keccak256(bytes(_transactionType)) == keccak256(bytes(\"SECURITY_DEPOSIT\"))) {\n            requiredAmount = lease.securityDeposit;\n        } else {\n            revert(\"Invalid transaction type\");\n        }\n        \n        require(msg.value == requiredAmount, \"Incorrect payment amount\");\n        \n        // Transfer the payment to the landlord\n        payable(lease.landlord).transfer(msg.value);\n        \n        // Record the transaction\n        transactionCounter++;\n        Transaction memory newTransaction = Transaction({\n            id: transactionCounter,\n            leaseId: _leaseId,\n            from: msg.sender,\n            to: lease.landlord,\n            amount: msg.value,\n            transactionType: _transactionType,\n            timestamp: block.timestamp\n        });\n        \n        leaseTransactions[_leaseId].push(newTransaction);\n        \n        emit PaymentReceived(_leaseId, msg.sender, lease.landlord, msg.value, _transactionType);\n    }\n    \n    // Function to terminate a lease\n    function terminateLease(uint256 _leaseId) external onlyPropertyOwner(leaseAgreements[_leaseId].propertyId) {\n        require(leaseAgreements[_leaseId].isActive, \"Lease is not active\");\n        leaseAgreements[_leaseId].isActive = false;\n    }\n    \n    // Check if a lease is expiring soon\n    function checkLeaseExpiration(uint256 _leaseId) external view returns (bool isExpiring, uint256 daysRemaining) {\n        LeaseAgreement memory lease = leaseAgreements[_leaseId];\n        require(lease.id > 0, \"Lease does not exist\");\n        \n        // If lease is not active, it's already expired or terminated\n        if (!lease.isActive) {\n            return (false, 0);\n        }\n        \n        uint256 currentTime = block.timestamp;\n        \n        // If current time is past end date, lease has expired\n        if (currentTime > lease.endDate) {\n            return (true, 0);\n        }\n        \n        // Calculate days remaining (approximate as block timestamps can vary)\n        uint256 timeRemaining = lease.endDate - currentTime;\n        uint256 daysLeft = timeRemaining / 86400; // 86400 seconds in a day\n        \n        // Consider \"expiring soon\" if less than 30 days remaining\n        return (daysLeft < 30, daysLeft);\n    }\n    \n    // Renew a lease agreement\n    function renewLease(\n        uint256 _leaseId,\n        uint256 _newMonthlyRent,\n        uint256 _newSecurityDeposit,\n        uint256 _newEndDate\n    ) external onlyLandlord(_leaseId) returns (uint256) {\n        LeaseAgreement memory oldLease = leaseAgreements[_leaseId];\n        require(oldLease.isActive, \"Cannot renew an inactive lease\");\n        \n        // End the current lease\n        leaseAgreements[_leaseId].isActive = false;\n        \n        // Create a new lease as a renewal\n        leaseCounter++;\n        \n        LeaseAgreement memory newLease = LeaseAgreement({\n            id: leaseCounter,\n            propertyId: oldLease.propertyId,\n            landlord: oldLease.landlord,\n            tenant: oldLease.tenant,\n            monthlyRent: _newMonthlyRent,\n            securityDeposit: _newSecurityDeposit,\n            startDate: oldLease.endDate, // Start new lease when old one ends\n            endDate: _newEndDate,\n            isActive: true,\n            createdAt: block.timestamp,\n            previousLeaseId: _leaseId,\n            isRenewal: true\n        });\n        \n        leaseAgreements[leaseCounter] = newLease;\n        tenantLeases[oldLease.tenant].push(leaseCounter);\n        landlordLeases[msg.sender].push(leaseCounter);\n        \n        // Record the renewal relationship\n        renewedLeases[_leaseId] = leaseCounter;\n        \n        emit LeaseRenewed(_leaseId, leaseCounter, _newEndDate);\n        return leaseCounter;\n    }\n    \n    // FUNCTION: Get all expiring leases for a landlord (within 30 days)\n    function getExpiringLeases(address _landlord) external view returns (uint256[] memory) {\n        uint256[] memory landlordLeaseList = landlordLeases[_landlord];\n        uint256 count = 0;\n        \n        // First, count expiring leases\n        for (uint i = 0; i < landlordLeaseList.length; i++) {\n            uint256 leaseId = landlordLeaseList[i];\n            LeaseAgreement memory lease = leaseAgreements[leaseId];\n            \n            if (lease.isActive && lease.endDate <= block.timestamp + 30 days && lease.endDate > block.timestamp) {\n                count++;\n            }\n        }\n        \n        // Create array of correct size\n        uint256[] memory expiringLeases = new uint256[](count);\n        uint256 index = 0;\n        \n        // Populate array with expiring lease IDs\n        for (uint i = 0; i < landlordLeaseList.length; i++) {\n            uint256 leaseId = landlordLeaseList[i];\n            LeaseAgreement memory lease = leaseAgreements[leaseId];\n            \n            if (lease.isActive && lease.endDate <= block.timestamp + 30 days && lease.endDate > block.timestamp) {\n                expiringLeases[index] = leaseId;\n                index++;\n            }\n        }\n        \n        return expiringLeases;\n    }\n    \n    //FUNCTION: Get renewal history of a lease\n    function getLeaseRenewalHistory(uint256 _leaseId) external view returns (uint256[] memory) {\n        // Start with current lease\n        uint256 currentLeaseId = _leaseId;\n        uint256 historyLength = 0;\n        \n        // First, count the history length\n        while (leaseAgreements[currentLeaseId].previousLeaseId != 0) {\n            historyLength++;\n            currentLeaseId = leaseAgreements[currentLeaseId].previousLeaseId;\n        }\n        \n        // Create array of history\n        uint256[] memory history = new uint256[](historyLength + 1);\n        \n        // Populate history array (most recent first)\n        currentLeaseId = _leaseId;\n        for (uint i = 0; i <= historyLength; i++) {\n            history[i] = currentLeaseId;\n            if (i < historyLength) {\n                currentLeaseId = leaseAgreements[currentLeaseId].previousLeaseId;\n            }\n        }\n        \n        return history;\n    }\n    \n     //NEW: Function to list a property for sale\n    function listPropertyForSale(uint256 _propertyId, uint256 _price) external onlyPropertyOwner(_propertyId) onlyApprovedProperty(_propertyId) {\n        require(properties[_propertyId].isActive, \"Property is not active\");\n        require(_price > 0, \"Sale price must be greater than zero\");\n        \n        // Check if the property has any active leases\n        uint256[] memory landlordLeaseList = landlordLeases[msg.sender];\n        for (uint i = 0; i < landlordLeaseList.length; i++) {\n            LeaseAgreement memory lease = leaseAgreements[landlordLeaseList[i]];\n            if (lease.propertyId == _propertyId && lease.isActive) {\n                // End the lease before selling\n                leaseAgreements[landlordLeaseList[i]].isActive = false;\n            }\n        }\n        \n        // Mark property as for sale\n        properties[_propertyId].isForSale = true;\n        properties[_propertyId].salePrice = _price;\n        \n        emit PropertyListedForSale(_propertyId, _price);\n    }\n\n\n // NEW: Function to cancel property listing\n    function cancelPropertySale(uint256 _propertyId) external onlyPropertyOwner(_propertyId) {\n        require(properties[_propertyId].isForSale, \"Property is not listed for sale\");\n        \n        properties[_propertyId].isForSale = false;\n        properties[_propertyId].salePrice = 0;\n        \n        emit PropertySaleCancelled(_propertyId);\n    }\n    \n    // NEW: Function to initiate property purchase\n    function initiatePropertyPurchase(uint256 _propertyId) external payable {\n        Property memory property = properties[_propertyId];\n        require(property.isActive, \"Property is not active\");\n        require(property.isForSale, \"Property is not for sale\");\n        require(property.owner != msg.sender, \"Owner cannot buy their own property\");\n        require(msg.value == property.salePrice, \"Incorrect payment amount\");\n        \n        // Create sale record\n        saleCounter++;\n        PropertySale memory newSale = PropertySale({\n            id: saleCounter,\n            propertyId: _propertyId,\n            seller: property.owner,\n            buyer: msg.sender,\n            salePrice: property.salePrice,\n            timestamp: block.timestamp,\n            completed: false\n        });\n        \n        propertySales[saleCounter] = newSale;\n        \n        // Transfer the payment to the seller\n        payable(property.owner).transfer(msg.value);\n        \n        // Record the transaction\n        transactionCounter++;\n        Transaction memory newTransaction = Transaction({\n            id: transactionCounter,\n            leaseId: 0, // Not related to a lease\n            from: msg.sender,\n            to: property.owner,\n            amount: msg.value,\n            transactionType: \"PROPERTY_SALE\",\n            timestamp: block.timestamp\n        });\n        \n        // Store the transaction under a dummy lease ID that represents property sales\n        leaseTransactions[_propertyId].push(newTransaction);\n        \n        emit PropertySaleInitiated(saleCounter, _propertyId, property.owner, msg.sender, property.salePrice);\n        \n        // Complete the property transfer\n        _completePropertyTransfer(_propertyId, property.owner, msg.sender, saleCounter);\n    }\n    \n    // Internal function to complete property transfer\n    function _completePropertyTransfer(\n        uint256 _propertyId, \n        address _previousOwner, \n        address _newOwner,\n        uint256 _saleId\n    ) internal {\n        // Update property ownership\n        properties[_propertyId].owner = _newOwner;\n        properties[_propertyId].isForSale = false;\n        properties[_propertyId].salePrice = 0;\n        \n        // Remove from previous owner's list and add to new owner's list\n        uint256[] storage previousOwnerProperties = ownerProperties[_previousOwner];\n        uint256[] storage newOwnerProperties = ownerProperties[_newOwner];\n        \n        // Find and remove from previous owner\n        for (uint i = 0; i < previousOwnerProperties.length; i++) {\n            if (previousOwnerProperties[i] == _propertyId) {\n                // Replace with the last element and pop\n                previousOwnerProperties[i] = previousOwnerProperties[previousOwnerProperties.length - 1];\n                previousOwnerProperties.pop();\n                break;\n            }\n        }\n        \n        // Add to new owner\n        newOwnerProperties.push(_propertyId);\n        \n        // Record transfer in history\n        propertyTransferHistory[_propertyId].push(_saleId);\n        \n        // Mark sale as completed\n        propertySales[_saleId].completed = true;\n        \n        emit PropertySaleCompleted(_saleId, _propertyId, _newOwner);\n    }\n    \n    // NEW: Function to get properties for sale\n    function getPropertiesForSale() external view returns (uint256[] memory) {\n        uint256 count = 0;\n        \n        // First, count properties for sale\n        for (uint i = 1; i <= propertyCounter; i++) {\n            if (properties[i].isForSale) {\n                count++;\n            }\n        }\n        \n        // Create array of correct size\n        uint256[] memory forSaleProperties = new uint256[](count);\n        uint256 index = 0;\n        \n        // Populate array with property IDs\n        for (uint i = 1; i <= propertyCounter; i++) {\n            if (properties[i].isForSale) {\n                forSaleProperties[index] = i;\n                index++;\n            }\n        }\n        \n        return forSaleProperties;\n    }\n    \n    // NEW: Function to get property transfer history\n    function getPropertyTransferHistory(uint256 _propertyId) external view returns (uint256[] memory) {\n        return propertyTransferHistory[_propertyId];\n    }\n    \n    // NEW: Function to get property sale details\n    function getPropertySale(uint256 _saleId) external view returns (PropertySale memory) {\n        return propertySales[_saleId];\n    }\n    \n\n    // Getter functions\n    function getPropertyById(uint256 _propertyId) external view returns (Property memory) {\n        return properties[_propertyId];\n    }\n    \n    function getOwnerProperties(address _owner) external view returns (uint256[] memory) {\n        return ownerProperties[_owner];\n    }\n    \n    function getLeaseById(uint256 _leaseId) external view returns (LeaseAgreement memory) {\n        return leaseAgreements[_leaseId];\n    }\n    \n    function getTenantLeases(address _tenant) external view returns (uint256[] memory) {\n        return tenantLeases[_tenant];\n    }\n    \n    function getLandlordLeases(address _landlord) external view returns (uint256[] memory) {\n        return landlordLeases[_landlord];\n    }\n    \n    function getLeaseTransactions(uint256 _leaseId) external view onlyLandlordOrTenant(_leaseId) returns (Transaction[] memory) {\n        return leaseTransactions[_leaseId];\n    }\n\n    // Function to start an auction for a property\n    function startAuction(\n        uint256 _propertyId,\n        uint256 _startingPrice,\n        uint256 _durationInSeconds\n    ) external onlyPropertyOwner(_propertyId) onlyApprovedProperty(_propertyId) {\n        Property storage property = properties[_propertyId];\n        require(property.isActive, \"Property is not active\");\n        require(!property.onAuction, \"Property is already on auction\");\n        require(!property.isForSale, \"Property is already listed for sale\");\n        require(_startingPrice > 0, \"Starting price must be greater than 0\");\n        require(_durationInSeconds >= 1 hours, \"Auction duration must be at least 1 hour\");\n        require(_durationInSeconds <= 30 days, \"Auction duration cannot exceed 30 days\");\n\n        property.onAuction = true;\n        property.auctionEndTime = block.timestamp + _durationInSeconds;\n        property.highestBid = _startingPrice;\n        property.highestBidder = address(0);\n        property.auctionEnded = false;\n\n        auctions[_propertyId] = Auction({\n            propertyId: _propertyId,\n            startingPrice: _startingPrice,\n            highestBid: _startingPrice,\n            highestBidder: address(0),\n            auctionEndTime: block.timestamp + _durationInSeconds,\n            ended: false,\n            exists: true\n        });\n\n        emit AuctionStarted(_propertyId, _startingPrice, _durationInSeconds);\n    }\n\n    // Function to place a bid on a property\n    function placeBid(uint256 _propertyId) external payable nonReentrant {\n        Property storage property = properties[_propertyId];\n        require(property.onAuction, \"Property is not on auction\");\n        require(block.timestamp < property.auctionEndTime, \"Auction already ended\");\n        require(msg.value > property.highestBid, \"Bid must be higher than current highest bid\");\n        require(msg.sender != property.owner, \"Owner cannot bid on their own property\");\n\n        // If there was a previous bid, add it to pending returns\n        if (property.highestBidder != address(0)) {\n            pendingReturns[_propertyId][property.highestBidder] += property.highestBid;\n        }\n\n        property.highestBidder = msg.sender;\n        property.highestBid = msg.value;\n\n        // Update auction details\n        Auction storage auction = auctions[_propertyId];\n        auction.highestBidder = msg.sender;\n        auction.highestBid = msg.value;\n\n        emit BidPlaced(_propertyId, msg.sender, msg.value);\n    }\n\n    // Function to withdraw a bid that was outbid\n    function withdrawBid(uint256 _propertyId) external nonReentrant {\n        uint256 amount = pendingReturns[_propertyId][msg.sender];\n        require(amount > 0, \"No funds to withdraw\");\n\n        pendingReturns[_propertyId][msg.sender] = 0;\n\n        (bool success, ) = payable(msg.sender).call{value: amount}(\"\");\n        require(success, \"Transfer failed\");\n\n        emit BidWithdrawn(_propertyId, msg.sender, amount);\n    }\n\n    // Function to end an auction (can be ended early by owner)\n    function endAuction(uint256 _propertyId) external nonReentrant {\n        Property storage property = properties[_propertyId];\n        Auction storage auction = auctions[_propertyId];\n        \n        require(property.onAuction, \"No active auction\");\n        require(!property.auctionEnded, \"Auction already ended\");\n        \n        // Allow owner to end early, others must wait for auction end time\n        if (msg.sender != property.owner) {\n            require(block.timestamp >= property.auctionEndTime, \"Auction still in progress\");\n            require(msg.sender == property.highestBidder, \"Only owner or highest bidder can end auction\");\n        }\n\n        property.auctionEnded = true;\n        property.onAuction = false;\n        auction.ended = true;\n\n        if (property.highestBidder != address(0)) {\n            // Transfer ownership\n            address previousOwner = property.owner;\n            property.owner = property.highestBidder;\n\n            // Remove property from previous owner's list\n            uint256[] storage previousOwnerProperties = ownerProperties[previousOwner];\n            for (uint256 i = 0; i < previousOwnerProperties.length; i++) {\n                if (previousOwnerProperties[i] == _propertyId) {\n                    previousOwnerProperties[i] = previousOwnerProperties[previousOwnerProperties.length - 1];\n                    previousOwnerProperties.pop();\n                    break;\n                }\n            }\n\n            // Add property to new owner's list\n            ownerProperties[property.highestBidder].push(_propertyId);\n\n            // Record auction transfer in history\n            auctionTransferCounter++;\n            AuctionTransfer memory newTransfer = AuctionTransfer({\n                id: auctionTransferCounter,\n                propertyId: _propertyId,\n                previousOwner: previousOwner,\n                newOwner: property.highestBidder,\n                transferPrice: property.highestBid,\n                timestamp: block.timestamp\n            });\n            auctionTransfers[auctionTransferCounter] = newTransfer;\n            propertyAuctionHistory[_propertyId].push(auctionTransferCounter);\n\n            // Transfer the highest bid to the previous owner\n            (bool success, ) = payable(previousOwner).call{value: property.highestBid}(\"\");\n            require(success, \"Transfer to previous owner failed\");\n\n            emit AuctionEnded(_propertyId, property.highestBidder, property.highestBid);\n        } else {\n            emit AuctionEnded(_propertyId, address(0), 0);\n        }\n    }\n\n    // Function to cancel an auction (only owner, refunds all bidders)\n    function cancelAuction(uint256 _propertyId) external nonReentrant {\n        Property storage property = properties[_propertyId];\n        Auction storage auction = auctions[_propertyId];\n        \n        require(property.onAuction, \"No active auction\");\n        require(!property.auctionEnded, \"Auction already ended\");\n        require(msg.sender == property.owner, \"Only property owner can cancel auction\");\n        \n        // Mark auction as ended/cancelled\n        property.auctionEnded = true;\n        property.onAuction = false;\n        auction.ended = true;\n        \n        uint256 totalRefunded = 0;\n        \n        // Refund the highest bidder if there is one\n        if (property.highestBidder != address(0)) {\n            uint256 highestBidAmount = property.highestBid;\n            address highestBidderAddress = property.highestBidder;\n            \n            // Clear the highest bid first to prevent reentrancy\n            property.highestBidder = address(0);\n            property.highestBid = 0;\n            auction.highestBidder = address(0);\n            auction.highestBid = 0;\n            \n            // Refund the highest bidder\n            (bool success, ) = payable(highestBidderAddress).call{value: highestBidAmount}(\"\");\n            require(success, \"Failed to refund highest bidder\");\n            \n            totalRefunded += highestBidAmount;\n        }\n        \n        // Reset property auction state\n        property.auctionEndTime = 0;\n        \n        emit AuctionCancelled(_propertyId, totalRefunded);\n    }\n\n    // View function to get auction details\n    function getAuctionDetails(uint256 _propertyId) external view returns (\n        bool onAuction,\n        uint256 auctionEndTime,\n        address highestBidder,\n        uint256 highestBid,\n        bool ended\n    ) {\n        Property memory property = properties[_propertyId];\n        return (\n            property.onAuction,\n            property.auctionEndTime,\n            property.highestBidder,\n            property.highestBid,\n            property.auctionEnded\n        );\n    }\n\n    // View function to get pending returns for a bidder\n    function getPendingReturn(uint256 _propertyId, address _bidder) external view returns (uint256) {\n        return pendingReturns[_propertyId][_bidder];\n    }\n\n    // Function to get a range of properties\n    function getProperties(uint256 start, uint256 end) external view returns (Property[] memory) {\n        require(start <= end, \"Invalid range\");\n        require(end <= propertyCounter, \"End index out of bounds\");\n        \n        uint256 size = end - start + 1;\n        Property[] memory result = new Property[](size);\n        \n        for (uint256 i = 0; i < size; i++) {\n            result[i] = properties[start + i];\n        }\n        \n        return result;\n    }\n\n    // Function for notary to approve property\n    function approveProperty(uint256 _propertyId) external onlyNotary {\n        require(_propertyId > 0 && _propertyId <= propertyCounter, \"Invalid property ID\");\n        Property storage property = properties[_propertyId];\n        require(!property.isApproved, \"Property already approved\");\n        \n        property.isApproved = true;\n        property.isActive = true;\n        propertyApprovals[_propertyId] = true;\n        \n        emit PropertyApproved(_propertyId, msg.sender);\n    }\n\n    // Function for notary to reject property\n    function rejectProperty(uint256 _propertyId) external onlyNotary {\n        require(_propertyId > 0 && _propertyId <= propertyCounter, \"Invalid property ID\");\n        Property storage property = properties[_propertyId];\n        require(!property.isApproved, \"Property already approved\");\n        \n        // Remove property from owner's list\n        uint256[] storage ownerProps = ownerProperties[property.owner];\n        for (uint i = 0; i < ownerProps.length; i++) {\n            if (ownerProps[i] == _propertyId) {\n                ownerProps[i] = ownerProps[ownerProps.length - 1];\n                ownerProps.pop();\n                break;\n            }\n        }\n        \n        delete properties[_propertyId];\n        propertyCounter--;\n        \n        emit PropertyRejected(_propertyId, msg.sender);\n    }\n\n    // Function to get pending properties for notary approval\n    function getPendingProperties() external view returns (uint256[] memory) {\n        uint256 pendingCount = 0;\n        \n        // First count pending properties\n        for (uint256 i = 1; i <= propertyCounter; i++) {\n            if (!properties[i].isApproved && properties[i].owner != address(0)) {\n                pendingCount++;\n            }\n        }\n        \n        // Create array of correct size\n        uint256[] memory pendingProperties = new uint256[](pendingCount);\n        uint256 index = 0;\n        \n        // Fill array with pending property IDs\n        for (uint256 i = 1; i <= propertyCounter; i++) {\n            if (!properties[i].isApproved && properties[i].owner != address(0)) {\n                pendingProperties[index] = i;\n                index++;\n            }\n        }\n        \n        return pendingProperties;\n    }\n\n    // Function to get all leases for a specific property\n    function getPropertyLeases(uint256 _propertyId) external view returns (uint256[] memory) {\n        uint256 leaseCount = 0;\n        \n        // Count leases for this property\n        for (uint256 i = 1; i <= leaseCounter; i++) {\n            if (leaseAgreements[i].propertyId == _propertyId) {\n                leaseCount++;\n            }\n        }\n        \n        // Create array of correct size\n        uint256[] memory propertyLeaseIds = new uint256[](leaseCount);\n        uint256 index = 0;\n        \n        // Fill array with lease IDs for this property\n        for (uint256 i = 1; i <= leaseCounter; i++) {\n            if (leaseAgreements[i].propertyId == _propertyId) {\n                propertyLeaseIds[index] = i;\n                index++;\n            }\n        }\n        \n        return propertyLeaseIds;\n    }\n    \n    // Function to get lease details by lease ID (public access for transparency)\n    function getLeaseDetails(uint256 _leaseId) external view returns (\n        uint256 propertyId,\n        address landlord,\n        address tenant,\n        uint256 monthlyRent,\n        uint256 securityDeposit,\n        uint256 startDate,\n        uint256 endDate,\n        bool isActive,\n        uint256 createdAt,\n        bool isRenewal\n    ) {\n        LeaseAgreement memory lease = leaseAgreements[_leaseId];\n        return (\n            lease.propertyId,\n            lease.landlord,\n            lease.tenant,\n            lease.monthlyRent,\n            lease.securityDeposit,\n            lease.startDate,\n            lease.endDate,\n            lease.isActive,\n            lease.createdAt,\n            lease.isRenewal\n        );\n    }\n    \n    // Function to get property ownership history through sale and auction records\n    function getPropertyOwnershipHistory(uint256 _propertyId) external view returns (\n        address[] memory owners,\n        uint256[] memory transferDates,\n        uint256[] memory salePrices\n    ) {\n        uint256[] memory saleIds = propertyTransferHistory[_propertyId];\n        uint256[] memory auctionIds = propertyAuctionHistory[_propertyId];\n        uint256 totalTransfers = saleIds.length + auctionIds.length;\n        \n        if (totalTransfers == 0) {\n            // Property has never been transferred, only original owner\n            address[] memory ownerHistory = new address[](1);\n            uint256[] memory dates = new uint256[](1);\n            uint256[] memory prices = new uint256[](1);\n            \n            ownerHistory[0] = properties[_propertyId].owner;\n            dates[0] = properties[_propertyId].createdAt;\n            prices[0] = 0; // Original registration, no sale price\n            \n            return (ownerHistory, dates, prices);\n        }\n        \n        // For simple case: current owner + original owner (most common case)\n        if (totalTransfers == 1) {\n            address[] memory ownerHistory = new address[](2);\n            uint256[] memory dates = new uint256[](2);\n            uint256[] memory prices = new uint256[](2);\n            \n            // Current owner (index 0)\n            ownerHistory[0] = properties[_propertyId].owner;\n            \n            // Original owner (index 1)\n            address originalOwner;\n            if (auctionIds.length > 0) {\n                AuctionTransfer memory transfer = auctionTransfers[auctionIds[0]];\n                dates[0] = transfer.timestamp;\n                prices[0] = transfer.transferPrice;\n                originalOwner = transfer.previousOwner;\n            } else if (saleIds.length > 0) {\n                PropertySale memory sale = propertySales[saleIds[0]];\n                dates[0] = sale.timestamp;\n                prices[0] = sale.salePrice;\n                originalOwner = sale.seller;\n            }\n            \n            ownerHistory[1] = originalOwner;\n            dates[1] = properties[_propertyId].createdAt;\n            prices[1] = 0; // Original registration, no sale price\n            \n            return (ownerHistory, dates, prices);\n        }\n        \n        // For complex case with multiple transfers\n        address[] memory ownerHistory = new address[](totalTransfers + 1);\n        uint256[] memory dates = new uint256[](totalTransfers + 1);\n        uint256[] memory prices = new uint256[](totalTransfers + 1);\n        \n        uint256 index = 0;\n        \n        // 1. Current owner\n        ownerHistory[index] = properties[_propertyId].owner;\n        \n        // Get most recent transfer details\n        if (auctionIds.length > 0) {\n            AuctionTransfer memory recentTransfer = auctionTransfers[auctionIds[auctionIds.length - 1]];\n            dates[index] = recentTransfer.timestamp;\n            prices[index] = recentTransfer.transferPrice;\n        } else if (saleIds.length > 0) {\n            PropertySale memory recentSale = propertySales[saleIds[saleIds.length - 1]];\n            dates[index] = recentSale.timestamp;\n            prices[index] = recentSale.salePrice;\n        }\n        index++;\n        \n        // 2. Add all intermediate previous owners\n        // Add auction winners (excluding the most recent one)\n        for (int256 i = int256(auctionIds.length) - 2; i >= 0; i--) {\n            AuctionTransfer memory transfer = auctionTransfers[auctionIds[uint256(i)]];\n            ownerHistory[index] = transfer.newOwner;\n            dates[index] = transfer.timestamp;\n            prices[index] = transfer.transferPrice;\n            index++;\n        }\n        \n        // Add sale buyers (excluding the most recent one)\n        for (int256 i = int256(saleIds.length) - 2; i >= 0; i--) {\n            PropertySale memory sale = propertySales[saleIds[uint256(i)]];\n            ownerHistory[index] = sale.buyer;\n            dates[index] = sale.timestamp;\n            prices[index] = sale.salePrice;\n            index++;\n        }\n        \n        // 3. Original owner (last entry)\n        address originalOwner;\n        if (auctionIds.length > 0) {\n            AuctionTransfer memory firstTransfer = auctionTransfers[auctionIds[0]];\n            originalOwner = firstTransfer.previousOwner;\n        } else if (saleIds.length > 0) {\n            PropertySale memory firstSale = propertySales[saleIds[0]];\n            originalOwner = firstSale.seller;\n        }\n        \n        ownerHistory[index] = originalOwner;\n        dates[index] = properties[_propertyId].createdAt;\n        prices[index] = 0; // Original registration\n        \n        return (ownerHistory, dates, prices);\n    }\n\n    // Modify existing property-related functions to check for approval\n    modifier onlyApprovedProperty(uint256 _propertyId) {\n        require(properties[_propertyId].isApproved, \"Property not approved by notary\");\n        _;\n    }\n}",
  "sourcePath": "C:\\Users\\nezha\\Downloads\\smart-propert-managment-dapp\\contracts\\PropertyManagement.sol",
  "compiler": {
    "name": "solc",
    "version": "0.8.21+commit.d9974bed.Emscripten.clang"
  },
  "schemaVersion": "3.4.16",
  "updatedAt": "2025-06-11T00:16:30.236Z",
  "networkType": "ethereum",
  "devdoc": {
    "kind": "dev",
    "methods": {},
    "version": 1
  },
  "userdoc": {
    "kind": "user",
    "methods": {},
    "version": 1
  }
}