{
  "contractName": "PropertyManagement",
  "abi": [
    {
      "inputs": [],
      "stateMutability": "nonpayable",
      "type": "constructor"
    },
    {
      "anonymous": false,
      "inputs": [
        {
          "indexed": true,
          "internalType": "uint256",
          "name": "propertyId",
          "type": "uint256"
        },
        {
          "indexed": false,
          "internalType": "uint256",
          "name": "refundedAmount",
          "type": "uint256"
        }
      ],
      "name": "AuctionCancelled",
      "type": "event"
    },
    {
      "anonymous": false,
      "inputs": [
        {
          "indexed": true,
          "internalType": "uint256",
          "name": "propertyId",
          "type": "uint256"
        },
        {
          "indexed": false,
          "internalType": "address",
          "name": "winner",
          "type": "address"
        },
        {
          "indexed": false,
          "internalType": "uint256",
          "name": "amount",
          "type": "uint256"
        }
      ],
      "name": "AuctionEnded",
      "type": "event"
    },
    {
      "anonymous": false,
      "inputs": [
        {
          "indexed": true,
          "internalType": "uint256",
          "name": "propertyId",
          "type": "uint256"
        },
        {
          "indexed": false,
          "internalType": "uint256",
          "name": "startingPrice",
          "type": "uint256"
        },
        {
          "indexed": false,
          "internalType": "uint256",
          "name": "duration",
          "type": "uint256"
        }
      ],
      "name": "AuctionStarted",
      "type": "event"
    },
    {
      "anonymous": false,
      "inputs": [
        {
          "indexed": true,
          "internalType": "uint256",
          "name": "propertyId",
          "type": "uint256"
        },
        {
          "indexed": true,
          "internalType": "address",
          "name": "bidder",
          "type": "address"
        },
        {
          "indexed": false,
          "internalType": "uint256",
          "name": "amount",
          "type": "uint256"
        }
      ],
      "name": "BidPlaced",
      "type": "event"
    },
    {
      "anonymous": false,
      "inputs": [
        {
          "indexed": true,
          "internalType": "uint256",
          "name": "propertyId",
          "type": "uint256"
        },
        {
          "indexed": true,
          "internalType": "address",
          "name": "bidder",
          "type": "address"
        },
        {
          "indexed": false,
          "internalType": "uint256",
          "name": "amount",
          "type": "uint256"
        }
      ],
      "name": "BidWithdrawn",
      "type": "event"
    },
    {
      "anonymous": false,
      "inputs": [
        {
          "indexed": false,
          "internalType": "uint256",
          "name": "leaseId",
          "type": "uint256"
        },
        {
          "indexed": false,
          "internalType": "uint256",
          "name": "propertyId",
          "type": "uint256"
        },
        {
          "indexed": false,
          "internalType": "address",
          "name": "landlord",
          "type": "address"
        },
        {
          "indexed": false,
          "internalType": "address",
          "name": "tenant",
          "type": "address"
        }
      ],
      "name": "LeaseCreated",
      "type": "event"
    },
    {
      "anonymous": false,
      "inputs": [
        {
          "indexed": false,
          "internalType": "uint256",
          "name": "leaseId",
          "type": "uint256"
        },
        {
          "indexed": false,
          "internalType": "uint256",
          "name": "daysRemaining",
          "type": "uint256"
        }
      ],
      "name": "LeaseExpiringSoon",
      "type": "event"
    },
    {
      "anonymous": false,
      "inputs": [
        {
          "indexed": false,
          "internalType": "uint256",
          "name": "oldLeaseId",
          "type": "uint256"
        },
        {
          "indexed": false,
          "internalType": "uint256",
          "name": "newLeaseId",
          "type": "uint256"
        },
        {
          "indexed": false,
          "internalType": "uint256",
          "name": "newEndDate",
          "type": "uint256"
        }
      ],
      "name": "LeaseRenewed",
      "type": "event"
    },
    {
      "anonymous": false,
      "inputs": [
        {
          "indexed": false,
          "internalType": "uint256",
          "name": "leaseId",
          "type": "uint256"
        },
        {
          "indexed": false,
          "internalType": "address",
          "name": "from",
          "type": "address"
        },
        {
          "indexed": false,
          "internalType": "address",
          "name": "to",
          "type": "address"
        },
        {
          "indexed": false,
          "internalType": "uint256",
          "name": "amount",
          "type": "uint256"
        },
        {
          "indexed": false,
          "internalType": "string",
          "name": "transactionType",
          "type": "string"
        }
      ],
      "name": "PaymentReceived",
      "type": "event"
    },
    {
      "anonymous": false,
      "inputs": [
        {
          "indexed": false,
          "internalType": "uint256",
          "name": "propertyId",
          "type": "uint256"
        },
        {
          "indexed": false,
          "internalType": "address",
          "name": "notary",
          "type": "address"
        }
      ],
      "name": "PropertyApproved",
      "type": "event"
    },
    {
      "anonymous": false,
      "inputs": [
        {
          "indexed": false,
          "internalType": "uint256",
          "name": "propertyId",
          "type": "uint256"
        },
        {
          "indexed": false,
          "internalType": "uint256",
          "name": "price",
          "type": "uint256"
        }
      ],
      "name": "PropertyListedForSale",
      "type": "event"
    },
    {
      "anonymous": false,
      "inputs": [
        {
          "indexed": false,
          "internalType": "uint256",
          "name": "propertyId",
          "type": "uint256"
        },
        {
          "indexed": false,
          "internalType": "address",
          "name": "owner",
          "type": "address"
        },
        {
          "indexed": false,
          "internalType": "string",
          "name": "propertyAddress",
          "type": "string"
        }
      ],
      "name": "PropertyRegistered",
      "type": "event"
    },
    {
      "anonymous": false,
      "inputs": [
        {
          "indexed": false,
          "internalType": "uint256",
          "name": "propertyId",
          "type": "uint256"
        },
        {
          "indexed": false,
          "internalType": "address",
          "name": "notary",
          "type": "address"
        }
      ],
      "name": "PropertyRejected",
      "type": "event"
    },
    {
      "anonymous": false,
      "inputs": [
        {
          "indexed": false,
          "internalType": "uint256",
          "name": "propertyId",
          "type": "uint256"
        }
      ],
      "name": "PropertySaleCancelled",
      "type": "event"
    },
    {
      "anonymous": false,
      "inputs": [
        {
          "indexed": false,
          "internalType": "uint256",
          "name": "saleId",
          "type": "uint256"
        },
        {
          "indexed": false,
          "internalType": "uint256",
          "name": "propertyId",
          "type": "uint256"
        },
        {
          "indexed": false,
          "internalType": "address",
          "name": "newOwner",
          "type": "address"
        }
      ],
      "name": "PropertySaleCompleted",
      "type": "event"
    },
    {
      "anonymous": false,
      "inputs": [
        {
          "indexed": false,
          "internalType": "uint256",
          "name": "saleId",
          "type": "uint256"
        },
        {
          "indexed": false,
          "internalType": "uint256",
          "name": "propertyId",
          "type": "uint256"
        },
        {
          "indexed": false,
          "internalType": "address",
          "name": "seller",
          "type": "address"
        },
        {
          "indexed": false,
          "internalType": "address",
          "name": "buyer",
          "type": "address"
        },
        {
          "indexed": false,
          "internalType": "uint256",
          "name": "price",
          "type": "uint256"
        }
      ],
      "name": "PropertySaleInitiated",
      "type": "event"
    },
    {
      "anonymous": false,
      "inputs": [
        {
          "indexed": false,
          "internalType": "uint256",
          "name": "propertyId",
          "type": "uint256"
        },
        {
          "indexed": false,
          "internalType": "address",
          "name": "owner",
          "type": "address"
        },
        {
          "indexed": false,
          "internalType": "string",
          "name": "propertyAddress",
          "type": "string"
        }
      ],
      "name": "PropertySubmitted",
      "type": "event"
    },
    {
      "inputs": [
        {
          "internalType": "uint256",
          "name": "",
          "type": "uint256"
        },
        {
          "internalType": "uint256",
          "name": "",
          "type": "uint256"
        }
      ],
      "name": "auctionParticipants",
      "outputs": [
        {
          "internalType": "address",
          "name": "",
          "type": "address"
        }
      ],
      "stateMutability": "view",
      "type": "function",
      "constant": true
    },
    {
      "inputs": [
        {
          "internalType": "uint256",
          "name": "",
          "type": "uint256"
        }
      ],
      "name": "auctionTransfers",
      "outputs": [
        {
          "internalType": "uint256",
          "name": "id",
          "type": "uint256"
        },
        {
          "internalType": "uint256",
          "name": "propertyId",
          "type": "uint256"
        },
        {
          "internalType": "address",
          "name": "previousOwner",
          "type": "address"
        },
        {
          "internalType": "address",
          "name": "newOwner",
          "type": "address"
        },
        {
          "internalType": "uint256",
          "name": "transferPrice",
          "type": "uint256"
        },
        {
          "internalType": "uint256",
          "name": "timestamp",
          "type": "uint256"
        }
      ],
      "stateMutability": "view",
      "type": "function",
      "constant": true
    },
    {
      "inputs": [
        {
          "internalType": "uint256",
          "name": "",
          "type": "uint256"
        }
      ],
      "name": "auctions",
      "outputs": [
        {
          "internalType": "uint256",
          "name": "propertyId",
          "type": "uint256"
        },
        {
          "internalType": "uint256",
          "name": "startingPrice",
          "type": "uint256"
        },
        {
          "internalType": "uint256",
          "name": "highestBid",
          "type": "uint256"
        },
        {
          "internalType": "address",
          "name": "highestBidder",
          "type": "address"
        },
        {
          "internalType": "uint256",
          "name": "auctionEndTime",
          "type": "uint256"
        },
        {
          "internalType": "bool",
          "name": "ended",
          "type": "bool"
        },
        {
          "internalType": "bool",
          "name": "exists",
          "type": "bool"
        }
      ],
      "stateMutability": "view",
      "type": "function",
      "constant": true
    },
    {
      "inputs": [
        {
          "internalType": "address",
          "name": "",
          "type": "address"
        },
        {
          "internalType": "uint256",
          "name": "",
          "type": "uint256"
        }
      ],
      "name": "landlordLeases",
      "outputs": [
        {
          "internalType": "uint256",
          "name": "",
          "type": "uint256"
        }
      ],
      "stateMutability": "view",
      "type": "function",
      "constant": true
    },
    {
      "inputs": [
        {
          "internalType": "uint256",
          "name": "",
          "type": "uint256"
        }
      ],
      "name": "leaseAgreements",
      "outputs": [
        {
          "internalType": "uint256",
          "name": "id",
          "type": "uint256"
        },
        {
          "internalType": "uint256",
          "name": "propertyId",
          "type": "uint256"
        },
        {
          "internalType": "address",
          "name": "landlord",
          "type": "address"
        },
        {
          "internalType": "address",
          "name": "tenant",
          "type": "address"
        },
        {
          "internalType": "uint256",
          "name": "monthlyRent",
          "type": "uint256"
        },
        {
          "internalType": "uint256",
          "name": "securityDeposit",
          "type": "uint256"
        },
        {
          "internalType": "uint256",
          "name": "startDate",
          "type": "uint256"
        },
        {
          "internalType": "uint256",
          "name": "endDate",
          "type": "uint256"
        },
        {
          "internalType": "bool",
          "name": "isActive",
          "type": "bool"
        },
        {
          "internalType": "uint256",
          "name": "createdAt",
          "type": "uint256"
        },
        {
          "internalType": "uint256",
          "name": "previousLeaseId",
          "type": "uint256"
        },
        {
          "internalType": "bool",
          "name": "isRenewal",
          "type": "bool"
        }
      ],
      "stateMutability": "view",
      "type": "function",
      "constant": true
    },
    {
      "inputs": [
        {
          "internalType": "uint256",
          "name": "",
          "type": "uint256"
        },
        {
          "internalType": "uint256",
          "name": "",
          "type": "uint256"
        }
      ],
      "name": "leaseTransactions",
      "outputs": [
        {
          "internalType": "uint256",
          "name": "id",
          "type": "uint256"
        },
        {
          "internalType": "uint256",
          "name": "leaseId",
          "type": "uint256"
        },
        {
          "internalType": "address",
          "name": "from",
          "type": "address"
        },
        {
          "internalType": "address",
          "name": "to",
          "type": "address"
        },
        {
          "internalType": "uint256",
          "name": "amount",
          "type": "uint256"
        },
        {
          "internalType": "string",
          "name": "transactionType",
          "type": "string"
        },
        {
          "internalType": "uint256",
          "name": "timestamp",
          "type": "uint256"
        }
      ],
      "stateMutability": "view",
      "type": "function",
      "constant": true
    },
    {
      "inputs": [],
      "name": "notary",
      "outputs": [
        {
          "internalType": "address",
          "name": "",
          "type": "address"
        }
      ],
      "stateMutability": "view",
      "type": "function",
      "constant": true
    },
    {
      "inputs": [
        {
          "internalType": "address",
          "name": "",
          "type": "address"
        },
        {
          "internalType": "uint256",
          "name": "",
          "type": "uint256"
        }
      ],
      "name": "ownerProperties",
      "outputs": [
        {
          "internalType": "uint256",
          "name": "",
          "type": "uint256"
        }
      ],
      "stateMutability": "view",
      "type": "function",
      "constant": true
    },
    {
      "inputs": [
        {
          "internalType": "uint256",
          "name": "",
          "type": "uint256"
        },
        {
          "internalType": "address",
          "name": "",
          "type": "address"
        }
      ],
      "name": "pendingReturns",
      "outputs": [
        {
          "internalType": "uint256",
          "name": "",
          "type": "uint256"
        }
      ],
      "stateMutability": "view",
      "type": "function",
      "constant": true
    },
    {
      "inputs": [
        {
          "internalType": "uint256",
          "name": "",
          "type": "uint256"
        }
      ],
      "name": "properties",
      "outputs": [
        {
          "internalType": "uint256",
          "name": "id",
          "type": "uint256"
        },
        {
          "internalType": "address",
          "name": "owner",
          "type": "address"
        },
        {
          "internalType": "string",
          "name": "propertyAddress",
          "type": "string"
        },
        {
          "internalType": "uint256",
          "name": "size",
          "type": "uint256"
        },
        {
          "internalType": "string",
          "name": "propertyType",
          "type": "string"
        },
        {
          "internalType": "bool",
          "name": "isActive",
          "type": "bool"
        },
        {
          "internalType": "uint256",
          "name": "createdAt",
          "type": "uint256"
        },
        {
          "internalType": "bool",
          "name": "isForSale",
          "type": "bool"
        },
        {
          "internalType": "uint256",
          "name": "salePrice",
          "type": "uint256"
        },
        {
          "internalType": "bool",
          "name": "onAuction",
          "type": "bool"
        },
        {
          "internalType": "uint256",
          "name": "auctionEndTime",
          "type": "uint256"
        },
        {
          "internalType": "address",
          "name": "highestBidder",
          "type": "address"
        },
        {
          "internalType": "uint256",
          "name": "highestBid",
          "type": "uint256"
        },
        {
          "internalType": "bool",
          "name": "auctionEnded",
          "type": "bool"
        },
        {
          "internalType": "bool",
          "name": "isApproved",
          "type": "bool"
        },
        {
          "internalType": "string",
          "name": "documentHash",
          "type": "string"
        }
      ],
      "stateMutability": "view",
      "type": "function",
      "constant": true
    },
    {
      "inputs": [
        {
          "internalType": "uint256",
          "name": "",
          "type": "uint256"
        }
      ],
      "name": "propertyApprovals",
      "outputs": [
        {
          "internalType": "bool",
          "name": "",
          "type": "bool"
        }
      ],
      "stateMutability": "view",
      "type": "function",
      "constant": true
    },
    {
      "inputs": [
        {
          "internalType": "uint256",
          "name": "",
          "type": "uint256"
        },
        {
          "internalType": "uint256",
          "name": "",
          "type": "uint256"
        }
      ],
      "name": "propertyAuctionHistory",
      "outputs": [
        {
          "internalType": "uint256",
          "name": "",
          "type": "uint256"
        }
      ],
      "stateMutability": "view",
      "type": "function",
      "constant": true
    },
    {
      "inputs": [
        {
          "internalType": "uint256",
          "name": "",
          "type": "uint256"
        }
      ],
      "name": "propertyDocuments",
      "outputs": [
        {
          "internalType": "string",
          "name": "",
          "type": "string"
        }
      ],
      "stateMutability": "view",
      "type": "function",
      "constant": true
    },
    {
      "inputs": [
        {
          "internalType": "uint256",
          "name": "",
          "type": "uint256"
        }
      ],
      "name": "propertySales",
      "outputs": [
        {
          "internalType": "uint256",
          "name": "id",
          "type": "uint256"
        },
        {
          "internalType": "uint256",
          "name": "propertyId",
          "type": "uint256"
        },
        {
          "internalType": "address",
          "name": "seller",
          "type": "address"
        },
        {
          "internalType": "address",
          "name": "buyer",
          "type": "address"
        },
        {
          "internalType": "uint256",
          "name": "salePrice",
          "type": "uint256"
        },
        {
          "internalType": "uint256",
          "name": "timestamp",
          "type": "uint256"
        },
        {
          "internalType": "bool",
          "name": "completed",
          "type": "bool"
        }
      ],
      "stateMutability": "view",
      "type": "function",
      "constant": true
    },
    {
      "inputs": [
        {
          "internalType": "uint256",
          "name": "",
          "type": "uint256"
        },
        {
          "internalType": "uint256",
          "name": "",
          "type": "uint256"
        }
      ],
      "name": "propertyTransferHistory",
      "outputs": [
        {
          "internalType": "uint256",
          "name": "",
          "type": "uint256"
        }
      ],
      "stateMutability": "view",
      "type": "function",
      "constant": true
    },
    {
      "inputs": [
        {
          "internalType": "uint256",
          "name": "",
          "type": "uint256"
        }
      ],
      "name": "renewedLeases",
      "outputs": [
        {
          "internalType": "uint256",
          "name": "",
          "type": "uint256"
        }
      ],
      "stateMutability": "view",
      "type": "function",
      "constant": true
    },
    {
      "inputs": [
        {
          "internalType": "address",
          "name": "",
          "type": "address"
        },
        {
          "internalType": "uint256",
          "name": "",
          "type": "uint256"
        }
      ],
      "name": "tenantLeases",
      "outputs": [
        {
          "internalType": "uint256",
          "name": "",
          "type": "uint256"
        }
      ],
      "stateMutability": "view",
      "type": "function",
      "constant": true
    },
    {
      "inputs": [
        {
          "internalType": "address",
          "name": "",
          "type": "address"
        },
        {
          "internalType": "uint256",
          "name": "",
          "type": "uint256"
        }
      ],
      "name": "userBidHistory",
      "outputs": [
        {
          "internalType": "uint256",
          "name": "propertyId",
          "type": "uint256"
        },
        {
          "internalType": "uint256",
          "name": "bidAmount",
          "type": "uint256"
        },
        {
          "internalType": "uint256",
          "name": "timestamp",
          "type": "uint256"
        },
        {
          "internalType": "string",
          "name": "status",
          "type": "string"
        },
        {
          "internalType": "bool",
          "name": "withdrawn",
          "type": "bool"
        }
      ],
      "stateMutability": "view",
      "type": "function",
      "constant": true
    },
    {
      "inputs": [],
      "name": "getPropertyCounter",
      "outputs": [
        {
          "internalType": "uint256",
          "name": "",
          "type": "uint256"
        }
      ],
      "stateMutability": "view",
      "type": "function",
      "constant": true
    },
    {
      "inputs": [
        {
          "internalType": "string",
          "name": "_propertyAddress",
          "type": "string"
        },
        {
          "internalType": "uint256",
          "name": "_size",
          "type": "uint256"
        },
        {
          "internalType": "string",
          "name": "_propertyType",
          "type": "string"
        },
        {
          "internalType": "string",
          "name": "_documentHash",
          "type": "string"
        }
      ],
      "name": "registerProperty",
      "outputs": [
        {
          "internalType": "uint256",
          "name": "",
          "type": "uint256"
        }
      ],
      "stateMutability": "nonpayable",
      "type": "function"
    },
    {
      "inputs": [
        {
          "internalType": "uint256",
          "name": "_propertyId",
          "type": "uint256"
        },
        {
          "internalType": "address",
          "name": "_tenant",
          "type": "address"
        },
        {
          "internalType": "uint256",
          "name": "_monthlyRent",
          "type": "uint256"
        },
        {
          "internalType": "uint256",
          "name": "_securityDeposit",
          "type": "uint256"
        },
        {
          "internalType": "uint256",
          "name": "_startDate",
          "type": "uint256"
        },
        {
          "internalType": "uint256",
          "name": "_endDate",
          "type": "uint256"
        }
      ],
      "name": "createLeaseAgreement",
      "outputs": [
        {
          "internalType": "uint256",
          "name": "",
          "type": "uint256"
        }
      ],
      "stateMutability": "nonpayable",
      "type": "function"
    },
    {
      "inputs": [
        {
          "internalType": "uint256",
          "name": "_leaseId",
          "type": "uint256"
        },
        {
          "internalType": "string",
          "name": "_transactionType",
          "type": "string"
        }
      ],
      "name": "makePayment",
      "outputs": [],
      "stateMutability": "payable",
      "type": "function",
      "payable": true
    },
    {
      "inputs": [
        {
          "internalType": "uint256",
          "name": "_leaseId",
          "type": "uint256"
        }
      ],
      "name": "terminateLease",
      "outputs": [],
      "stateMutability": "nonpayable",
      "type": "function"
    },
    {
      "inputs": [
        {
          "internalType": "uint256",
          "name": "_leaseId",
          "type": "uint256"
        }
      ],
      "name": "checkLeaseExpiration",
      "outputs": [
        {
          "internalType": "bool",
          "name": "isExpiring",
          "type": "bool"
        },
        {
          "internalType": "uint256",
          "name": "daysRemaining",
          "type": "uint256"
        }
      ],
      "stateMutability": "view",
      "type": "function",
      "constant": true
    },
    {
      "inputs": [
        {
          "internalType": "uint256",
          "name": "_leaseId",
          "type": "uint256"
        },
        {
          "internalType": "uint256",
          "name": "_newMonthlyRent",
          "type": "uint256"
        },
        {
          "internalType": "uint256",
          "name": "_newSecurityDeposit",
          "type": "uint256"
        },
        {
          "internalType": "uint256",
          "name": "_newEndDate",
          "type": "uint256"
        }
      ],
      "name": "renewLease",
      "outputs": [
        {
          "internalType": "uint256",
          "name": "",
          "type": "uint256"
        }
      ],
      "stateMutability": "nonpayable",
      "type": "function"
    },
    {
      "inputs": [
        {
          "internalType": "address",
          "name": "_landlord",
          "type": "address"
        }
      ],
      "name": "getExpiringLeases",
      "outputs": [
        {
          "internalType": "uint256[]",
          "name": "",
          "type": "uint256[]"
        }
      ],
      "stateMutability": "view",
      "type": "function",
      "constant": true
    },
    {
      "inputs": [
        {
          "internalType": "uint256",
          "name": "_leaseId",
          "type": "uint256"
        }
      ],
      "name": "getLeaseRenewalHistory",
      "outputs": [
        {
          "internalType": "uint256[]",
          "name": "",
          "type": "uint256[]"
        }
      ],
      "stateMutability": "view",
      "type": "function",
      "constant": true
    },
    {
      "inputs": [
        {
          "internalType": "uint256",
          "name": "_propertyId",
          "type": "uint256"
        },
        {
          "internalType": "uint256",
          "name": "_price",
          "type": "uint256"
        }
      ],
      "name": "listPropertyForSale",
      "outputs": [],
      "stateMutability": "nonpayable",
      "type": "function"
    },
    {
      "inputs": [
        {
          "internalType": "uint256",
          "name": "_propertyId",
          "type": "uint256"
        }
      ],
      "name": "cancelPropertySale",
      "outputs": [],
      "stateMutability": "nonpayable",
      "type": "function"
    },
    {
      "inputs": [
        {
          "internalType": "uint256",
          "name": "_propertyId",
          "type": "uint256"
        }
      ],
      "name": "initiatePropertyPurchase",
      "outputs": [],
      "stateMutability": "payable",
      "type": "function",
      "payable": true
    },
    {
      "inputs": [],
      "name": "getPropertiesForSale",
      "outputs": [
        {
          "internalType": "uint256[]",
          "name": "",
          "type": "uint256[]"
        }
      ],
      "stateMutability": "view",
      "type": "function",
      "constant": true
    },
    {
      "inputs": [
        {
          "internalType": "uint256",
          "name": "_propertyId",
          "type": "uint256"
        }
      ],
      "name": "getPropertyTransferHistory",
      "outputs": [
        {
          "internalType": "uint256[]",
          "name": "",
          "type": "uint256[]"
        }
      ],
      "stateMutability": "view",
      "type": "function",
      "constant": true
    },
    {
      "inputs": [
        {
          "internalType": "uint256",
          "name": "_saleId",
          "type": "uint256"
        }
      ],
      "name": "getPropertySale",
      "outputs": [
        {
          "components": [
            {
              "internalType": "uint256",
              "name": "id",
              "type": "uint256"
            },
            {
              "internalType": "uint256",
              "name": "propertyId",
              "type": "uint256"
            },
            {
              "internalType": "address",
              "name": "seller",
              "type": "address"
            },
            {
              "internalType": "address",
              "name": "buyer",
              "type": "address"
            },
            {
              "internalType": "uint256",
              "name": "salePrice",
              "type": "uint256"
            },
            {
              "internalType": "uint256",
              "name": "timestamp",
              "type": "uint256"
            },
            {
              "internalType": "bool",
              "name": "completed",
              "type": "bool"
            }
          ],
          "internalType": "struct PropertyManagement.PropertySale",
          "name": "",
          "type": "tuple"
        }
      ],
      "stateMutability": "view",
      "type": "function",
      "constant": true
    },
    {
      "inputs": [
        {
          "internalType": "uint256",
          "name": "_propertyId",
          "type": "uint256"
        }
      ],
      "name": "getPropertyById",
      "outputs": [
        {
          "components": [
            {
              "internalType": "uint256",
              "name": "id",
              "type": "uint256"
            },
            {
              "internalType": "address",
              "name": "owner",
              "type": "address"
            },
            {
              "internalType": "string",
              "name": "propertyAddress",
              "type": "string"
            },
            {
              "internalType": "uint256",
              "name": "size",
              "type": "uint256"
            },
            {
              "internalType": "string",
              "name": "propertyType",
              "type": "string"
            },
            {
              "internalType": "bool",
              "name": "isActive",
              "type": "bool"
            },
            {
              "internalType": "uint256",
              "name": "createdAt",
              "type": "uint256"
            },
            {
              "internalType": "bool",
              "name": "isForSale",
              "type": "bool"
            },
            {
              "internalType": "uint256",
              "name": "salePrice",
              "type": "uint256"
            },
            {
              "internalType": "bool",
              "name": "onAuction",
              "type": "bool"
            },
            {
              "internalType": "uint256",
              "name": "auctionEndTime",
              "type": "uint256"
            },
            {
              "internalType": "address",
              "name": "highestBidder",
              "type": "address"
            },
            {
              "internalType": "uint256",
              "name": "highestBid",
              "type": "uint256"
            },
            {
              "internalType": "bool",
              "name": "auctionEnded",
              "type": "bool"
            },
            {
              "internalType": "bool",
              "name": "isApproved",
              "type": "bool"
            },
            {
              "internalType": "string",
              "name": "documentHash",
              "type": "string"
            }
          ],
          "internalType": "struct PropertyManagement.Property",
          "name": "",
          "type": "tuple"
        }
      ],
      "stateMutability": "view",
      "type": "function",
      "constant": true
    },
    {
      "inputs": [
        {
          "internalType": "address",
          "name": "_owner",
          "type": "address"
        }
      ],
      "name": "getOwnerProperties",
      "outputs": [
        {
          "internalType": "uint256[]",
          "name": "",
          "type": "uint256[]"
        }
      ],
      "stateMutability": "view",
      "type": "function",
      "constant": true
    },
    {
      "inputs": [
        {
          "internalType": "uint256",
          "name": "_leaseId",
          "type": "uint256"
        }
      ],
      "name": "getLeaseById",
      "outputs": [
        {
          "components": [
            {
              "internalType": "uint256",
              "name": "id",
              "type": "uint256"
            },
            {
              "internalType": "uint256",
              "name": "propertyId",
              "type": "uint256"
            },
            {
              "internalType": "address",
              "name": "landlord",
              "type": "address"
            },
            {
              "internalType": "address",
              "name": "tenant",
              "type": "address"
            },
            {
              "internalType": "uint256",
              "name": "monthlyRent",
              "type": "uint256"
            },
            {
              "internalType": "uint256",
              "name": "securityDeposit",
              "type": "uint256"
            },
            {
              "internalType": "uint256",
              "name": "startDate",
              "type": "uint256"
            },
            {
              "internalType": "uint256",
              "name": "endDate",
              "type": "uint256"
            },
            {
              "internalType": "bool",
              "name": "isActive",
              "type": "bool"
            },
            {
              "internalType": "uint256",
              "name": "createdAt",
              "type": "uint256"
            },
            {
              "internalType": "uint256",
              "name": "previousLeaseId",
              "type": "uint256"
            },
            {
              "internalType": "bool",
              "name": "isRenewal",
              "type": "bool"
            }
          ],
          "internalType": "struct PropertyManagement.LeaseAgreement",
          "name": "",
          "type": "tuple"
        }
      ],
      "stateMutability": "view",
      "type": "function",
      "constant": true
    },
    {
      "inputs": [
        {
          "internalType": "address",
          "name": "_tenant",
          "type": "address"
        }
      ],
      "name": "getTenantLeases",
      "outputs": [
        {
          "internalType": "uint256[]",
          "name": "",
          "type": "uint256[]"
        }
      ],
      "stateMutability": "view",
      "type": "function",
      "constant": true
    },
    {
      "inputs": [
        {
          "internalType": "address",
          "name": "_landlord",
          "type": "address"
        }
      ],
      "name": "getLandlordLeases",
      "outputs": [
        {
          "internalType": "uint256[]",
          "name": "",
          "type": "uint256[]"
        }
      ],
      "stateMutability": "view",
      "type": "function",
      "constant": true
    },
    {
      "inputs": [
        {
          "internalType": "uint256",
          "name": "_leaseId",
          "type": "uint256"
        }
      ],
      "name": "getLeaseTransactions",
      "outputs": [
        {
          "components": [
            {
              "internalType": "uint256",
              "name": "id",
              "type": "uint256"
            },
            {
              "internalType": "uint256",
              "name": "leaseId",
              "type": "uint256"
            },
            {
              "internalType": "address",
              "name": "from",
              "type": "address"
            },
            {
              "internalType": "address",
              "name": "to",
              "type": "address"
            },
            {
              "internalType": "uint256",
              "name": "amount",
              "type": "uint256"
            },
            {
              "internalType": "string",
              "name": "transactionType",
              "type": "string"
            },
            {
              "internalType": "uint256",
              "name": "timestamp",
              "type": "uint256"
            }
          ],
          "internalType": "struct PropertyManagement.Transaction[]",
          "name": "",
          "type": "tuple[]"
        }
      ],
      "stateMutability": "view",
      "type": "function",
      "constant": true
    },
    {
      "inputs": [
        {
          "internalType": "uint256",
          "name": "_propertyId",
          "type": "uint256"
        },
        {
          "internalType": "uint256",
          "name": "_startingPrice",
          "type": "uint256"
        },
        {
          "internalType": "uint256",
          "name": "_durationInSeconds",
          "type": "uint256"
        }
      ],
      "name": "startAuction",
      "outputs": [],
      "stateMutability": "nonpayable",
      "type": "function"
    },
    {
      "inputs": [
        {
          "internalType": "uint256",
          "name": "_propertyId",
          "type": "uint256"
        }
      ],
      "name": "placeBid",
      "outputs": [],
      "stateMutability": "payable",
      "type": "function",
      "payable": true
    },
    {
      "inputs": [
        {
          "internalType": "uint256",
          "name": "_propertyId",
          "type": "uint256"
        }
      ],
      "name": "withdrawBid",
      "outputs": [],
      "stateMutability": "nonpayable",
      "type": "function"
    },
    {
      "inputs": [
        {
          "internalType": "uint256",
          "name": "_propertyId",
          "type": "uint256"
        }
      ],
      "name": "endAuction",
      "outputs": [],
      "stateMutability": "nonpayable",
      "type": "function"
    },
    {
      "inputs": [
        {
          "internalType": "uint256",
          "name": "_propertyId",
          "type": "uint256"
        }
      ],
      "name": "cancelAuction",
      "outputs": [],
      "stateMutability": "nonpayable",
      "type": "function"
    },
    {
      "inputs": [
        {
          "internalType": "uint256",
          "name": "_propertyId",
          "type": "uint256"
        }
      ],
      "name": "getAuctionDetails",
      "outputs": [
        {
          "internalType": "bool",
          "name": "onAuction",
          "type": "bool"
        },
        {
          "internalType": "uint256",
          "name": "auctionEndTime",
          "type": "uint256"
        },
        {
          "internalType": "address",
          "name": "highestBidder",
          "type": "address"
        },
        {
          "internalType": "uint256",
          "name": "highestBid",
          "type": "uint256"
        },
        {
          "internalType": "bool",
          "name": "ended",
          "type": "bool"
        }
      ],
      "stateMutability": "view",
      "type": "function",
      "constant": true
    },
    {
      "inputs": [
        {
          "internalType": "uint256",
          "name": "_propertyId",
          "type": "uint256"
        },
        {
          "internalType": "address",
          "name": "_bidder",
          "type": "address"
        }
      ],
      "name": "getPendingReturn",
      "outputs": [
        {
          "internalType": "uint256",
          "name": "",
          "type": "uint256"
        }
      ],
      "stateMutability": "view",
      "type": "function",
      "constant": true
    },
    {
      "inputs": [
        {
          "internalType": "address",
          "name": "_user",
          "type": "address"
        }
      ],
      "name": "getUserAuctionHistory",
      "outputs": [
        {
          "components": [
            {
              "internalType": "uint256",
              "name": "propertyId",
              "type": "uint256"
            },
            {
              "internalType": "uint256",
              "name": "bidAmount",
              "type": "uint256"
            },
            {
              "internalType": "uint256",
              "name": "timestamp",
              "type": "uint256"
            },
            {
              "internalType": "string",
              "name": "status",
              "type": "string"
            },
            {
              "internalType": "bool",
              "name": "withdrawn",
              "type": "bool"
            }
          ],
          "internalType": "struct PropertyManagement.UserBid[]",
          "name": "",
          "type": "tuple[]"
        }
      ],
      "stateMutability": "view",
      "type": "function",
      "constant": true
    },
    {
      "inputs": [
        {
          "internalType": "address",
          "name": "_user",
          "type": "address"
        }
      ],
      "name": "getUserAuctionHistoryCount",
      "outputs": [
        {
          "internalType": "uint256",
          "name": "",
          "type": "uint256"
        }
      ],
      "stateMutability": "view",
      "type": "function",
      "constant": true
    },
    {
      "inputs": [
        {
          "internalType": "uint256",
          "name": "start",
          "type": "uint256"
        },
        {
          "internalType": "uint256",
          "name": "end",
          "type": "uint256"
        }
      ],
      "name": "getProperties",
      "outputs": [
        {
          "components": [
            {
              "internalType": "uint256",
              "name": "id",
              "type": "uint256"
            },
            {
              "internalType": "address",
              "name": "owner",
              "type": "address"
            },
            {
              "internalType": "string",
              "name": "propertyAddress",
              "type": "string"
            },
            {
              "internalType": "uint256",
              "name": "size",
              "type": "uint256"
            },
            {
              "internalType": "string",
              "name": "propertyType",
              "type": "string"
            },
            {
              "internalType": "bool",
              "name": "isActive",
              "type": "bool"
            },
            {
              "internalType": "uint256",
              "name": "createdAt",
              "type": "uint256"
            },
            {
              "internalType": "bool",
              "name": "isForSale",
              "type": "bool"
            },
            {
              "internalType": "uint256",
              "name": "salePrice",
              "type": "uint256"
            },
            {
              "internalType": "bool",
              "name": "onAuction",
              "type": "bool"
            },
            {
              "internalType": "uint256",
              "name": "auctionEndTime",
              "type": "uint256"
            },
            {
              "internalType": "address",
              "name": "highestBidder",
              "type": "address"
            },
            {
              "internalType": "uint256",
              "name": "highestBid",
              "type": "uint256"
            },
            {
              "internalType": "bool",
              "name": "auctionEnded",
              "type": "bool"
            },
            {
              "internalType": "bool",
              "name": "isApproved",
              "type": "bool"
            },
            {
              "internalType": "string",
              "name": "documentHash",
              "type": "string"
            }
          ],
          "internalType": "struct PropertyManagement.Property[]",
          "name": "",
          "type": "tuple[]"
        }
      ],
      "stateMutability": "view",
      "type": "function",
      "constant": true
    },
    {
      "inputs": [
        {
          "internalType": "uint256",
          "name": "_propertyId",
          "type": "uint256"
        }
      ],
      "name": "approveProperty",
      "outputs": [],
      "stateMutability": "nonpayable",
      "type": "function"
    },
    {
      "inputs": [
        {
          "internalType": "uint256",
          "name": "_propertyId",
          "type": "uint256"
        }
      ],
      "name": "rejectProperty",
      "outputs": [],
      "stateMutability": "nonpayable",
      "type": "function"
    },
    {
      "inputs": [],
      "name": "getPendingProperties",
      "outputs": [
        {
          "internalType": "uint256[]",
          "name": "",
          "type": "uint256[]"
        }
      ],
      "stateMutability": "view",
      "type": "function",
      "constant": true
    },
    {
      "inputs": [
        {
          "internalType": "uint256",
          "name": "_propertyId",
          "type": "uint256"
        }
      ],
      "name": "getPropertyLeases",
      "outputs": [
        {
          "internalType": "uint256[]",
          "name": "",
          "type": "uint256[]"
        }
      ],
      "stateMutability": "view",
      "type": "function",
      "constant": true
    },
    {
      "inputs": [
        {
          "internalType": "uint256",
          "name": "_leaseId",
          "type": "uint256"
        }
      ],
      "name": "getLeaseDetails",
      "outputs": [
        {
          "internalType": "uint256",
          "name": "propertyId",
          "type": "uint256"
        },
        {
          "internalType": "address",
          "name": "landlord",
          "type": "address"
        },
        {
          "internalType": "address",
          "name": "tenant",
          "type": "address"
        },
        {
          "internalType": "uint256",
          "name": "monthlyRent",
          "type": "uint256"
        },
        {
          "internalType": "uint256",
          "name": "securityDeposit",
          "type": "uint256"
        },
        {
          "internalType": "uint256",
          "name": "startDate",
          "type": "uint256"
        },
        {
          "internalType": "uint256",
          "name": "endDate",
          "type": "uint256"
        },
        {
          "internalType": "bool",
          "name": "isActive",
          "type": "bool"
        },
        {
          "internalType": "uint256",
          "name": "createdAt",
          "type": "uint256"
        },
        {
          "internalType": "bool",
          "name": "isRenewal",
          "type": "bool"
        }
      ],
      "stateMutability": "view",
      "type": "function",
      "constant": true
    },
    {
      "inputs": [
        {
          "internalType": "uint256",
          "name": "_propertyId",
          "type": "uint256"
        }
      ],
      "name": "getPropertyOwnershipHistory",
      "outputs": [
        {
          "internalType": "address[]",
          "name": "owners",
          "type": "address[]"
        },
        {
          "internalType": "uint256[]",
          "name": "transferDates",
          "type": "uint256[]"
        },
        {
          "internalType": "uint256[]",
          "name": "salePrices",
          "type": "uint256[]"
        }
      ],
      "stateMutability": "view",
      "type": "function",
      "constant": true
    }
  ],
  "bytecode": "0x6080806040523461002d5760015f55601580546001600160a01b03191633179055615f509081620000328239f35b5f80fdfe6080806040526004361015610012575f80fd5b5f3560e01c90816307a7831914614a92575080630bf2d668146145fc5780630eaaf4c8146144f55780630f55415b14614250578063180cbbb5146141875780631e7a7dd31461410c5780631fd95ac9146140c457806327983fcf14613f225780632a9d30bc14613e785780632b36c61814613dee5780632e6f450014613d8a5780632e8331fa14613c895780633516b17f14613c5a57806335a4a47314613c2b578063383e3e5c146138dc5780633c95fbe9146136f3578063459a34d6146136c9578063480777b1146136005780634b2f64fb146135d457806354c6173614613527578063550252ac146134de578063571a26a014613463578063579768941461341a578063588e00a5146133a057806359fe18eb146132615780635df1a883146131a5578063651a7ff314612cf457806369168a4b14612cbc5780636b7dfd7214612c9f578063831b455d14612be557806389c11dce14612a8f5780638ddac1ef14610c705780638f48bd5b14612a3857806391e078bb1461253857806396b5a755146122295780639979ef4514611d7a5780639d54c79d14611d52578063a4cc940814611a97578063a590fa0b146119a7578063abcf6a2414611890578063b16aa470146115f0578063b827e732146115a8578063b9a2de3a146110c7578063c2682e9414610fee578063c8ae3d5d14610d26578063cb64489714610cb4578063d02ef6f914610c70578063d1f8d1ed14610c41578063de16d256146108b9578063e9b66f8c146107e9578063edc5dded1461077d578063ee22e519146105dc578063f08b6a0314610556578063f20e5e35146103f15763f7b1080814610279575f80fd5b346103ed5760203660031901126103ed576004355f9081526006602052604090819020805460018201549251929091906001600160a01b03908116846102c28160028601614d31565b036102cd9086614c1d565b600383015490604051808060048701906102e691614d31565b036102f19082614c1d565b600585015460ff16936006860154600787015460ff16600888015490600989015460ff1692600a8a015494600b8b01541695600c8b015497600d8c01549960405180809e600e8291019061034491614d31565b0361034e91614c1d565b6040519e8f9e8f936102009185526020850152806040850152830161037291614dc1565b91606001528c808203906080015261038991614dc1565b98151560a08c015260c08b0152151560e08a0152610100890152151561012088015261014087015261016086015261018085015260ff811615156101a085015260081c60ff1615156101c08401528281036101e08401526103e991614dc1565b0390f35b5f80fd5b346103ed5760203660031901126103ed576004355f52600660205260a060405f2060405161041e81614b5e565b81548152600180841b0391826001820154166020830152604051610450816104498160028601614d31565b0382614c1d565b604083015260038101546060830152604051610473816104498160048601614d31565b608083015260ff600582015416151584830152600681015460c083015260ff600782015416151560e0830152600881015461010083015260ff6009820154169161012081019215158352600a82015493610140820194855280600b84015416936101608301948552600e6101e0600c860154946101808101958652610529600d8801549760ff6101a084019981811615158b5260081c1615156101c08401526105226040518096819301614d31565b0384614c1d565b01525115159451935116905191511515926040519485526020850152604084015260608301526080820152f35b346103ed576020806003193601126103ed576001600160a01b03610578614aff565b165f52600a815260405f20906040518083838295549384815201905f52835f20925f5b858282106105c6575050506105b292500383614c1d565b6103e9604051928284938452830190614b2b565b855484526001958601958895509301920161059b565b346103ed5760203660031901126103ed575f6101606040516105fd81614b7a565b8281528260208201528260408201528260608201528260808201528260a08201528260c08201528260e082015282610100820152826101208201528261014082015201526004355f52600860205261018060405f2061016060405161066181614b7a565b60ff600b8454948584526001810154602085015260018060a01b03600282015416604085015260018060a01b03600382015416606085015260048101546080850152600581015460a0850152600681015460c0850152600781015460e08501528260088201541615156101008501526009810154610120850152600a8101546101408501520154161515828201526040519283526020810151602084015260018060a01b03604082015116604084015260018060a01b0360608201511660608401526080810151608084015260a081015160a084015260c081015160c084015260e081015160e0840152610100810151151561010084015261012081015161012084015261014081015161014084015201511515610160820152f35b346103ed5760203660031901126103ed576004355f52600f60205260c060405f2080549060018101549060018060a01b038060028301541690600383015416906005600484015493015493604051958652602086015260408501526060840152608083015260a0820152f35b346103ed5760203660031901126103ed577fdc4a9e931ddb4ea0e6114226f2a3b598ce4b38bc6976643e3e4e7e7cfd1e16516108a860043561083660018060a01b03601554163314615636565b801515806108ad575b6108489061568e565b805f526006602052600560405f20600d8101610100815461086f60ff8260081c16156156d0565b61ff0019161790550160ff1990600182825416179055815f526016602052600160405f2091825416179055604051918291339083615718565b0390a1005b5060015481111561083f565b346103ed5760c03660031901126103ed576108d2614b15565b6004355f5260066020526108f660018060a01b03600160405f200154163314614feb565b6004355f52600660205261091660ff600d60405f20015460081c16615030565b6004355f52600660205261093360ff600560405f2001541661507c565b6004355f52600660205260ff600760405f20015416610bfc576004355f52600660205260ff600960405f20015416610bb8576001600160a01b03811615610b7a5760a4356084351015610b3c57602090610ab2610991600254614efe565b80600255604051906109a282614b7a565b8082526004358583015233604083015260018060a01b0384166060830152604435608083015260643560a083015260843560c083015260a43560e08301526001610100830152426101208301525f6101408301525f6101608301525f5260088452600b61016060405f2092805184558681015160018501556002840160018060a01b036040830151169060018060a01b03199182825416179055600385019060018060a01b03606084015116908254161790556080810151600485015560a0810151600585015560c0810151600685015560e08101516007850155610a91610100820151151560088601614f9f565b6101208101516009850155610140810151600a850155015115159101614f9f565b6001600160a01b0381165f9081526009835260409020600254610ad491614fc8565b335f52600a8252610aeb60405f2060025490614fc8565b7f2609b596223b76ac2bc5e324e9725873cf0fdfe04fa14388b5fae5d1513bc2cd608060025492604051908482526004358683015233604083015260018060a01b03166060820152a1604051908152f35b60405162461bcd60e51b815260206004820152601660248201527524b73b30b634b2103632b0b9b290323ab930ba34b7b760511b6044820152606490fd5b60405162461bcd60e51b8152602060048201526016602482015275496e76616c69642074656e616e74206164647265737360501b6044820152606490fd5b606460405162461bcd60e51b815260206004820152602060248201527f50726f70657274792069732063757272656e746c79206f6e2061756374696f6e6044820152fd5b60405162461bcd60e51b815260206004820152601e60248201527f50726f70657274792069732063757272656e746c7920666f722073616c6500006044820152606490fd5b346103ed5760203660031901126103ed576004355f526016602052602060ff60405f2054166040519015158152f35b346103ed5760403660031901126103ed57610c89614b15565b6004355f52601260205260405f209060018060a01b03165f52602052602060405f2054604051908152f35b346103ed576020806003193601126103ed576001600160a01b03610cd6614aff565b165f526007815260405f20906040518083838295549384815201905f52835f20925f5b85828210610d10575050506105b292500383614c1d565b8554845260019586019588955093019201610cf9565b60403660031901126103ed576004356024356001600160401b0381116103ed57610d54903690600401614c5b565b90805f526020906008825260405f2060405193610d7085614b7a565b8154855260018201548486015260018060a01b0394856002840154169260408201938452868060038301541660608401908152610e0f6004840154936080860194855260058101549560a08101968752600682015460c0820152600782015460e082015261016060ff600b81600886015416151594856101008601526009810154610120860152600a81015461014086015201541615159101526150c1565b51163303610faa578251868401908120600488604051610e2e81614be7565b82815201631491539560e21b815220145f14610f295750610e539150515b3414615103565b5f8080808886511681903415610f1f575b3491f115610f14577f62b4265ef816f751a94c5c93fa40a90302c6924509b973ed4094dcf30c6c61ed946108a892610ee9610ea0600354614efe565b806003558383511660405191610eb583614b96565b8252878983015233604083015260608201523460808201528460a08201524260c0820152865f52600b885260405f2061514a565b511660405194859485523390850152604084015234606084015260a0608084015260a0830190614dc1565b6040513d5f823e3d90fd5b6108fc9150610e64565b905082519020601086604051610f3e81614be7565b828152016f14d150d55492551657d1115413d4d25560821b815220145f14610f6a57610e539051610e4c565b60405162461bcd60e51b8152600481018690526018602482015277496e76616c6964207472616e73616374696f6e207479706560401b6044820152606490fd5b60405162461bcd60e51b815260048101879052601c60248201527b4e6f74207468652074656e616e74206f662074686973206c6561736560201b6044820152606490fd5b346103ed576020806003193601126103ed5760043590815f526006815261102560018060a01b03600160405f200154163314614feb565b815f526006815260ff600760405f200154161561108357817f871a96bcac8326bf82aea94341df252a5ec1dae7cad4187675f9cb6b333282ed925f52600682525f6008604082206007810160ff1981541690550155604051908152a1005b6064906040519062461bcd60e51b82526004820152601f60248201527f50726f7065727479206973206e6f74206c697374656420666f722073616c65006044820152fd5b346103ed5760203660031901126103ed576110e0615573565b6004355f52600660205260405f20601160205260405f2060098201805461110960ff82166155f6565b600d84019081549161111e60ff841615615501565b60018601546001600160a01b031633036114e1575b600160ff1993841681179091559082169092556005929092018054909216179055600b8101546001600160a01b031680156114b9575f52601360205260405f208054805b611403575b5050600181018054600b8301546001600160a01b031982166001600160a01b03918216179092559081165f90815260076020526040812090915b815492838110156113f4576111cb8184614cb7565b9054600391821b1c600435146111ef57506111e891929350614efe565b91906111b6565b915f1985019485116113e0576112418461123c5f97946112248998976112188a99988a99614cb7565b9054911b1c9184614cb7565b90919082549060031b91821b915f19901b1916179055565b615450565b600b8601546001600160a01b031682526007602052604082206112679060043590614fc8565b611272600554614efe565b6005818155600b880154600c89015460405193916001600160a01b031661129885614bcc565b8285526004803560208088018281526001600160a01b038a81166040808c0191825260608c0197885260808c019889524260a08d01908152998e52600f8552808e209b518c55925160018c01555160028b0180546001600160a01b0319908116928416929092179055955160038b01805490971691161790945593519187019190915592519390940192909255845260109052822060055461133991614fc8565b600c860154906001600160a01b03165af16113526155c7565b501561139157600c60018060a01b03600b8301541691015460405191825260208201525f80516020615efb833981519152604060043592a25b60015f55005b60405162461bcd60e51b815260206004820152602160248201527f5472616e7366657220746f2070726576696f7573206f776e6572206661696c656044820152601960fa1b6064820152608490fd5b634e487b7160e01b5f52601160045260245ffd5b505f8093508092508091611241565b805f19810111806113e05761141b5f19830184614ce0565b50546004351480611477575b61143b575061143590615545565b80611177565b6113e05760039161144f915f190190614ce0565b500161146461145e8254614cf9565b82614f22565b6006622ba7a760e91b019055818061117c565b50505f600361149d61148c5f19850186614ce0565b506104496040518094819301614d31565b602081519101206114ac615551565b6020815191012014611427565b50506040515f81525f60208201525f80516020615efb833981519152604060043592a261138b565b91939092600a860154421061156757600b8601546001600160a01b0316330361150d5792909391611133565b60405162461bcd60e51b815260206004820152602c60248201527f4f6e6c79206f776e6572206f722068696768657374206269646465722063616e60448201526b1032b7321030bab1ba34b7b760a11b6064820152608490fd5b60405162461bcd60e51b815260206004820152601960248201527841756374696f6e207374696c6c20696e2070726f677265737360381b6044820152606490fd5b346103ed5760203660031901126103ed576004355f5260176020526103e96104496115dc60405f2060405192838092614d31565b604051918291602083526020830190614dc1565b346103ed576115fe36614ca1565b9081811161185b576001918254811161181c578161161b9161529e565b8281018091116113e0579161162f83615407565b9261163d6040519485614c1d565b80845261164981615407565b60209390601f19015f5b8181106118005750505f5b8281106116c65750505060405191808301818452845180915260408401918060408360051b8701019601925f905b8382106116995786880387f35b909192939483806116b5839a603f198b82030186528951614e18565b99970195949391909101910161168c565b806116d76117f892849896986153fa565b5f526006808752600e6117d760405f20604051936116f485614b5e565b815485528b8201546001600160a01b039081168c87015260405161171f816104498160028801614d31565b604087015260038301546060870152604051611742816104498160048801614d31565b608087015260ff9182600585015416151560a088015283015460c087015281600784015416151560e087015260089081840154610100880152826009850154161515610120880152600a840154610140880152600b84015416610160870152600c830154610180870152600d8301549082821615156101a08801521c1615156101c08501526104496040518094819301614d31565b6101e08201526117e782876153e6565b526117f281866153e6565b50614efe565b94929461165e565b859061180d97959761548d565b82828801015201959395611653565b60405162461bcd60e51b8152602060048201526017602482015276456e6420696e646578206f7574206f6620626f756e647360481b6044820152606490fd5b60405162461bcd60e51b815260206004820152600d60248201526c496e76616c69642072616e676560981b6044820152606490fd5b346103ed575f3660031901126103ed575f6001908154915b8281111561194857506118ba9061541e565b905f60015b828111156118dd57604051602080825281906103e990820187614b2b565b805f52600660205260405f2060ff600d82015460081c16159081611931575b50611910575b61190b90614efe565b6118bf565b90611929818361192361190b94886153e6565b52614efe565b919050611902565b600101546001600160a01b031615159050856118fc565b805f52600660205260405f2060ff600d82015460081c16159081611990575b5061197b575b61197690614efe565b6118a8565b9061198861197691614efe565b91905061196d565b600101546001600160a01b03161515905084611967565b346103ed5760203660031901126103ed575f60c06040516119c781614b96565b8281528260208201528260408201528260608201528260808201528260a082015201526004355f52600d60205260e060405f20604051611a0681614b96565b81549182825260018101546020830190815260018060a01b038060028401541660408501908152818060038601541691606087019283526004860154946080880195865260c060ff600660058a01549960a08c019a8b520154169801971515885260405198895251602089015251166040870152511660608501525160808401525160a083015251151560c0820152f35b346103ed576020806003193601126103ed576001600160a01b0380611aba614aff565b165f52600a9081835260405f20916040518084868296549384815201905f52865f20925f5b88828210611d3c57505050611af692500384614c1d565b5f915f5b8451811015611c0657611b0d81866153e6565b515f52600880875260405f2090604051611b2681614b7a565b8254815260018301548982015284600284015416604082015284600384015416606082015260048301546080820152600583015460a0820152600683015460c082015260078301549061016060e0820193838552600b60ff8092880154161515968761010086015260098101546101208601528a810154610140860152015416151591015282611bec575b5081611be1575b50611bcc575b611bc790614efe565b611afa565b92611bd9611bc791614efe565b939050611bbe565b905051421087611bb8565b90915062278d004201908142116113e05711159088611bb1565b5091611c119061541e565b915f915f5b8551811015611d2957611c2981876153e6565b51805f52600880895260405f2090604051611c4381614b7a565b8254815260018301548b82015286600284015416604082015286600384015416606082015260048301546080820152600583015460a0820152600683015460c082015260078301549061016060e0820193838552600b60ff8092880154161515968761010086015260098101546101208601528a810154610140860152015416151591015282611d0f575b5081611d04575b50611cea575b50611ce590614efe565b611c16565b84611cfd91611923611ce59497896153e6565b9390611cdb565b905051421089611cd5565b90915062278d004201908142116113e0571115908a611cce565b604051878152806103e9818a0188614b2b565b8554845260019586019589955093019201611adf565b346103ed575f3660031901126103ed576015546040516001600160a01b039091168152602090f35b6020806003193601126103ed57600435611d92615573565b805f526006825260405f209160ff600984015416156121e857611dba600a8401544210615501565b600c918284018054908134111561218f5760018681015490966001600160a01b0392918316331461213b57600b01928284541680612058575b505090919293945060018060a01b0319923384825416179055349055825f526011845260405f206003928382019033908254161790556002349101556014845260405f20855f908254915b828110612029575b50611ff5575b505050335f526013835260405f2060405191611e6783614bb1565b8383528483019034825260408401428152611e80615551565b926060860193845260808601945f86528054600160401b811015611fce57611eac918b82018155614ce0565b969096611fe2575186555188860155516002850155905180518285019290916001600160401b038311611fce57611eed83611ee78654614cf9565b86614f4a565b8791601f8411600114611f5f575082611f2596959360049593611f18935f92611f54575b5050614f8d565b90555b5115159101614f9f565b7f0e54eff26401bf69b81b26f60bd85ef47f5d85275c1d268d84f68d6897431c47604051923484523393a35f55005b015190508b80611f11565b899392601f19841692865f528a5f20935f5b8c828210611fb85750509185939160049896611f259b9a98969410611f9f575b50505050811b019055611f1b565b01519060f8845f19921b161c191690558a808080611f91565b8385015187558e98909601959384019301611f71565b634e487b7160e01b5f52604160045260245ffd5b634e487b7160e01b5f525f60045260245ffd5b600160401b811015611fce5761200f918782018155614cb7565b8192915490841b9133831b921b1916179055848080611e4c565b846120348286614cb7565b905490881b1c16331461204f5761204a90614efe565b611e3e565b50505f88611e46565b855f526012875260405f20905f52865261207760405f209182546153fa565b9055818354165f526013855260405f20958654805b15611df3575f198101818111806113e057876120a8838c614ce0565b5054148061210f575b6120c65750506120c090615545565b8061208c565b909293949596979891506113e0576003916120e091614ce0565b5001906120f66120f08354614cf9565b83614f22565b6513d55510925160d21b01905590849392918780611df3565b50505f600361212161148c848d614ce0565b89815191012061212f615551565b8a8151910120146120b1565b60405162461bcd60e51b815260048101879052602660248201527f4f776e65722063616e6e6f7420626964206f6e207468656972206f776e2070726044820152656f706572747960d01b6064820152608490fd5b60405162461bcd60e51b815260048101859052602b60248201527f426964206d75737420626520686967686572207468616e2063757272656e742060448201526a1a1a59da195cdd08189a5960aa1b6064820152608490fd5b6064906040519062461bcd60e51b82526004820152601a602482015279283937b832b93a3c9034b9903737ba1037b71030bab1ba34b7b760311b6044820152fd5b346103ed5760203660031901126103ed57612242615573565b6004355f52600660205260405f20601160205260405f206009820180549061226c60ff83166155f6565b600d84019182549061228160ff831615615501565b60018601546001600160a01b031633036124e45760019360ff199485809416179055169055600160058301918254161790556004355f52601460205260405f20905f5b82548110156123f4576122d78184614cb7565b905460018060a01b039160031b1c165f52601360205260405f208054805b61230957505061230490614efe565b6122c4565b805f19810111806113e0576123215f19830184614ce0565b50546004351480612380575b612342575b5061233c90615545565b806122f5565b6113e05761233c9060036123595f19830185614ce0565b500161236861145e8254614cf9565b60126810d05390d15313115160ba1b01905590612332565b50505f600361239561148c5f19850186614ce0565b602081519101206123a4615551565b60208151910120148061232d5750505f60036123c661148c5f19850186614ce0565b60208151910120600660206040516123dd81614be7565b828152016513d55510925160d21b8152201461232d565b50600b830180545f928592906001600160a01b038316908161244c575b855f600a8701556040519081527fdb9cc99dc874f9afbae71151f737e51547d3d412b52922793437d86607050c3c602060043592a260015f55005b600c850180546001600160a01b03199586169094555f908190556003820180549095169094556002018390559293509181908190819085905af161248e6155c7565b501561249f5790600a5f8480612411565b60405162461bcd60e51b815260206004820152601f60248201527f4661696c656420746f20726566756e64206869676865737420626964646572006044820152606490fd5b60405162461bcd60e51b815260206004820152602660248201527f4f6e6c792070726f7065727479206f776e65722063616e2063616e63656c20616044820152653ab1ba34b7b760d11b6064820152608490fd5b346103ed5760603660031901126103ed576004355f52600660205261256d60018060a01b03600160405f200154163314614feb565b6004355f52600660205261258d60ff600d60405f20015460081c16615030565b6004355f52600660205260405f206125ab60ff60058301541661507c565b600981015460ff81166129f35760ff6007830154166129a2576024351561294f57610e10604435106128f95762278d00604435116128a557335f52600a60205260405f2090604051808360208295549384815201905f5260205f20925f5b81811061288c57505061261e92500383614c1d565b5f5b825181101561275a5761263381846153e6565b515f52600860205260405f2060405161264b81614b7a565b8154815260018201549081602082015260018060a01b03600284015416604082015260018060a01b03600384015416606082015260048301546080820152600583015460a0820152600683015460c0820152600783015460e082015261016060ff600b81600887015416151595866101008601526009810154610120860152600a8101546101408601520154161515910152600435149081612752575b506126fb576126f690614efe565b612620565b60405162461bcd60e51b815260206004820152602960248201527f43616e6e6f742061756374696f6e2070726f7065727479207769746820616374604482015268697665206c6561736560b81b6064820152608490fd5b9050856126e8565b5060ff199081166001176009840155600d83612778604435426153fa565b600a820155602435600c820155600b810180546001600160a01b031916905501805490911690556128526127ae604435426153fa565b604051906127bb82614b96565b6004358252602435602083015260243560408301525f606083015260808201525f60a082015260c08101600181526004355f52601160205261284960a0600560405f2085518155602086015160018201556040860151600282015560038101600180851b03606088015116600180861b03198254161790556080860151600482015501930151151583614f9f565b51151590614fb0565b604051602435815260443560208201527f44c53be110c6aa83aa83cd02e351ed172359268272ee1b5d31c0fe48db35c6c7604060043592a2005b8454835260019485019487945060209093019201612609565b60405162461bcd60e51b815260206004820152602660248201527f41756374696f6e206475726174696f6e2063616e6e6f7420657863656564203360448201526530206461797360d01b6064820152608490fd5b60405162461bcd60e51b815260206004820152602860248201527f41756374696f6e206475726174696f6e206d757374206265206174206c6561736044820152673a1018903437bab960c11b6064820152608490fd5b60405162461bcd60e51b815260206004820152602560248201527f5374617274696e67207072696365206d75737420626520677265617465722074604482015264068616e20360dc1b6064820152608490fd5b60405162461bcd60e51b815260206004820152602360248201527f50726f706572747920697320616c7265616479206c697374656420666f722073604482015262616c6560e81b6064820152608490fd5b60405162461bcd60e51b815260206004820152601e60248201527f50726f706572747920697320616c7265616479206f6e2061756374696f6e00006044820152606490fd5b346103ed5760403660031901126103ed57612a51614aff565b6001600160a01b03165f908152600760205260409020805460243591908210156103ed57602091612a8191614cb7565b90546040519160031b1c8152f35b346103ed576020806003193601126103ed576001600160a01b03612ab1614aff565b165f526013815260405f2090815491612ac983615407565b92612ad76040519485614c1d565b80845282840180925f52835f205f915b838310612b815750505050604051918083019381845251809452604083019360408160051b85010192915f955b828710612b215785850386f35b909192938280600192603f19898203018552875190612b6560a083518352848401518584015260408401516040840152606090808286015192850152830190614dc1565b9160808091015115159101529601920196019592919092612b14565b600586600192604099989951612b9681614bb1565b85548152848601548382015260028601546040820152604051612bc0816104498160038b01614d31565b606082015260ff60048701541615156080820152815201920192019190959495612ae7565b346103ed5760203660031901126103ed576004355f52600860205261018060405f2080549060018101549060018060a01b0380600283015416906003830154166004830154600584015460068501549060078601549260ff6008880154169460098801549660ff600b600a8b01549a015416996040519b8c5260208c015260408b015260608a0152608089015260a088015260c087015260e086015215156101008501526101208401526101408301521515610160820152f35b346103ed575f3660031901126103ed576020600154604051908152f35b346103ed5760203660031901126103ed576001600160a01b03612cdd614aff565b165f526013602052602060405f2054604051908152f35b6020806003193601126103ed57600435805f526006825260405f209060405192612d1d84614b5e565b8254845260018060a01b03600181818601541691838701928352604051612d4b816104498160028b01614d31565b6040880152600396878701546060820152604051612d70816104498160048c01614d31565b6080820152612e2660ff60058901541660a083019015158152600689015460c0840152600e6101e060ff60078c0154169460e081019515158652612e1c60088d01549c61010083019d8e5260ff6009820154161515610120840152600a81015461014084015288600b82015416610160840152600c81015461018084015260ff600d82015481811615156101a086015260081c1615156101c08401526105226040518096819301614d31565b015251151561507c565b51156131655780835116331461311457612e4286513414615103565b612e4d600454614efe565b9283600455612eeb8860068484511696888b518b8860405196612e6f88614b96565b858852848801928352604088019c8d52606088019233845260808901948552600d60a08a019642885260c08b01985f8a525f525260405f2098518955518c89015581600289019d51169c60018060a01b03199d8e82541617905587019151168b8254161790555160048501555160058401555115159101614f9f565b5f808080858551168190341561310a575b3491f115610f1457612f82612f1689949596979954614efe565b8085558383511660405191612f2a83614b96565b82525f898301523360408301526060820152346080820152604051612f4e81614be7565b600d81526c50524f50455254595f53414c4560981b8982015260a08201524260c0820152895f52600b885260405f2061514a565b7f8d4e3385fd4440452df97750ad67b43f8fbe60bff4a539d21be1cdf3b9f550ab60a060045498848451169051604051918b83528c8b84015260408301523360608301526080820152a15116865f526006855260405f20938385019033908254161790555f6008600786019560ff199687815416905501555f526007845260405f20335f5260405f2091835f905b61306f575b5f80516020615edb8339815191526060898b8a8a8a613034848c614fc8565b835f52600e83526130488560405f20614fc8565b845f52600d8352600660405f200191825416179055604051928352820152336040820152a1005b829895939796949254808210156130fc578661308b838c614cb7565b905490851b1c146130b55750906130a88394959697989992614efe565b9091929495969893613010565b5f1981019998908a116113e0576130ee8961123c8994611224613034975f80516020615edb8339815191529f60609f9061121891614cb7565b939598508294969750613015565b508294969793959850613015565b6108fc9150612efc565b60405162461bcd60e51b815260048101859052602360248201527f4f776e65722063616e6e6f7420627579207468656972206f776e2070726f706560448201526272747960e81b6064820152608490fd5b60405162461bcd60e51b815260048101859052601860248201527750726f7065727479206973206e6f7420666f722073616c6560401b6044820152606490fd5b346103ed576020806003193601126103ed5760043580915f5b825f526008808352600a918260405f200154156131ef576131de90614efe565b935f52825260405f200154916131be565b838691600181018082116113e0576132069061541e565b925f5b82811115613228575050506103e9604051928284938452830190614b2b565b8161323382876153e6565b5282811061324a575b61324590614efe565b613209565b5f918252600884526040909120600a01549061323c565b346103ed5760203660031901126103ed5761327a61548d565b506004355f5260066020526103e960405f20600e6133866040519261329e84614b5e565b8054845260018101546001600160a01b0390811660208601526040516132cb816104498160028701614d31565b6040860152600382015460608601526040516132ee816104498160048701614d31565b608086015260ff600583015416151560a0860152600682015460c086015260ff600783015416151560e0860152600882015461010086015260ff6009830154161515610120860152600a820154610140860152600b82015416610160850152600c81015461018085015260ff600d82015481811615156101a087015260081c1615156101c08501526104496040518094819301614d31565b6101e0820152604051918291602083526020830190614e18565b346103ed5760203660031901126103ed57600435805f526008602052600160405f2001545f5260066020526133e560018060a01b03600160405f200154163314614feb565b805f52600860205261340060ff600860405f200154166150c1565b5f526008602052600860405f200160ff1981541690555f80f35b346103ed5760403660031901126103ed57613433614aff565b6001600160a01b03165f908152600960205260409020805460243591908210156103ed57602091612a8191614cb7565b346103ed5760203660031901126103ed576004355f52601160205260e060405f2060ff815491600181015490600281015460018060a01b036003830154169060056004840154930154936040519687526020870152604086015260608501526080840152818116151560a084015260081c16151560c0820152f35b346103ed5760403660031901126103ed576134f7614aff565b6001600160a01b03165f908152600a60205260409020805460243591908210156103ed57602091612a8191614cb7565b346103ed5761353536614ca1565b905f52600b60205260405f209081548110156103ed5761355491614dff565b5080546001820154916135ca60018060a01b0391826002820154169260038201541660048201549060066040519361359a856135938160058501614d31565b0386614c1d565b0154946040519788978852602088015260408701526060860152608085015260e060a085015260e0840190614dc1565b9060c08301520390f35b346103ed5760203660031901126103ed5760406135f26004356152ab565b825191151582526020820152f35b346103ed575f3660031901126103ed575f6001908154915b8281111561368e575061362a9061541e565b905f60015b8281111561364d57604051602080825281906103e990820187614b2b565b805f52600660205260ff600760405f20015416613673575b61366e90614efe565b61362f565b90613686818361192361366e94886153e6565b919050613665565b805f52600660205260ff600760405f200154166136b4575b6136af90614efe565b613618565b906136c16136af91614efe565b9190506136a6565b346103ed5760203660031901126103ed576004355f52600c602052602060405f2054604051908152f35b346103ed576020806003193601126103ed5760043590815f526008815260405f2060018060a01b039260029184838201541633149081156138cc575b5015613896575f92919252600b815260405f2090815461374e81615407565b9361375c6040519586614c1d565b8185525f9384528284208386019491855b848410613820575050505050604051928184019082855251809152604084019160408260051b86010193925f965b8388106137a85786860387f35b90919293948380600192603f198a82030186528851908151815282820151838201528560408301511660408201526060868184015116908201526080808301519082015261380560a060e0818501519184015260e0830190614dc1565b9160c08091015191015297019301970196909392919361379b565b60078660019260409a989a5161383581614b96565b8654815284870154838201528c868801541660408201528c600388015416606082015260048701546080820152604051613876816104498160058c01614d31565b60a0820152600687015460c082015281520193019301929196949661376d565b60405162461bcd60e51b815260048101849052600e60248201526d139bdd08185d5d1a1bdc9a5e995960921b6044820152606490fd5b600301548516331490508561372f565b346103ed5760803660031901126103ed576004355f908152600860205260409020600201546001600160a01b03163303613bd8576004355f52600860205260405f206040519061392b82614b7a565b805482526001810154602083015260028101546001600160a01b039081166040840152600382015416606083015260048101546080830152600581015460a0830152600681015460c0830152600781015460e0830152600881015460ff9081161580156101008501526009830154610120850152600a830154610140850152600b90920154161515610160830152613b93576004355f526008602052600860405f200160ff198154169055613b006139e4600254614efe565b60028190556020830151604080850151606086015160e0870151925194936001600160a01b039182169290911690613a1b86614b7a565b848652602086015260408501526060840152602435608084015260443560a084015260c083015260643560e083015260016101008301524261012083015260043561014083015260016101608301525f526008602052600b61016060405f209280518455602081015160018501556002840160018060a01b036040830151169060018060a01b03199182825416179055600385019060018060a01b03606084015116908254161790556080810151600485015560a0810151600585015560c0810151600685015560e08101516007850155610a91610100820151151560088601614f9f565b606001516001600160a01b03165f908152600960205260409020600254613b2691614fc8565b335f52600a602052613b3e60405f2060025490614fc8565b60206002546004355f52600c82528060405f20557f5218b45ec4111b34f11772b33264cebe845c4a092cb61b4df792954c6c9780196060604051600435815283858201526064356040820152a1604051908152f35b60405162461bcd60e51b815260206004820152601e60248201527f43616e6e6f742072656e657720616e20696e616374697665206c6561736500006044820152606490fd5b60405162461bcd60e51b815260206004820152602560248201527f4f6e6c79206c616e646c6f72642063616e20706572666f726d2074686973206160448201526431ba34b7b760d91b6064820152608490fd5b346103ed57613c3936614ca1565b905f52600e60205260405f2080548210156103ed57602091612a8191614cb7565b346103ed57613c6836614ca1565b905f52601060205260405f2080548210156103ed57602091612a8191614cb7565b346103ed5760203660031901126103ed576004355f52600860205261014060405f2061016060405191613cbb83614b7a565b8054835260018101549283602082015260018060a01b03806002840154169081604084015260038401541680606084015260048401548060808501526005850154908160a08601526006860154928360c08701526007870154948560e088015260ff6008890154169687151561010082015260ff600b60098b01549a8b610120850152600a8101548f8501520154161515998a910152604051998a5260208a015260408901526060880152608087015260a086015260c0850152151560e0840152610100830152610120820152f35b346103ed576020806003193601126103ed576004355f52600e815260405f20906040518083838295549384815201905f52835f20925f5b85828210613dd8575050506105b292500383614c1d565b8554845260019586019588955093019201613dc1565b346103ed576020806003193601126103ed57613e0b60043561579c565b9092916040519384936060850160608652835180915281608087019401905f5b818110613e5857505050848303908501526103e99291613e4a91614b2b565b908382036040850152614b2b565b82516001600160a01b031686528897509483019491830191600101613e2b565b346103ed5760403660031901126103ed57613e91614aff565b6001600160a01b03165f9081526013602052604090208054602435908110156103ed57613ebd91614ce0565b508054600182015491613f1660028201549160ff600460405192613eef84613ee88160038501614d31565b0385614c1d565b0154169260405195869586526020860152604085015260a0606085015260a0840190614dc1565b90151560808301520390f35b346103ed5760203660031901126103ed5760043560018060a01b03613f4c81601554163314615636565b811515806140b8575b613f619092919261568e565b805f52600660205260405f2091613f8260ff600d85015460081c16156156d0565b600180930154165f5260076020528160405f205f935b61403d575b5f80516020615ebb8339815191526108a88484815f526006602052614023600e60405f205f81555f84820155613fd560028201615731565b5f6003820155613fe760048201615731565b5f60058201555f60068201555f60078201555f60088201555f60098201555f600a8201555f600b8201555f600c8201555f600d82015501615731565b61402d8154615545565b9055604051918291339083615718565b8054808510156140b25783906140538684614cb7565b929054600393841b1c1461407557505061406e829394614efe565b9392613f98565b90949392915f1982019182116113e05761123c6108a8956112245f80516020615ebb833981519152986112186140ab9686614cb7565b9091613f9d565b50613f9d565b50600154821115613f55565b346103ed576140d236614ca1565b905f52601460205260405f2080548210156103ed576020916140f391614cb7565b905460405160039290921b1c6001600160a01b03168152f35b346103ed5760203660031901126103ed576004355f52600d60205260e060405f2080549060018101549060018060a01b03806002830154169060038301541660048301549160ff600660058601549501541694604051968752602087015260408601526060850152608084015260a0830152151560c0820152f35b346103ed576020806003193601126103ed5760025460043591905f60015b8281111561421757506141b79061541e565b925f9060015b838111156141d857604051858152806103e981880189614b2b565b805f526008855281600160405f200154146141fc575b6141f790614efe565b6141bd565b9161420f81846119236141f7948a6153e6565b9290506141ee565b805f526008845284600160405f2001541461423b575b61423690614efe565b6141a5565b9061424861423691614efe565b91905061422d565b346103ed5761425e36614ca1565b90805f52600660205261428160018060a01b03600160405f200154163314614feb565b805f52600660205261429f60ff600d60405f20015460081c16615030565b805f5260066020526142ba60ff600560405f2001541661507c565b81156144a457335f52600a60205260405f20604051808260208294549384815201905f5260205f20925f5b81811061448b5750506142fa92500382614c1d565b5f5b815181101561443a5761430f81836153e6565b515f52600860205260405f208360405161432881614b7a565b8254815260018301549081602082015260018060a01b03600285015416604082015260018060a01b03600385015416606082015260048401546080820152600584015460a0820152600684015460c0820152600784015460e082015261016060ff600b81600888015416151596876101008601526009810154610120860152600a8101546101408601520154161515910152149081614432575b506143d5576143d090614efe565b6142fc565b60405162461bcd60e51b815260206004820152602f60248201527f43616e6e6f74206c6973742070726f706572747920666f722073616c6520776960448201526e746820616374697665206c6561736560881b6064820152608490fd5b9050856143c2565b7f88b3e10fc821dcf6e0c9b8b02e38f5fff401bfab2172fb035d249c01f094de7d60408486815f526006602052806008845f2060078101600160ff19825416179055015582519182526020820152a1005b84548352600194850194869450602090930192016142e5565b60405162461bcd60e51b8152602060048201526024808201527f53616c65207072696365206d7573742062652067726561746572207468616e206044820152637a65726f60e01b6064820152608490fd5b346103ed576020806003193601126103ed57600435614512615573565b805f526012825260405f20335f52825260405f20549182156145c157815f526012815260405f20335f5281525f60408120555f80808086335af16145546155c7565b501561458b577f8f8619524e8d462cead34604bd2247ede24175801481e4d0b8059ac8aa41c301906040519384523393a360015f55005b6064906040519062461bcd60e51b82526004820152600f60248201526e151c985b9cd9995c8819985a5b1959608a1b6044820152fd5b6064906040519062461bcd60e51b8252600482015260146024820152734e6f2066756e647320746f20776974686472617760601b6044820152fd5b346103ed5760803660031901126103ed576004356001600160401b0381116103ed5761462c903690600401614c5b565b6044356001600160401b0381116103ed5761464b903690600401614c5b565b6064356001600160401b0381116103ed5761466a903690600401614c5b565b614675600154614efe565b90816001556040519261468784614b5e565b828452336020850152846040850152602435606085015260808401525f60a08401524260c08401525f60e08401525f6101008401525f6101208401525f6101408401525f6101608401525f6101808401525f6101a08401525f6101c08401526101e08301525f52600660205260405f2091815183556001830160018060a01b0360208401511660018060a01b0319825416179055604082015192835160018060401b038111611fce5761474a816147416002850154614cf9565b60028501614f4a565b6020601f8211600114614a2757819061476d939495965f92614940575050614f8d565b60028201555b6060830151600382015560808301518051906001600160401b038211611fce576147ad826147a46004860154614cf9565b60048601614f4a565b602090601f83116001146149b55782600e936101e095936147d5935f926149aa575050614f8d565b60048201555b6147ee60a0860151151560058301614f9f565b60c0850151600682015561480b60e0860151151560078301614f9f565b610100850151600882015561482a610120860151151560098301614f9f565b610140850151600a820155600b810160018060a01b036101608701511660018060a01b0319825416179055610180850151600c820155614886600d82016148786101a0880151151582614f9f565b6101c0870151151590614fb0565b019201519081519260018060401b038411611fce57836148b26020956148ac8454614cf9565b84614f4a565b8493601f821160011461494b576148d492939482915f92614940575050614f8d565b90555b335f52600782526148ee60405f2060015490614fc8565b7fb33e9eef84e3eebf705c9f5736130e2f3eeae173c0b5a4f96c167b2186047d37614935600154926040519182918583523387840152606060408401526060830190614dc1565b0390a1604051908152f35b015190508680611f11565b601f19821694835f52865f20915f5b87811061499357508360019596971061497b575b505050811b0190556148d7565b01515f1960f88460031b161c1916905585808061496e565b91928860018192868501518155019401920161495a565b015190508880611f11565b90600484015f5260205f20915f5b601f1985168110614a0f5750926101e09492600192600e9583601f198116106149f7575b505050811b0160048201556147db565b01515f1960f88460031b161c191690558780806149e7565b919260206001819286850151815501940192016149c3565b600283015f5260205f20905f5b601f1984168110614a7a575060019394959683601f19811610614a62575b505050811b016002820155614773565b01515f1960f88460031b161c19169055858080614a52565b9091602060018192858b015181550193019101614a34565b346103ed576020806003193601126103ed576001600160a01b03614ab4614aff565b165f526009815260405f2082815491828252838201905f52835f20925f5b85828210614ae9575050506105b292500383614c1d565b8554845260019586019588955093019201614ad2565b600435906001600160a01b03821682036103ed57565b602435906001600160a01b03821682036103ed57565b9081518082526020808093019301915f5b828110614b4a575050505090565b835185529381019392810192600101614b3c565b61020081019081106001600160401b03821117611fce57604052565b61018081019081106001600160401b03821117611fce57604052565b60e081019081106001600160401b03821117611fce57604052565b60a081019081106001600160401b03821117611fce57604052565b60c081019081106001600160401b03821117611fce57604052565b604081019081106001600160401b03821117611fce57604052565b606081019081106001600160401b03821117611fce57604052565b601f909101601f19168101906001600160401b03821190821017611fce57604052565b6001600160401b038111611fce57601f01601f191660200190565b81601f820112156103ed57803590614c7282614c40565b92614c806040519485614c1d565b828452602083830101116103ed57815f926020809301838601378301015290565b60409060031901126103ed576004359060243590565b8054821015614ccc575f5260205f2001905f90565b634e487b7160e01b5f52603260045260245ffd5b8054821015614ccc575f52600560205f20910201905f90565b90600182811c92168015614d27575b6020831014614d1357565b634e487b7160e01b5f52602260045260245ffd5b91607f1691614d08565b80545f9392614d3f82614cf9565b9182825260209360019182811690815f14614da25750600114614d64575b5050505050565b90939495505f92919252835f2092845f945b838610614d8e57505050500101905f80808080614d5d565b805485870183015294019385908201614d76565b60ff19168685015250505090151560051b010191505f80808080614d5d565b91908251928382525f5b848110614deb575050825f602080949584010152601f8019910116010190565b602081830181015184830182015201614dcb565b8054821015614ccc575f52600760205f20910201905f90565b90614efb916102009181518152614e70614e5460208401519460018060a01b038096166020850152604085015190806040860152840190614dc1565b6060840151606084015260808401518382036080850152614dc1565b9260a0830151151560a083015260c083015160c083015260e0830151151560e083015261010080840151908301526101208084015115159083015261014080840151908301526101609081840151169082015261018080830151908201526101a0808301511515908201526101c0808301511515908201526101e08092015191818403910152614dc1565b90565b5f1981146113e05760010190565b818110614f17575050565b5f8155600101614f0c565b90601f8111614f2f575050565b614f48915f52601f60205f20910160051c810190614f0c565b565b9190601f8111614f5957505050565b614f48925f5260205f20906020601f840160051c83019310614f83575b601f0160051c0190614f0c565b9091508190614f76565b8160011b915f199060031b1c19161790565b9060ff801983541691151516179055565b9061ff00825491151560081b169061ff001916179055565b80549190600160401b831015611fce5782611224916001614f4895018155614cb7565b15614ff257565b60405162461bcd60e51b81526020600482015260166024820152752737ba103a343290383937b832b93a3c9037bbb732b960511b6044820152606490fd5b1561503757565b60405162461bcd60e51b815260206004820152601f60248201527f50726f7065727479206e6f7420617070726f766564206279206e6f74617279006044820152606490fd5b1561508357565b60405162461bcd60e51b815260206004820152601660248201527550726f7065727479206973206e6f742061637469766560501b6044820152606490fd5b156150c857565b60405162461bcd60e51b81526020600482015260136024820152724c65617365206973206e6f742061637469766560681b6044820152606490fd5b1561510a57565b60405162461bcd60e51b8152602060048201526018602482015277125b98dbdc9c9958dd081c185e5b595b9d08185b5bdd5b9d60421b6044820152606490fd5b908154600160401b811015611fce5761516a906001938482018155614dff565b929092611fe257815183556020808301518285015560408301516002850180546001600160a01b039283166001600160a01b03199182161790915560608501516003870180549190931691161790556080830151600485015560a083015180516005860193909291906001600160401b038411611fce576151f5846151ef8754614cf9565b87614f4a565b82601f8511600114615232575050826006959360c0959361521d935f92615227575050614f8d565b90555b0151910155565b015190505f80611f11565b91601f94939194198416865f52835f20935f905b828210615287575050916006979593918560c09896941061526f575b505050811b019055615220565b01515f1960f88460031b161c191690555f8080615262565b808886978294978701518155019601940190615246565b919082039182116113e057565b5f52600860205260405f20604051906152c382614b7a565b80548083526001820154602084015260018060a01b03806002840154166040850152600383015416606084015260048201546080840152600582015460a0840152600682015460c084015260078201549260e0810193845261016060ff600b8160088701541695610100850196151587526009810154610120860152600a81015461014086015201541615159101521561538d575115615386575180421161537e576153746201518091429061529e565b0490601e82109190565b506001905f90565b505f905f90565b60405162461bcd60e51b81526020600482015260146024820152731319585cd948191bd95cc81b9bdd08195e1a5cdd60621b6044820152606490fd5b805115614ccc5760200190565b805160011015614ccc5760400190565b8051821015614ccc5760209160051b010190565b919082018092116113e057565b6001600160401b038111611fce5760051b60200190565b9061542882615407565b6154356040519182614c1d565b8281528092615446601f1991615407565b0190602036910137565b8054908115615479575f19918201916154698383614cb7565b909182549160031b1b1916905555565b634e487b7160e01b5f52603160045260245ffd5b6040519061549a82614b5e565b60606101e0835f80825280602083015283604083015280848301528360808301528060a08301528060c08301528060e08301528061010083015280610120830152806101408301528061016083015280610180830152806101a08301526101c08201520152565b1561550857565b60405162461bcd60e51b8152602060048201526015602482015274105d58dd1a5bdb88185b1c9958591e48195b991959605a1b6044820152606490fd5b80156113e0575f190190565b6040519061555e82614be7565b600682526541435449564560d01b6020830152565b60025f54146155825760025f55565b60405162461bcd60e51b815260206004820152601f60248201527f5265656e7472616e637947756172643a207265656e7472616e742063616c6c006044820152606490fd5b3d156155f1573d906155d882614c40565b916155e66040519384614c1d565b82523d5f602084013e565b606090565b156155fd57565b60405162461bcd60e51b815260206004820152601160248201527027379030b1ba34bb329030bab1ba34b7b760791b6044820152606490fd5b1561563d57565b60405162461bcd60e51b815260206004820152602360248201527f4f6e6c79206e6f746172792063616e20706572666f726d20746869732061637460448201526234b7b760e91b6064820152608490fd5b1561569557565b60405162461bcd60e51b8152602060048201526013602482015272125b9d985b1a59081c1c9bdc195c9d1e481251606a1b6044820152606490fd5b156156d757565b60405162461bcd60e51b8152602060048201526019602482015278141c9bdc195c9d1e48185b1c9958591e48185c1c1c9bdd9959603a1b6044820152606490fd5b9081526001600160a01b03909116602082015260400190565b61573b8154614cf9565b9081615745575050565b81601f5f9311600114615756575055565b908083918252615775601f60208420940160051c840160018501614f0c565b5555565b6001198101919082136001166113e057565b600160ff1b81146113e0575f190190565b5f91818352602091600e8352604093848120938551808683829854938481520190855283852092855b85828210615ea4575050506157dc92500386614c1d565b82825260108152858220908651808383829554938481520190865283862092865b85828210615e8e5750505061581492500383614c1d565b61582186518351906153fa565b968715615e0957600191828914615c4f57828901809911615c3b576158458961541e565b956158586158528b61541e565b9a61541e565b9881875260069485845260018060a01b03908181878b2001541661587b8b6153c9565b52875115615b9e5787515f198101908111615b8a5761589a90896153e6565b518952600f85528c60a06158f4888c209289516158b681614bcc565b84548152858501548a820152866002860154168b820152866003860154166060820152600560048601549560808301968752015493849101526153c9565b52516158ff8d6153c9565b525b80978d8d61590f8351615779565b915b8d8d80851215615b0257505091506159298651615779565b915b8d8d80851215615a5d579150508a9998969492506159d79b9a979593915093815115155f146159dd5750615961919293506153c9565b518a52600f8452858a209086519061597882614bcc565b825482528201548582015260a060058460028501541693848a850152856003820154166060850152600481015460808501520154910152905b6159bb888c6153e6565b91169052875252842001546159d082896153e6565b52856153e6565b52929190565b809150516159ed575b50506159b1565b6159f9919293506153c9565b518a52600d8452858a2090865190615a1082614b96565b825482528201548582015260c060ff878560028601541694858b86015286600382015416606086015260048101546080860152600581015460a08601520154161515910152905f806159e6565b8d8d869f94615aed8f8f8c8f8f615af59c9a899591615afb9f92806119239d615a8a8a96615aed986153e6565b518152600d89522096815196615a9f88614b96565b885488528801549087015281600288015416908601526003860154169384606082015260c060ff60048801549b608084019c8d5260058901549860a08501998a5201541615159101526153e6565b5251926153e6565b9961578b565b8d8f61592b565b8d8b869f94615aed8f8b615af59997615aed8f8894908f91615b839f6119239c615b2e83928a966153e6565b518152600f8c522099815196615b4388614bcc565b8b5488528b0154908701528160028b015416908601526003890154169283606086015260a0600560048b01549a608088019b8c52015495019485526153e6565b8d8f615911565b634e487b7160e01b8a52601160045260248afd5b825180615bac575b50615901565b5f198101908111615b8a57615bc190846153e6565b518952600d85528c868a20615c29885192615bdb84614b96565b825484528483015489850152856002840154168a8501528560038401541660608501526004830154936080810194855260c060ff8d6005870154968760a086015201541615159101526153c9565b5251615c348d6153c9565b525f615ba6565b634e487b7160e01b85526011600452602485fd5b81929798506006939584925196615c6588614c02565b600288528436848a013784519a615c7b8c614c02565b60028c528536858e013785519a615c918c614c02565b60028c528636868e01378389528585528689208101546001600160a01b0392908316615cbc8c6153c9565b5283518a918f9115615d6957505050615cd582936153c9565b518952600f85528c60a0615d32898c20928a5194615cf286614bcc565b845486528401548986015285600285015416948b8101958652866003860154166060820152600560048601549560808301968752015493849101526153c9565b5251615d3d8d6153c9565b525116905b615d4b896153d6565b9116905285525282200154615d5f866153d6565b526159d7846153d6565b80919392955051615d7d575b505050615d42565b839450615d89906153c9565b518a52600d8652878a20885191615d9f83614b96565b8154835281015487830152615df284600283015416938a84019485528560038401541660608501526004830154936080810194855260c060ff8c6005870154968760a086015201541615159101526153c9565b5251615dfd8d6153c9565b525116908b5f80615d75565b9395509550506006825192615e1d84614be7565b6001845286368186013781815197615e3489614be7565b600189528036818b0137825197615e4a89614be7565b600189528136818b0137808652828252838620600101546001600160a01b0316615e73886153c9565b5285525282200154615e84866153c9565b526159d7846153c9565b85548452600195860195889550930192016157fd565b855484526001958601958b9550930192016157c556fe51922a50d941e0e3c221255fd634692203f6c5fd5110667ebc4dd41df303d80f4b57d7a2efb9c923c803ed013532df2fc457683e64a60451ce82578fa6c123dad2aa34a4fdbbc6dff6a3e56f46e0f3ae2a31d7785ff3487aa5c95c642acea501a264697066735822122075db9cabb2546b1f1fe9cdc908a4293305da1301a94be0fc35085610c7c17d1f64736f6c63430008150033",
  "immutableReferences": {},
  "source": "// SPDX-License-Identifier: MIT\npragma solidity ^0.8.21;\n\nimport \"@openzeppelin/contracts/security/ReentrancyGuard.sol\";\n\ncontract PropertyManagement is ReentrancyGuard {\n    // Struct to store property details\n    struct Property {\n        uint256 id;\n        address owner;\n        string propertyAddress;\n        uint256 size;\n        string propertyType;\n        bool isActive;\n        uint256 createdAt;\n        bool isForSale;\n        uint256 salePrice;\n        // Auction related fields\n        bool onAuction;\n        uint256 auctionEndTime;\n        address highestBidder;\n        uint256 highestBid;\n        bool auctionEnded;\n        bool isApproved;  // New field for notary approval\n        string documentHash;  // New field for property document hash\n    }\n    \n    // Struct to store lease agreement details\n    struct LeaseAgreement {\n        uint256 id;\n        uint256 propertyId;\n        address landlord;\n        address tenant;\n        uint256 monthlyRent;\n        uint256 securityDeposit;\n        uint256 startDate;\n        uint256 endDate;\n        bool isActive;\n        uint256 createdAt;\n        uint256 previousLeaseId; // Track renewal chain\n        bool isRenewal;          // Flag to indicate if this is a renewal\n    }\n    \n    // Struct to store property sale details\n    struct PropertySale {\n        uint256 id;\n        uint256 propertyId;\n        address seller;\n        address buyer;\n        uint256 salePrice;\n        uint256 timestamp;\n        bool completed;\n    }\n    \n    // Struct to store transaction details\n    struct Transaction {\n        uint256 id;\n        uint256 leaseId;\n        address from;\n        address to;\n        uint256 amount;\n        string transactionType; // \"RENT\", \"SECURITY_DEPOSIT\", \"REFUND\"\n        uint256 timestamp;\n    }\n    \n    // Struct to store auction details\n    struct Auction {\n        uint256 propertyId;\n        uint256 startingPrice;\n        uint256 highestBid;\n        address highestBidder;\n        uint256 auctionEndTime;\n        bool ended;\n        bool exists;\n    }\n    \n    // Struct to store auction transfer details\n    struct AuctionTransfer {\n        uint256 id;\n        uint256 propertyId;\n        address previousOwner;\n        address newOwner;\n        uint256 transferPrice;\n        uint256 timestamp;\n    }\n    \n    // Struct to store user bid history\n    struct UserBid {\n        uint256 propertyId;\n        uint256 bidAmount;\n        uint256 timestamp;\n        string status; // \"ACTIVE\", \"OUTBID\", \"WON\", \"CANCELLED\"\n        bool withdrawn;\n    }\n    \n    // Counters for generating IDs\n    uint256 private propertyCounter;\n    uint256 private leaseCounter;\n    uint256 private transactionCounter;\n    uint256 private saleCounter; //Counter for property sales\n    uint256 private auctionTransferCounter; //Counter for auction transfers\n    // Mappings to store data\n    mapping(uint256 => Property) public properties;\n    mapping(address => uint256[]) public ownerProperties;\n    mapping(uint256 => LeaseAgreement) public leaseAgreements;\n    mapping(address => uint256[]) public tenantLeases;\n    mapping(address => uint256[]) public landlordLeases;\n    mapping(uint256 => Transaction[]) public leaseTransactions;\n    mapping(uint256 => uint256) public renewedLeases; // Maps old lease ID to new lease ID\n    mapping(uint256 => PropertySale) public propertySales; // NEW: Map property sales by ID\n    mapping(uint256 => uint256[]) public propertyTransferHistory; // NEW: Record property ownership transfers\n    mapping(uint256 => AuctionTransfer) public auctionTransfers; // NEW: Map auction transfers by ID\n    mapping(uint256 => uint256[]) public propertyAuctionHistory; // NEW: Record auction-based transfers\n    mapping(uint256 => Auction) public auctions; // propertyId => Auction\n    mapping(uint256 => mapping(address => uint256)) public pendingReturns; // propertyId => (bidder => amount)\n    mapping(address => UserBid[]) public userBidHistory; // user => their bid history\n    mapping(uint256 => address[]) public auctionParticipants; // propertyId => list of bidders\n   \n    // Notary related state variables\n    address public notary;\n    mapping(uint256 => bool) public propertyApprovals;\n    mapping(uint256 => string) public propertyDocuments;\n   \n    // Events\n    event PropertyRegistered(uint256 propertyId, address owner, string propertyAddress);\n    event LeaseCreated(uint256 leaseId, uint256 propertyId, address landlord, address tenant);\n    event PaymentReceived(uint256 leaseId, address from, address to, uint256 amount, string transactionType);\n    event LeaseRenewed(uint256 oldLeaseId, uint256 newLeaseId, uint256 newEndDate);\n    event LeaseExpiringSoon(uint256 leaseId, uint256 daysRemaining);\n    event PropertyListedForSale(uint256 propertyId, uint256 price); // NEW: Event for listing property\n    event PropertySaleCancelled(uint256 propertyId); // NEW: Event for cancelling sale\n    event PropertySaleInitiated(uint256 saleId, uint256 propertyId, address seller, address buyer, uint256 price); // NEW: Event for sale process\n    event PropertySaleCompleted(uint256 saleId, uint256 propertyId, address newOwner); // NEW: Event for completed sale\n    event AuctionStarted(uint256 indexed propertyId, uint256 startingPrice, uint256 duration);\n    event BidPlaced(uint256 indexed propertyId, address indexed bidder, uint256 amount);\n    event AuctionEnded(uint256 indexed propertyId, address winner, uint256 amount);\n    event BidWithdrawn(uint256 indexed propertyId, address indexed bidder, uint256 amount);\n    event AuctionCancelled(uint256 indexed propertyId, uint256 refundedAmount);\n    event PropertySubmitted(uint256 propertyId, address owner, string propertyAddress);\n    event PropertyApproved(uint256 propertyId, address notary);\n    event PropertyRejected(uint256 propertyId, address notary);\n   \n    constructor() {\n        notary = msg.sender; // Set the contract deployer as the notary\n    }\n    \n    // Modifiers\n    modifier onlyPropertyOwner(uint256 _propertyId) {\n        require(properties[_propertyId].owner == msg.sender, \"Not the property owner\");\n        _;\n    }\n    \n    modifier onlyLandlordOrTenant(uint256 _leaseId) {\n        require(\n            leaseAgreements[_leaseId].landlord == msg.sender || \n            leaseAgreements[_leaseId].tenant == msg.sender,\n            \"Not authorized\"\n        );\n        _;\n    }\n\n    modifier onlyLandlord(uint256 _leaseId) {\n        require(leaseAgreements[_leaseId].landlord == msg.sender, \"Only landlord can perform this action\");\n        _;\n    }\n    \n    modifier onlyNotary() {\n        require(msg.sender == notary, \"Only notary can perform this action\");\n        _;\n    }\n    \n    // Getter function for propertyCounter\n    function getPropertyCounter() public view returns (uint256) {\n        return propertyCounter;\n    }\n    \n    // Function to register a new property\n    function registerProperty(\n        string memory _propertyAddress,\n        uint256 _size,\n        string memory _propertyType,\n        string memory _documentHash\n    ) external returns (uint256) {\n        propertyCounter++;\n        \n        Property memory newProperty = Property({\n            id: propertyCounter,\n            owner: msg.sender,\n            propertyAddress: _propertyAddress,\n            size: _size,\n            propertyType: _propertyType,\n            isActive: false,  // Set to false until approved\n            createdAt: block.timestamp,\n            isForSale: false,\n            salePrice: 0,\n            onAuction: false,\n            auctionEndTime: 0,\n            highestBidder: address(0),\n            highestBid: 0,\n            auctionEnded: false,\n            isApproved: false,\n            documentHash: _documentHash\n        });\n        \n        properties[propertyCounter] = newProperty;\n        ownerProperties[msg.sender].push(propertyCounter);\n        \n        emit PropertySubmitted(propertyCounter, msg.sender, _propertyAddress);\n        return propertyCounter;\n    }\n    \n    // Function to create a lease agreement\n    function createLeaseAgreement(\n        uint256 _propertyId,\n        address _tenant,\n        uint256 _monthlyRent,\n        uint256 _securityDeposit,\n        uint256 _startDate,\n        uint256 _endDate\n    ) external onlyPropertyOwner(_propertyId) onlyApprovedProperty(_propertyId) returns (uint256) {\n        require(properties[_propertyId].isActive, \"Property is not active\");\n        require(!properties[_propertyId].isForSale, \"Property is currently for sale\"); //Cannot lease property that's for sale\n        require(!properties[_propertyId].onAuction, \"Property is currently on auction\"); //Cannot lease property that's being auctioned\n        require(_tenant != address(0), \"Invalid tenant address\");\n        require(_startDate < _endDate, \"Invalid lease duration\");\n        \n        leaseCounter++;\n        \n        LeaseAgreement memory newLease = LeaseAgreement({\n            id: leaseCounter,\n            propertyId: _propertyId,\n            landlord: msg.sender,\n            tenant: _tenant,\n            monthlyRent: _monthlyRent,\n            securityDeposit: _securityDeposit,\n            startDate: _startDate,\n            endDate: _endDate,\n            isActive: true,\n            createdAt: block.timestamp,\n            previousLeaseId: 0,\n            isRenewal: false\n        });\n        \n        leaseAgreements[leaseCounter] = newLease;\n        tenantLeases[_tenant].push(leaseCounter);\n        landlordLeases[msg.sender].push(leaseCounter);\n        \n        emit LeaseCreated(leaseCounter, _propertyId, msg.sender, _tenant);\n        return leaseCounter;\n    }\n    \n    // Function to pay rent or security deposit\n    function makePayment(uint256 _leaseId, string memory _transactionType) external payable {\n        LeaseAgreement memory lease = leaseAgreements[_leaseId];\n        require(lease.isActive, \"Lease is not active\");\n        require(lease.tenant == msg.sender, \"Not the tenant of this lease\");\n        \n        uint256 requiredAmount = 0;\n        \n        if (keccak256(bytes(_transactionType)) == keccak256(bytes(\"RENT\"))) {\n            requiredAmount = lease.monthlyRent;\n        } else if (keccak256(bytes(_transactionType)) == keccak256(bytes(\"SECURITY_DEPOSIT\"))) {\n            requiredAmount = lease.securityDeposit;\n        } else {\n            revert(\"Invalid transaction type\");\n        }\n        \n        require(msg.value == requiredAmount, \"Incorrect payment amount\");\n        \n        // Transfer the payment to the landlord\n        payable(lease.landlord).transfer(msg.value);\n        \n        // Record the transaction\n        transactionCounter++;\n        Transaction memory newTransaction = Transaction({\n            id: transactionCounter,\n            leaseId: _leaseId,\n            from: msg.sender,\n            to: lease.landlord,\n            amount: msg.value,\n            transactionType: _transactionType,\n            timestamp: block.timestamp\n        });\n        \n        leaseTransactions[_leaseId].push(newTransaction);\n        \n        emit PaymentReceived(_leaseId, msg.sender, lease.landlord, msg.value, _transactionType);\n    }\n    \n    // Function to terminate a lease\n    function terminateLease(uint256 _leaseId) external onlyPropertyOwner(leaseAgreements[_leaseId].propertyId) {\n        require(leaseAgreements[_leaseId].isActive, \"Lease is not active\");\n        leaseAgreements[_leaseId].isActive = false;\n    }\n    \n    // Check if a lease is expiring soon\n    function checkLeaseExpiration(uint256 _leaseId) external view returns (bool isExpiring, uint256 daysRemaining) {\n        LeaseAgreement memory lease = leaseAgreements[_leaseId];\n        require(lease.id > 0, \"Lease does not exist\");\n        \n        // If lease is not active, it's already expired or terminated\n        if (!lease.isActive) {\n            return (false, 0);\n        }\n        \n        uint256 currentTime = block.timestamp;\n        \n        // If current time is past end date, lease has expired\n        if (currentTime > lease.endDate) {\n            return (true, 0);\n        }\n        \n        // Calculate days remaining (approximate as block timestamps can vary)\n        uint256 timeRemaining = lease.endDate - currentTime;\n        uint256 daysLeft = timeRemaining / 86400; // 86400 seconds in a day\n        \n        // Consider \"expiring soon\" if less than 30 days remaining\n        return (daysLeft < 30, daysLeft);\n    }\n    \n    // Renew a lease agreement\n    function renewLease(\n        uint256 _leaseId,\n        uint256 _newMonthlyRent,\n        uint256 _newSecurityDeposit,\n        uint256 _newEndDate\n    ) external onlyLandlord(_leaseId) returns (uint256) {\n        LeaseAgreement memory oldLease = leaseAgreements[_leaseId];\n        require(oldLease.isActive, \"Cannot renew an inactive lease\");\n        \n        // End the current lease\n        leaseAgreements[_leaseId].isActive = false;\n        \n        // Create a new lease as a renewal\n        leaseCounter++;\n        \n        LeaseAgreement memory newLease = LeaseAgreement({\n            id: leaseCounter,\n            propertyId: oldLease.propertyId,\n            landlord: oldLease.landlord,\n            tenant: oldLease.tenant,\n            monthlyRent: _newMonthlyRent,\n            securityDeposit: _newSecurityDeposit,\n            startDate: oldLease.endDate, // Start new lease when old one ends\n            endDate: _newEndDate,\n            isActive: true,\n            createdAt: block.timestamp,\n            previousLeaseId: _leaseId,\n            isRenewal: true\n        });\n        \n        leaseAgreements[leaseCounter] = newLease;\n        tenantLeases[oldLease.tenant].push(leaseCounter);\n        landlordLeases[msg.sender].push(leaseCounter);\n        \n        // Record the renewal relationship\n        renewedLeases[_leaseId] = leaseCounter;\n        \n        emit LeaseRenewed(_leaseId, leaseCounter, _newEndDate);\n        return leaseCounter;\n    }\n    \n    // FUNCTION: Get all expiring leases for a landlord (within 30 days)\n    function getExpiringLeases(address _landlord) external view returns (uint256[] memory) {\n        uint256[] memory landlordLeaseList = landlordLeases[_landlord];\n        uint256 count = 0;\n        \n        // First, count expiring leases\n        for (uint i = 0; i < landlordLeaseList.length; i++) {\n            uint256 leaseId = landlordLeaseList[i];\n            LeaseAgreement memory lease = leaseAgreements[leaseId];\n            \n            if (lease.isActive && lease.endDate <= block.timestamp + 30 days && lease.endDate > block.timestamp) {\n                count++;\n            }\n        }\n        \n        // Create array of correct size\n        uint256[] memory expiringLeases = new uint256[](count);\n        uint256 index = 0;\n        \n        // Populate array with expiring lease IDs\n        for (uint i = 0; i < landlordLeaseList.length; i++) {\n            uint256 leaseId = landlordLeaseList[i];\n            LeaseAgreement memory lease = leaseAgreements[leaseId];\n            \n            if (lease.isActive && lease.endDate <= block.timestamp + 30 days && lease.endDate > block.timestamp) {\n                expiringLeases[index] = leaseId;\n                index++;\n            }\n        }\n        \n        return expiringLeases;\n    }\n    \n    //FUNCTION: Get renewal history of a lease\n    function getLeaseRenewalHistory(uint256 _leaseId) external view returns (uint256[] memory) {\n        // Start with current lease\n        uint256 currentLeaseId = _leaseId;\n        uint256 historyLength = 0;\n        \n        // First, count the history length\n        while (leaseAgreements[currentLeaseId].previousLeaseId != 0) {\n            historyLength++;\n            currentLeaseId = leaseAgreements[currentLeaseId].previousLeaseId;\n        }\n        \n        // Create array of history\n        uint256[] memory history = new uint256[](historyLength + 1);\n        \n        // Populate history array (most recent first)\n        currentLeaseId = _leaseId;\n        for (uint i = 0; i <= historyLength; i++) {\n            history[i] = currentLeaseId;\n            if (i < historyLength) {\n                currentLeaseId = leaseAgreements[currentLeaseId].previousLeaseId;\n            }\n        }\n        \n        return history;\n    }\n    \n     //NEW: Function to list a property for sale\n    function listPropertyForSale(uint256 _propertyId, uint256 _price) external onlyPropertyOwner(_propertyId) onlyApprovedProperty(_propertyId) {\n        require(properties[_propertyId].isActive, \"Property is not active\");\n        require(_price > 0, \"Sale price must be greater than zero\");\n        \n        // Check if the property has any active leases - prevent sale if there are active leases\n        uint256[] memory landlordLeaseList = landlordLeases[msg.sender];\n        for (uint i = 0; i < landlordLeaseList.length; i++) {\n            LeaseAgreement memory lease = leaseAgreements[landlordLeaseList[i]];\n            if (lease.propertyId == _propertyId && lease.isActive) {\n                revert(\"Cannot list property for sale with active lease\");\n            }\n        }\n        \n        // Mark property as for sale\n        properties[_propertyId].isForSale = true;\n        properties[_propertyId].salePrice = _price;\n        \n        emit PropertyListedForSale(_propertyId, _price);\n    }\n\n\n // NEW: Function to cancel property listing\n    function cancelPropertySale(uint256 _propertyId) external onlyPropertyOwner(_propertyId) {\n        require(properties[_propertyId].isForSale, \"Property is not listed for sale\");\n        \n        properties[_propertyId].isForSale = false;\n        properties[_propertyId].salePrice = 0;\n        \n        emit PropertySaleCancelled(_propertyId);\n    }\n    \n    // NEW: Function to initiate property purchase\n    function initiatePropertyPurchase(uint256 _propertyId) external payable {\n        Property memory property = properties[_propertyId];\n        require(property.isActive, \"Property is not active\");\n        require(property.isForSale, \"Property is not for sale\");\n        require(property.owner != msg.sender, \"Owner cannot buy their own property\");\n        require(msg.value == property.salePrice, \"Incorrect payment amount\");\n        \n        // Create sale record\n        saleCounter++;\n        PropertySale memory newSale = PropertySale({\n            id: saleCounter,\n            propertyId: _propertyId,\n            seller: property.owner,\n            buyer: msg.sender,\n            salePrice: property.salePrice,\n            timestamp: block.timestamp,\n            completed: false\n        });\n        \n        propertySales[saleCounter] = newSale;\n        \n        // Transfer the payment to the seller\n        payable(property.owner).transfer(msg.value);\n        \n        // Record the transaction\n        transactionCounter++;\n        Transaction memory newTransaction = Transaction({\n            id: transactionCounter,\n            leaseId: 0, // Not related to a lease\n            from: msg.sender,\n            to: property.owner,\n            amount: msg.value,\n            transactionType: \"PROPERTY_SALE\",\n            timestamp: block.timestamp\n        });\n        \n        // Store the transaction under a dummy lease ID that represents property sales\n        leaseTransactions[_propertyId].push(newTransaction);\n        \n        emit PropertySaleInitiated(saleCounter, _propertyId, property.owner, msg.sender, property.salePrice);\n        \n        // Complete the property transfer\n        _completePropertyTransfer(_propertyId, property.owner, msg.sender, saleCounter);\n    }\n    \n    // Internal function to complete property transfer\n    function _completePropertyTransfer(\n        uint256 _propertyId, \n        address _previousOwner, \n        address _newOwner,\n        uint256 _saleId\n    ) internal {\n        // Update property ownership\n        properties[_propertyId].owner = _newOwner;\n        properties[_propertyId].isForSale = false;\n        properties[_propertyId].salePrice = 0;\n        \n        // Remove from previous owner's list and add to new owner's list\n        uint256[] storage previousOwnerProperties = ownerProperties[_previousOwner];\n        uint256[] storage newOwnerProperties = ownerProperties[_newOwner];\n        \n        // Find and remove from previous owner\n        for (uint i = 0; i < previousOwnerProperties.length; i++) {\n            if (previousOwnerProperties[i] == _propertyId) {\n                // Replace with the last element and pop\n                previousOwnerProperties[i] = previousOwnerProperties[previousOwnerProperties.length - 1];\n                previousOwnerProperties.pop();\n                break;\n            }\n        }\n        \n        // Add to new owner\n        newOwnerProperties.push(_propertyId);\n        \n        // Record transfer in history\n        propertyTransferHistory[_propertyId].push(_saleId);\n        \n        // Mark sale as completed\n        propertySales[_saleId].completed = true;\n        \n        emit PropertySaleCompleted(_saleId, _propertyId, _newOwner);\n    }\n    \n    // NEW: Function to get properties for sale\n    function getPropertiesForSale() external view returns (uint256[] memory) {\n        uint256 count = 0;\n        \n        // First, count properties for sale\n        for (uint i = 1; i <= propertyCounter; i++) {\n            if (properties[i].isForSale) {\n                count++;\n            }\n        }\n        \n        // Create array of correct size\n        uint256[] memory forSaleProperties = new uint256[](count);\n        uint256 index = 0;\n        \n        // Populate array with property IDs\n        for (uint i = 1; i <= propertyCounter; i++) {\n            if (properties[i].isForSale) {\n                forSaleProperties[index] = i;\n                index++;\n            }\n        }\n        \n        return forSaleProperties;\n    }\n    \n    // NEW: Function to get property transfer history\n    function getPropertyTransferHistory(uint256 _propertyId) external view returns (uint256[] memory) {\n        return propertyTransferHistory[_propertyId];\n    }\n    \n    // NEW: Function to get property sale details\n    function getPropertySale(uint256 _saleId) external view returns (PropertySale memory) {\n        return propertySales[_saleId];\n    }\n    \n\n    // Getter functions\n    function getPropertyById(uint256 _propertyId) external view returns (Property memory) {\n        return properties[_propertyId];\n    }\n    \n    function getOwnerProperties(address _owner) external view returns (uint256[] memory) {\n        return ownerProperties[_owner];\n    }\n    \n    function getLeaseById(uint256 _leaseId) external view returns (LeaseAgreement memory) {\n        return leaseAgreements[_leaseId];\n    }\n    \n    function getTenantLeases(address _tenant) external view returns (uint256[] memory) {\n        return tenantLeases[_tenant];\n    }\n    \n    function getLandlordLeases(address _landlord) external view returns (uint256[] memory) {\n        return landlordLeases[_landlord];\n    }\n    \n    function getLeaseTransactions(uint256 _leaseId) external view onlyLandlordOrTenant(_leaseId) returns (Transaction[] memory) {\n        return leaseTransactions[_leaseId];\n    }\n\n    // Function to start an auction for a property\n    function startAuction(\n        uint256 _propertyId,\n        uint256 _startingPrice,\n        uint256 _durationInSeconds\n    ) external onlyPropertyOwner(_propertyId) onlyApprovedProperty(_propertyId) {\n        Property storage property = properties[_propertyId];\n        require(property.isActive, \"Property is not active\");\n        require(!property.onAuction, \"Property is already on auction\");\n        require(!property.isForSale, \"Property is already listed for sale\");\n        require(_startingPrice > 0, \"Starting price must be greater than 0\");\n        require(_durationInSeconds >= 1 hours, \"Auction duration must be at least 1 hour\");\n        require(_durationInSeconds <= 30 days, \"Auction duration cannot exceed 30 days\");\n        \n        // Check if property has any active leases\n        uint256[] memory landlordLeaseList = landlordLeases[msg.sender];\n        for (uint i = 0; i < landlordLeaseList.length; i++) {\n            LeaseAgreement memory lease = leaseAgreements[landlordLeaseList[i]];\n            if (lease.propertyId == _propertyId && lease.isActive) {\n                revert(\"Cannot auction property with active lease\");\n            }\n        }\n\n        property.onAuction = true;\n        property.auctionEndTime = block.timestamp + _durationInSeconds;\n        property.highestBid = _startingPrice;\n        property.highestBidder = address(0);\n        property.auctionEnded = false;\n\n        auctions[_propertyId] = Auction({\n            propertyId: _propertyId,\n            startingPrice: _startingPrice,\n            highestBid: _startingPrice,\n            highestBidder: address(0),\n            auctionEndTime: block.timestamp + _durationInSeconds,\n            ended: false,\n            exists: true\n        });\n\n        emit AuctionStarted(_propertyId, _startingPrice, _durationInSeconds);\n    }\n\n    // Function to place a bid on a property\n    function placeBid(uint256 _propertyId) external payable nonReentrant {\n        Property storage property = properties[_propertyId];\n        require(property.onAuction, \"Property is not on auction\");\n        require(block.timestamp < property.auctionEndTime, \"Auction already ended\");\n        require(msg.value > property.highestBid, \"Bid must be higher than current highest bid\");\n        require(msg.sender != property.owner, \"Owner cannot bid on their own property\");\n\n        // Update previous highest bidder's status to \"OUTBID\"\n        if (property.highestBidder != address(0)) {\n            pendingReturns[_propertyId][property.highestBidder] += property.highestBid;\n            \n            // Update previous bidder's last bid status to \"OUTBID\"\n            UserBid[] storage previousBidderHistory = userBidHistory[property.highestBidder];\n            for (uint256 i = previousBidderHistory.length; i > 0; i--) {\n                if (previousBidderHistory[i-1].propertyId == _propertyId && \n                    keccak256(bytes(previousBidderHistory[i-1].status)) == keccak256(bytes(\"ACTIVE\"))) {\n                    previousBidderHistory[i-1].status = \"OUTBID\";\n                    break;\n                }\n            }\n        }\n\n        property.highestBidder = msg.sender;\n        property.highestBid = msg.value;\n\n        // Update auction details\n        Auction storage auction = auctions[_propertyId];\n        auction.highestBidder = msg.sender;\n        auction.highestBid = msg.value;\n\n        // Add user to auction participants if not already there\n        address[] storage participants = auctionParticipants[_propertyId];\n        bool isNewParticipant = true;\n        for (uint256 i = 0; i < participants.length; i++) {\n            if (participants[i] == msg.sender) {\n                isNewParticipant = false;\n                break;\n            }\n        }\n        if (isNewParticipant) {\n            participants.push(msg.sender);\n        }\n\n        // Record the bid in user's history\n        userBidHistory[msg.sender].push(UserBid({\n            propertyId: _propertyId,\n            bidAmount: msg.value,\n            timestamp: block.timestamp,\n            status: \"ACTIVE\",\n            withdrawn: false\n        }));\n\n        emit BidPlaced(_propertyId, msg.sender, msg.value);\n    }\n\n    // Function to withdraw a bid that was outbid\n    function withdrawBid(uint256 _propertyId) external nonReentrant {\n        uint256 amount = pendingReturns[_propertyId][msg.sender];\n        require(amount > 0, \"No funds to withdraw\");\n\n        pendingReturns[_propertyId][msg.sender] = 0;\n\n        (bool success, ) = payable(msg.sender).call{value: amount}(\"\");\n        require(success, \"Transfer failed\");\n\n        emit BidWithdrawn(_propertyId, msg.sender, amount);\n    }\n\n    // Function to end an auction (can be ended early by owner)\n    function endAuction(uint256 _propertyId) external nonReentrant {\n        Property storage property = properties[_propertyId];\n        Auction storage auction = auctions[_propertyId];\n        \n        require(property.onAuction, \"No active auction\");\n        require(!property.auctionEnded, \"Auction already ended\");\n        \n        // Allow owner to end early, others must wait for auction end time\n        if (msg.sender != property.owner) {\n            require(block.timestamp >= property.auctionEndTime, \"Auction still in progress\");\n            require(msg.sender == property.highestBidder, \"Only owner or highest bidder can end auction\");\n        }\n\n        property.auctionEnded = true;\n        property.onAuction = false;\n        auction.ended = true;\n\n        if (property.highestBidder != address(0)) {\n            // Update winner's bid status to \"WON\"\n            UserBid[] storage winnerHistory = userBidHistory[property.highestBidder];\n            for (uint256 i = winnerHistory.length; i > 0; i--) {\n                if (winnerHistory[i-1].propertyId == _propertyId && \n                    keccak256(bytes(winnerHistory[i-1].status)) == keccak256(bytes(\"ACTIVE\"))) {\n                    winnerHistory[i-1].status = \"WON\";\n                    break;\n                }\n            }\n\n            // Transfer ownership\n            address previousOwner = property.owner;\n            property.owner = property.highestBidder;\n\n            // Remove property from previous owner's list\n            uint256[] storage previousOwnerProperties = ownerProperties[previousOwner];\n            for (uint256 i = 0; i < previousOwnerProperties.length; i++) {\n                if (previousOwnerProperties[i] == _propertyId) {\n                    previousOwnerProperties[i] = previousOwnerProperties[previousOwnerProperties.length - 1];\n                    previousOwnerProperties.pop();\n                    break;\n                }\n            }\n\n            // Add property to new owner's list\n            ownerProperties[property.highestBidder].push(_propertyId);\n\n            // Record auction transfer in history\n            auctionTransferCounter++;\n            AuctionTransfer memory newTransfer = AuctionTransfer({\n                id: auctionTransferCounter,\n                propertyId: _propertyId,\n                previousOwner: previousOwner,\n                newOwner: property.highestBidder,\n                transferPrice: property.highestBid,\n                timestamp: block.timestamp\n            });\n            auctionTransfers[auctionTransferCounter] = newTransfer;\n            propertyAuctionHistory[_propertyId].push(auctionTransferCounter);\n\n            // Transfer the highest bid to the previous owner\n            (bool success, ) = payable(previousOwner).call{value: property.highestBid}(\"\");\n            require(success, \"Transfer to previous owner failed\");\n\n            emit AuctionEnded(_propertyId, property.highestBidder, property.highestBid);\n        } else {\n            emit AuctionEnded(_propertyId, address(0), 0);\n        }\n    }\n\n    // Function to cancel an auction (only owner, refunds all bidders)\n    function cancelAuction(uint256 _propertyId) external nonReentrant {\n        Property storage property = properties[_propertyId];\n        Auction storage auction = auctions[_propertyId];\n        \n        require(property.onAuction, \"No active auction\");\n        require(!property.auctionEnded, \"Auction already ended\");\n        require(msg.sender == property.owner, \"Only property owner can cancel auction\");\n        \n        // Mark auction as ended/cancelled\n        property.auctionEnded = true;\n        property.onAuction = false;\n        auction.ended = true;\n        \n        // Update all participants' bid statuses to \"CANCELLED\"\n        address[] storage participants = auctionParticipants[_propertyId];\n        for (uint256 j = 0; j < participants.length; j++) {\n            UserBid[] storage participantHistory = userBidHistory[participants[j]];\n            for (uint256 i = participantHistory.length; i > 0; i--) {\n                if (participantHistory[i-1].propertyId == _propertyId && \n                    (keccak256(bytes(participantHistory[i-1].status)) == keccak256(bytes(\"ACTIVE\")) ||\n                     keccak256(bytes(participantHistory[i-1].status)) == keccak256(bytes(\"OUTBID\")))) {\n                    participantHistory[i-1].status = \"CANCELLED\";\n                }\n            }\n        }\n        \n        uint256 totalRefunded = 0;\n        \n        // Refund the highest bidder if there is one\n        if (property.highestBidder != address(0)) {\n            uint256 highestBidAmount = property.highestBid;\n            address highestBidderAddress = property.highestBidder;\n            \n            // Clear the highest bid first to prevent reentrancy\n            property.highestBidder = address(0);\n            property.highestBid = 0;\n            auction.highestBidder = address(0);\n            auction.highestBid = 0;\n            \n            // Refund the highest bidder\n            (bool success, ) = payable(highestBidderAddress).call{value: highestBidAmount}(\"\");\n            require(success, \"Failed to refund highest bidder\");\n            \n            totalRefunded += highestBidAmount;\n        }\n        \n        // Reset property auction state\n        property.auctionEndTime = 0;\n        \n        emit AuctionCancelled(_propertyId, totalRefunded);\n    }\n\n    // View function to get auction details\n    function getAuctionDetails(uint256 _propertyId) external view returns (\n        bool onAuction,\n        uint256 auctionEndTime,\n        address highestBidder,\n        uint256 highestBid,\n        bool ended\n    ) {\n        Property memory property = properties[_propertyId];\n        return (\n            property.onAuction,\n            property.auctionEndTime,\n            property.highestBidder,\n            property.highestBid,\n            property.auctionEnded\n        );\n    }\n\n    // View function to get pending returns for a bidder\n    function getPendingReturn(uint256 _propertyId, address _bidder) external view returns (uint256) {\n        return pendingReturns[_propertyId][_bidder];\n    }\n\n    // Function to get user's auction history\n    function getUserAuctionHistory(address _user) external view returns (UserBid[] memory) {\n        return userBidHistory[_user];\n    }\n\n    // Function to get user's auction history count\n    function getUserAuctionHistoryCount(address _user) external view returns (uint256) {\n        return userBidHistory[_user].length;\n    }\n\n    // Function to get a range of properties\n    function getProperties(uint256 start, uint256 end) external view returns (Property[] memory) {\n        require(start <= end, \"Invalid range\");\n        require(end <= propertyCounter, \"End index out of bounds\");\n        \n        uint256 size = end - start + 1;\n        Property[] memory result = new Property[](size);\n        \n        for (uint256 i = 0; i < size; i++) {\n            result[i] = properties[start + i];\n        }\n        \n        return result;\n    }\n\n    // Function for notary to approve property\n    function approveProperty(uint256 _propertyId) external onlyNotary {\n        require(_propertyId > 0 && _propertyId <= propertyCounter, \"Invalid property ID\");\n        Property storage property = properties[_propertyId];\n        require(!property.isApproved, \"Property already approved\");\n        \n        property.isApproved = true;\n        property.isActive = true;\n        propertyApprovals[_propertyId] = true;\n        \n        emit PropertyApproved(_propertyId, msg.sender);\n    }\n\n    // Function for notary to reject property\n    function rejectProperty(uint256 _propertyId) external onlyNotary {\n        require(_propertyId > 0 && _propertyId <= propertyCounter, \"Invalid property ID\");\n        Property storage property = properties[_propertyId];\n        require(!property.isApproved, \"Property already approved\");\n        \n        // Remove property from owner's list\n        uint256[] storage ownerProps = ownerProperties[property.owner];\n        for (uint i = 0; i < ownerProps.length; i++) {\n            if (ownerProps[i] == _propertyId) {\n                ownerProps[i] = ownerProps[ownerProps.length - 1];\n                ownerProps.pop();\n                break;\n            }\n        }\n        \n        delete properties[_propertyId];\n        propertyCounter--;\n        \n        emit PropertyRejected(_propertyId, msg.sender);\n    }\n\n    // Function to get pending properties for notary approval\n    function getPendingProperties() external view returns (uint256[] memory) {\n        uint256 pendingCount = 0;\n        \n        // First count pending properties\n        for (uint256 i = 1; i <= propertyCounter; i++) {\n            if (!properties[i].isApproved && properties[i].owner != address(0)) {\n                pendingCount++;\n            }\n        }\n        \n        // Create array of correct size\n        uint256[] memory pendingProperties = new uint256[](pendingCount);\n        uint256 index = 0;\n        \n        // Fill array with pending property IDs\n        for (uint256 i = 1; i <= propertyCounter; i++) {\n            if (!properties[i].isApproved && properties[i].owner != address(0)) {\n                pendingProperties[index] = i;\n                index++;\n            }\n        }\n        \n        return pendingProperties;\n    }\n\n    // Function to get all leases for a specific property\n    function getPropertyLeases(uint256 _propertyId) external view returns (uint256[] memory) {\n        uint256 leaseCount = 0;\n        \n        // Count leases for this property\n        for (uint256 i = 1; i <= leaseCounter; i++) {\n            if (leaseAgreements[i].propertyId == _propertyId) {\n                leaseCount++;\n            }\n        }\n        \n        // Create array of correct size\n        uint256[] memory propertyLeaseIds = new uint256[](leaseCount);\n        uint256 index = 0;\n        \n        // Fill array with lease IDs for this property\n        for (uint256 i = 1; i <= leaseCounter; i++) {\n            if (leaseAgreements[i].propertyId == _propertyId) {\n                propertyLeaseIds[index] = i;\n                index++;\n            }\n        }\n        \n        return propertyLeaseIds;\n    }\n    \n    // Function to get lease details by lease ID (public access for transparency)\n    function getLeaseDetails(uint256 _leaseId) external view returns (\n        uint256 propertyId,\n        address landlord,\n        address tenant,\n        uint256 monthlyRent,\n        uint256 securityDeposit,\n        uint256 startDate,\n        uint256 endDate,\n        bool isActive,\n        uint256 createdAt,\n        bool isRenewal\n    ) {\n        LeaseAgreement memory lease = leaseAgreements[_leaseId];\n        return (\n            lease.propertyId,\n            lease.landlord,\n            lease.tenant,\n            lease.monthlyRent,\n            lease.securityDeposit,\n            lease.startDate,\n            lease.endDate,\n            lease.isActive,\n            lease.createdAt,\n            lease.isRenewal\n        );\n    }\n    \n    // Function to get property ownership history through sale and auction records\n    function getPropertyOwnershipHistory(uint256 _propertyId) external view returns (\n        address[] memory owners,\n        uint256[] memory transferDates,\n        uint256[] memory salePrices\n    ) {\n        uint256[] memory saleIds = propertyTransferHistory[_propertyId];\n        uint256[] memory auctionIds = propertyAuctionHistory[_propertyId];\n        uint256 totalTransfers = saleIds.length + auctionIds.length;\n        \n        if (totalTransfers == 0) {\n            // Property has never been transferred, only original owner\n            address[] memory ownerHistory = new address[](1);\n            uint256[] memory dates = new uint256[](1);\n            uint256[] memory prices = new uint256[](1);\n            \n            ownerHistory[0] = properties[_propertyId].owner;\n            dates[0] = properties[_propertyId].createdAt;\n            prices[0] = 0; // Original registration, no sale price\n            \n            return (ownerHistory, dates, prices);\n        }\n        \n        // For simple case: current owner + original owner (most common case)\n        if (totalTransfers == 1) {\n            address[] memory ownerHistory = new address[](2);\n            uint256[] memory dates = new uint256[](2);\n            uint256[] memory prices = new uint256[](2);\n            \n            // Current owner (index 0)\n            ownerHistory[0] = properties[_propertyId].owner;\n            \n            // Original owner (index 1)\n            address originalOwner;\n            if (auctionIds.length > 0) {\n                AuctionTransfer memory transfer = auctionTransfers[auctionIds[0]];\n                dates[0] = transfer.timestamp;\n                prices[0] = transfer.transferPrice;\n                originalOwner = transfer.previousOwner;\n            } else if (saleIds.length > 0) {\n                PropertySale memory sale = propertySales[saleIds[0]];\n                dates[0] = sale.timestamp;\n                prices[0] = sale.salePrice;\n                originalOwner = sale.seller;\n            }\n            \n            ownerHistory[1] = originalOwner;\n            dates[1] = properties[_propertyId].createdAt;\n            prices[1] = 0; // Original registration, no sale price\n            \n            return (ownerHistory, dates, prices);\n        }\n        \n        // For complex case with multiple transfers\n        address[] memory ownerHistory = new address[](totalTransfers + 1);\n        uint256[] memory dates = new uint256[](totalTransfers + 1);\n        uint256[] memory prices = new uint256[](totalTransfers + 1);\n        \n        uint256 index = 0;\n        \n        // 1. Current owner\n        ownerHistory[index] = properties[_propertyId].owner;\n        \n        // Get most recent transfer details\n        if (auctionIds.length > 0) {\n            AuctionTransfer memory recentTransfer = auctionTransfers[auctionIds[auctionIds.length - 1]];\n            dates[index] = recentTransfer.timestamp;\n            prices[index] = recentTransfer.transferPrice;\n        } else if (saleIds.length > 0) {\n            PropertySale memory recentSale = propertySales[saleIds[saleIds.length - 1]];\n            dates[index] = recentSale.timestamp;\n            prices[index] = recentSale.salePrice;\n        }\n        index++;\n        \n        // 2. Add all intermediate previous owners\n        // Add auction winners (excluding the most recent one)\n        for (int256 i = int256(auctionIds.length) - 2; i >= 0; i--) {\n            AuctionTransfer memory transfer = auctionTransfers[auctionIds[uint256(i)]];\n            ownerHistory[index] = transfer.newOwner;\n            dates[index] = transfer.timestamp;\n            prices[index] = transfer.transferPrice;\n            index++;\n        }\n        \n        // Add sale buyers (excluding the most recent one)\n        for (int256 i = int256(saleIds.length) - 2; i >= 0; i--) {\n            PropertySale memory sale = propertySales[saleIds[uint256(i)]];\n            ownerHistory[index] = sale.buyer;\n            dates[index] = sale.timestamp;\n            prices[index] = sale.salePrice;\n            index++;\n        }\n        \n        // 3. Original owner (last entry)\n        address originalOwner;\n        if (auctionIds.length > 0) {\n            AuctionTransfer memory firstTransfer = auctionTransfers[auctionIds[0]];\n            originalOwner = firstTransfer.previousOwner;\n        } else if (saleIds.length > 0) {\n            PropertySale memory firstSale = propertySales[saleIds[0]];\n            originalOwner = firstSale.seller;\n        }\n        \n        ownerHistory[index] = originalOwner;\n        dates[index] = properties[_propertyId].createdAt;\n        prices[index] = 0; // Original registration\n        \n        return (ownerHistory, dates, prices);\n    }\n\n    // Modify existing property-related functions to check for approval\n    modifier onlyApprovedProperty(uint256 _propertyId) {\n        require(properties[_propertyId].isApproved, \"Property not approved by notary\");\n        _;\n    }\n}",
  "sourcePath": "C:\\Users\\nezha\\Downloads\\smart-propert-managment-dapp\\contracts\\PropertyManagement.sol",
  "compiler": {
    "name": "solc",
    "version": "0.8.21+commit.d9974bed.Emscripten.clang"
  },
  "schemaVersion": "3.4.16",
  "updatedAt": "2025-06-11T02:22:15.510Z",
  "networkType": "ethereum",
  "devdoc": {
    "kind": "dev",
    "methods": {},
    "version": 1
  },
  "userdoc": {
    "kind": "user",
    "methods": {},
    "version": 1
  }
}