{
  "contractName": "PropertyManagement",
  "abi": [
    {
      "inputs": [],
      "stateMutability": "nonpayable",
      "type": "constructor"
    },
    {
      "anonymous": false,
      "inputs": [
        {
          "indexed": true,
          "internalType": "uint256",
          "name": "propertyId",
          "type": "uint256"
        },
        {
          "indexed": false,
          "internalType": "uint256",
          "name": "refundedAmount",
          "type": "uint256"
        }
      ],
      "name": "AuctionCancelled",
      "type": "event"
    },
    {
      "anonymous": false,
      "inputs": [
        {
          "indexed": true,
          "internalType": "uint256",
          "name": "propertyId",
          "type": "uint256"
        },
        {
          "indexed": false,
          "internalType": "address",
          "name": "winner",
          "type": "address"
        },
        {
          "indexed": false,
          "internalType": "uint256",
          "name": "amount",
          "type": "uint256"
        }
      ],
      "name": "AuctionEnded",
      "type": "event"
    },
    {
      "anonymous": false,
      "inputs": [
        {
          "indexed": true,
          "internalType": "uint256",
          "name": "propertyId",
          "type": "uint256"
        },
        {
          "indexed": false,
          "internalType": "uint256",
          "name": "startingPrice",
          "type": "uint256"
        },
        {
          "indexed": false,
          "internalType": "uint256",
          "name": "duration",
          "type": "uint256"
        }
      ],
      "name": "AuctionStarted",
      "type": "event"
    },
    {
      "anonymous": false,
      "inputs": [
        {
          "indexed": true,
          "internalType": "uint256",
          "name": "propertyId",
          "type": "uint256"
        },
        {
          "indexed": true,
          "internalType": "address",
          "name": "bidder",
          "type": "address"
        },
        {
          "indexed": false,
          "internalType": "uint256",
          "name": "amount",
          "type": "uint256"
        }
      ],
      "name": "BidPlaced",
      "type": "event"
    },
    {
      "anonymous": false,
      "inputs": [
        {
          "indexed": true,
          "internalType": "uint256",
          "name": "propertyId",
          "type": "uint256"
        },
        {
          "indexed": true,
          "internalType": "address",
          "name": "bidder",
          "type": "address"
        },
        {
          "indexed": false,
          "internalType": "uint256",
          "name": "amount",
          "type": "uint256"
        }
      ],
      "name": "BidWithdrawn",
      "type": "event"
    },
    {
      "anonymous": false,
      "inputs": [
        {
          "indexed": false,
          "internalType": "uint256",
          "name": "leaseId",
          "type": "uint256"
        },
        {
          "indexed": false,
          "internalType": "uint256",
          "name": "propertyId",
          "type": "uint256"
        },
        {
          "indexed": false,
          "internalType": "address",
          "name": "landlord",
          "type": "address"
        },
        {
          "indexed": false,
          "internalType": "address",
          "name": "tenant",
          "type": "address"
        }
      ],
      "name": "LeaseCreated",
      "type": "event"
    },
    {
      "anonymous": false,
      "inputs": [
        {
          "indexed": false,
          "internalType": "uint256",
          "name": "leaseId",
          "type": "uint256"
        },
        {
          "indexed": false,
          "internalType": "uint256",
          "name": "daysRemaining",
          "type": "uint256"
        }
      ],
      "name": "LeaseExpiringSoon",
      "type": "event"
    },
    {
      "anonymous": false,
      "inputs": [
        {
          "indexed": false,
          "internalType": "uint256",
          "name": "oldLeaseId",
          "type": "uint256"
        },
        {
          "indexed": false,
          "internalType": "uint256",
          "name": "newLeaseId",
          "type": "uint256"
        },
        {
          "indexed": false,
          "internalType": "uint256",
          "name": "newEndDate",
          "type": "uint256"
        }
      ],
      "name": "LeaseRenewed",
      "type": "event"
    },
    {
      "anonymous": false,
      "inputs": [
        {
          "indexed": false,
          "internalType": "uint256",
          "name": "leaseId",
          "type": "uint256"
        },
        {
          "indexed": false,
          "internalType": "address",
          "name": "from",
          "type": "address"
        },
        {
          "indexed": false,
          "internalType": "address",
          "name": "to",
          "type": "address"
        },
        {
          "indexed": false,
          "internalType": "uint256",
          "name": "amount",
          "type": "uint256"
        },
        {
          "indexed": false,
          "internalType": "string",
          "name": "transactionType",
          "type": "string"
        }
      ],
      "name": "PaymentReceived",
      "type": "event"
    },
    {
      "anonymous": false,
      "inputs": [
        {
          "indexed": false,
          "internalType": "uint256",
          "name": "propertyId",
          "type": "uint256"
        },
        {
          "indexed": false,
          "internalType": "address",
          "name": "notary",
          "type": "address"
        }
      ],
      "name": "PropertyApproved",
      "type": "event"
    },
    {
      "anonymous": false,
      "inputs": [
        {
          "indexed": false,
          "internalType": "uint256",
          "name": "propertyId",
          "type": "uint256"
        },
        {
          "indexed": false,
          "internalType": "uint256",
          "name": "price",
          "type": "uint256"
        }
      ],
      "name": "PropertyListedForSale",
      "type": "event"
    },
    {
      "anonymous": false,
      "inputs": [
        {
          "indexed": false,
          "internalType": "uint256",
          "name": "propertyId",
          "type": "uint256"
        },
        {
          "indexed": false,
          "internalType": "address",
          "name": "owner",
          "type": "address"
        },
        {
          "indexed": false,
          "internalType": "string",
          "name": "propertyAddress",
          "type": "string"
        }
      ],
      "name": "PropertyRegistered",
      "type": "event"
    },
    {
      "anonymous": false,
      "inputs": [
        {
          "indexed": false,
          "internalType": "uint256",
          "name": "propertyId",
          "type": "uint256"
        },
        {
          "indexed": false,
          "internalType": "address",
          "name": "notary",
          "type": "address"
        }
      ],
      "name": "PropertyRejected",
      "type": "event"
    },
    {
      "anonymous": false,
      "inputs": [
        {
          "indexed": false,
          "internalType": "uint256",
          "name": "propertyId",
          "type": "uint256"
        }
      ],
      "name": "PropertySaleCancelled",
      "type": "event"
    },
    {
      "anonymous": false,
      "inputs": [
        {
          "indexed": false,
          "internalType": "uint256",
          "name": "saleId",
          "type": "uint256"
        },
        {
          "indexed": false,
          "internalType": "uint256",
          "name": "propertyId",
          "type": "uint256"
        },
        {
          "indexed": false,
          "internalType": "address",
          "name": "newOwner",
          "type": "address"
        }
      ],
      "name": "PropertySaleCompleted",
      "type": "event"
    },
    {
      "anonymous": false,
      "inputs": [
        {
          "indexed": false,
          "internalType": "uint256",
          "name": "saleId",
          "type": "uint256"
        },
        {
          "indexed": false,
          "internalType": "uint256",
          "name": "propertyId",
          "type": "uint256"
        },
        {
          "indexed": false,
          "internalType": "address",
          "name": "seller",
          "type": "address"
        },
        {
          "indexed": false,
          "internalType": "address",
          "name": "buyer",
          "type": "address"
        },
        {
          "indexed": false,
          "internalType": "uint256",
          "name": "price",
          "type": "uint256"
        }
      ],
      "name": "PropertySaleInitiated",
      "type": "event"
    },
    {
      "anonymous": false,
      "inputs": [
        {
          "indexed": false,
          "internalType": "uint256",
          "name": "propertyId",
          "type": "uint256"
        },
        {
          "indexed": false,
          "internalType": "address",
          "name": "owner",
          "type": "address"
        },
        {
          "indexed": false,
          "internalType": "string",
          "name": "propertyAddress",
          "type": "string"
        }
      ],
      "name": "PropertySubmitted",
      "type": "event"
    },
    {
      "inputs": [
        {
          "internalType": "uint256",
          "name": "",
          "type": "uint256"
        }
      ],
      "name": "auctions",
      "outputs": [
        {
          "internalType": "uint256",
          "name": "propertyId",
          "type": "uint256"
        },
        {
          "internalType": "uint256",
          "name": "startingPrice",
          "type": "uint256"
        },
        {
          "internalType": "uint256",
          "name": "highestBid",
          "type": "uint256"
        },
        {
          "internalType": "address",
          "name": "highestBidder",
          "type": "address"
        },
        {
          "internalType": "uint256",
          "name": "auctionEndTime",
          "type": "uint256"
        },
        {
          "internalType": "bool",
          "name": "ended",
          "type": "bool"
        },
        {
          "internalType": "bool",
          "name": "exists",
          "type": "bool"
        }
      ],
      "stateMutability": "view",
      "type": "function",
      "constant": true
    },
    {
      "inputs": [
        {
          "internalType": "address",
          "name": "",
          "type": "address"
        },
        {
          "internalType": "uint256",
          "name": "",
          "type": "uint256"
        }
      ],
      "name": "landlordLeases",
      "outputs": [
        {
          "internalType": "uint256",
          "name": "",
          "type": "uint256"
        }
      ],
      "stateMutability": "view",
      "type": "function",
      "constant": true
    },
    {
      "inputs": [
        {
          "internalType": "uint256",
          "name": "",
          "type": "uint256"
        }
      ],
      "name": "leaseAgreements",
      "outputs": [
        {
          "internalType": "uint256",
          "name": "id",
          "type": "uint256"
        },
        {
          "internalType": "uint256",
          "name": "propertyId",
          "type": "uint256"
        },
        {
          "internalType": "address",
          "name": "landlord",
          "type": "address"
        },
        {
          "internalType": "address",
          "name": "tenant",
          "type": "address"
        },
        {
          "internalType": "uint256",
          "name": "monthlyRent",
          "type": "uint256"
        },
        {
          "internalType": "uint256",
          "name": "securityDeposit",
          "type": "uint256"
        },
        {
          "internalType": "uint256",
          "name": "startDate",
          "type": "uint256"
        },
        {
          "internalType": "uint256",
          "name": "endDate",
          "type": "uint256"
        },
        {
          "internalType": "bool",
          "name": "isActive",
          "type": "bool"
        },
        {
          "internalType": "uint256",
          "name": "createdAt",
          "type": "uint256"
        },
        {
          "internalType": "uint256",
          "name": "previousLeaseId",
          "type": "uint256"
        },
        {
          "internalType": "bool",
          "name": "isRenewal",
          "type": "bool"
        }
      ],
      "stateMutability": "view",
      "type": "function",
      "constant": true
    },
    {
      "inputs": [
        {
          "internalType": "uint256",
          "name": "",
          "type": "uint256"
        },
        {
          "internalType": "uint256",
          "name": "",
          "type": "uint256"
        }
      ],
      "name": "leaseTransactions",
      "outputs": [
        {
          "internalType": "uint256",
          "name": "id",
          "type": "uint256"
        },
        {
          "internalType": "uint256",
          "name": "leaseId",
          "type": "uint256"
        },
        {
          "internalType": "address",
          "name": "from",
          "type": "address"
        },
        {
          "internalType": "address",
          "name": "to",
          "type": "address"
        },
        {
          "internalType": "uint256",
          "name": "amount",
          "type": "uint256"
        },
        {
          "internalType": "string",
          "name": "transactionType",
          "type": "string"
        },
        {
          "internalType": "uint256",
          "name": "timestamp",
          "type": "uint256"
        }
      ],
      "stateMutability": "view",
      "type": "function",
      "constant": true
    },
    {
      "inputs": [],
      "name": "notary",
      "outputs": [
        {
          "internalType": "address",
          "name": "",
          "type": "address"
        }
      ],
      "stateMutability": "view",
      "type": "function",
      "constant": true
    },
    {
      "inputs": [
        {
          "internalType": "address",
          "name": "",
          "type": "address"
        },
        {
          "internalType": "uint256",
          "name": "",
          "type": "uint256"
        }
      ],
      "name": "ownerProperties",
      "outputs": [
        {
          "internalType": "uint256",
          "name": "",
          "type": "uint256"
        }
      ],
      "stateMutability": "view",
      "type": "function",
      "constant": true
    },
    {
      "inputs": [
        {
          "internalType": "uint256",
          "name": "",
          "type": "uint256"
        },
        {
          "internalType": "address",
          "name": "",
          "type": "address"
        }
      ],
      "name": "pendingReturns",
      "outputs": [
        {
          "internalType": "uint256",
          "name": "",
          "type": "uint256"
        }
      ],
      "stateMutability": "view",
      "type": "function",
      "constant": true
    },
    {
      "inputs": [
        {
          "internalType": "uint256",
          "name": "",
          "type": "uint256"
        }
      ],
      "name": "properties",
      "outputs": [
        {
          "internalType": "uint256",
          "name": "id",
          "type": "uint256"
        },
        {
          "internalType": "address",
          "name": "owner",
          "type": "address"
        },
        {
          "internalType": "string",
          "name": "propertyAddress",
          "type": "string"
        },
        {
          "internalType": "uint256",
          "name": "size",
          "type": "uint256"
        },
        {
          "internalType": "string",
          "name": "propertyType",
          "type": "string"
        },
        {
          "internalType": "bool",
          "name": "isActive",
          "type": "bool"
        },
        {
          "internalType": "uint256",
          "name": "createdAt",
          "type": "uint256"
        },
        {
          "internalType": "bool",
          "name": "isForSale",
          "type": "bool"
        },
        {
          "internalType": "uint256",
          "name": "salePrice",
          "type": "uint256"
        },
        {
          "internalType": "bool",
          "name": "onAuction",
          "type": "bool"
        },
        {
          "internalType": "uint256",
          "name": "auctionEndTime",
          "type": "uint256"
        },
        {
          "internalType": "address",
          "name": "highestBidder",
          "type": "address"
        },
        {
          "internalType": "uint256",
          "name": "highestBid",
          "type": "uint256"
        },
        {
          "internalType": "bool",
          "name": "auctionEnded",
          "type": "bool"
        },
        {
          "internalType": "bool",
          "name": "isApproved",
          "type": "bool"
        },
        {
          "internalType": "string",
          "name": "documentHash",
          "type": "string"
        }
      ],
      "stateMutability": "view",
      "type": "function",
      "constant": true
    },
    {
      "inputs": [
        {
          "internalType": "uint256",
          "name": "",
          "type": "uint256"
        }
      ],
      "name": "propertyApprovals",
      "outputs": [
        {
          "internalType": "bool",
          "name": "",
          "type": "bool"
        }
      ],
      "stateMutability": "view",
      "type": "function",
      "constant": true
    },
    {
      "inputs": [
        {
          "internalType": "uint256",
          "name": "",
          "type": "uint256"
        }
      ],
      "name": "propertyDocuments",
      "outputs": [
        {
          "internalType": "string",
          "name": "",
          "type": "string"
        }
      ],
      "stateMutability": "view",
      "type": "function",
      "constant": true
    },
    {
      "inputs": [
        {
          "internalType": "uint256",
          "name": "",
          "type": "uint256"
        }
      ],
      "name": "propertySales",
      "outputs": [
        {
          "internalType": "uint256",
          "name": "id",
          "type": "uint256"
        },
        {
          "internalType": "uint256",
          "name": "propertyId",
          "type": "uint256"
        },
        {
          "internalType": "address",
          "name": "seller",
          "type": "address"
        },
        {
          "internalType": "address",
          "name": "buyer",
          "type": "address"
        },
        {
          "internalType": "uint256",
          "name": "salePrice",
          "type": "uint256"
        },
        {
          "internalType": "uint256",
          "name": "timestamp",
          "type": "uint256"
        },
        {
          "internalType": "bool",
          "name": "completed",
          "type": "bool"
        }
      ],
      "stateMutability": "view",
      "type": "function",
      "constant": true
    },
    {
      "inputs": [
        {
          "internalType": "uint256",
          "name": "",
          "type": "uint256"
        },
        {
          "internalType": "uint256",
          "name": "",
          "type": "uint256"
        }
      ],
      "name": "propertyTransferHistory",
      "outputs": [
        {
          "internalType": "uint256",
          "name": "",
          "type": "uint256"
        }
      ],
      "stateMutability": "view",
      "type": "function",
      "constant": true
    },
    {
      "inputs": [
        {
          "internalType": "uint256",
          "name": "",
          "type": "uint256"
        }
      ],
      "name": "renewedLeases",
      "outputs": [
        {
          "internalType": "uint256",
          "name": "",
          "type": "uint256"
        }
      ],
      "stateMutability": "view",
      "type": "function",
      "constant": true
    },
    {
      "inputs": [
        {
          "internalType": "address",
          "name": "",
          "type": "address"
        },
        {
          "internalType": "uint256",
          "name": "",
          "type": "uint256"
        }
      ],
      "name": "tenantLeases",
      "outputs": [
        {
          "internalType": "uint256",
          "name": "",
          "type": "uint256"
        }
      ],
      "stateMutability": "view",
      "type": "function",
      "constant": true
    },
    {
      "inputs": [],
      "name": "getPropertyCounter",
      "outputs": [
        {
          "internalType": "uint256",
          "name": "",
          "type": "uint256"
        }
      ],
      "stateMutability": "view",
      "type": "function",
      "constant": true
    },
    {
      "inputs": [
        {
          "internalType": "string",
          "name": "_propertyAddress",
          "type": "string"
        },
        {
          "internalType": "uint256",
          "name": "_size",
          "type": "uint256"
        },
        {
          "internalType": "string",
          "name": "_propertyType",
          "type": "string"
        },
        {
          "internalType": "string",
          "name": "_documentHash",
          "type": "string"
        }
      ],
      "name": "registerProperty",
      "outputs": [
        {
          "internalType": "uint256",
          "name": "",
          "type": "uint256"
        }
      ],
      "stateMutability": "nonpayable",
      "type": "function"
    },
    {
      "inputs": [
        {
          "internalType": "uint256",
          "name": "_propertyId",
          "type": "uint256"
        },
        {
          "internalType": "address",
          "name": "_tenant",
          "type": "address"
        },
        {
          "internalType": "uint256",
          "name": "_monthlyRent",
          "type": "uint256"
        },
        {
          "internalType": "uint256",
          "name": "_securityDeposit",
          "type": "uint256"
        },
        {
          "internalType": "uint256",
          "name": "_startDate",
          "type": "uint256"
        },
        {
          "internalType": "uint256",
          "name": "_endDate",
          "type": "uint256"
        }
      ],
      "name": "createLeaseAgreement",
      "outputs": [
        {
          "internalType": "uint256",
          "name": "",
          "type": "uint256"
        }
      ],
      "stateMutability": "nonpayable",
      "type": "function"
    },
    {
      "inputs": [
        {
          "internalType": "uint256",
          "name": "_leaseId",
          "type": "uint256"
        },
        {
          "internalType": "string",
          "name": "_transactionType",
          "type": "string"
        }
      ],
      "name": "makePayment",
      "outputs": [],
      "stateMutability": "payable",
      "type": "function",
      "payable": true
    },
    {
      "inputs": [
        {
          "internalType": "uint256",
          "name": "_leaseId",
          "type": "uint256"
        }
      ],
      "name": "terminateLease",
      "outputs": [],
      "stateMutability": "nonpayable",
      "type": "function"
    },
    {
      "inputs": [
        {
          "internalType": "uint256",
          "name": "_leaseId",
          "type": "uint256"
        }
      ],
      "name": "checkLeaseExpiration",
      "outputs": [
        {
          "internalType": "bool",
          "name": "isExpiring",
          "type": "bool"
        },
        {
          "internalType": "uint256",
          "name": "daysRemaining",
          "type": "uint256"
        }
      ],
      "stateMutability": "view",
      "type": "function",
      "constant": true
    },
    {
      "inputs": [
        {
          "internalType": "uint256",
          "name": "_leaseId",
          "type": "uint256"
        },
        {
          "internalType": "uint256",
          "name": "_newMonthlyRent",
          "type": "uint256"
        },
        {
          "internalType": "uint256",
          "name": "_newSecurityDeposit",
          "type": "uint256"
        },
        {
          "internalType": "uint256",
          "name": "_newEndDate",
          "type": "uint256"
        }
      ],
      "name": "renewLease",
      "outputs": [
        {
          "internalType": "uint256",
          "name": "",
          "type": "uint256"
        }
      ],
      "stateMutability": "nonpayable",
      "type": "function"
    },
    {
      "inputs": [
        {
          "internalType": "address",
          "name": "_landlord",
          "type": "address"
        }
      ],
      "name": "getExpiringLeases",
      "outputs": [
        {
          "internalType": "uint256[]",
          "name": "",
          "type": "uint256[]"
        }
      ],
      "stateMutability": "view",
      "type": "function",
      "constant": true
    },
    {
      "inputs": [
        {
          "internalType": "uint256",
          "name": "_leaseId",
          "type": "uint256"
        }
      ],
      "name": "getLeaseRenewalHistory",
      "outputs": [
        {
          "internalType": "uint256[]",
          "name": "",
          "type": "uint256[]"
        }
      ],
      "stateMutability": "view",
      "type": "function",
      "constant": true
    },
    {
      "inputs": [
        {
          "internalType": "uint256",
          "name": "_propertyId",
          "type": "uint256"
        },
        {
          "internalType": "uint256",
          "name": "_price",
          "type": "uint256"
        }
      ],
      "name": "listPropertyForSale",
      "outputs": [],
      "stateMutability": "nonpayable",
      "type": "function"
    },
    {
      "inputs": [
        {
          "internalType": "uint256",
          "name": "_propertyId",
          "type": "uint256"
        }
      ],
      "name": "cancelPropertySale",
      "outputs": [],
      "stateMutability": "nonpayable",
      "type": "function"
    },
    {
      "inputs": [
        {
          "internalType": "uint256",
          "name": "_propertyId",
          "type": "uint256"
        }
      ],
      "name": "initiatePropertyPurchase",
      "outputs": [],
      "stateMutability": "payable",
      "type": "function",
      "payable": true
    },
    {
      "inputs": [],
      "name": "getPropertiesForSale",
      "outputs": [
        {
          "internalType": "uint256[]",
          "name": "",
          "type": "uint256[]"
        }
      ],
      "stateMutability": "view",
      "type": "function",
      "constant": true
    },
    {
      "inputs": [
        {
          "internalType": "uint256",
          "name": "_propertyId",
          "type": "uint256"
        }
      ],
      "name": "getPropertyTransferHistory",
      "outputs": [
        {
          "internalType": "uint256[]",
          "name": "",
          "type": "uint256[]"
        }
      ],
      "stateMutability": "view",
      "type": "function",
      "constant": true
    },
    {
      "inputs": [
        {
          "internalType": "uint256",
          "name": "_saleId",
          "type": "uint256"
        }
      ],
      "name": "getPropertySale",
      "outputs": [
        {
          "components": [
            {
              "internalType": "uint256",
              "name": "id",
              "type": "uint256"
            },
            {
              "internalType": "uint256",
              "name": "propertyId",
              "type": "uint256"
            },
            {
              "internalType": "address",
              "name": "seller",
              "type": "address"
            },
            {
              "internalType": "address",
              "name": "buyer",
              "type": "address"
            },
            {
              "internalType": "uint256",
              "name": "salePrice",
              "type": "uint256"
            },
            {
              "internalType": "uint256",
              "name": "timestamp",
              "type": "uint256"
            },
            {
              "internalType": "bool",
              "name": "completed",
              "type": "bool"
            }
          ],
          "internalType": "struct PropertyManagement.PropertySale",
          "name": "",
          "type": "tuple"
        }
      ],
      "stateMutability": "view",
      "type": "function",
      "constant": true
    },
    {
      "inputs": [
        {
          "internalType": "uint256",
          "name": "_propertyId",
          "type": "uint256"
        }
      ],
      "name": "getPropertyById",
      "outputs": [
        {
          "components": [
            {
              "internalType": "uint256",
              "name": "id",
              "type": "uint256"
            },
            {
              "internalType": "address",
              "name": "owner",
              "type": "address"
            },
            {
              "internalType": "string",
              "name": "propertyAddress",
              "type": "string"
            },
            {
              "internalType": "uint256",
              "name": "size",
              "type": "uint256"
            },
            {
              "internalType": "string",
              "name": "propertyType",
              "type": "string"
            },
            {
              "internalType": "bool",
              "name": "isActive",
              "type": "bool"
            },
            {
              "internalType": "uint256",
              "name": "createdAt",
              "type": "uint256"
            },
            {
              "internalType": "bool",
              "name": "isForSale",
              "type": "bool"
            },
            {
              "internalType": "uint256",
              "name": "salePrice",
              "type": "uint256"
            },
            {
              "internalType": "bool",
              "name": "onAuction",
              "type": "bool"
            },
            {
              "internalType": "uint256",
              "name": "auctionEndTime",
              "type": "uint256"
            },
            {
              "internalType": "address",
              "name": "highestBidder",
              "type": "address"
            },
            {
              "internalType": "uint256",
              "name": "highestBid",
              "type": "uint256"
            },
            {
              "internalType": "bool",
              "name": "auctionEnded",
              "type": "bool"
            },
            {
              "internalType": "bool",
              "name": "isApproved",
              "type": "bool"
            },
            {
              "internalType": "string",
              "name": "documentHash",
              "type": "string"
            }
          ],
          "internalType": "struct PropertyManagement.Property",
          "name": "",
          "type": "tuple"
        }
      ],
      "stateMutability": "view",
      "type": "function",
      "constant": true
    },
    {
      "inputs": [
        {
          "internalType": "address",
          "name": "_owner",
          "type": "address"
        }
      ],
      "name": "getOwnerProperties",
      "outputs": [
        {
          "internalType": "uint256[]",
          "name": "",
          "type": "uint256[]"
        }
      ],
      "stateMutability": "view",
      "type": "function",
      "constant": true
    },
    {
      "inputs": [
        {
          "internalType": "uint256",
          "name": "_leaseId",
          "type": "uint256"
        }
      ],
      "name": "getLeaseById",
      "outputs": [
        {
          "components": [
            {
              "internalType": "uint256",
              "name": "id",
              "type": "uint256"
            },
            {
              "internalType": "uint256",
              "name": "propertyId",
              "type": "uint256"
            },
            {
              "internalType": "address",
              "name": "landlord",
              "type": "address"
            },
            {
              "internalType": "address",
              "name": "tenant",
              "type": "address"
            },
            {
              "internalType": "uint256",
              "name": "monthlyRent",
              "type": "uint256"
            },
            {
              "internalType": "uint256",
              "name": "securityDeposit",
              "type": "uint256"
            },
            {
              "internalType": "uint256",
              "name": "startDate",
              "type": "uint256"
            },
            {
              "internalType": "uint256",
              "name": "endDate",
              "type": "uint256"
            },
            {
              "internalType": "bool",
              "name": "isActive",
              "type": "bool"
            },
            {
              "internalType": "uint256",
              "name": "createdAt",
              "type": "uint256"
            },
            {
              "internalType": "uint256",
              "name": "previousLeaseId",
              "type": "uint256"
            },
            {
              "internalType": "bool",
              "name": "isRenewal",
              "type": "bool"
            }
          ],
          "internalType": "struct PropertyManagement.LeaseAgreement",
          "name": "",
          "type": "tuple"
        }
      ],
      "stateMutability": "view",
      "type": "function",
      "constant": true
    },
    {
      "inputs": [
        {
          "internalType": "address",
          "name": "_tenant",
          "type": "address"
        }
      ],
      "name": "getTenantLeases",
      "outputs": [
        {
          "internalType": "uint256[]",
          "name": "",
          "type": "uint256[]"
        }
      ],
      "stateMutability": "view",
      "type": "function",
      "constant": true
    },
    {
      "inputs": [
        {
          "internalType": "address",
          "name": "_landlord",
          "type": "address"
        }
      ],
      "name": "getLandlordLeases",
      "outputs": [
        {
          "internalType": "uint256[]",
          "name": "",
          "type": "uint256[]"
        }
      ],
      "stateMutability": "view",
      "type": "function",
      "constant": true
    },
    {
      "inputs": [
        {
          "internalType": "uint256",
          "name": "_leaseId",
          "type": "uint256"
        }
      ],
      "name": "getLeaseTransactions",
      "outputs": [
        {
          "components": [
            {
              "internalType": "uint256",
              "name": "id",
              "type": "uint256"
            },
            {
              "internalType": "uint256",
              "name": "leaseId",
              "type": "uint256"
            },
            {
              "internalType": "address",
              "name": "from",
              "type": "address"
            },
            {
              "internalType": "address",
              "name": "to",
              "type": "address"
            },
            {
              "internalType": "uint256",
              "name": "amount",
              "type": "uint256"
            },
            {
              "internalType": "string",
              "name": "transactionType",
              "type": "string"
            },
            {
              "internalType": "uint256",
              "name": "timestamp",
              "type": "uint256"
            }
          ],
          "internalType": "struct PropertyManagement.Transaction[]",
          "name": "",
          "type": "tuple[]"
        }
      ],
      "stateMutability": "view",
      "type": "function",
      "constant": true
    },
    {
      "inputs": [
        {
          "internalType": "uint256",
          "name": "_propertyId",
          "type": "uint256"
        },
        {
          "internalType": "uint256",
          "name": "_startingPrice",
          "type": "uint256"
        },
        {
          "internalType": "uint256",
          "name": "_durationInSeconds",
          "type": "uint256"
        }
      ],
      "name": "startAuction",
      "outputs": [],
      "stateMutability": "nonpayable",
      "type": "function"
    },
    {
      "inputs": [
        {
          "internalType": "uint256",
          "name": "_propertyId",
          "type": "uint256"
        }
      ],
      "name": "placeBid",
      "outputs": [],
      "stateMutability": "payable",
      "type": "function",
      "payable": true
    },
    {
      "inputs": [
        {
          "internalType": "uint256",
          "name": "_propertyId",
          "type": "uint256"
        }
      ],
      "name": "withdrawBid",
      "outputs": [],
      "stateMutability": "nonpayable",
      "type": "function"
    },
    {
      "inputs": [
        {
          "internalType": "uint256",
          "name": "_propertyId",
          "type": "uint256"
        }
      ],
      "name": "endAuction",
      "outputs": [],
      "stateMutability": "nonpayable",
      "type": "function"
    },
    {
      "inputs": [
        {
          "internalType": "uint256",
          "name": "_propertyId",
          "type": "uint256"
        }
      ],
      "name": "cancelAuction",
      "outputs": [],
      "stateMutability": "nonpayable",
      "type": "function"
    },
    {
      "inputs": [
        {
          "internalType": "uint256",
          "name": "_propertyId",
          "type": "uint256"
        }
      ],
      "name": "getAuctionDetails",
      "outputs": [
        {
          "internalType": "bool",
          "name": "onAuction",
          "type": "bool"
        },
        {
          "internalType": "uint256",
          "name": "auctionEndTime",
          "type": "uint256"
        },
        {
          "internalType": "address",
          "name": "highestBidder",
          "type": "address"
        },
        {
          "internalType": "uint256",
          "name": "highestBid",
          "type": "uint256"
        },
        {
          "internalType": "bool",
          "name": "ended",
          "type": "bool"
        }
      ],
      "stateMutability": "view",
      "type": "function",
      "constant": true
    },
    {
      "inputs": [
        {
          "internalType": "uint256",
          "name": "_propertyId",
          "type": "uint256"
        },
        {
          "internalType": "address",
          "name": "_bidder",
          "type": "address"
        }
      ],
      "name": "getPendingReturn",
      "outputs": [
        {
          "internalType": "uint256",
          "name": "",
          "type": "uint256"
        }
      ],
      "stateMutability": "view",
      "type": "function",
      "constant": true
    },
    {
      "inputs": [
        {
          "internalType": "uint256",
          "name": "start",
          "type": "uint256"
        },
        {
          "internalType": "uint256",
          "name": "end",
          "type": "uint256"
        }
      ],
      "name": "getProperties",
      "outputs": [
        {
          "components": [
            {
              "internalType": "uint256",
              "name": "id",
              "type": "uint256"
            },
            {
              "internalType": "address",
              "name": "owner",
              "type": "address"
            },
            {
              "internalType": "string",
              "name": "propertyAddress",
              "type": "string"
            },
            {
              "internalType": "uint256",
              "name": "size",
              "type": "uint256"
            },
            {
              "internalType": "string",
              "name": "propertyType",
              "type": "string"
            },
            {
              "internalType": "bool",
              "name": "isActive",
              "type": "bool"
            },
            {
              "internalType": "uint256",
              "name": "createdAt",
              "type": "uint256"
            },
            {
              "internalType": "bool",
              "name": "isForSale",
              "type": "bool"
            },
            {
              "internalType": "uint256",
              "name": "salePrice",
              "type": "uint256"
            },
            {
              "internalType": "bool",
              "name": "onAuction",
              "type": "bool"
            },
            {
              "internalType": "uint256",
              "name": "auctionEndTime",
              "type": "uint256"
            },
            {
              "internalType": "address",
              "name": "highestBidder",
              "type": "address"
            },
            {
              "internalType": "uint256",
              "name": "highestBid",
              "type": "uint256"
            },
            {
              "internalType": "bool",
              "name": "auctionEnded",
              "type": "bool"
            },
            {
              "internalType": "bool",
              "name": "isApproved",
              "type": "bool"
            },
            {
              "internalType": "string",
              "name": "documentHash",
              "type": "string"
            }
          ],
          "internalType": "struct PropertyManagement.Property[]",
          "name": "",
          "type": "tuple[]"
        }
      ],
      "stateMutability": "view",
      "type": "function",
      "constant": true
    },
    {
      "inputs": [
        {
          "internalType": "uint256",
          "name": "_propertyId",
          "type": "uint256"
        }
      ],
      "name": "approveProperty",
      "outputs": [],
      "stateMutability": "nonpayable",
      "type": "function"
    },
    {
      "inputs": [
        {
          "internalType": "uint256",
          "name": "_propertyId",
          "type": "uint256"
        }
      ],
      "name": "rejectProperty",
      "outputs": [],
      "stateMutability": "nonpayable",
      "type": "function"
    },
    {
      "inputs": [],
      "name": "getPendingProperties",
      "outputs": [
        {
          "internalType": "uint256[]",
          "name": "",
          "type": "uint256[]"
        }
      ],
      "stateMutability": "view",
      "type": "function",
      "constant": true
    }
  ],
  "bytecode": "0x6080806040523461002c5760015f55601080546001600160a01b03191633179055614a1d90816100318239f35b5f80fdfe6080806040526004361015610012575f80fd5b5f3560e01c90816307a7831914613e08575080630bf2d668146138575780630eaaf4c8146137505780630f55415b146134db5780631e7a7dd31461346057806327983fcf146132ae5780632e6f45001461324957806335a4a4731461321a578063383e3e5c14612ebc5780633c95fbe914612cd9578063459a34d614612caf578063480777b114612bee5780634b2f64fb14612bc257806354c6173614612b24578063550252ac14612adb578063571a26a014612a605780635797689414612a17578063588e00a51461299d57806359fe18eb146128785780635df1a883146127c3578063651a7ff3146122ee5780636b7dfd72146122d1578063831b455d146122175780638ddac1ef14610b105780638f48bd5b146121c057806391e078bb14611e6857806396b5a75514611c805780639979ef4514611a8c5780639d54c79d14611a64578063a4cc9408146117b0578063a590fa0b146116c0578063abcf6a24146115b1578063b16aa47014611325578063b827e732146112e7578063b9a2de3a14610fa6578063c2682e9414610ecd578063c8ae3d5d14610bc7578063cb64489714610b54578063d02ef6f914610b10578063d1f8d1ed14610ae1578063de16d2561461079b578063e9b66f8c146106b6578063ee22e51914610515578063f08b6a0314610496578063f20e5e35146103585763f7b1080814610216575f80fd5b34610354576020366003190112610354576004355f908152600560205260409020805460018201546001600160a01b03908116906102566002850161409b565b936003810154926004820161026a9061409b565b600583015460ff16936006840154600785015460ff16600886015490600987015460ff1692600a88015494600b8901541695600c89015497600d8a015499600e016102b49061409b565b9b6040519e8f9e8f93610200918552602085015280604085015283016102d99161400c565b91606001528c80820390608001526102f09161400c565b98151560a08c015260c08b0152151560e08a0152610100890152151561012088015261014087015261016086015261018085015260ff811615156101a085015260081c60ff1615156101c08401528281036101e08401526103509161400c565b0390f35b5f80fd5b34610354576020366003190112610354576004355f52600560205260a060405f2060405161038581613edd565b81548152600180841b03918260018201541660208301526103a86002820161409b565b6040830152600381015460608301526103c36004820161409b565b608083015260ff600582015416151584830152600681015460c083015260ff600782015416151560e0830152600881015461010083015260ff6009820154169161012081019215158352600a82015493610140820194855280600b84015416936101608301948552600c8401549261018081019384526101e0610468600e600d8801549760ff6101a086019981811615158b5260081c1615156101c08601520161409b565b9101525115159451935116905191511515926040519485526020850152604084015260608301526080820152f35b3461035457602080600319360112610354576001600160a01b036104b8613e77565b165f526009815260405f209060405190818184549182815201935f52815f20915f905b8282106104fe57610350856104f281890382613f4b565b60405191829182613ea3565b8354865294850194600193840193909101906104db565b34610354576020366003190112610354575f61016060405161053681613ef9565b8281528260208201528260408201528260608201528260808201528260a08201528260c08201528260e082015282610100820152826101208201528261014082015201526004355f52600760205261018060405f2061016060405161059a81613ef9565b60ff600b8454948584526001810154602085015260018060a01b03600282015416604085015260018060a01b03600382015416606085015260048101546080850152600581015460a0850152600681015460c0850152600781015460e08501528260088201541615156101008501526009810154610120850152600a8101546101408501520154161515828201526040519283526020810151602084015260018060a01b03604082015116604084015260018060a01b0360608201511660608401526080810151608084015260a081015160a084015260c081015160c084015260e081015160e0840152610100810151151561010084015261012081015161012084015261014081015161014084015201511515610160820152f35b34610354576020366003190112610354577fdc4a9e931ddb4ea0e6114226f2a3b598ce4b38bc6976643e3e4e7e7cfd1e165161078a60043561070360018060a01b036010541633146148b9565b8015158061078f575b61071590614911565b805f526005602052600560405f20600d8101610100815461073c60ff8260081c1615614953565b61ff0019161790550160ff1990600182825416179055815f526011602052600160405f20918254161790556040519182913390839092916020906040830194835260018060a01b0316910152565b0390a1005b5060015481111561070c565b346103545760c0366003190112610354576107b4613e8d565b6004355f5260056020526107d860018060a01b03600160405f200154163314614269565b6004355f5260056020526107f860ff600d60405f20015460081c166142ae565b6004355f52600560205261081560ff600560405f200154166142fa565b6004355f52600560205260ff600760405f20015416610a9c576001600160a01b03811615610a5e5760a4356084351015610a205760209061099661085a600254614222565b806002556040519061086b82613ef9565b8082526004358583015233604083015260018060a01b0384166060830152604435608083015260643560a083015260843560c083015260a43560e08301526001610100830152426101208301525f6101408301525f6101608301525f5260078452600b61016060405f2092805184558681015160018501556002840160018060a01b03604083015116906001600160601b0360a01b9182825416179055600385019060018060a01b03606084015116908254161790556080810151600485015560a0810151600585015560c0810151600685015560e081015160078501556109696101008201511515600886019060ff801983541691151516179055565b6101208101516009850155610140810151600a8501550151151591019060ff801983541691151516179055565b6001600160a01b0381165f90815260088352604090206002546109b891614246565b335f52600982526109cf60405f2060025490614246565b7f2609b596223b76ac2bc5e324e9725873cf0fdfe04fa14388b5fae5d1513bc2cd608060025492604051908482526004358683015233604083015260018060a01b03166060820152a1604051908152f35b60405162461bcd60e51b815260206004820152601660248201527524b73b30b634b2103632b0b9b290323ab930ba34b7b760511b6044820152606490fd5b60405162461bcd60e51b8152602060048201526016602482015275496e76616c69642074656e616e74206164647265737360501b6044820152606490fd5b60405162461bcd60e51b815260206004820152601e60248201527f50726f70657274792069732063757272656e746c7920666f722073616c6500006044820152606490fd5b34610354576020366003190112610354576004355f526011602052602060ff60405f2054166040519015158152f35b3461035457604036600319011261035457610b29613e8d565b6004355f52600f60205260405f209060018060a01b03165f52602052602060405f2054604051908152f35b3461035457602080600319360112610354576001600160a01b03610b76613e77565b165f526006815260405f209060405190818184549182815201935f52815f20915f905b828210610bb057610350856104f281890382613f4b565b835486529485019460019384019390910190610b99565b6040366003190112610354576004356024356001600160401b03811161035457610bf5903690600401613f87565b90805f526020906007825260405f2060405193610c1185613ef9565b8154855260018201548486015260018060a01b0394856002840154169260408201938452868060038301541660608401908152610cb06004840154936080860194855260058101549560a08101968752600682015460c0820152600782015460e082015261016060ff600b81600886015416151594856101008601526009810154610120860152600a810154610140860152015416151591015261433f565b51163303610e885782517f2f2a4f12d9b7fed33b6dc1cecd785a4600d27f01f5a127628f563afe70f8c700878501918220631491539560e21b89604051610cf681613f30565b60048152015203610de65750610d109150515b3414614381565b5f8080808886511681903415610ddc575b3491f115610dd1577f62b4265ef816f751a94c5c93fa40a90302c6924509b973ed4094dcf30c6c61ed9461078a92610da6610d5d600354614222565b806003558383511660405191610d7283613f15565b8252878983015233604083015260608201523460808201528460a08201524260c0820152865f52600a885260405f206143cd565b511660405194859485523390850152604084015234606084015260a0608084015260a083019061400c565b6040513d5f823e3d90fd5b6108fc9150610d21565b7fe3d95406626800c6626191b810036eac51d8ba8f60b01114699061bf4548c9c79150835190206f14d150d55492551657d1115413d4d25560821b87604051610e2e81613f30565b60108152015203610e4357610d109051610d09565b60405162461bcd60e51b815260048101869052601860248201527f496e76616c6964207472616e73616374696f6e207479706500000000000000006044820152606490fd5b60405162461bcd60e51b815260048101879052601c60248201527f4e6f74207468652074656e616e74206f662074686973206c65617365000000006044820152606490fd5b34610354576020806003193601126103545760043590815f5260058152610f0460018060a01b03600160405f200154163314614269565b815f526005815260ff600760405f2001541615610f6257817f871a96bcac8326bf82aea94341df252a5ec1dae7cad4187675f9cb6b333282ed925f52600582525f6008604082206007810160ff1981541690550155604051908152a1005b6064906040519062461bcd60e51b82526004820152601f60248201527f50726f7065727479206973206e6f74206c697374656420666f722073616c65006044820152fd5b346103545760208060031936011261035457600435610fc36147f6565b805f526005825260405f2090600e835260405f20916009810193845491610fec60ff8416614879565b600d81019081549561100160ff8816156147b2565b6001968783019560018060a01b039485885416330361122f575b60ff199283168a179055811690985560050180549097168617909655600b860180549596879683169485156111f457805495848716966001600160601b0360a01b16179055845f526006845260405f20875f905b611139575b50508293949596505f80600c81949593829487541683526006895261109c8b60408520614246565b01978854905af16110ab61484a565b50156110ea57917fd2aa34a4fdbbc6dff6a3e56f46e0f3ae2a31d7785ff3487aa5c95c642acea501939160409354169154908351928352820152a25f55005b60405162461bcd60e51b815260048101849052602160248201527f5472616e7366657220746f2070726576696f7573206f776e6572206661696c656044820152601960fa1b6064820152608490fd5b8154808210156111ee578861114e8385613fe3565b919054600392831b1c1461116d57505061116790614222565b8861106f565b919093949596979899505f1984019384116111da575f946111ca846111c5600c946111ad8a99976111a18b9a998b9a613fe3565b9054911b1c9184613fe3565b90919082549060031b91821b915f19901b1916179055565b614701565b9350508998979695949350611074565b634e487b7160e01b5f52601160045260245ffd5b50611074565b505050507fd2aa34a4fdbbc6dff6a3e56f46e0f3ae2a31d7785ff3487aa5c95c642acea501929350604091505f825191818352820152a25f55005b600a85015442106112a25785600b8601541633031561101b5760405162461bcd60e51b815260048101889052602c60248201527f4f6e6c79206f776e6572206f722068696768657374206269646465722063616e60448201526b1032b7321030bab1ba34b7b760a11b6064820152608490fd5b60405162461bcd60e51b815260048101889052601960248201527f41756374696f6e207374696c6c20696e2070726f6772657373000000000000006044820152606490fd5b34610354576020366003190112610354576004355f52601260205261035061131160405f2061409b565b60405191829160208352602083019061400c565b346103545761133336613fcd565b9081811161157c576001918254811161153757816113509161456c565b8281018091116111da5791611364836146b8565b926113726040519485613f4b565b80845261137e816146b8565b60209390601f19015f5b81811061151b5750505f5b8281106113fb5750505060405191808301818452845180915260408401918060408360051b8701019601925f905b8382106113ce5786880387f35b909192939483806113ea839a603f198b8203018652895161413c565b9997019594939190910191016113c1565b8061140c61151392849896986146ab565b5f5260058087526114f2600e60405f206040519361142985613edd565b815485528b8201546001600160a01b039081168c87015261144c6002840161409b565b6040870152600383015460608701526114676004840161409b565b608087015260ff809284015416151560a0870152600683015460c087015281600784015416151560e087015260089081840154610100880152826009850154161515610120880152600a840154610140880152600b84015416610160870152600c830154610180870152600d8301549082821615156101a08801521c1615156101c08501520161409b565b6101e08201526115028287614697565b5261150d8186614697565b50614222565b949294611393565b859061152897959761473e565b82828801015201959395611388565b60405162461bcd60e51b815260206004820152601760248201527f456e6420696e646578206f7574206f6620626f756e64730000000000000000006044820152606490fd5b60405162461bcd60e51b815260206004820152600d60248201526c496e76616c69642072616e676560981b6044820152606490fd5b34610354575f366003190112610354575f6001908154915b8281111561166157506115db906146cf565b905f60015b828111156115f657604051806103508682613ea3565b805f52600560205260405f2060ff600d82015460081c1615908161164a575b50611629575b61162490614222565b6115e0565b90611642818361163c6116249488614697565b52614222565b91905061161b565b600101546001600160a01b03161515905085611615565b805f52600560205260405f2060ff600d82015460081c161590816116a9575b50611694575b61168f90614222565b6115c9565b906116a161168f91614222565b919050611686565b600101546001600160a01b03161515905084611680565b34610354576020366003190112610354575f60c06040516116e081613f15565b8281528260208201528260408201528260608201528260808201528260a082015201526004355f52600c60205260e060405f2060405161171f81613f15565b81549182825260018101546020830190815260018060a01b038060028401541660408501908152818060038601541691606087019283526004860154946080880195865260c060ff600660058a01549960a08c019a8b520154169801971515885260405198895251602089015251166040870152511660608501525160808401525160a083015251151560c0820152f35b3461035457602080600319360112610354576001600160a01b03806117d3613e77565b165f5260099081835260405f20916040518084868296549384815201905f52865f20925f5b88828210611a4e5750505061180f92500384613f4b565b5f915f5b845181101561191e576118268186614697565b515f52600780875260405f20906040519061184082613ef9565b8254825260018301548983015284600284015416604083015284600384015416606083015260048301546080830152600583015460a0830152600683015460c083015282015460e082019181835261016060ff600b81600888015416151596876101008601528a810154610120860152600a810154610140860152015416151591015282611904575b50816118f9575b506118e4575b6118df90614222565b611813565b926118f16118df91614222565b9390506118d6565b9050514210876118d0565b90915062278d004201908142116111da57111590886118c9565b5091611929906146cf565b915f915f5b8551811015611a40576119418187614697565b51805f52600780895260405f20906040519061195c82613ef9565b8254825260018301548b83015286600284015416604083015286600384015416606083015260048301546080830152600583015460a0830152600683015460c083015282015460e082019181835261016060ff600b81600888015416151596876101008601528a810154610120860152600a810154610140860152015416151591015282611a26575b5081611a1b575b50611a01575b506119fc90614222565b61192e565b84611a149161163c6119fc949789614697565b93906119f2565b9050514210896119ec565b90915062278d004201908142116111da571115908a6119e5565b604051806103508782613ea3565b85548452600195860195899550930192016117f8565b34610354575f366003190112610354576010546040516001600160a01b039091168152602090f35b60208060031936011261035457600435611aa46147f6565b805f526005825260405f2060ff60098201541615611c3b57611acb600a82015442106147b2565b600c8101805480341115611be25760018301546001600160a01b03939084163314611b8e57600b019283541680611b66575b50506001600160601b0360a01b913383825416179055349055815f52600e835260405f2090600382019033908254161790556002349101557f0e54eff26401bf69b81b26f60bd85ef47f5d85275c1d268d84f68d6897431c47604051923484523393a360015f55005b845f52600f865260405f20905f528552611b8560405f209182546146ab565b90558480611afd565b60405162461bcd60e51b815260048101879052602660248201527f4f776e65722063616e6e6f7420626964206f6e207468656972206f776e2070726044820152656f706572747960d01b6064820152608490fd5b60405162461bcd60e51b815260048101869052602b60248201527f426964206d75737420626520686967686572207468616e2063757272656e742060448201526a1a1a59da195cdd08189a5960aa1b6064820152608490fd5b60405162461bcd60e51b815260048101849052601a60248201527f50726f7065727479206973206e6f74206f6e2061756374696f6e0000000000006044820152606490fd5b34610354576020806003193601126103545760043590611c9e6147f6565b815f526005815260405f20600e825260405f209060098101805490611cc560ff8316614879565b600d830191825490611cda60ff8316156147b2565b60018501546001600160a01b03949085163303611e145790600193929160ff199485809416179055169055600160058501918254161790555f92600b83019081549283169081611d5c575b877fdb9cc99dc874f9afbae71151f737e51547d3d412b52922793437d86607050c3c88885f600a8a0155604051908152a260015f55005b600c850180546001600160a01b03199586169094555f908190556003820180549095169094556002018390559293509181908190819085905af1611d9e61484a565b5015611dcf57905f600a7fdb9cc99dc874f9afbae71151f737e51547d3d412b52922793437d86607050c3c87611d25565b60405162461bcd60e51b815260048101849052601f60248201527f4661696c656420746f20726566756e64206869676865737420626964646572006044820152606490fd5b60405162461bcd60e51b815260048101899052602660248201527f4f6e6c792070726f7065727479206f776e65722063616e2063616e63656c20616044820152653ab1ba34b7b760d11b6064820152608490fd5b34610354576060366003190112610354576004356024803590604490813591845f526020916005835260018060a01b0390611ead82600160405f200154163314614269565b865f5260058452611eca60ff600d60405f20015460081c166142ae565b865f526005845260405f2092611ee660ff6005860154166142fa565b600984019081549260ff841661217e5760ff6007870154166121305788156120e057610e10881061208d5762278d00881161203c57897f44c53be110c6aa83aa83cd02e351ed172359268272ee1b5d31c0fe48db35c6c760408b8b8b6120318c8761201a60058f8f8f600160ff19809316179055611f6489426146ab565b600a87015589600c870155600d600b8701966001600160601b0360a01b9788815416905501908154169055611f9988426146ab565b8a5191611fa583613f15565b858352888301968b88528c8401918c835260608501925f84526080860194855260a08601995f8b5260c087019960018b525f52600e8d528f5f209651875551600187015551600286015560038501925116908254161790555160048201550192511515839060ff801983541691151516179055565b51815461ff00191690151560081b61ff0016179055565b8351928352820152a2005b7f41756374696f6e206475726174696f6e2063616e6e6f74206578636565642033608492602689936040519462461bcd60e51b865260048601528401528201526530206461797360d01b6064820152fd5b7f41756374696f6e206475726174696f6e206d757374206265206174206c656173608492602889936040519462461bcd60e51b86526004860152840152820152673a1018903437bab960c11b6064820152fd5b7f5374617274696e67207072696365206d75737420626520677265617465722074608492602589936040519462461bcd60e51b8652600486015284015282015264068616e20360dc1b6064820152fd5b7f50726f706572747920697320616c7265616479206c697374656420666f722073608492602389936040519462461bcd60e51b8652600486015284015282015262616c6560e81b6064820152fd5b7f50726f706572747920697320616c7265616479206f6e2061756374696f6e0000606492601e89936040519462461bcd60e51b86526004860152840152820152fd5b34610354576040366003190112610354576121d9613e77565b6001600160a01b03165f908152600660205260409020805460243591908210156103545760209161220991613fe3565b90546040519160031b1c8152f35b34610354576020366003190112610354576004355f52600760205261018060405f2080549060018101549060018060a01b0380600283015416906003830154166004830154600584015460068501549060078601549260ff6008880154169460098801549660ff600b600a8b01549a015416996040519b8c5260208c015260408b015260608a0152608089015260a088015260c087015260e086015215156101008501526101208401526101408301521515610160820152f35b34610354575f366003190112610354576020600154604051908152f35b60208060031936011261035457600435805f526005825260405f20906040519261231784613edd565b825484526001808401546001600160a01b0390811683870190815291906123406002870161409b565b604088015260039687870154606082015261235d6004880161409b565b608082015261240a60ff60058901541660a083019015158152600689015460c084015260ff60078a0154169260e0810193151584526101e06123ff600e60088d01549c61010085019d8e5260ff6009820154161515610120860152600a81015461014086015288600b82015416610160860152600c81015461018086015260ff600d82015481811615156101a088015260081c1615156101c08601520161409b565b9101525115156142fa565b511561277e5780835116331461272d5761242686513414614381565b612431600454614222565b92836004556124de8860068484511696888b518b886040519661245388613f15565b858852848801928352604088019c8d52606088019233845260808901948552600c60a08a019642885260c08b01985f8a525f525260405f2098518955518c89015581600289019d51169c6001600160601b0360a01b9d8e82541617905587019151168b82541617905551600485015551600584015551151591019060ff801983541691151516179055565b5f8080808585511681903415612723575b3491f115610dd15761257561250989949596979954614222565b808555838351166040519161251d83613f15565b82525f89830152336040830152606082015234608082015260405161254181613f30565b600d81526c50524f50455254595f53414c4560981b8982015260a08201524260c0820152895f52600a885260405f206143cd565b7f8d4e3385fd4440452df97750ad67b43f8fbe60bff4a539d21be1cdf3b9f550ab60a060045498848451169051604051918b83528c8b84015260408301523360608301526080820152a15116865f526005855260405f20938385019033908254161790555f6008600786019560ff199687815416905501555f526006845260405f20335f5260405f2091835f905b612675575b7f4b57d7a2efb9c923c803ed013532df2fc457683e64a60451ce82578fa6c123da6060898b8a8a8a61263a848c614246565b835f52600d835261264e8560405f20614246565b845f52600c8352600660405f200191825416179055604051928352820152336040820152a1005b829895939796949254808210156127155786612691838c613fe3565b905490851b1c146126bb5750906126ae8394959697989992614222565b9091929495969893612603565b5f1981019998908a116111da57612707896111c589946111ad61263a977f4b57d7a2efb9c923c803ed013532df2fc457683e64a60451ce82578fa6c123da9f60609f906111a191613fe3565b939598508294969750612608565b508294969793959850612608565b6108fc91506124ef565b60405162461bcd60e51b815260048101859052602360248201527f4f776e65722063616e6e6f7420627579207468656972206f776e2070726f706560448201526272747960e81b6064820152608490fd5b60405162461bcd60e51b815260048101859052601860248201527f50726f7065727479206973206e6f7420666f722073616c6500000000000000006044820152606490fd5b34610354576020806003193601126103545760043580915f5b825f526007808352600a918260405f2001541561280d576127fc90614222565b935f52825260405f200154916127dc565b93505050600182018083116111da57612825906146cf565b92905f5b8381111561283f57604051806103508782613ea3565b8261284a8287614697565b52838110612861575b61285c90614222565b612829565b5f928352600782526040909220600a015491612853565b346103545760203660031901126103545761289161473e565b506004355f52600560205261035060405f20612983600e604051926128b584613edd565b8054845260018101546001600160a01b0390811660208601526128da6002830161409b565b6040860152600382015460608601526128f56004830161409b565b608086015260ff600583015416151560a0860152600682015460c086015260ff600783015416151560e0860152600882015461010086015260ff6009830154161515610120860152600a820154610140860152600b82015416610160850152600c81015461018085015260ff600d82015481811615156101a087015260081c1615156101c08501520161409b565b6101e082015260405191829160208352602083019061413c565b3461035457602036600319011261035457600435805f526007602052600160405f2001545f5260056020526129e260018060a01b03600160405f200154163314614269565b805f5260076020526129fd60ff600860405f2001541661433f565b5f908152600760205260409020600801805460ff19169055005b3461035457604036600319011261035457612a30613e77565b6001600160a01b03165f908152600860205260409020805460243591908210156103545760209161220991613fe3565b34610354576020366003190112610354576004355f52600e60205260e060405f2060ff815491600181015490600281015460018060a01b036003830154169060056004840154930154936040519687526020870152604086015260608501526080840152818116151560a084015260081c16151560c0820152f35b3461035457604036600319011261035457612af4613e77565b6001600160a01b03165f908152600960205260409020805460243591908210156103545760209161220991613fe3565b3461035457612b3236613fcd565b905f52600a60205260405f2090815481101561035457612b519161404a565b508054600182015491612bb860018060a01b039182600282015416926003820154166004820154906006612b876005850161409b565b930154946040519788978852602088015260408701526060860152608085015260e060a085015260e084019061400c565b9060c08301520390f35b34610354576020366003190112610354576040612be0600435614579565b825191151582526020820152f35b34610354575f366003190112610354575f6001908154915b82811115612c745750612c18906146cf565b905f60015b82811115612c3357604051806103508682613ea3565b805f52600560205260ff600760405f20015416612c59575b612c5490614222565b612c1d565b90612c6c818361163c612c549488614697565b919050612c4b565b805f52600560205260ff600760405f20015416612c9a575b612c9590614222565b612c06565b90612ca7612c9591614222565b919050612c8c565b34610354576020366003190112610354576004355f52600b602052602060405f2054604051908152f35b34610354576020806003193601126103545760043590815f52600780825260405f2060018060a01b03936002918583820154163314908115612eac575b5015612e76575f93919352600a815260405f2091825490612d36826146b8565b94612d446040519687613f4b565b8286525f9485528385208487019591865b858410612e0957505050505050604051928184019082855251809152604084019160408260051b86010193925f965b838810612d915786860387f35b90919293948380600192603f198a820301865288519081518152828201518382015285604083015116604082015260608681840151169082015260808083015190820152612dee60a060e0818501519184015260e083019061400c565b9160c080910151910152970193019701969093929193612d84565b848760019260409b999b51612e1d81613f15565b8654815284870154838201528d868801541660408201528d600388015416606082015260048701546080820152612e566005880161409b565b60a0820152600687015460c0820152815201930193019291979597612d55565b60405162461bcd60e51b815260048101859052600e60248201526d139bdd08185d5d1a1bdc9a5e995960921b6044820152606490fd5b6003015486163314905086612d16565b34610354576080366003190112610354576004355f908152600760205260409020600201546001600160a01b031633036131c7576004355f52600760205260405f2060405190612f0b82613ef9565b805482526001810154602083015260028101546001600160a01b039081166040840152600382015416606083015260048101546080830152600581015460a0830152600681015460c0830152600781015460e0830152600881015460ff9081161580156101008501526009830154610120850152600a830154610140850152600b90920154161515610160830152613182576004355f526007602052600860405f200160ff1981541690556130ef612fc4600254614222565b60028190556020830151604080850151606086015160e0870151925194936001600160a01b039182169290911690612ffb86613ef9565b848652602086015260408501526060840152602435608084015260443560a084015260c083015260643560e083015260016101008301524261012083015260043561014083015260016101608301525f526007602052600b61016060405f209280518455602081015160018501556002840160018060a01b03604083015116906001600160601b0360a01b9182825416179055600385019060018060a01b03606084015116908254161790556080810151600485015560a0810151600585015560c0810151600685015560e081015160078501556109696101008201511515600886019060ff801983541691151516179055565b606001516001600160a01b03165f90815260086020526040902060025461311591614246565b335f52600960205261312d60405f2060025490614246565b60206002546004355f52600b82528060405f20557f5218b45ec4111b34f11772b33264cebe845c4a092cb61b4df792954c6c9780196060604051600435815283858201526064356040820152a1604051908152f35b60405162461bcd60e51b815260206004820152601e60248201527f43616e6e6f742072656e657720616e20696e616374697665206c6561736500006044820152606490fd5b60405162461bcd60e51b815260206004820152602560248201527f4f6e6c79206c616e646c6f72642063616e20706572666f726d2074686973206160448201526431ba34b7b760d91b6064820152608490fd5b346103545761322836613fcd565b905f52600d60205260405f2080548210156103545760209161220991613fe3565b3461035457602080600319360112610354576004355f52600d815260405f209060405190818184549182815201935f52815f20915f905b82821061329757610350856104f281890382613f4b565b835486529485019460019384019390910190613280565b34610354576020366003190112610354576010546001600160a01b0390600435906132dc90831633146148b9565b80151580613454575b6132ee90614911565b805f52600560205260405f209061330f60ff600d84015460081c1615614953565b6001928380930154165f52600660205260405f20825f905b6133ed575b50508091505f5260056020526133a3600e60405f205f81555f858201556133556002820161499f565b5f60038201556133676004820161499f565b5f60058201555f60068201555f60078201555f60088201555f60098201555f600a8201555f600b8201555f600c8201555f600d8201550161499f565b81549081156111da575f19909101909155604080519182523360208301527f51922a50d941e0e3c221255fd634692203f6c5fd5110667ebc4dd41df303d80f91908190810161078a565b81548082101561344e57836134028385613fe3565b919054600392831b1c1461342157505061341b90614222565b83613327565b9394505f19810193919084116111da576111ad6111c5926111a16134459686613fe3565b8190838061332c565b5061332c565b506001548111156132e5565b34610354576020366003190112610354576004355f52600c60205260e060405f2080549060018101549060018060a01b03806002830154169060038301541660048301549160ff600660058601549501541694604051968752602087015260408601526060850152608084015260a0830152151560c0820152f35b34610354576134e936613fcd565b815f52600560209080825260018060a01b0390600190613512838360405f200154163314614269565b855f5280845260ff600d60405f2001549361353282600896871c166142ae565b875f52828652613549828460405f200154166142fa565b86156136ff57335f5260099081875260405f209260405180858a8297549384815201905f528a5f20925f5b8a8d8383106136ea575050505061358d92500385613f4b565b5f865b6135e3575b7f88b3e10fc821dcf6e0c9b8b02e38f5fff401bfab2172fb035d249c01f094de7d60408c8c8c818d8d8d865f528452865f2090600782019060ff1982541617905501558351928352820152a1005b84518110156136e557906136b08287858e8d8c6101608f600b8a849f9e9d9c928f829461360f91614697565b515f526007998a885260405f20996040519761362a89613ef9565b8b5489528b015480998901528060028c015416604089015260038b015416606088015260048a0154608088015289015460a0870152600689015460c08701528989015460e087015288015416151596876101008601528d810154610120860152600a81015461014086015201541615159101521490816136dd575b506136ba5750614222565b9091929394613590565b6136c48288614697565b515f528b528960405f200160ff1981541690558d61150d565b90508f6136a5565b613595565b86548552958101958a95509093019201613574565b60405162461bcd60e51b8152600481018790526024808201527f53616c65207072696365206d7573742062652067726561746572207468616e206044820152637a65726f60e01b6064820152608490fd5b34610354576020806003193601126103545760043561376d6147f6565b805f52600f825260405f20335f52825260405f205491821561381c57815f52600f815260405f20335f5281525f60408120555f80808086335af16137af61484a565b50156137e6577f8f8619524e8d462cead34604bd2247ede24175801481e4d0b8059ac8aa41c301906040519384523393a360015f55005b6064906040519062461bcd60e51b82526004820152600f60248201526e151c985b9cd9995c8819985a5b1959608a1b6044820152fd5b6064906040519062461bcd60e51b8252600482015260146024820152734e6f2066756e647320746f20776974686472617760601b6044820152fd5b34610354576080366003190112610354576004356001600160401b03811161035457613887903690600401613f87565b6044356001600160401b038111610354576138a6903690600401613f87565b6064356001600160401b038111610354576138c5903690600401613f87565b6138d0600154614222565b9081600155604051926138e284613edd565b828452336020850152846040850152602435606085015260808401525f60a08401524260c08401525f60e08401525f6101008401525f6101208401525f6101408401525f6101608401525f6101808401525f6101a08401525f6101c08401526101e08301525f52600560205260405f2091815183556001830160018060a01b036020840151166001600160601b0360a01b82541617905560408201519283516001600160401b038111613ca65761399c6002830154614063565b601f8111613dd5575b506020601f8211600114613d6a5781906139d7939495965f92613c03575b50508160011b915f199060031b1c19161790565b60028201555b6060830151600382015560808301518051906001600160401b038211613ca657613a0a6004840154614063565b601f8111613d37575b50602090601f8311600114613cc55782600e936101e09593613a49935f92613cba5750508160011b915f199060031b1c19161790565b60048201555b613a6e60a08601511515600583019060ff801983541691151516179055565b60c08501516006820155613a9760e08601511515600783019060ff801983541691151516179055565b6101008501516008820155613ac26101208601511515600983019060ff801983541691151516179055565b610140850151600a820155600b810160018060a01b03610160870151166001600160601b0360a01b825416179055610180850151600c820155613b3b600d8201613b1f6101a08801511515829060ff801983541691151516179055565b6101c0870151815461ff00191690151560081b61ff0016179055565b01920151908151926001600160401b038411613ca657602093613b5e8254614063565b601f8111613c6d575b508493601f8211600114613c0e57613b9792939482915f92613c035750508160011b915f199060031b1c19161790565b90555b335f5260068252613bb160405f2060015490614246565b7fb33e9eef84e3eebf705c9f5736130e2f3eeae173c0b5a4f96c167b2186047d37613bf860015492604051918291858352338784015260606040840152606083019061400c565b0390a1604051908152f35b0151905086806139c3565b601f19821694835f52865f20915f5b878110613c56575083600195969710613c3e575b505050811b019055613b9a565b01515f1960f88460031b161c19169055858080613c31565b919288600181928685015181550194019201613c1d565b613c9690835f52865f20601f840160051c810191888510613c9c575b601f0160051c0190614230565b85613b67565b9091508190613c89565b634e487b7160e01b5f52604160045260245ffd5b0151905088806139c3565b90600484015f5260205f20915f5b601f1985168110613d1f5750926101e09492600192600e9583601f19811610613d07575b505050811b016004820155613a4f565b01515f1960f88460031b161c19169055878080613cf7565b91926020600181928685015181550194019201613cd3565b613d6490600485015f5260205f20601f850160051c81019160208610613c9c57601f0160051c0190614230565b85613a13565b600283015f5260205f20905f5b601f1984168110613dbd575060019394959683601f19811610613da5575b505050811b0160028201556139dd565b01515f1960f88460031b161c19169055858080613d95565b9091602060018192858b015181550193019101613d77565b613e0290600284015f5260205f20601f840160051c81019160208510613c9c57601f0160051c0190614230565b856139a5565b346103545760209081600319360112610354576001600160a01b03613e2b613e77565b165f526008825260405f20918254808352818301935f52815f20915f905b828210613e6057610350856104f281890382613f4b565b835486529485019460019384019390910190613e49565b600435906001600160a01b038216820361035457565b602435906001600160a01b038216820361035457565b602090816040818301928281528551809452019301915f5b828110613ec9575050505090565b835185529381019392810192600101613ebb565b61020081019081106001600160401b03821117613ca657604052565b61018081019081106001600160401b03821117613ca657604052565b60e081019081106001600160401b03821117613ca657604052565b604081019081106001600160401b03821117613ca657604052565b90601f801991011681019081106001600160401b03821117613ca657604052565b6001600160401b038111613ca657601f01601f191660200190565b81601f8201121561035457803590613f9e82613f6c565b92613fac6040519485613f4b565b8284526020838301011161035457815f926020809301838601378301015290565b6040906003190112610354576004359060243590565b8054821015613ff8575f5260205f2001905f90565b634e487b7160e01b5f52603260045260245ffd5b91908251928382525f5b848110614036575050825f602080949584010152601f8019910116010190565b602081830181015184830182015201614016565b8054821015613ff8575f52600760205f20910201905f90565b90600182811c92168015614091575b602083101461407d57565b634e487b7160e01b5f52602260045260245ffd5b91607f1691614072565b9060405191825f82546140ad81614063565b9081845260209460019182811690815f1461411a57506001146140dc575b5050506140da92500383613f4b565b565b5f90815285812095935091905b8183106141025750506140da93508201015f80806140cb565b855488840185015294850194879450918301916140e9565b925050506140da94925060ff191682840152151560051b8201015f80806140cb565b9061421f91610200918151815261419461417860208401519460018060a01b03809616602085015260408501519080604086015284019061400c565b606084015160608401526080840151838203608085015261400c565b9260a0830151151560a083015260c083015160c083015260e0830151151560e083015261010080840151908301526101208084015115159083015261014080840151908301526101609081840151169082015261018080830151908201526101a0808301511515908201526101c0808301511515908201526101e0809201519181840391015261400c565b90565b5f1981146111da5760010190565b81811061423b575050565b5f8155600101614230565b90815491600160401b831015613ca657826111ad9160016140da95018155613fe3565b1561427057565b60405162461bcd60e51b81526020600482015260166024820152752737ba103a343290383937b832b93a3c9037bbb732b960511b6044820152606490fd5b156142b557565b60405162461bcd60e51b815260206004820152601f60248201527f50726f7065727479206e6f7420617070726f766564206279206e6f74617279006044820152606490fd5b1561430157565b60405162461bcd60e51b815260206004820152601660248201527550726f7065727479206973206e6f742061637469766560501b6044820152606490fd5b1561434657565b60405162461bcd60e51b81526020600482015260136024820152724c65617365206973206e6f742061637469766560681b6044820152606490fd5b1561438857565b60405162461bcd60e51b815260206004820152601860248201527f496e636f7272656374207061796d656e7420616d6f756e7400000000000000006044820152606490fd5b908154600160401b811015613ca6576143ed90600193848201815561404a565b929092614559578151835560209081830151818501556002840160018060a01b039081604086015116906001600160601b0360a01b918282541617905560038601916060860151169082541617905560808301516004850155600584019160a08401518051926001600160401b038411613ca65761446b8554614063565b601f811161452b575b5082601f85116001146144bf575050826006959360c095936144aa935f926144b45750508160011b915f199060031b1c19161790565b90555b0151910155565b015190505f806139c3565b91601f94939194198416865f52835f20935f905b828210614514575050916006979593918560c0989694106144fc575b505050811b0190556144ad565b01515f1960f88460031b161c191690555f80806144ef565b8088869782949787015181550196019401906144d3565b61455390865f52845f20601f870160051c810191868810613c9c57601f0160051c0190614230565b5f614474565b634e487b7160e01b5f525f60045260245ffd5b919082039182116111da57565b5f52600760205260405f206040519061459182613ef9565b80548083526001820154602084015260018060a01b03806002840154166040850152600383015416606084015260048201546080840152600582015460a0840152600682015460c084015260078201549260e0810193845261016060ff600b8160088701541695610100850196151587526009810154610120860152600a81015461014086015201541615159101521561465b575115614654575180421161464c576146426201518091429061456c565b0490601e82109190565b506001905f90565b505f905f90565b60405162461bcd60e51b81526020600482015260146024820152731319585cd948191bd95cc81b9bdd08195e1a5cdd60621b6044820152606490fd5b8051821015613ff85760209160051b010190565b919082018092116111da57565b6001600160401b038111613ca65760051b60200190565b906146d9826146b8565b6146e66040519182613f4b565b82815280926146f7601f19916146b8565b0190602036910137565b805490811561472a575f199182019161471a8383613fe3565b909182549160031b1b1916905555565b634e487b7160e01b5f52603160045260245ffd5b6040519061474b82613edd565b60606101e0835f80825280602083015283604083015280848301528360808301528060a08301528060c08301528060e08301528061010083015280610120830152806101408301528061016083015280610180830152806101a08301526101c08201520152565b156147b957565b60405162461bcd60e51b8152602060048201526015602482015274105d58dd1a5bdb88185b1c9958591e48195b991959605a1b6044820152606490fd5b60025f54146148055760025f55565b60405162461bcd60e51b815260206004820152601f60248201527f5265656e7472616e637947756172643a207265656e7472616e742063616c6c006044820152606490fd5b3d15614874573d9061485b82613f6c565b916148696040519384613f4b565b82523d5f602084013e565b606090565b1561488057565b60405162461bcd60e51b815260206004820152601160248201527027379030b1ba34bb329030bab1ba34b7b760791b6044820152606490fd5b156148c057565b60405162461bcd60e51b815260206004820152602360248201527f4f6e6c79206e6f746172792063616e20706572666f726d20746869732061637460448201526234b7b760e91b6064820152608490fd5b1561491857565b60405162461bcd60e51b8152602060048201526013602482015272125b9d985b1a59081c1c9bdc195c9d1e481251606a1b6044820152606490fd5b1561495a57565b60405162461bcd60e51b815260206004820152601960248201527f50726f706572747920616c726561647920617070726f766564000000000000006044820152606490fd5b6149a98154614063565b90816149b3575050565b81601f5f93116001146149c4575055565b9080839182526149e3601f60208420940160051c840160018501614230565b555556fea2646970667358221220716135ee789c565398bdf87cef03fe84fa4e2b9b9787a365b3ea75acf55de80664736f6c63430008150033",
  "immutableReferences": {},
  "source": "// SPDX-License-Identifier: MIT\npragma solidity ^0.8.21;\n\nimport \"@openzeppelin/contracts/security/ReentrancyGuard.sol\";\n\ncontract PropertyManagement is ReentrancyGuard {\n    // Struct to store property details\n    struct Property {\n        uint256 id;\n        address owner;\n        string propertyAddress;\n        uint256 size;\n        string propertyType;\n        bool isActive;\n        uint256 createdAt;\n        bool isForSale;\n        uint256 salePrice;\n        // Auction related fields\n        bool onAuction;\n        uint256 auctionEndTime;\n        address highestBidder;\n        uint256 highestBid;\n        bool auctionEnded;\n        bool isApproved;  // New field for notary approval\n        string documentHash;  // New field for property document hash\n    }\n    \n    // Struct to store lease agreement details\n    struct LeaseAgreement {\n        uint256 id;\n        uint256 propertyId;\n        address landlord;\n        address tenant;\n        uint256 monthlyRent;\n        uint256 securityDeposit;\n        uint256 startDate;\n        uint256 endDate;\n        bool isActive;\n        uint256 createdAt;\n        uint256 previousLeaseId; // Track renewal chain\n        bool isRenewal;          // Flag to indicate if this is a renewal\n    }\n    \n    // Struct to store property sale details\n    struct PropertySale {\n        uint256 id;\n        uint256 propertyId;\n        address seller;\n        address buyer;\n        uint256 salePrice;\n        uint256 timestamp;\n        bool completed;\n    }\n    \n    // Struct to store transaction details\n    struct Transaction {\n        uint256 id;\n        uint256 leaseId;\n        address from;\n        address to;\n        uint256 amount;\n        string transactionType; // \"RENT\", \"SECURITY_DEPOSIT\", \"REFUND\"\n        uint256 timestamp;\n    }\n    \n    // Struct to store auction details\n    struct Auction {\n        uint256 propertyId;\n        uint256 startingPrice;\n        uint256 highestBid;\n        address highestBidder;\n        uint256 auctionEndTime;\n        bool ended;\n        bool exists;\n    }\n    \n    // Counters for generating IDs\n    uint256 private propertyCounter;\n    uint256 private leaseCounter;\n    uint256 private transactionCounter;\n    uint256 private saleCounter; //Counter for property sales\n    // Mappings to store data\n    mapping(uint256 => Property) public properties;\n    mapping(address => uint256[]) public ownerProperties;\n    mapping(uint256 => LeaseAgreement) public leaseAgreements;\n    mapping(address => uint256[]) public tenantLeases;\n    mapping(address => uint256[]) public landlordLeases;\n    mapping(uint256 => Transaction[]) public leaseTransactions;\n    mapping(uint256 => uint256) public renewedLeases; // Maps old lease ID to new lease ID\n    mapping(uint256 => PropertySale) public propertySales; // NEW: Map property sales by ID\n    mapping(uint256 => uint256[]) public propertyTransferHistory; // NEW: Record property ownership transfers\n    mapping(uint256 => Auction) public auctions; // propertyId => Auction\n    mapping(uint256 => mapping(address => uint256)) public pendingReturns; // propertyId => (bidder => amount)\n   \n    // Notary related state variables\n    address public notary;\n    mapping(uint256 => bool) public propertyApprovals;\n    mapping(uint256 => string) public propertyDocuments;\n   \n    // Events\n    event PropertyRegistered(uint256 propertyId, address owner, string propertyAddress);\n    event LeaseCreated(uint256 leaseId, uint256 propertyId, address landlord, address tenant);\n    event PaymentReceived(uint256 leaseId, address from, address to, uint256 amount, string transactionType);\n    event LeaseRenewed(uint256 oldLeaseId, uint256 newLeaseId, uint256 newEndDate);\n    event LeaseExpiringSoon(uint256 leaseId, uint256 daysRemaining);\n    event PropertyListedForSale(uint256 propertyId, uint256 price); // NEW: Event for listing property\n    event PropertySaleCancelled(uint256 propertyId); // NEW: Event for cancelling sale\n    event PropertySaleInitiated(uint256 saleId, uint256 propertyId, address seller, address buyer, uint256 price); // NEW: Event for sale process\n    event PropertySaleCompleted(uint256 saleId, uint256 propertyId, address newOwner); // NEW: Event for completed sale\n    event AuctionStarted(uint256 indexed propertyId, uint256 startingPrice, uint256 duration);\n    event BidPlaced(uint256 indexed propertyId, address indexed bidder, uint256 amount);\n    event AuctionEnded(uint256 indexed propertyId, address winner, uint256 amount);\n    event BidWithdrawn(uint256 indexed propertyId, address indexed bidder, uint256 amount);\n    event AuctionCancelled(uint256 indexed propertyId, uint256 refundedAmount);\n    event PropertySubmitted(uint256 propertyId, address owner, string propertyAddress);\n    event PropertyApproved(uint256 propertyId, address notary);\n    event PropertyRejected(uint256 propertyId, address notary);\n   \n    constructor() {\n        notary = msg.sender; // Set the contract deployer as the notary\n    }\n    \n    // Modifiers\n    modifier onlyPropertyOwner(uint256 _propertyId) {\n        require(properties[_propertyId].owner == msg.sender, \"Not the property owner\");\n        _;\n    }\n    \n    modifier onlyLandlordOrTenant(uint256 _leaseId) {\n        require(\n            leaseAgreements[_leaseId].landlord == msg.sender || \n            leaseAgreements[_leaseId].tenant == msg.sender,\n            \"Not authorized\"\n        );\n        _;\n    }\n\n    modifier onlyLandlord(uint256 _leaseId) {\n        require(leaseAgreements[_leaseId].landlord == msg.sender, \"Only landlord can perform this action\");\n        _;\n    }\n    \n    modifier onlyNotary() {\n        require(msg.sender == notary, \"Only notary can perform this action\");\n        _;\n    }\n    \n    // Getter function for propertyCounter\n    function getPropertyCounter() public view returns (uint256) {\n        return propertyCounter;\n    }\n    \n    // Function to register a new property\n    function registerProperty(\n        string memory _propertyAddress,\n        uint256 _size,\n        string memory _propertyType,\n        string memory _documentHash\n    ) external returns (uint256) {\n        propertyCounter++;\n        \n        Property memory newProperty = Property({\n            id: propertyCounter,\n            owner: msg.sender,\n            propertyAddress: _propertyAddress,\n            size: _size,\n            propertyType: _propertyType,\n            isActive: false,  // Set to false until approved\n            createdAt: block.timestamp,\n            isForSale: false,\n            salePrice: 0,\n            onAuction: false,\n            auctionEndTime: 0,\n            highestBidder: address(0),\n            highestBid: 0,\n            auctionEnded: false,\n            isApproved: false,\n            documentHash: _documentHash\n        });\n        \n        properties[propertyCounter] = newProperty;\n        ownerProperties[msg.sender].push(propertyCounter);\n        \n        emit PropertySubmitted(propertyCounter, msg.sender, _propertyAddress);\n        return propertyCounter;\n    }\n    \n    // Function to create a lease agreement\n    function createLeaseAgreement(\n        uint256 _propertyId,\n        address _tenant,\n        uint256 _monthlyRent,\n        uint256 _securityDeposit,\n        uint256 _startDate,\n        uint256 _endDate\n    ) external onlyPropertyOwner(_propertyId) onlyApprovedProperty(_propertyId) returns (uint256) {\n        require(properties[_propertyId].isActive, \"Property is not active\");\n        require(!properties[_propertyId].isForSale, \"Property is currently for sale\"); //Cannot lease property that's for sale\n        require(_tenant != address(0), \"Invalid tenant address\");\n        require(_startDate < _endDate, \"Invalid lease duration\");\n        \n        leaseCounter++;\n        \n        LeaseAgreement memory newLease = LeaseAgreement({\n            id: leaseCounter,\n            propertyId: _propertyId,\n            landlord: msg.sender,\n            tenant: _tenant,\n            monthlyRent: _monthlyRent,\n            securityDeposit: _securityDeposit,\n            startDate: _startDate,\n            endDate: _endDate,\n            isActive: true,\n            createdAt: block.timestamp,\n            previousLeaseId: 0,\n            isRenewal: false\n        });\n        \n        leaseAgreements[leaseCounter] = newLease;\n        tenantLeases[_tenant].push(leaseCounter);\n        landlordLeases[msg.sender].push(leaseCounter);\n        \n        emit LeaseCreated(leaseCounter, _propertyId, msg.sender, _tenant);\n        return leaseCounter;\n    }\n    \n    // Function to pay rent or security deposit\n    function makePayment(uint256 _leaseId, string memory _transactionType) external payable {\n        LeaseAgreement memory lease = leaseAgreements[_leaseId];\n        require(lease.isActive, \"Lease is not active\");\n        require(lease.tenant == msg.sender, \"Not the tenant of this lease\");\n        \n        uint256 requiredAmount = 0;\n        \n        if (keccak256(bytes(_transactionType)) == keccak256(bytes(\"RENT\"))) {\n            requiredAmount = lease.monthlyRent;\n        } else if (keccak256(bytes(_transactionType)) == keccak256(bytes(\"SECURITY_DEPOSIT\"))) {\n            requiredAmount = lease.securityDeposit;\n        } else {\n            revert(\"Invalid transaction type\");\n        }\n        \n        require(msg.value == requiredAmount, \"Incorrect payment amount\");\n        \n        // Transfer the payment to the landlord\n        payable(lease.landlord).transfer(msg.value);\n        \n        // Record the transaction\n        transactionCounter++;\n        Transaction memory newTransaction = Transaction({\n            id: transactionCounter,\n            leaseId: _leaseId,\n            from: msg.sender,\n            to: lease.landlord,\n            amount: msg.value,\n            transactionType: _transactionType,\n            timestamp: block.timestamp\n        });\n        \n        leaseTransactions[_leaseId].push(newTransaction);\n        \n        emit PaymentReceived(_leaseId, msg.sender, lease.landlord, msg.value, _transactionType);\n    }\n    \n    // Function to terminate a lease\n    function terminateLease(uint256 _leaseId) external onlyPropertyOwner(leaseAgreements[_leaseId].propertyId) {\n        require(leaseAgreements[_leaseId].isActive, \"Lease is not active\");\n        leaseAgreements[_leaseId].isActive = false;\n    }\n    \n    // Check if a lease is expiring soon\n    function checkLeaseExpiration(uint256 _leaseId) external view returns (bool isExpiring, uint256 daysRemaining) {\n        LeaseAgreement memory lease = leaseAgreements[_leaseId];\n        require(lease.id > 0, \"Lease does not exist\");\n        \n        // If lease is not active, it's already expired or terminated\n        if (!lease.isActive) {\n            return (false, 0);\n        }\n        \n        uint256 currentTime = block.timestamp;\n        \n        // If current time is past end date, lease has expired\n        if (currentTime > lease.endDate) {\n            return (true, 0);\n        }\n        \n        // Calculate days remaining (approximate as block timestamps can vary)\n        uint256 timeRemaining = lease.endDate - currentTime;\n        uint256 daysLeft = timeRemaining / 86400; // 86400 seconds in a day\n        \n        // Consider \"expiring soon\" if less than 30 days remaining\n        return (daysLeft < 30, daysLeft);\n    }\n    \n    // Renew a lease agreement\n    function renewLease(\n        uint256 _leaseId,\n        uint256 _newMonthlyRent,\n        uint256 _newSecurityDeposit,\n        uint256 _newEndDate\n    ) external onlyLandlord(_leaseId) returns (uint256) {\n        LeaseAgreement memory oldLease = leaseAgreements[_leaseId];\n        require(oldLease.isActive, \"Cannot renew an inactive lease\");\n        \n        // End the current lease\n        leaseAgreements[_leaseId].isActive = false;\n        \n        // Create a new lease as a renewal\n        leaseCounter++;\n        \n        LeaseAgreement memory newLease = LeaseAgreement({\n            id: leaseCounter,\n            propertyId: oldLease.propertyId,\n            landlord: oldLease.landlord,\n            tenant: oldLease.tenant,\n            monthlyRent: _newMonthlyRent,\n            securityDeposit: _newSecurityDeposit,\n            startDate: oldLease.endDate, // Start new lease when old one ends\n            endDate: _newEndDate,\n            isActive: true,\n            createdAt: block.timestamp,\n            previousLeaseId: _leaseId,\n            isRenewal: true\n        });\n        \n        leaseAgreements[leaseCounter] = newLease;\n        tenantLeases[oldLease.tenant].push(leaseCounter);\n        landlordLeases[msg.sender].push(leaseCounter);\n        \n        // Record the renewal relationship\n        renewedLeases[_leaseId] = leaseCounter;\n        \n        emit LeaseRenewed(_leaseId, leaseCounter, _newEndDate);\n        return leaseCounter;\n    }\n    \n    // FUNCTION: Get all expiring leases for a landlord (within 30 days)\n    function getExpiringLeases(address _landlord) external view returns (uint256[] memory) {\n        uint256[] memory landlordLeaseList = landlordLeases[_landlord];\n        uint256 count = 0;\n        \n        // First, count expiring leases\n        for (uint i = 0; i < landlordLeaseList.length; i++) {\n            uint256 leaseId = landlordLeaseList[i];\n            LeaseAgreement memory lease = leaseAgreements[leaseId];\n            \n            if (lease.isActive && lease.endDate <= block.timestamp + 30 days && lease.endDate > block.timestamp) {\n                count++;\n            }\n        }\n        \n        // Create array of correct size\n        uint256[] memory expiringLeases = new uint256[](count);\n        uint256 index = 0;\n        \n        // Populate array with expiring lease IDs\n        for (uint i = 0; i < landlordLeaseList.length; i++) {\n            uint256 leaseId = landlordLeaseList[i];\n            LeaseAgreement memory lease = leaseAgreements[leaseId];\n            \n            if (lease.isActive && lease.endDate <= block.timestamp + 30 days && lease.endDate > block.timestamp) {\n                expiringLeases[index] = leaseId;\n                index++;\n            }\n        }\n        \n        return expiringLeases;\n    }\n    \n    //FUNCTION: Get renewal history of a lease\n    function getLeaseRenewalHistory(uint256 _leaseId) external view returns (uint256[] memory) {\n        // Start with current lease\n        uint256 currentLeaseId = _leaseId;\n        uint256 historyLength = 0;\n        \n        // First, count the history length\n        while (leaseAgreements[currentLeaseId].previousLeaseId != 0) {\n            historyLength++;\n            currentLeaseId = leaseAgreements[currentLeaseId].previousLeaseId;\n        }\n        \n        // Create array of history\n        uint256[] memory history = new uint256[](historyLength + 1);\n        \n        // Populate history array (most recent first)\n        currentLeaseId = _leaseId;\n        for (uint i = 0; i <= historyLength; i++) {\n            history[i] = currentLeaseId;\n            if (i < historyLength) {\n                currentLeaseId = leaseAgreements[currentLeaseId].previousLeaseId;\n            }\n        }\n        \n        return history;\n    }\n    \n     //NEW: Function to list a property for sale\n    function listPropertyForSale(uint256 _propertyId, uint256 _price) external onlyPropertyOwner(_propertyId) onlyApprovedProperty(_propertyId) {\n        require(properties[_propertyId].isActive, \"Property is not active\");\n        require(_price > 0, \"Sale price must be greater than zero\");\n        \n        // Check if the property has any active leases\n        uint256[] memory landlordLeaseList = landlordLeases[msg.sender];\n        for (uint i = 0; i < landlordLeaseList.length; i++) {\n            LeaseAgreement memory lease = leaseAgreements[landlordLeaseList[i]];\n            if (lease.propertyId == _propertyId && lease.isActive) {\n                // End the lease before selling\n                leaseAgreements[landlordLeaseList[i]].isActive = false;\n            }\n        }\n        \n        // Mark property as for sale\n        properties[_propertyId].isForSale = true;\n        properties[_propertyId].salePrice = _price;\n        \n        emit PropertyListedForSale(_propertyId, _price);\n    }\n\n\n // NEW: Function to cancel property listing\n    function cancelPropertySale(uint256 _propertyId) external onlyPropertyOwner(_propertyId) {\n        require(properties[_propertyId].isForSale, \"Property is not listed for sale\");\n        \n        properties[_propertyId].isForSale = false;\n        properties[_propertyId].salePrice = 0;\n        \n        emit PropertySaleCancelled(_propertyId);\n    }\n    \n    // NEW: Function to initiate property purchase\n    function initiatePropertyPurchase(uint256 _propertyId) external payable {\n        Property memory property = properties[_propertyId];\n        require(property.isActive, \"Property is not active\");\n        require(property.isForSale, \"Property is not for sale\");\n        require(property.owner != msg.sender, \"Owner cannot buy their own property\");\n        require(msg.value == property.salePrice, \"Incorrect payment amount\");\n        \n        // Create sale record\n        saleCounter++;\n        PropertySale memory newSale = PropertySale({\n            id: saleCounter,\n            propertyId: _propertyId,\n            seller: property.owner,\n            buyer: msg.sender,\n            salePrice: property.salePrice,\n            timestamp: block.timestamp,\n            completed: false\n        });\n        \n        propertySales[saleCounter] = newSale;\n        \n        // Transfer the payment to the seller\n        payable(property.owner).transfer(msg.value);\n        \n        // Record the transaction\n        transactionCounter++;\n        Transaction memory newTransaction = Transaction({\n            id: transactionCounter,\n            leaseId: 0, // Not related to a lease\n            from: msg.sender,\n            to: property.owner,\n            amount: msg.value,\n            transactionType: \"PROPERTY_SALE\",\n            timestamp: block.timestamp\n        });\n        \n        // Store the transaction under a dummy lease ID that represents property sales\n        leaseTransactions[_propertyId].push(newTransaction);\n        \n        emit PropertySaleInitiated(saleCounter, _propertyId, property.owner, msg.sender, property.salePrice);\n        \n        // Complete the property transfer\n        _completePropertyTransfer(_propertyId, property.owner, msg.sender, saleCounter);\n    }\n    \n    // Internal function to complete property transfer\n    function _completePropertyTransfer(\n        uint256 _propertyId, \n        address _previousOwner, \n        address _newOwner,\n        uint256 _saleId\n    ) internal {\n        // Update property ownership\n        properties[_propertyId].owner = _newOwner;\n        properties[_propertyId].isForSale = false;\n        properties[_propertyId].salePrice = 0;\n        \n        // Remove from previous owner's list and add to new owner's list\n        uint256[] storage previousOwnerProperties = ownerProperties[_previousOwner];\n        uint256[] storage newOwnerProperties = ownerProperties[_newOwner];\n        \n        // Find and remove from previous owner\n        for (uint i = 0; i < previousOwnerProperties.length; i++) {\n            if (previousOwnerProperties[i] == _propertyId) {\n                // Replace with the last element and pop\n                previousOwnerProperties[i] = previousOwnerProperties[previousOwnerProperties.length - 1];\n                previousOwnerProperties.pop();\n                break;\n            }\n        }\n        \n        // Add to new owner\n        newOwnerProperties.push(_propertyId);\n        \n        // Record transfer in history\n        propertyTransferHistory[_propertyId].push(_saleId);\n        \n        // Mark sale as completed\n        propertySales[_saleId].completed = true;\n        \n        emit PropertySaleCompleted(_saleId, _propertyId, _newOwner);\n    }\n    \n    // NEW: Function to get properties for sale\n    function getPropertiesForSale() external view returns (uint256[] memory) {\n        uint256 count = 0;\n        \n        // First, count properties for sale\n        for (uint i = 1; i <= propertyCounter; i++) {\n            if (properties[i].isForSale) {\n                count++;\n            }\n        }\n        \n        // Create array of correct size\n        uint256[] memory forSaleProperties = new uint256[](count);\n        uint256 index = 0;\n        \n        // Populate array with property IDs\n        for (uint i = 1; i <= propertyCounter; i++) {\n            if (properties[i].isForSale) {\n                forSaleProperties[index] = i;\n                index++;\n            }\n        }\n        \n        return forSaleProperties;\n    }\n    \n    // NEW: Function to get property transfer history\n    function getPropertyTransferHistory(uint256 _propertyId) external view returns (uint256[] memory) {\n        return propertyTransferHistory[_propertyId];\n    }\n    \n    // NEW: Function to get property sale details\n    function getPropertySale(uint256 _saleId) external view returns (PropertySale memory) {\n        return propertySales[_saleId];\n    }\n    \n\n    // Getter functions\n    function getPropertyById(uint256 _propertyId) external view returns (Property memory) {\n        return properties[_propertyId];\n    }\n    \n    function getOwnerProperties(address _owner) external view returns (uint256[] memory) {\n        return ownerProperties[_owner];\n    }\n    \n    function getLeaseById(uint256 _leaseId) external view returns (LeaseAgreement memory) {\n        return leaseAgreements[_leaseId];\n    }\n    \n    function getTenantLeases(address _tenant) external view returns (uint256[] memory) {\n        return tenantLeases[_tenant];\n    }\n    \n    function getLandlordLeases(address _landlord) external view returns (uint256[] memory) {\n        return landlordLeases[_landlord];\n    }\n    \n    function getLeaseTransactions(uint256 _leaseId) external view onlyLandlordOrTenant(_leaseId) returns (Transaction[] memory) {\n        return leaseTransactions[_leaseId];\n    }\n\n    // Function to start an auction for a property\n    function startAuction(\n        uint256 _propertyId,\n        uint256 _startingPrice,\n        uint256 _durationInSeconds\n    ) external onlyPropertyOwner(_propertyId) onlyApprovedProperty(_propertyId) {\n        Property storage property = properties[_propertyId];\n        require(property.isActive, \"Property is not active\");\n        require(!property.onAuction, \"Property is already on auction\");\n        require(!property.isForSale, \"Property is already listed for sale\");\n        require(_startingPrice > 0, \"Starting price must be greater than 0\");\n        require(_durationInSeconds >= 1 hours, \"Auction duration must be at least 1 hour\");\n        require(_durationInSeconds <= 30 days, \"Auction duration cannot exceed 30 days\");\n\n        property.onAuction = true;\n        property.auctionEndTime = block.timestamp + _durationInSeconds;\n        property.highestBid = _startingPrice;\n        property.highestBidder = address(0);\n        property.auctionEnded = false;\n\n        auctions[_propertyId] = Auction({\n            propertyId: _propertyId,\n            startingPrice: _startingPrice,\n            highestBid: _startingPrice,\n            highestBidder: address(0),\n            auctionEndTime: block.timestamp + _durationInSeconds,\n            ended: false,\n            exists: true\n        });\n\n        emit AuctionStarted(_propertyId, _startingPrice, _durationInSeconds);\n    }\n\n    // Function to place a bid on a property\n    function placeBid(uint256 _propertyId) external payable nonReentrant {\n        Property storage property = properties[_propertyId];\n        require(property.onAuction, \"Property is not on auction\");\n        require(block.timestamp < property.auctionEndTime, \"Auction already ended\");\n        require(msg.value > property.highestBid, \"Bid must be higher than current highest bid\");\n        require(msg.sender != property.owner, \"Owner cannot bid on their own property\");\n\n        // If there was a previous bid, add it to pending returns\n        if (property.highestBidder != address(0)) {\n            pendingReturns[_propertyId][property.highestBidder] += property.highestBid;\n        }\n\n        property.highestBidder = msg.sender;\n        property.highestBid = msg.value;\n\n        // Update auction details\n        Auction storage auction = auctions[_propertyId];\n        auction.highestBidder = msg.sender;\n        auction.highestBid = msg.value;\n\n        emit BidPlaced(_propertyId, msg.sender, msg.value);\n    }\n\n    // Function to withdraw a bid that was outbid\n    function withdrawBid(uint256 _propertyId) external nonReentrant {\n        uint256 amount = pendingReturns[_propertyId][msg.sender];\n        require(amount > 0, \"No funds to withdraw\");\n\n        pendingReturns[_propertyId][msg.sender] = 0;\n\n        (bool success, ) = payable(msg.sender).call{value: amount}(\"\");\n        require(success, \"Transfer failed\");\n\n        emit BidWithdrawn(_propertyId, msg.sender, amount);\n    }\n\n    // Function to end an auction (can be ended early by owner)\n    function endAuction(uint256 _propertyId) external nonReentrant {\n        Property storage property = properties[_propertyId];\n        Auction storage auction = auctions[_propertyId];\n        \n        require(property.onAuction, \"No active auction\");\n        require(!property.auctionEnded, \"Auction already ended\");\n        \n        // Allow owner to end early, others must wait for auction end time\n        if (msg.sender != property.owner) {\n            require(block.timestamp >= property.auctionEndTime, \"Auction still in progress\");\n            require(msg.sender == property.highestBidder, \"Only owner or highest bidder can end auction\");\n        }\n\n        property.auctionEnded = true;\n        property.onAuction = false;\n        auction.ended = true;\n\n        if (property.highestBidder != address(0)) {\n            // Transfer ownership\n            address previousOwner = property.owner;\n            property.owner = property.highestBidder;\n\n            // Remove property from previous owner's list\n            uint256[] storage previousOwnerProperties = ownerProperties[previousOwner];\n            for (uint256 i = 0; i < previousOwnerProperties.length; i++) {\n                if (previousOwnerProperties[i] == _propertyId) {\n                    previousOwnerProperties[i] = previousOwnerProperties[previousOwnerProperties.length - 1];\n                    previousOwnerProperties.pop();\n                    break;\n                }\n            }\n\n            // Add property to new owner's list\n            ownerProperties[property.highestBidder].push(_propertyId);\n\n            // Transfer the highest bid to the previous owner\n            (bool success, ) = payable(previousOwner).call{value: property.highestBid}(\"\");\n            require(success, \"Transfer to previous owner failed\");\n\n            emit AuctionEnded(_propertyId, property.highestBidder, property.highestBid);\n        } else {\n            emit AuctionEnded(_propertyId, address(0), 0);\n        }\n    }\n\n    // Function to cancel an auction (only owner, refunds all bidders)\n    function cancelAuction(uint256 _propertyId) external nonReentrant {\n        Property storage property = properties[_propertyId];\n        Auction storage auction = auctions[_propertyId];\n        \n        require(property.onAuction, \"No active auction\");\n        require(!property.auctionEnded, \"Auction already ended\");\n        require(msg.sender == property.owner, \"Only property owner can cancel auction\");\n        \n        // Mark auction as ended/cancelled\n        property.auctionEnded = true;\n        property.onAuction = false;\n        auction.ended = true;\n        \n        uint256 totalRefunded = 0;\n        \n        // Refund the highest bidder if there is one\n        if (property.highestBidder != address(0)) {\n            uint256 highestBidAmount = property.highestBid;\n            address highestBidderAddress = property.highestBidder;\n            \n            // Clear the highest bid first to prevent reentrancy\n            property.highestBidder = address(0);\n            property.highestBid = 0;\n            auction.highestBidder = address(0);\n            auction.highestBid = 0;\n            \n            // Refund the highest bidder\n            (bool success, ) = payable(highestBidderAddress).call{value: highestBidAmount}(\"\");\n            require(success, \"Failed to refund highest bidder\");\n            \n            totalRefunded += highestBidAmount;\n        }\n        \n        // Reset property auction state\n        property.auctionEndTime = 0;\n        \n        emit AuctionCancelled(_propertyId, totalRefunded);\n    }\n\n    // View function to get auction details\n    function getAuctionDetails(uint256 _propertyId) external view returns (\n        bool onAuction,\n        uint256 auctionEndTime,\n        address highestBidder,\n        uint256 highestBid,\n        bool ended\n    ) {\n        Property memory property = properties[_propertyId];\n        return (\n            property.onAuction,\n            property.auctionEndTime,\n            property.highestBidder,\n            property.highestBid,\n            property.auctionEnded\n        );\n    }\n\n    // View function to get pending returns for a bidder\n    function getPendingReturn(uint256 _propertyId, address _bidder) external view returns (uint256) {\n        return pendingReturns[_propertyId][_bidder];\n    }\n\n    // Function to get a range of properties\n    function getProperties(uint256 start, uint256 end) external view returns (Property[] memory) {\n        require(start <= end, \"Invalid range\");\n        require(end <= propertyCounter, \"End index out of bounds\");\n        \n        uint256 size = end - start + 1;\n        Property[] memory result = new Property[](size);\n        \n        for (uint256 i = 0; i < size; i++) {\n            result[i] = properties[start + i];\n        }\n        \n        return result;\n    }\n\n    // Function for notary to approve property\n    function approveProperty(uint256 _propertyId) external onlyNotary {\n        require(_propertyId > 0 && _propertyId <= propertyCounter, \"Invalid property ID\");\n        Property storage property = properties[_propertyId];\n        require(!property.isApproved, \"Property already approved\");\n        \n        property.isApproved = true;\n        property.isActive = true;\n        propertyApprovals[_propertyId] = true;\n        \n        emit PropertyApproved(_propertyId, msg.sender);\n    }\n\n    // Function for notary to reject property\n    function rejectProperty(uint256 _propertyId) external onlyNotary {\n        require(_propertyId > 0 && _propertyId <= propertyCounter, \"Invalid property ID\");\n        Property storage property = properties[_propertyId];\n        require(!property.isApproved, \"Property already approved\");\n        \n        // Remove property from owner's list\n        uint256[] storage ownerProps = ownerProperties[property.owner];\n        for (uint i = 0; i < ownerProps.length; i++) {\n            if (ownerProps[i] == _propertyId) {\n                ownerProps[i] = ownerProps[ownerProps.length - 1];\n                ownerProps.pop();\n                break;\n            }\n        }\n        \n        delete properties[_propertyId];\n        propertyCounter--;\n        \n        emit PropertyRejected(_propertyId, msg.sender);\n    }\n\n    // Function to get pending properties for notary approval\n    function getPendingProperties() external view returns (uint256[] memory) {\n        uint256 pendingCount = 0;\n        \n        // First count pending properties\n        for (uint256 i = 1; i <= propertyCounter; i++) {\n            if (!properties[i].isApproved && properties[i].owner != address(0)) {\n                pendingCount++;\n            }\n        }\n        \n        // Create array of correct size\n        uint256[] memory pendingProperties = new uint256[](pendingCount);\n        uint256 index = 0;\n        \n        // Fill array with pending property IDs\n        for (uint256 i = 1; i <= propertyCounter; i++) {\n            if (!properties[i].isApproved && properties[i].owner != address(0)) {\n                pendingProperties[index] = i;\n                index++;\n            }\n        }\n        \n        return pendingProperties;\n    }\n\n    // Modify existing property-related functions to check for approval\n    modifier onlyApprovedProperty(uint256 _propertyId) {\n        require(properties[_propertyId].isApproved, \"Property not approved by notary\");\n        _;\n    }\n}",
  "sourcePath": "C:\\Users\\nezha\\Downloads\\smart-propert-managment-dapp\\contracts\\PropertyManagement.sol",
  "compiler": {
    "name": "solc",
    "version": "0.8.21+commit.d9974bed.Emscripten.clang"
  },
  "schemaVersion": "3.4.16",
  "updatedAt": "2025-06-10T22:06:47.409Z",
  "networkType": "ethereum",
  "devdoc": {
    "kind": "dev",
    "methods": {},
    "version": 1
  },
  "userdoc": {
    "kind": "user",
    "methods": {},
    "version": 1
  }
}